{
  "contractName": "Cashless",
  "abi": [
    {
      "inputs": [
        {
          "internalType": "bytes32",
          "name": "salt",
          "type": "bytes32"
        }
      ],
      "payable": false,
      "stateMutability": "nonpayable",
      "type": "constructor"
    },
    {
      "payable": false,
      "stateMutability": "nonpayable",
      "type": "fallback"
    },
    {
      "constant": true,
      "inputs": [],
      "name": "DOMAIN_SEPARATOR",
      "outputs": [
        {
          "internalType": "bytes32",
          "name": "",
          "type": "bytes32"
        }
      ],
      "payable": false,
      "stateMutability": "view",
      "type": "function"
    },
    {
      "constant": true,
      "inputs": [
        {
          "internalType": "bytes32",
          "name": "",
          "type": "bytes32"
        }
      ],
      "name": "aliases",
      "outputs": [
        {
          "internalType": "address",
          "name": "",
          "type": "address"
        }
      ],
      "payable": false,
      "stateMutability": "view",
      "type": "function"
    },
    {
      "constant": true,
      "inputs": [],
      "name": "flatWithdrawFee",
      "outputs": [
        {
          "internalType": "uint256",
          "name": "",
          "type": "uint256"
        }
      ],
      "payable": false,
      "stateMutability": "view",
      "type": "function"
    },
    {
      "constant": true,
      "inputs": [
        {
          "internalType": "bytes32",
          "name": "",
          "type": "bytes32"
        }
      ],
      "name": "loops",
      "outputs": [
        {
          "internalType": "bytes32",
          "name": "proposalName",
          "type": "bytes32"
        },
        {
          "internalType": "uint256",
          "name": "minFlow",
          "type": "uint256"
        },
        {
          "internalType": "uint256",
          "name": "lockTimestamp",
          "type": "uint256"
        }
      ],
      "payable": false,
      "stateMutability": "view",
      "type": "function"
    },
    {
      "constant": true,
      "inputs": [],
      "name": "minVestDuration",
      "outputs": [
        {
          "internalType": "uint256",
          "name": "",
          "type": "uint256"
        }
      ],
      "payable": false,
      "stateMutability": "view",
      "type": "function"
    },
    {
      "constant": true,
      "inputs": [],
      "name": "networkAdmin",
      "outputs": [
        {
          "internalType": "address payable",
          "name": "",
          "type": "address"
        }
      ],
      "payable": false,
      "stateMutability": "view",
      "type": "function"
    },
    {
      "constant": true,
      "inputs": [
        {
          "internalType": "bytes32",
          "name": "",
          "type": "bytes32"
        }
      ],
      "name": "pendingAliases",
      "outputs": [
        {
          "internalType": "address",
          "name": "",
          "type": "address"
        }
      ],
      "payable": false,
      "stateMutability": "view",
      "type": "function"
    },
    {
      "constant": true,
      "inputs": [],
      "name": "percentWithdrawFee",
      "outputs": [
        {
          "internalType": "uint256",
          "name": "",
          "type": "uint256"
        }
      ],
      "payable": false,
      "stateMutability": "view",
      "type": "function"
    },
    {
      "constant": true,
      "inputs": [
        {
          "internalType": "address",
          "name": "",
          "type": "address"
        }
      ],
      "name": "reserves",
      "outputs": [
        {
          "internalType": "address",
          "name": "owner",
          "type": "address"
        },
        {
          "internalType": "uint256",
          "name": "balance",
          "type": "uint256"
        },
        {
          "internalType": "uint256",
          "name": "grossClaimed",
          "type": "uint256"
        },
        {
          "internalType": "uint256",
          "name": "grossDefaulted",
          "type": "uint256"
        },
        {
          "internalType": "uint256",
          "name": "grossPaid",
          "type": "uint256"
        }
      ],
      "payable": false,
      "stateMutability": "view",
      "type": "function"
    },
    {
      "constant": false,
      "inputs": [
        {
          "internalType": "address",
          "name": "reservesAddress",
          "type": "address"
        },
        {
          "internalType": "uint8",
          "name": "v",
          "type": "uint8"
        },
        {
          "internalType": "bytes32",
          "name": "r",
          "type": "bytes32"
        },
        {
          "internalType": "bytes32",
          "name": "s",
          "type": "bytes32"
        }
      ],
      "name": "createReserves",
      "outputs": [],
      "payable": false,
      "stateMutability": "nonpayable",
      "type": "function"
    },
    {
      "constant": false,
      "inputs": [
        {
          "internalType": "address",
          "name": "accountOwner",
          "type": "address"
        }
      ],
      "name": "fundReserves",
      "outputs": [],
      "payable": true,
      "stateMutability": "payable",
      "type": "function"
    },
    {
      "constant": false,
      "inputs": [
        {
          "internalType": "uint256",
          "name": "amount",
          "type": "uint256"
        },
        {
          "internalType": "address payable",
          "name": "targetReceiver",
          "type": "address"
        },
        {
          "internalType": "uint256",
          "name": "fee",
          "type": "uint256"
        }
      ],
      "name": "withdrawReserves",
      "outputs": [],
      "payable": false,
      "stateMutability": "nonpayable",
      "type": "function"
    },
    {
      "constant": false,
      "inputs": [
        {
          "internalType": "bytes32",
          "name": "newAlias",
          "type": "bytes32"
        }
      ],
      "name": "addAlias",
      "outputs": [],
      "payable": false,
      "stateMutability": "nonpayable",
      "type": "function"
    },
    {
      "constant": false,
      "inputs": [
        {
          "internalType": "bytes32",
          "name": "existingAlias",
          "type": "bytes32"
        }
      ],
      "name": "deleteAlias",
      "outputs": [],
      "payable": false,
      "stateMutability": "nonpayable",
      "type": "function"
    },
    {
      "constant": false,
      "inputs": [
        {
          "internalType": "bytes32",
          "name": "newAlias",
          "type": "bytes32"
        }
      ],
      "name": "addPendingAlias",
      "outputs": [],
      "payable": false,
      "stateMutability": "nonpayable",
      "type": "function"
    },
    {
      "constant": false,
      "inputs": [
        {
          "internalType": "bytes32",
          "name": "newAlias",
          "type": "bytes32"
        },
        {
          "internalType": "address",
          "name": "addr",
          "type": "address"
        }
      ],
      "name": "commitPendingAlias",
      "outputs": [],
      "payable": false,
      "stateMutability": "nonpayable",
      "type": "function"
    },
    {
      "constant": false,
      "inputs": [
        {
          "internalType": "bytes",
          "name": "claimData",
          "type": "bytes"
        },
        {
          "internalType": "uint8[2]",
          "name": "sigsV",
          "type": "uint8[2]"
        },
        {
          "internalType": "bytes32[2]",
          "name": "sigsR",
          "type": "bytes32[2]"
        },
        {
          "internalType": "bytes32[2]",
          "name": "sigsS",
          "type": "bytes32[2]"
        }
      ],
      "name": "proposeSettlement",
      "outputs": [],
      "payable": false,
      "stateMutability": "nonpayable",
      "type": "function"
    },
    {
      "constant": false,
      "inputs": [
        {
          "internalType": "bytes",
          "name": "claimData",
          "type": "bytes"
        },
        {
          "internalType": "uint8[2]",
          "name": "sigsV",
          "type": "uint8[2]"
        },
        {
          "internalType": "bytes32[2]",
          "name": "sigsR",
          "type": "bytes32[2]"
        },
        {
          "internalType": "bytes32[2]",
          "name": "sigsS",
          "type": "bytes32[2]"
        }
      ],
      "name": "disputeSettlement",
      "outputs": [],
      "payable": false,
      "stateMutability": "nonpayable",
      "type": "function"
    },
    {
      "constant": false,
      "inputs": [
        {
          "internalType": "address",
          "name": "accountOwner",
          "type": "address"
        },
        {
          "internalType": "bytes32",
          "name": "claimID",
          "type": "bytes32"
        }
      ],
      "name": "redeemClaim",
      "outputs": [],
      "payable": false,
      "stateMutability": "nonpayable",
      "type": "function"
    },
    {
      "constant": false,
      "inputs": [
        {
          "internalType": "bytes32",
          "name": "proposalName",
          "type": "bytes32"
        },
        {
          "internalType": "address[]",
          "name": "loop",
          "type": "address[]"
        },
        {
          "internalType": "uint256",
          "name": "minFlow",
          "type": "uint256"
        },
        {
          "internalType": "uint256",
          "name": "lockTimestamp",
          "type": "uint256"
        }
      ],
      "name": "proposeLoop",
      "outputs": [],
      "payable": false,
      "stateMutability": "nonpayable",
      "type": "function"
    },
    {
      "constant": false,
      "inputs": [
        {
          "internalType": "bytes32",
          "name": "loopID",
          "type": "bytes32"
        },
        {
          "internalType": "bytes",
          "name": "encodedPriorClaim",
          "type": "bytes"
        },
        {
          "internalType": "bytes",
          "name": "encodedClaim",
          "type": "bytes"
        }
      ],
      "name": "commitLoopClaim",
      "outputs": [],
      "payable": false,
      "stateMutability": "nonpayable",
      "type": "function"
    },
    {
      "constant": true,
      "inputs": [
        {
          "internalType": "bytes",
          "name": "claimData",
          "type": "bytes"
        },
        {
          "internalType": "uint8",
          "name": "v",
          "type": "uint8"
        },
        {
          "internalType": "bytes32",
          "name": "r",
          "type": "bytes32"
        },
        {
          "internalType": "bytes32",
          "name": "s",
          "type": "bytes32"
        },
        {
          "internalType": "bool",
          "name": "isOwner",
          "type": "bool"
        }
      ],
      "name": "verifyClaimSig",
      "outputs": [
        {
          "internalType": "bool",
          "name": "",
          "type": "bool"
        }
      ],
      "payable": false,
      "stateMutability": "view",
      "type": "function"
    },
    {
      "constant": true,
      "inputs": [
        {
          "internalType": "address",
          "name": "accountOwner",
          "type": "address"
        },
        {
          "internalType": "bytes32",
          "name": "claimID",
          "type": "bytes32"
        }
      ],
      "name": "getAdjustedClaimAmount",
      "outputs": [
        {
          "internalType": "uint256",
          "name": "",
          "type": "uint256"
        }
      ],
      "payable": false,
      "stateMutability": "view",
      "type": "function"
    },
    {
      "constant": true,
      "inputs": [
        {
          "internalType": "address",
          "name": "accountOwner",
          "type": "address"
        }
      ],
      "name": "getClaimIDs",
      "outputs": [
        {
          "internalType": "bytes32[]",
          "name": "",
          "type": "bytes32[]"
        }
      ],
      "payable": false,
      "stateMutability": "view",
      "type": "function"
    },
    {
      "constant": true,
      "inputs": [
        {
          "internalType": "address",
          "name": "accountOwner",
          "type": "address"
        },
        {
          "internalType": "bytes32",
          "name": "claimID",
          "type": "bytes32"
        },
        {
          "internalType": "uint256",
          "name": "index",
          "type": "uint256"
        }
      ],
      "name": "getReservesClaim",
      "outputs": [
        {
          "internalType": "bytes",
          "name": "",
          "type": "bytes"
        }
      ],
      "payable": false,
      "stateMutability": "view",
      "type": "function"
    },
    {
      "constant": true,
      "inputs": [
        {
          "internalType": "address",
          "name": "accountOwner",
          "type": "address"
        },
        {
          "internalType": "bytes32",
          "name": "claimID",
          "type": "bytes32"
        }
      ],
      "name": "getReservesSettlement",
      "outputs": [
        {
          "internalType": "uint256",
          "name": "",
          "type": "uint256"
        },
        {
          "internalType": "uint256",
          "name": "",
          "type": "uint256"
        },
        {
          "internalType": "bool",
          "name": "",
          "type": "bool"
        }
      ],
      "payable": false,
      "stateMutability": "view",
      "type": "function"
    },
    {
      "constant": true,
      "inputs": [
        {
          "internalType": "bytes32",
          "name": "loopID",
          "type": "bytes32"
        }
      ],
      "name": "getLoopStatus",
      "outputs": [
        {
          "internalType": "address[]",
          "name": "",
          "type": "address[]"
        },
        {
          "internalType": "address[]",
          "name": "",
          "type": "address[]"
        }
      ],
      "payable": false,
      "stateMutability": "view",
      "type": "function"
    }
  ],
  "bytecode": "0x608060405262093a806001556298968060025560016003553480156200002457600080fd5b506040516200610438038062006104833981810160405260208110156200004a57600080fd5b81019080805190602001909291905050507f0eaa6c88c44fbde2113ba7421deef795c18fc5a553a55b2ba4d237269e1c266260001b3082604051602001808481526020018373ffffffffffffffffffffffffffffffffffffffff1673ffffffffffffffffffffffffffffffffffffffff1660601b815260140182815260200193505050506040516020818303038152906040528051906020012060008190555033600460006101000a81548173ffffffffffffffffffffffffffffffffffffffff021916908373ffffffffffffffffffffffffffffffffffffffff16021790555050615fc8806200013c6000396000f3fe60806040526004361061019c5760003560e01c806360cf47c1116100ec578063acc663d21161008a578063c4d309cd11610064578063c4d309cd14610ec0578063ca3feb1814610f98578063d66bd52414610fc3578063e7511873146110705761019c565b8063acc663d214610dd0578063b20ad10414610dfb578063ba53960214610e7c5761019c565b806374b37e4e116100c657806374b37e4e14610a9b578063852b5ed514610b0d5780638ceec2cb14610c1a578063a29742ab14610da55761019c565b806360cf47c11461086657806367717402146109f15780637351cfea14610a2c5761019c565b8063279f03431161015957806344a07c1b1161013357806344a07c1b1461060a5780634cffa16a146107735780635728e161146107ae5780635c99903d1461080b5761019c565b8063279f0343146104a55780633644e5151461058857806337812651146105b35761019c565b8063075e42a9146101ab5780631641a744146102895780631a3a0f4f1461032f5780631c2b90a6146103945780631ebe89c6146103cf57806320664c7b1461044a575b3480156101a857600080fd5b50005b3480156101b757600080fd5b5061020e600480360360608110156101ce57600080fd5b81019080803573ffffffffffffffffffffffffffffffffffffffff16906020019092919080359060200190929190803590602001909291905050506110eb565b6040518080602001828103825283818151815260200191508051906020019080838360005b8381101561024e578082015181840152602081019050610233565b50505050905090810190601f16801561027b5780820380516001836020036101000a031916815260200191505b509250505060405180910390f35b34801561029557600080fd5b506102d8600480360360208110156102ac57600080fd5b81019080803573ffffffffffffffffffffffffffffffffffffffff1690602001909291905050506111fe565b6040518080602001828103825283818151815260200191508051906020019060200280838360005b8381101561031b578082015181840152602081019050610300565b505050509050019250505060405180910390f35b34801561033b57600080fd5b506103926004803603606081101561035257600080fd5b8101908080359060200190929190803573ffffffffffffffffffffffffffffffffffffffff16906020019092919080359060200190929190505050611298565b005b3480156103a057600080fd5b506103cd600480360360208110156103b757600080fd5b8101908080359060200190929190505050611562565b005b3480156103db57600080fd5b50610408600480360360208110156103f257600080fd5b8101908080359060200190929190505050611729565b604051808273ffffffffffffffffffffffffffffffffffffffff1673ffffffffffffffffffffffffffffffffffffffff16815260200191505060405180910390f35b34801561045657600080fd5b506104a36004803603604081101561046d57600080fd5b81019080803573ffffffffffffffffffffffffffffffffffffffff1690602001909291908035906020019092919050505061175c565b005b3480156104b157600080fd5b50610586600480360360808110156104c857600080fd5b8101908080359060200190929190803590602001906401000000008111156104ef57600080fd5b82018360208201111561050157600080fd5b8035906020019184602083028401116401000000008311171561052357600080fd5b919080806020026020016040519081016040528093929190818152602001838360200280828437600081840152601f19601f8201169050808301925050505050505091929192908035906020019092919080359060200190929190505050611c16565b005b34801561059457600080fd5b5061059d611cdb565b6040518082815260200191505060405180910390f35b3480156105bf57600080fd5b506105c8611ce1565b604051808273ffffffffffffffffffffffffffffffffffffffff1673ffffffffffffffffffffffffffffffffffffffff16815260200191505060405180910390f35b34801561061657600080fd5b506107716004803603606081101561062d57600080fd5b81019080803590602001909291908035906020019064010000000081111561065457600080fd5b82018360208201111561066657600080fd5b8035906020019184600183028401116401000000008311171561068857600080fd5b91908080601f016020809104026020016040519081016040528093929190818152602001838380828437600081840152601f19601f820116905080830192505050505050509192919290803590602001906401000000008111156106eb57600080fd5b8201836020820111156106fd57600080fd5b8035906020019184600183028401116401000000008311171561071f57600080fd5b91908080601f016020809104026020016040519081016040528093929190818152602001838380828437600081840152601f19601f820116905080830192505050505050509192919290505050611d07565b005b34801561077f57600080fd5b506107ac6004803603602081101561079657600080fd5b810190808035906020019092919050505061223d565b005b3480156107ba57600080fd5b506107e7600480360360208110156107d157600080fd5b8101908080359060200190929190505050612404565b60405180848152602001838152602001828152602001935050505060405180910390f35b34801561081757600080fd5b506108646004803603604081101561082e57600080fd5b8101908080359060200190929190803573ffffffffffffffffffffffffffffffffffffffff16906020019092919050505061242e565b005b34801561087257600080fd5b506109ef600480360360e081101561088957600080fd5b81019080803590602001906401000000008111156108a657600080fd5b8201836020820111156108b857600080fd5b803590602001918460018302840111640100000000831117156108da57600080fd5b91908080601f016020809104026020016040519081016040528093929190818152602001838380828437600081840152601f19601f82011690508083019250505050505050919291929080604001906002806020026040519081016040528092919082600260200280828437600081840152601f19601f820116905080830192505050505050919291929080604001906002806020026040519081016040528092919082600260200280828437600081840152601f19601f820116905080830192505050505050919291929080604001906002806020026040519081016040528092919082600260200280828437600081840152601f19601f82011690508083019250505050505091929192905050506125dc565b005b3480156109fd57600080fd5b50610a2a60048036036020811015610a1457600080fd5b81019080803590602001909291905050506128ea565b005b348015610a3857600080fd5b50610a8560048036036040811015610a4f57600080fd5b81019080803573ffffffffffffffffffffffffffffffffffffffff169060200190929190803590602001909291905050506129ab565b6040518082815260200191505060405180910390f35b348015610aa757600080fd5b50610b0b60048036036080811015610abe57600080fd5b81019080803573ffffffffffffffffffffffffffffffffffffffff169060200190929190803560ff1690602001909291908035906020019092919080359060200190929190505050612dc8565b005b348015610b1957600080fd5b50610c00600480360360a0811015610b3057600080fd5b8101908080359060200190640100000000811115610b4d57600080fd5b820183602082011115610b5f57600080fd5b80359060200191846001830284011164010000000083111715610b8157600080fd5b91908080601f016020809104026020016040519081016040528093929190818152602001838380828437600081840152601f19601f820116905080830192505050505050509192919290803560ff1690602001909291908035906020019092919080359060200190929190803515159060200190929190505050613149565b604051808215151515815260200191505060405180910390f35b348015610c2657600080fd5b50610da3600480360360e0811015610c3d57600080fd5b8101908080359060200190640100000000811115610c5a57600080fd5b820183602082011115610c6c57600080fd5b80359060200191846001830284011164010000000083111715610c8e57600080fd5b91908080601f016020809104026020016040519081016040528093929190818152602001838380828437600081840152601f19601f82011690508083019250505050505050919291929080604001906002806020026040519081016040528092919082600260200280828437600081840152601f19601f820116905080830192505050505050919291929080604001906002806020026040519081016040528092919082600260200280828437600081840152601f19601f820116905080830192505050505050919291929080604001906002806020026040519081016040528092919082600260200280828437600081840152601f19601f8201169050808301925050505050509192919290505050613467565b005b348015610db157600080fd5b50610dba61374b565b6040518082815260200191505060405180910390f35b348015610ddc57600080fd5b50610de5613751565b6040518082815260200191505060405180910390f35b348015610e0757600080fd5b50610e5460048036036040811015610e1e57600080fd5b81019080803573ffffffffffffffffffffffffffffffffffffffff16906020019092919080359060200190929190505050613757565b6040518084815260200183815260200182151515158152602001935050505060405180910390f35b610ebe60048036036020811015610e9257600080fd5b81019080803573ffffffffffffffffffffffffffffffffffffffff16906020019092919050505061387b565b005b348015610ecc57600080fd5b50610ef960048036036020811015610ee357600080fd5b81019080803590602001909291905050506139f2565b604051808060200180602001838103835285818151815260200191508051906020019060200280838360005b83811015610f40578082015181840152602081019050610f25565b50505050905001838103825284818151815260200191508051906020019060200280838360005b83811015610f82578082015181840152602081019050610f67565b5050505090500194505050505060405180910390f35b348015610fa457600080fd5b50610fad613b3a565b6040518082815260200191505060405180910390f35b348015610fcf57600080fd5b5061101260048036036020811015610fe657600080fd5b81019080803573ffffffffffffffffffffffffffffffffffffffff169060200190929190505050613b40565b604051808673ffffffffffffffffffffffffffffffffffffffff1673ffffffffffffffffffffffffffffffffffffffff1681526020018581526020018481526020018381526020018281526020019550505050505060405180910390f35b34801561107c57600080fd5b506110a96004803603602081101561109357600080fd5b8101908080359060200190929190505050613b96565b604051808273ffffffffffffffffffffffffffffffffffffffff1673ffffffffffffffffffffffffffffffffffffffff16815260200191505060405180910390f35b6060600560008573ffffffffffffffffffffffffffffffffffffffff1673ffffffffffffffffffffffffffffffffffffffff1681526020019081526020016000206003016000848152602001908152602001600020828154811061114b57fe5b90600052602060002090600602016000018054600181600116156101000203166002900480601f0160208091040260200160405190810160405280929190818152602001828054600181600116156101000203166002900480156111f05780601f106111c5576101008083540402835291602001916111f0565b820191906000526020600020905b8154815290600101906020018083116111d357829003601f168201915b505050505090509392505050565b6060600560008373ffffffffffffffffffffffffffffffffffffffff1673ffffffffffffffffffffffffffffffffffffffff16815260200190815260200160002060020180548060200260200160405190810160405280929190818152602001828054801561128c57602002820191906000526020600020905b815481526020019060010190808311611278575b50505050509050919050565b3373ffffffffffffffffffffffffffffffffffffffff16600560003373ffffffffffffffffffffffffffffffffffffffff1673ffffffffffffffffffffffffffffffffffffffff16815260200190815260200160002060000160009054906101000a900473ffffffffffffffffffffffffffffffffffffffff1673ffffffffffffffffffffffffffffffffffffffff161461133257600080fd5b6000831161133f57600080fd5b600061136261135a61135386600354613bc9565b6064613c03565b600254613c29565b90508082101561137157600080fd5b600061137d8584613c29565b90506113cb600560003373ffffffffffffffffffffffffffffffffffffffff1673ffffffffffffffffffffffffffffffffffffffff1681526020019081526020016000206004015482613c29565b600560003373ffffffffffffffffffffffffffffffffffffffff1673ffffffffffffffffffffffffffffffffffffffff16815260200190815260200160002060010154101561141957600080fd5b611465600560003373ffffffffffffffffffffffffffffffffffffffff1673ffffffffffffffffffffffffffffffffffffffff1681526020019081526020016000206001015482613c48565b600560003373ffffffffffffffffffffffffffffffffffffffff1673ffffffffffffffffffffffffffffffffffffffff168152602001908152602001600020600101819055508373ffffffffffffffffffffffffffffffffffffffff166108fc869081150290604051600060405180830381858888f193505050501580156114f1573d6000803e3d6000fd5b50600460009054906101000a900473ffffffffffffffffffffffffffffffffffffffff1673ffffffffffffffffffffffffffffffffffffffff166108fc849081150290604051600060405180830381858888f1935050505015801561155a573d6000803e3d6000fd5b505050505050565b3373ffffffffffffffffffffffffffffffffffffffff16600560003373ffffffffffffffffffffffffffffffffffffffff1673ffffffffffffffffffffffffffffffffffffffff16815260200190815260200160002060000160009054906101000a900473ffffffffffffffffffffffffffffffffffffffff1673ffffffffffffffffffffffffffffffffffffffff16146115fc57600080fd5b600073ffffffffffffffffffffffffffffffffffffffff166006600083815260200190815260200160002060009054906101000a900473ffffffffffffffffffffffffffffffffffffffff1673ffffffffffffffffffffffffffffffffffffffff161461166857600080fd5b600073ffffffffffffffffffffffffffffffffffffffff166007600083815260200190815260200160002060009054906101000a900473ffffffffffffffffffffffffffffffffffffffff1673ffffffffffffffffffffffffffffffffffffffff16146116d457600080fd5b336006600083815260200190815260200160002060006101000a81548173ffffffffffffffffffffffffffffffffffffffff021916908373ffffffffffffffffffffffffffffffffffffffff16021790555050565b60076020528060005260406000206000915054906101000a900473ffffffffffffffffffffffffffffffffffffffff1681565b60001515600560008473ffffffffffffffffffffffffffffffffffffffff1673ffffffffffffffffffffffffffffffffffffffff168152602001908152602001600020600801600083815260200190815260200160002060020160009054906101000a900460ff161515146117d057600080fd5b6000600560008473ffffffffffffffffffffffffffffffffffffffff1673ffffffffffffffffffffffffffffffffffffffff168152602001908152602001600020600701600083815260200190815260200160002060016002811061183157fe5b01541161183d57600080fd5b6000600560008473ffffffffffffffffffffffffffffffffffffffff1673ffffffffffffffffffffffffffffffffffffffff168152602001908152602001600020600301600083815260200190815260200160002080549050116118a057600080fd5b60006001600560008573ffffffffffffffffffffffffffffffffffffffff1673ffffffffffffffffffffffffffffffffffffffff168152602001908152602001600020600301600084815260200190815260200160002080549050039050611906615bbd565b61190e615bdf565b611916615c01565b6000600560008873ffffffffffffffffffffffffffffffffffffffff1673ffffffffffffffffffffffffffffffffffffffff1681526020019081526020016000206003016000878152602001908152602001600020858154811061197657fe5b90600052602060002090600602016000018054600181600116156101000203166002900480601f016020809104026020016040519081016040528092919081815260200182805460018160011615610100020316600290048015611a1b5780601f106119f057610100808354040283529160200191611a1b565b820191906000526020600020905b8154815290600101906020018083116119fe57829003601f168201915b5050505050806020019051610140811015611a3557600080fd5b81019080919082608001919082604001919082606001805190602001909291905050509350935093509350611a68615c23565b60405180610140016040528084600060038110611a8157fe5b6020020151815260200185600060028110611a9857fe5b602002015173ffffffffffffffffffffffffffffffffffffffff16815260200185600160028110611ac557fe5b602002015173ffffffffffffffffffffffffffffffffffffffff16815260200184600160038110611af257fe5b602002015181526020018360ff16815260200186600060048110611b1257fe5b6020020151815260200186600160048110611b2957fe5b6020020151815260200186600260048110611b4057fe5b6020020151815260200186600360048110611b5757fe5b6020020151815260200184600260038110611b6e57fe5b6020020151815250905042611be7600560008b73ffffffffffffffffffffffffffffffffffffffff1673ffffffffffffffffffffffffffffffffffffffff16815260200190815260200160002060070160008a8152602001908152602001600020600160028110611bdb57fe5b01548360c00151613c29565b10611bf157600080fd5b60008160a0015111611c0257600080fd5b611c0c8888613c68565b5050505050505050565b600283511015611c2557600080fd5b6000611c31858561491f565b9050600080600860008481526020019081526020016000206000015414611c5757600080fd5b85600860008481526020019081526020016000206000018190555084600860008481526020019081526020016000206001019080519060200190611c9c929190615cae565b50826008600084815260200190815260200160002060030181905550836008600084815260200190815260200160002060020181905550505050505050565b60005481565b600460009054906101000a900473ffffffffffffffffffffffffffffffffffffffff1681565b600080611d15858585614985565b91509150600080905060008090505b6008600088815260200190815260200160002060010180549050811015611f0e578373ffffffffffffffffffffffffffffffffffffffff16600860008981526020019081526020016000206001018281548110611d7d57fe5b9060005260206000200160009054906101000a900473ffffffffffffffffffffffffffffffffffffffff1673ffffffffffffffffffffffffffffffffffffffff161415611f01576001600860008981526020019081526020016000206001018054905003811415611e71578273ffffffffffffffffffffffffffffffffffffffff1660086000898152602001908152602001600020600101600081548110611e2157fe5b9060005260206000200160009054906101000a900473ffffffffffffffffffffffffffffffffffffffff1673ffffffffffffffffffffffffffffffffffffffff1614611e6c57600080fd5b611ef8565b8273ffffffffffffffffffffffffffffffffffffffff16600860008981526020019081526020016000206001016001830181548110611eac57fe5b9060005260206000200160009054906101000a900473ffffffffffffffffffffffffffffffffffffffff1673ffffffffffffffffffffffffffffffffffffffff1614611ef757600080fd5b5b60019150611f0e565b8080600101915050611d24565b506001151581151514611f2057600080fd5b60008090505b6008600088815260200190815260200160002060050180549050811015611fd8578373ffffffffffffffffffffffffffffffffffffffff16600860008981526020019081526020016000206005018281548110611f7f57fe5b9060005260206000200160009054906101000a900473ffffffffffffffffffffffffffffffffffffffff1673ffffffffffffffffffffffffffffffffffffffff161415611fcb57600080fd5b8080600101915050611f26565b506060611fe3615d38565b611feb615d5a565b611ff3615d5a565b8780602001905160e081101561200857600080fd5b810190808051604051939291908464010000000082111561202857600080fd5b8382019150602082018581111561203e57600080fd5b825186600182028301116401000000008211171561205b57600080fd5b8083526020830192505050908051906020019080838360005b8381101561208f578082015181840152602081019050612074565b50505050905090810190601f1680156120bc5780820380516001836020036101000a031916815260200191505b50604052602001919082604001919082604001919050509350935093509350604051806080016040528085815260200184815260200183815260200182815250600860008c815260200190815260200160002060040160008973ffffffffffffffffffffffffffffffffffffffff1673ffffffffffffffffffffffffffffffffffffffff168152602001908152602001600020600082015181600001908051906020019061216b929190615d7c565b50602082015181600101906002612183929190615dfc565b5060408201518160020190600261219b929190615e96565b506060820151816004019060026121b3929190615e96565b50905050600860008b81526020019081526020016000206005018790806001815401808255809150509060018203906000526020600020016000909192909190916101000a81548173ffffffffffffffffffffffffffffffffffffffff021916908373ffffffffffffffffffffffffffffffffffffffff1602179055505050505050505050505050565b3373ffffffffffffffffffffffffffffffffffffffff16600560003373ffffffffffffffffffffffffffffffffffffffff1673ffffffffffffffffffffffffffffffffffffffff16815260200190815260200160002060000160009054906101000a900473ffffffffffffffffffffffffffffffffffffffff1673ffffffffffffffffffffffffffffffffffffffff16146122d757600080fd5b600073ffffffffffffffffffffffffffffffffffffffff166006600083815260200190815260200160002060009054906101000a900473ffffffffffffffffffffffffffffffffffffffff1673ffffffffffffffffffffffffffffffffffffffff161461234357600080fd5b600073ffffffffffffffffffffffffffffffffffffffff166007600083815260200190815260200160002060009054906101000a900473ffffffffffffffffffffffffffffffffffffffff1673ffffffffffffffffffffffffffffffffffffffff16146123af57600080fd5b336007600083815260200190815260200160002060006101000a81548173ffffffffffffffffffffffffffffffffffffffff021916908373ffffffffffffffffffffffffffffffffffffffff16021790555050565b60086020528060005260406000206000915090508060000154908060020154908060030154905083565b3373ffffffffffffffffffffffffffffffffffffffff166007600084815260200190815260200160002060009054906101000a900473ffffffffffffffffffffffffffffffffffffffff1673ffffffffffffffffffffffffffffffffffffffff161461249957600080fd5b8073ffffffffffffffffffffffffffffffffffffffff16600560008373ffffffffffffffffffffffffffffffffffffffff1673ffffffffffffffffffffffffffffffffffffffff16815260200190815260200160002060000160009054906101000a900473ffffffffffffffffffffffffffffffffffffffff1673ffffffffffffffffffffffffffffffffffffffff161461253357600080fd5b60006007600084815260200190815260200160002060006101000a81548173ffffffffffffffffffffffffffffffffffffffff021916908373ffffffffffffffffffffffffffffffffffffffff160217905550806006600084815260200190815260200160002060006101000a81548173ffffffffffffffffffffffffffffffffffffffff021916908373ffffffffffffffffffffffffffffffffffffffff1602179055505050565b60008060006125ef878787876000614cf5565b925092509250600560008473ffffffffffffffffffffffffffffffffffffffff1673ffffffffffffffffffffffffffffffffffffffff168152602001908152602001600020600201829080600181540180825580915050906001820390600052602060002001600090919290919091505550600560008473ffffffffffffffffffffffffffffffffffffffff1673ffffffffffffffffffffffffffffffffffffffff168152602001908152602001600020600301600083815260200190815260200160002060405180608001604052808981526020018881526020018781526020018681525090806001815401808255809150509060018203906000526020600020906006020160009091929091909150600082015181600001908051906020019061271c929190615d7c565b50602082015181600101906002612734929190615dfc565b5060408201518160020190600261274c929190615e96565b50606082015181600401906002612764929190615e96565b5050505042600560008573ffffffffffffffffffffffffffffffffffffffff1673ffffffffffffffffffffffffffffffffffffffff16815260200190815260200160002060070160008481526020019081526020016000206000600281106127c857fe5b018190555042600560008573ffffffffffffffffffffffffffffffffffffffff1673ffffffffffffffffffffffffffffffffffffffff168152602001908152602001600020600701600084815260200190815260200160002060016002811061282d57fe5b0181905550612887600560008573ffffffffffffffffffffffffffffffffffffffff1673ffffffffffffffffffffffffffffffffffffffff1681526020019081526020016000206004015461288285856129ab565b613c29565b600560008573ffffffffffffffffffffffffffffffffffffffff1673ffffffffffffffffffffffffffffffffffffffff1681526020019081526020016000206004018190555060008114156128e1576128e08383613c68565b5b50505050505050565b3373ffffffffffffffffffffffffffffffffffffffff166006600083815260200190815260200160002060009054906101000a900473ffffffffffffffffffffffffffffffffffffffff1673ffffffffffffffffffffffffffffffffffffffff161461295557600080fd5b60006006600083815260200190815260200160002060006101000a81548173ffffffffffffffffffffffffffffffffffffffff021916908373ffffffffffffffffffffffffffffffffffffffff16021790555050565b600080600560008573ffffffffffffffffffffffffffffffffffffffff1673ffffffffffffffffffffffffffffffffffffffff16815260200190815260200160002060030160008481526020019081526020016000208054905011612a0f57600080fd5b60006001600560008673ffffffffffffffffffffffffffffffffffffffff1673ffffffffffffffffffffffffffffffffffffffff168152602001908152602001600020600301600085815260200190815260200160002080549050039050612a75615bbd565b612a7d615bdf565b612a85615c01565b6000600560008973ffffffffffffffffffffffffffffffffffffffff1673ffffffffffffffffffffffffffffffffffffffff16815260200190815260200160002060030160008881526020019081526020016000208581548110612ae557fe5b90600052602060002090600602016000018054600181600116156101000203166002900480601f016020809104026020016040519081016040528092919081815260200182805460018160011615610100020316600290048015612b8a5780601f10612b5f57610100808354040283529160200191612b8a565b820191906000526020600020905b815481529060010190602001808311612b6d57829003601f168201915b5050505050806020019051610140811015612ba457600080fd5b81019080919082608001919082604001919082606001805190602001909291905050509350935093509350612bd7615c23565b60405180610140016040528084600060038110612bf057fe5b6020020151815260200185600060028110612c0757fe5b602002015173ffffffffffffffffffffffffffffffffffffffff16815260200185600160028110612c3457fe5b602002015173ffffffffffffffffffffffffffffffffffffffff16815260200184600160038110612c6157fe5b602002015181526020018360ff16815260200186600060048110612c8157fe5b6020020151815260200186600160048110612c9857fe5b6020020151815260200186600260048110612caf57fe5b6020020151815260200186600360048110612cc657fe5b6020020151815260200184600260038110612cdd57fe5b602002015181525090506000612d616064612d5c600560008e73ffffffffffffffffffffffffffffffffffffffff1673ffffffffffffffffffffffffffffffffffffffff16815260200190815260200160002060070160008d8152602001908152602001600020600060028110612d5057fe5b01548560e00151613c48565b613bc9565b90506000612d788361010001518460e00151613c48565b90506000612d868383613c03565b9050612db7612db0612d9d60648760a00151613bc9565b612dab848860a00151613bc9565b613c48565b6064613c03565b995050505050505050505092915050565b6000612e2185604051602001808273ffffffffffffffffffffffffffffffffffffffff1673ffffffffffffffffffffffffffffffffffffffff1681526020019150506040516020818303038152906040526000546155f4565b9050600085604051602001808273ffffffffffffffffffffffffffffffffffffffff1673ffffffffffffffffffffffffffffffffffffffff168152602001915050604051602081830303815290604052805190602001209050600073ffffffffffffffffffffffffffffffffffffffff166006600083815260200190815260200160002060009054906101000a900473ffffffffffffffffffffffffffffffffffffffff1673ffffffffffffffffffffffffffffffffffffffff1614612ee657600080fd5b6000600560008873ffffffffffffffffffffffffffffffffffffffff1673ffffffffffffffffffffffffffffffffffffffff1681526020019081526020016000206001015414612f3557600080fd5b600073ffffffffffffffffffffffffffffffffffffffff16600560008873ffffffffffffffffffffffffffffffffffffffff1673ffffffffffffffffffffffffffffffffffffffff16815260200190815260200160002060000160009054906101000a900473ffffffffffffffffffffffffffffffffffffffff1673ffffffffffffffffffffffffffffffffffffffff1614612fd057600080fd5b8573ffffffffffffffffffffffffffffffffffffffff1660018387878760405160008152602001604052604051808581526020018460ff1660ff1681526020018381526020018281526020019450505050506020604051602081039080840390855afa158015613044573d6000803e3d6000fd5b5050506020604051035173ffffffffffffffffffffffffffffffffffffffff161461306e57600080fd5b856006600083815260200190815260200160002060006101000a81548173ffffffffffffffffffffffffffffffffffffffff021916908373ffffffffffffffffffffffffffffffffffffffff16021790555085600560008873ffffffffffffffffffffffffffffffffffffffff1673ffffffffffffffffffffffffffffffffffffffff16815260200190815260200160002060000160006101000a81548173ffffffffffffffffffffffffffffffffffffffff021916908373ffffffffffffffffffffffffffffffffffffffff160217905550505050505050565b6000613153615bbd565b61315b615bdf565b613163615c01565b60008980602001905161014081101561317b57600080fd5b810190809190826080019190826040019190826060018051906020019092919050505093509350935093506131ae615c23565b604051806101400160405280846000600381106131c757fe5b60200201518152602001856000600281106131de57fe5b602002015173ffffffffffffffffffffffffffffffffffffffff1681526020018560016002811061320b57fe5b602002015173ffffffffffffffffffffffffffffffffffffffff1681526020018460016003811061323857fe5b602002015181526020018360ff1681526020018660006004811061325857fe5b602002015181526020018660016004811061326f57fe5b602002015181526020018660026004811061328657fe5b602002015181526020018660036004811061329d57fe5b60200201518152602001846002600381106132b457fe5b60200201518152509050806080015160ff166000106132db5760009550505050505061345e565b6001546132f18261010001518360e00151613c48565b10156133055760009550505050505061345e565b60006133138c6000546155f4565b90506000881561332957826020015190506133a9565b826040015173ffffffffffffffffffffffffffffffffffffffff16600073ffffffffffffffffffffffffffffffffffffffff161461336d57826040015190506133a8565b600660008460600151815260200190815260200160002060009054906101000a900473ffffffffffffffffffffffffffffffffffffffff1690505b5b8073ffffffffffffffffffffffffffffffffffffffff166001838e8e8e60405160008152602001604052604051808581526020018460ff1660ff1681526020018381526020018281526020019450505050506020604051602081039080840390855afa15801561341d573d6000803e3d6000fd5b5050506020604051035173ffffffffffffffffffffffffffffffffffffffff161461345257600097505050505050505061345e565b60019750505050505050505b95945050505050565b600080600061347a878787876001614cf5565b925092509250600061348c84846129ab565b9050600560008573ffffffffffffffffffffffffffffffffffffffff1673ffffffffffffffffffffffffffffffffffffffff168152602001908152602001600020600301600084815260200190815260200160002060405180608001604052808a815260200189815260200188815260200187815250908060018154018082558091505090600182039060005260206000209060060201600090919290919091506000820151816000019080519060200190613549929190615d7c565b50602082015181600101906002613561929190615dfc565b50604082015181600201906002613579929190615e96565b50606082015181600401906002613591929190615e96565b5050505042600560008673ffffffffffffffffffffffffffffffffffffffff1673ffffffffffffffffffffffffffffffffffffffff16815260200190815260200160002060070160008581526020019081526020016000206001600281106135f557fe5b0181905550600061360685856129ab565b9050613654600560008773ffffffffffffffffffffffffffffffffffffffff1673ffffffffffffffffffffffffffffffffffffffff1681526020019081526020016000206004015483613c48565b600560008773ffffffffffffffffffffffffffffffffffffffff1673ffffffffffffffffffffffffffffffffffffffff168152602001908152602001600020600401819055506136e6600560008773ffffffffffffffffffffffffffffffffffffffff1673ffffffffffffffffffffffffffffffffffffffff1681526020019081526020016000206004015482613c29565b600560008773ffffffffffffffffffffffffffffffffffffffff1673ffffffffffffffffffffffffffffffffffffffff1681526020019081526020016000206004018190555060008314156137405761373f8585613c68565b5b505050505050505050565b60015481565b60035481565b6000806000600560008673ffffffffffffffffffffffffffffffffffffffff1673ffffffffffffffffffffffffffffffffffffffff168152602001908152602001600020600801600085815260200190815260200160002060000154600560008773ffffffffffffffffffffffffffffffffffffffff1673ffffffffffffffffffffffffffffffffffffffff168152602001908152602001600020600801600086815260200190815260200160002060010154600560008873ffffffffffffffffffffffffffffffffffffffff1673ffffffffffffffffffffffffffffffffffffffff168152602001908152602001600020600801600087815260200190815260200160002060020160009054906101000a900460ff169250925092509250925092565b600073ffffffffffffffffffffffffffffffffffffffff168173ffffffffffffffffffffffffffffffffffffffff1614156138b557600080fd5b8073ffffffffffffffffffffffffffffffffffffffff16600560008373ffffffffffffffffffffffffffffffffffffffff1673ffffffffffffffffffffffffffffffffffffffff16815260200190815260200160002060000160009054906101000a900473ffffffffffffffffffffffffffffffffffffffff1673ffffffffffffffffffffffffffffffffffffffff161461394f57600080fd5b600254341161395d57600080fd5b6139a9600560008373ffffffffffffffffffffffffffffffffffffffff1673ffffffffffffffffffffffffffffffffffffffff1681526020019081526020016000206001015434613c29565b600560008373ffffffffffffffffffffffffffffffffffffffff1673ffffffffffffffffffffffffffffffffffffffff1681526020019081526020016000206001018190555050565b606080600860008481526020019081526020016000206001016008600085815260200190815260200160002060050181805480602002602001604051908101604052809291908181526020018280548015613aa257602002820191906000526020600020905b8160009054906101000a900473ffffffffffffffffffffffffffffffffffffffff1673ffffffffffffffffffffffffffffffffffffffff1681526020019060010190808311613a58575b5050505050915080805480602002602001604051908101604052809291908181526020018280548015613b2a57602002820191906000526020600020905b8160009054906101000a900473ffffffffffffffffffffffffffffffffffffffff1673ffffffffffffffffffffffffffffffffffffffff1681526020019060010190808311613ae0575b5050505050905091509150915091565b60025481565b60056020528060005260406000206000915090508060000160009054906101000a900473ffffffffffffffffffffffffffffffffffffffff16908060010154908060040154908060050154908060060154905085565b60066020528060005260406000206000915054906101000a900473ffffffffffffffffffffffffffffffffffffffff1681565b600080831415613bdc5760009050613bfd565b6000828402905082848281613bed57fe5b0414613bf857600080fd5b809150505b92915050565b6000808211613c1157600080fd5b6000828481613c1c57fe5b0490508091505092915050565b600080828401905083811015613c3e57600080fd5b8091505092915050565b600082821115613c5757600080fd5b600082840390508091505092915050565b6000600560008473ffffffffffffffffffffffffffffffffffffffff1673ffffffffffffffffffffffffffffffffffffffff16815260200190815260200160002060030160008381526020019081526020016000208054905011613ccb57600080fd5b60006001600560008573ffffffffffffffffffffffffffffffffffffffff1673ffffffffffffffffffffffffffffffffffffffff168152602001908152602001600020600301600084815260200190815260200160002080549050039050613d31615bbd565b613d39615bdf565b613d41615c01565b6000600560008873ffffffffffffffffffffffffffffffffffffffff1673ffffffffffffffffffffffffffffffffffffffff16815260200190815260200160002060030160008781526020019081526020016000208581548110613da157fe5b90600052602060002090600602016000018054600181600116156101000203166002900480601f016020809104026020016040519081016040528092919081815260200182805460018160011615610100020316600290048015613e465780601f10613e1b57610100808354040283529160200191613e46565b820191906000526020600020905b815481529060010190602001808311613e2957829003601f168201915b5050505050806020019051610140811015613e6057600080fd5b81019080919082608001919082604001919082606001805190602001909291905050509350935093509350613e93615c23565b60405180610140016040528084600060038110613eac57fe5b6020020151815260200185600060028110613ec357fe5b602002015173ffffffffffffffffffffffffffffffffffffffff16815260200185600160028110613ef057fe5b602002015173ffffffffffffffffffffffffffffffffffffffff16815260200184600160038110613f1d57fe5b602002015181526020018360ff16815260200186600060048110613f3d57fe5b6020020151815260200186600160048110613f5457fe5b6020020151815260200186600260048110613f6b57fe5b6020020151815260200186600360048110613f8257fe5b6020020151815260200184600260038110613f9957fe5b602002015181525090506000613faf89896129ab565b905061400160056000846020015173ffffffffffffffffffffffffffffffffffffffff1673ffffffffffffffffffffffffffffffffffffffff1681526020019081526020016000206004015482613c48565b60056000846020015173ffffffffffffffffffffffffffffffffffffffff1673ffffffffffffffffffffffffffffffffffffffff1681526020019081526020016000206004018190555060008073ffffffffffffffffffffffffffffffffffffffff16836040015173ffffffffffffffffffffffffffffffffffffffff1614156140c457600660008460600151815260200190815260200160002060009054906101000a900473ffffffffffffffffffffffffffffffffffffffff1690506140cc565b826040015190505b8160056000856020015173ffffffffffffffffffffffffffffffffffffffff1673ffffffffffffffffffffffffffffffffffffffff1681526020019081526020016000206001015410614391576040518060600160405280838152602001600081526020016001151581525060056000856020015173ffffffffffffffffffffffffffffffffffffffff1673ffffffffffffffffffffffffffffffffffffffff16815260200190815260200160002060080160008b8152602001908152602001600020600082015181600001556020820151816001015560408201518160020160006101000a81548160ff02191690831515021790555090505061421660056000856020015173ffffffffffffffffffffffffffffffffffffffff1673ffffffffffffffffffffffffffffffffffffffff1681526020019081526020016000206006015483613c29565b60056000856020015173ffffffffffffffffffffffffffffffffffffffff1673ffffffffffffffffffffffffffffffffffffffff168152602001908152602001600020600601819055506142b060056000856020015173ffffffffffffffffffffffffffffffffffffffff1673ffffffffffffffffffffffffffffffffffffffff1681526020019081526020016000206001015483613c48565b60056000856020015173ffffffffffffffffffffffffffffffffffffffff1673ffffffffffffffffffffffffffffffffffffffff16815260200190815260200160002060010181905550614346600560008373ffffffffffffffffffffffffffffffffffffffff1673ffffffffffffffffffffffffffffffffffffffff1681526020019081526020016000206001015483613c29565b600560008373ffffffffffffffffffffffffffffffffffffffff1673ffffffffffffffffffffffffffffffffffffffff16815260200190815260200160002060010181905550614913565b600060056000856020015173ffffffffffffffffffffffffffffffffffffffff1673ffffffffffffffffffffffffffffffffffffffff1681526020019081526020016000206001015411156147ca5760006144328360056000876020015173ffffffffffffffffffffffffffffffffffffffff1673ffffffffffffffffffffffffffffffffffffffff16815260200190815260200160002060010154613c48565b9050604051806060016040528060056000876020015173ffffffffffffffffffffffffffffffffffffffff1673ffffffffffffffffffffffffffffffffffffffff1681526020019081526020016000206001015481526020018281526020016001151581525060056000866020015173ffffffffffffffffffffffffffffffffffffffff1673ffffffffffffffffffffffffffffffffffffffff16815260200190815260200160002060080160008c8152602001908152602001600020600082015181600001556020820151816001015560408201518160020160006101000a81548160ff0219169083151502179055509050506145bc60056000866020015173ffffffffffffffffffffffffffffffffffffffff1673ffffffffffffffffffffffffffffffffffffffff1681526020019081526020016000206006015460056000876020015173ffffffffffffffffffffffffffffffffffffffff1673ffffffffffffffffffffffffffffffffffffffff16815260200190815260200160002060010154613c29565b60056000866020015173ffffffffffffffffffffffffffffffffffffffff1673ffffffffffffffffffffffffffffffffffffffff1681526020019081526020016000206006018190555061465660056000866020015173ffffffffffffffffffffffffffffffffffffffff1673ffffffffffffffffffffffffffffffffffffffff1681526020019081526020016000206005015482613c29565b60056000866020015173ffffffffffffffffffffffffffffffffffffffff1673ffffffffffffffffffffffffffffffffffffffff16815260200190815260200160002060050181905550614732600560008473ffffffffffffffffffffffffffffffffffffffff1673ffffffffffffffffffffffffffffffffffffffff1681526020019081526020016000206001015460056000876020015173ffffffffffffffffffffffffffffffffffffffff1673ffffffffffffffffffffffffffffffffffffffff16815260200190815260200160002060010154613c29565b600560008473ffffffffffffffffffffffffffffffffffffffff1673ffffffffffffffffffffffffffffffffffffffff16815260200190815260200160002060010181905550600060056000866020015173ffffffffffffffffffffffffffffffffffffffff1673ffffffffffffffffffffffffffffffffffffffff1681526020019081526020016000206001018190555050614912565b6040518060600160405280600081526020018381526020016001151581525060056000856020015173ffffffffffffffffffffffffffffffffffffffff1673ffffffffffffffffffffffffffffffffffffffff16815260200190815260200160002060080160008b8152602001908152602001600020600082015181600001556020820151816001015560408201518160020160006101000a81548160ff0219169083151502179055509050506148c760056000856020015173ffffffffffffffffffffffffffffffffffffffff1673ffffffffffffffffffffffffffffffffffffffff1681526020019081526020016000206005015483613c29565b60056000856020015173ffffffffffffffffffffffffffffffffffffffff1673ffffffffffffffffffffffffffffffffffffffff168152602001908152602001600020600501819055505b5b50505050505050505050565b6000828260405160200180838152602001828051906020019060200280838360005b8381101561495c578082015181840152602081019050614941565b505050509050019250505060405160208183030381529060405280519060200120905092915050565b600080600860008681526020019081526020016000206003015442106149aa57600080fd5b60606149b4615d38565b6149bc615d5a565b6149c4615d5a565b8780602001905160e08110156149d957600080fd5b81019080805160405193929190846401000000008211156149f957600080fd5b83820191506020820185811115614a0f57600080fd5b8251866001820283011164010000000082111715614a2c57600080fd5b8083526020830192505050908051906020019080838360005b83811015614a60578082015181840152602081019050614a45565b50505050905090810190601f168015614a8d5780820380516001836020036101000a031916815260200191505b506040526020019190826040019190826040019190505093509350935093506060614ab6615d38565b614abe615d5a565b614ac6615d5a565b8a80602001905160e0811015614adb57600080fd5b8101908080516040519392919084640100000000821115614afb57600080fd5b83820191506020820185811115614b1157600080fd5b8251866001820283011164010000000082111715614b2e57600080fd5b8083526020830192505050908051906020019080838360005b83811015614b62578082015181840152602081019050614b47565b50505050905090810190601f168015614b8f5780820380516001836020036101000a031916815260200191505b50604052602001919082604001919082604001919050509350935093509350614bef8888600060028110614bbf57fe5b602002015188600060028110614bd157fe5b602002015188600060028110614be357fe5b60200201516001613149565b614bf857600080fd5b614c398888600160028110614c0957fe5b602002015188600160028110614c1b57fe5b602002015188600160028110614c2d57fe5b60200201516000613149565b614c4257600080fd5b614c838484600060028110614c5357fe5b602002015184600060028110614c6557fe5b602002015184600060028110614c7757fe5b60200201516001613149565b614c8c57600080fd5b614ccd8484600160028110614c9d57fe5b602002015184600160028110614caf57fe5b602002015184600160028110614cc157fe5b60200201516000613149565b614cd657600080fd5b614ce188858f61565c565b995099505050505050505050935093915050565b6000806000614d02615bbd565b614d0a615bdf565b614d12615c01565b60008b806020019051610140811015614d2a57600080fd5b81019080919082608001919082604001919082606001805190602001909291905050509350935093509350614d5d615c23565b60405180610140016040528084600060038110614d7657fe5b6020020151815260200185600060028110614d8d57fe5b602002015173ffffffffffffffffffffffffffffffffffffffff16815260200185600160028110614dba57fe5b602002015173ffffffffffffffffffffffffffffffffffffffff16815260200184600160038110614de757fe5b602002015181526020018360ff16815260200186600060048110614e0757fe5b6020020151815260200186600160048110614e1e57fe5b6020020151815260200186600260048110614e3557fe5b6020020151815260200186600360048110614e4c57fe5b6020020151815260200184600260038110614e6357fe5b60200201518152509050806020015173ffffffffffffffffffffffffffffffffffffffff1660056000836020015173ffffffffffffffffffffffffffffffffffffffff1673ffffffffffffffffffffffffffffffffffffffff16815260200190815260200160002060000160009054906101000a900473ffffffffffffffffffffffffffffffffffffffff1673ffffffffffffffffffffffffffffffffffffffff1614614f0f57600080fd5b60008082610120015114614f915760006008600084610120015181526020019081526020016000206005018054905011614f4857600080fd5b600860008361012001518152602001908152602001600020600101805490506008600084610120015181526020019081526020016000206005018054905014614f9057600080fd5b5b6000826080015160ff1611614fa557600080fd5b600154614fbb8361010001518460e00151613c48565b1015614fc657600080fd5b8160e001514211614fd657600080fd5b614ff28260000151836020015184604001518560600151615b14565b905089156153d657600060056000846020015173ffffffffffffffffffffffffffffffffffffffff1673ffffffffffffffffffffffffffffffffffffffff1681526020019081526020016000206003016000838152602001908152602001600020805490501161506157600080fd5b6000600160056000856020015173ffffffffffffffffffffffffffffffffffffffff1673ffffffffffffffffffffffffffffffffffffffff16815260200190815260200160002060030160008481526020019081526020016000208054905003905060056000846020015173ffffffffffffffffffffffffffffffffffffffff1673ffffffffffffffffffffffffffffffffffffffff1681526020019081526020016000206003016000838152602001908152602001600020818154811061512557fe5b90600052602060002090600602016000018054600181600116156101000203166002900480601f0160208091040260200160405190810160405280929190818152602001828054600181600116156101000203166002900480156151ca5780601f1061519f576101008083540402835291602001916151ca565b820191906000526020600020905b8154815290600101906020018083116151ad57829003601f168201915b50505050508060200190516101408110156151e457600080fd5b8101908091908260800191908260400191908260600180519060200190929190505050839350829250819150809750819850829950839a5050505050615228615c23565b6040518061014001604052808760006003811061524157fe5b602002015181526020018860006002811061525857fe5b602002015173ffffffffffffffffffffffffffffffffffffffff1681526020018860016002811061528557fe5b602002015173ffffffffffffffffffffffffffffffffffffffff168152602001876001600381106152b257fe5b602002015181526020018660ff168152602001896000600481106152d257fe5b60200201518152602001896001600481106152e957fe5b602002015181526020018960026004811061530057fe5b602002015181526020018960036004811061531757fe5b602002015181526020018760026003811061532e57fe5b60200201518152509050426153ab60056000876020015173ffffffffffffffffffffffffffffffffffffffff1673ffffffffffffffffffffffffffffffffffffffff168152602001908152602001600020600701600086815260200190815260200160002060016002811061539f57fe5b01548360c00151613c29565b116153b557600080fd5b806080015160ff16846080015160ff16116153cf57600080fd5b50506154c6565b60008090505b60056000846020015173ffffffffffffffffffffffffffffffffffffffff1673ffffffffffffffffffffffffffffffffffffffff168152602001908152602001600020600201805490508110156154a2578160056000856020015173ffffffffffffffffffffffffffffffffffffffff1673ffffffffffffffffffffffffffffffffffffffff168152602001908152602001600020600201828154811061547f57fe5b9060005260206000200154141561549557600080fd5b80806001019150506153dc565b5081610100015142106154b457600080fd5b60008260a00151116154c557600080fd5b5b6155078e8e6000600281106154d757fe5b60200201518e6000600281106154e957fe5b60200201518e6000600281106154fb57fe5b60200201516001613149565b61551057600080fd5b6155518e8e60016002811061552157fe5b60200201518e60016002811061553357fe5b60200201518e60016002811061554557fe5b60200201516000613149565b61555a57600080fd5b6000151560056000846020015173ffffffffffffffffffffffffffffffffffffffff1673ffffffffffffffffffffffffffffffffffffffff168152602001908152602001600020600801600083815260200190815260200160002060020160009054906101000a900460ff161515146155d257600080fd5b8160200151818360c00151985098509850505050505050955095509592505050565b600081838051906020012060405160200180807f19010000000000000000000000000000000000000000000000000000000000008152506002018381526020018281526020019250505060405160208183030381529060405280519060200120905092915050565b600080615667615bbd565b61566f615bdf565b615677615c01565b60008880602001905161014081101561568f57600080fd5b810190809190826080019190826040019190826060018051906020019092919050505093509350935093506156c2615c23565b604051806101400160405280846000600381106156db57fe5b60200201518152602001856000600281106156f257fe5b602002015173ffffffffffffffffffffffffffffffffffffffff1681526020018560016002811061571f57fe5b602002015173ffffffffffffffffffffffffffffffffffffffff1681526020018460016003811061574c57fe5b602002015181526020018360ff1681526020018660006004811061576c57fe5b602002015181526020018660016004811061578357fe5b602002015181526020018660026004811061579a57fe5b60200201518152602001866003600481106157b157fe5b60200201518152602001846002600381106157c857fe5b60200201518152509050888060200190516101408110156157e857600080fd5b81019080919082608001919082604001919082606001805190602001909291905050508393508292508191508095508196508297508398505050505061582c615c23565b6040518061014001604052808560006003811061584557fe5b602002015181526020018660006002811061585c57fe5b602002015173ffffffffffffffffffffffffffffffffffffffff1681526020018660016002811061588957fe5b602002015173ffffffffffffffffffffffffffffffffffffffff168152602001856001600381106158b657fe5b602002015181526020018460ff168152602001876000600481106158d657fe5b60200201518152602001876001600481106158ed57fe5b602002015181526020018760026004811061590457fe5b602002015181526020018760036004811061591b57fe5b602002015181526020018560026003811061593257fe5b60200201518152509050888161012001511461594d57600080fd5b88826101200151141561595f57600080fd5b600182608001510160ff16816080015160ff161461597c57600080fd5b806000015182600001511461599057600080fd5b806020015173ffffffffffffffffffffffffffffffffffffffff16826020015173ffffffffffffffffffffffffffffffffffffffff16146159d057600080fd5b806040015173ffffffffffffffffffffffffffffffffffffffff16826040015173ffffffffffffffffffffffffffffffffffffffff1614615a1057600080fd5b8060600151826060015114615a2457600080fd5b6000600860008b81526020019081526020016000206002015411615a4757600080fd5b600860008a815260200190815260200160002060020154615a708360a001518360a00151613c48565b14615a7a57600080fd5b60008073ffffffffffffffffffffffffffffffffffffffff16836040015173ffffffffffffffffffffffffffffffffffffffff161415615af357600660008460600151815260200190815260200160002060009054906101000a900473ffffffffffffffffffffffffffffffffffffffff169050615afb565b826040015190505b8260200151819850985050505050505050935093915050565b600084848484604051602001808581526020018473ffffffffffffffffffffffffffffffffffffffff1673ffffffffffffffffffffffffffffffffffffffff1660601b81526014018373ffffffffffffffffffffffffffffffffffffffff1673ffffffffffffffffffffffffffffffffffffffff1660601b8152601401828152602001945050505050604051602081830303815290604052805190602001209050949350505050565b6040518060800160405280600490602082028038833980820191505090505090565b6040518060400160405280600290602082028038833980820191505090505090565b6040518060600160405280600390602082028038833980820191505090505090565b60405180610140016040528060008019168152602001600073ffffffffffffffffffffffffffffffffffffffff168152602001600073ffffffffffffffffffffffffffffffffffffffff16815260200160008019168152602001600060ff16815260200160008152602001600081526020016000815260200160008152602001600080191681525090565b828054828255906000526020600020908101928215615d27579160200282015b82811115615d265782518260006101000a81548173ffffffffffffffffffffffffffffffffffffffff021916908373ffffffffffffffffffffffffffffffffffffffff16021790555091602001919060010190615cce565b5b509050615d349190615ed6565b5090565b6040518060400160405280600290602082028038833980820191505090505090565b6040518060400160405280600290602082028038833980820191505090505090565b828054600181600116156101000203166002900490600052602060002090601f016020900481019282601f10615dbd57805160ff1916838001178555615deb565b82800160010185558215615deb579182015b82811115615dea578251825591602001919060010190615dcf565b5b509050615df89190615f19565b5090565b826002601f01602090048101928215615e855791602002820160005b83821115615e5657835183826101000a81548160ff021916908360ff1602179055509260200192600101602081600001049283019260010302615e18565b8015615e835782816101000a81549060ff0219169055600101602081600001049283019260010302615e56565b505b509050615e929190615f3e565b5090565b8260028101928215615ec5579160200282015b82811115615ec4578251825591602001919060010190615ea9565b5b509050615ed29190615f6e565b5090565b615f1691905b80821115615f1257600081816101000a81549073ffffffffffffffffffffffffffffffffffffffff021916905550600101615edc565b5090565b90565b615f3b91905b80821115615f37576000816000905550600101615f1f565b5090565b90565b615f6b91905b80821115615f6757600081816101000a81549060ff021916905550600101615f44565b5090565b90565b615f9091905b80821115615f8c576000816000905550600101615f74565b5090565b9056fea265627a7a72315820952149eb2a139a86b7e18003a3233352b2160dfd8792b8a19c257583843187e764736f6c63430005100032",
  "source": "pragma solidity >=0.5.0;\nimport \"./SafeMath.sol\";\nimport \"./CashlessLib.sol\";\n\ncontract Cashless {\n    // Precomputed hash for EIP712 domain separator\n    bytes32 constant EIP712HASH = 0x0eaa6c88c44fbde2113ba7421deef795c18fc5a553a55b2ba4d237269e1c2662;\n    \n    // Domain separator completed on contract construction\n    bytes32 public DOMAIN_SEPARATOR;\n    \n    // Claim\n    struct Claim {\n        bytes32 claimName;\n        address sender;\n        address receiver;\n        bytes32 receiverAlias;\n        uint8 nonce;\n        uint256 amount;\n        uint256 disputeDuration;\n        uint256 vestTimestamp;\n        uint256 voidTimestamp;\n        bytes32 loopID;\n    }\n    \n    // SignedClaim\n    struct SignedClaim {\n        bytes claimData;\n        uint8[2] sigsV;\n        bytes32[2] sigsR;\n        bytes32[2] sigsS;\n    }\n    \n    // Settlement\n    struct Settlement {\n        uint256 amountPaid;\n        uint256 amountDefaulted;\n        bool settled;\n    }\n    \n    // LoopProposal\n    struct LoopProposal {\n        bytes32 proposalName;\n        address[] loop;\n        uint256 minFlow;\n        uint256 lockTimestamp;\n        mapping (address => SignedClaim) claims;\n        address[] committed;\n    }\n    \n    // Reserves\n    struct Reserves {\n        address owner;\n        uint256 balance;\n        bytes32[] claimIDs;\n        mapping (bytes32 => SignedClaim[]) claims;\n        uint256 grossClaimed;\n        uint256 grossDefaulted;\n        uint256 grossPaid;\n        mapping (bytes32 => uint256[2]) proposalTimestamps;\n        mapping (bytes32 => Settlement) settlements;\n    }\n    \n    uint256 public minVestDuration = 604800;\n    uint256 public flatWithdrawFee = 10000000;\n    uint256 public percentWithdrawFee = 1;\n    address payable public networkAdmin;\n    mapping (address => Reserves) public reserves;\n    mapping (bytes32 => address) public aliases;\n    mapping (bytes32 => address) public pendingAliases;\n    mapping (bytes32 => LoopProposal) public loops;\n\n    // Constructor function\n    constructor (bytes32 salt) public {\n        DOMAIN_SEPARATOR = keccak256(abi.encodePacked(EIP712HASH, this, salt));\n        networkAdmin = msg.sender;\n    }\n    \n    // Public State Modifying functions\n    function createReserves(address reservesAddress, uint8 v, bytes32 r, bytes32 s) public {\n        bytes32 hash = CashlessLib.hashClaimData(abi.encode(reservesAddress), DOMAIN_SEPARATOR);\n        bytes32 defaultAlias = keccak256(abi.encode(reservesAddress));\n        require(aliases[defaultAlias] == address(0));\n        require(reserves[reservesAddress].balance == 0);\n        require(reserves[reservesAddress].owner == address(0));\n        require(ecrecover(hash, v, r, s) == reservesAddress);\n        aliases[defaultAlias] = reservesAddress;\n        reserves[reservesAddress].owner = reservesAddress;\n    }\n    \n    function fundReserves(address accountOwner) public payable {\n        require(accountOwner != address(0));\n        require(address(reserves[accountOwner].owner) == accountOwner);\n        require(msg.value > flatWithdrawFee);\n        reserves[accountOwner].balance = SafeMath.add(reserves[accountOwner].balance, msg.value);\n    }\n    \n    function withdrawReserves(uint256 amount, address payable targetReceiver, uint256 fee) public {\n        require(reserves[msg.sender].owner == address(msg.sender));\n        require(amount>0);\n        uint256 minFee = SafeMath.add(SafeMath.div(SafeMath.mul(amount, percentWithdrawFee), 100), flatWithdrawFee);\n        require(fee>=minFee);\n        uint256 total = SafeMath.add(amount, fee);\n        require(reserves[msg.sender].balance >= SafeMath.add(reserves[msg.sender].grossClaimed, total));\n        reserves[msg.sender].balance = SafeMath.sub(reserves[msg.sender].balance, total);\n        targetReceiver.transfer(amount);\n        networkAdmin.transfer(fee);\n    }\n    \n    function addAlias(bytes32 newAlias) public {\n        require(reserves[msg.sender].owner == address(msg.sender));\n        require(aliases[newAlias]==address(0));\n        require(pendingAliases[newAlias]==address(0));\n        aliases[newAlias] = msg.sender;\n    }\n    \n    function deleteAlias(bytes32 existingAlias) public {\n        require(aliases[existingAlias] == address(msg.sender));\n        aliases[existingAlias] = address(0);\n    }\n\n    function addPendingAlias(bytes32 newAlias) public {\n        require(reserves[msg.sender].owner == address(msg.sender));\n        require(aliases[newAlias]==address(0));\n        require(pendingAliases[newAlias]==address(0));\n        pendingAliases[newAlias] = msg.sender;    \n    }\n\n    function commitPendingAlias(bytes32 newAlias, address addr) public {\n        require(pendingAliases[newAlias] == msg.sender);\n        require(reserves[addr].owner == addr);\n        pendingAliases[newAlias] = address(0);\n        aliases[newAlias] = addr;\n    }\n    \n    function proposeSettlement(bytes memory claimData, uint8[2] memory sigsV, bytes32[2] memory sigsR, bytes32[2] memory sigsS) public {\n        (address sender, bytes32 id, uint256 disputeDuration) = verifySettlement(claimData, sigsV, sigsR, sigsS, false); \n        reserves[sender].claimIDs.push(id);\n        reserves[sender].claims[id].push(SignedClaim(claimData, sigsV, sigsR, sigsS));\n        reserves[sender].proposalTimestamps[id][0] = now;\n        reserves[sender].proposalTimestamps[id][1] = now;\n        reserves[sender].grossClaimed = SafeMath.add(reserves[sender].grossClaimed, getAdjustedClaimAmount(sender, id));\n        // if no dispute period settle immediately\n        if (disputeDuration == 0) {\n            closeSettlement(sender, id);\n        }\n    }\n\n    function disputeSettlement(bytes memory claimData, uint8[2] memory sigsV, bytes32[2] memory sigsR, bytes32[2] memory sigsS) public {\n        (address sender, bytes32 id, uint256 disputeDuration) = verifySettlement(claimData, sigsV, sigsR, sigsS, true); \n        // minimum required duration between vest and void time\n        uint256 oldAmount = getAdjustedClaimAmount(sender, id);\n        reserves[sender].claims[id].push(SignedClaim(claimData, sigsV, sigsR, sigsS));\n        reserves[sender].proposalTimestamps[id][1] = now;\n        uint256 newAmount = getAdjustedClaimAmount(sender, id);\n        reserves[sender].grossClaimed = SafeMath.sub(reserves[sender].grossClaimed, oldAmount);\n        reserves[sender].grossClaimed = SafeMath.add(reserves[sender].grossClaimed, newAmount);\n        if (disputeDuration == 0) {\n            closeSettlement(sender, id);\n        }\n    }\n    \n    function redeemClaim(address accountOwner, bytes32 claimID) public {\n        require(reserves[accountOwner].settlements[claimID].settled == false);\n        require(reserves[accountOwner].proposalTimestamps[claimID][1] > 0);\n        require(reserves[accountOwner].claims[claimID].length > 0);\n        uint256 index = reserves[accountOwner].claims[claimID].length - 1;\n        (uint256[4] memory values, address[2] memory addrs, bytes32[3] memory ids, uint8 nonce) = abi.decode(reserves[accountOwner].claims[claimID][index].claimData, (uint256[4], address[2], bytes32[3], uint8));\n        Claim memory claim = Claim(ids[0], address(addrs[0]), address(addrs[1]), ids[1], nonce, values[0], values[1], values[2], values[3], ids[2]);\n        require(SafeMath.add(reserves[accountOwner].proposalTimestamps[claimID][1], claim.disputeDuration) < now);\n        require(claim.amount > 0);\n        closeSettlement(accountOwner, claimID);\n    }\n    \n    function proposeLoop(bytes32 proposalName, address[] memory loop, uint256 minFlow, uint256 lockTimestamp) public {\n        require(loop.length >= 2);\n        bytes32 id = CashlessLib.getLoopID(proposalName, loop);\n        bytes32 nil;\n        require(loops[id].proposalName == nil);\n        loops[id].proposalName = proposalName;\n        loops[id].loop = loop;\n        loops[id].lockTimestamp = lockTimestamp;\n        loops[id].minFlow = minFlow;\n    }\n    \n    function commitLoopClaim(bytes32 loopID, bytes memory encodedPriorClaim, bytes memory encodedClaim) public {\n        (address sender, address receiver) = verifyLoopClaim(loopID, encodedPriorClaim, encodedClaim);\n        bool found = false;\n        for (uint256 i=0; i<loops[loopID].loop.length; i++) {\n            if (loops[loopID].loop[i] == sender) {\n                if (i==loops[loopID].loop.length-1) {\n                    require(loops[loopID].loop[0]==receiver);\n                } else {\n                    require(loops[loopID].loop[i+1]==receiver);\n                }\n                found = true;\n                break;\n            }\n        }\n        require(found==true);\n        for (uint256 j=0; j<loops[loopID].committed.length; j++) {\n            require(loops[loopID].committed[j]!=sender);\n        }\n        (bytes memory claimData2, uint8[2] memory v2, bytes32[2] memory r2, bytes32[2] memory s2) = abi.decode(encodedClaim, (bytes, uint8[2], bytes32[2], bytes32[2]));\n        loops[loopID].claims[sender] = SignedClaim(claimData2, v2, r2, s2);\n        loops[loopID].committed.push(sender);\n    }\n    \n    // Internal (Protected) State Modifying functions\n    function verifySettlement(bytes memory claimData, uint8[2] memory sigsV, bytes32[2] memory sigsR, bytes32[2] memory sigsS, bool isDispute) internal view returns (address, bytes32, uint256) {\n        (uint256[4] memory values, address[2] memory addrs, bytes32[3] memory ids, uint8 nonce) = abi.decode(claimData, (uint256[4], address[2], bytes32[3], uint8));\n        Claim memory claim = Claim(ids[0], address(addrs[0]), address(addrs[1]), ids[1], nonce, values[0], values[1], values[2], values[3], ids[2]);\n        require(reserves[claim.sender].owner == claim.sender);\n        bytes32 id;\n        if (claim.loopID != id) {\n            require(loops[claim.loopID].committed.length > 0);\n            require(loops[claim.loopID].committed.length == loops[claim.loopID].loop.length);\n        }\n        require(claim.nonce > 0);\n        // minimum required duration between vest and void time\n        require(SafeMath.sub(claim.voidTimestamp, claim.vestTimestamp) >= minVestDuration);\n        require(now > claim.vestTimestamp);\n        id = CashlessLib.getClaimID(claim.claimName, claim.sender, claim.receiver, claim.receiverAlias);\n        if (isDispute) {\n            require(reserves[claim.sender].claims[id].length > 0);\n            uint256 lastIndex = reserves[claim.sender].claims[id].length - 1;\n            (values, addrs, ids, nonce) = abi.decode(reserves[claim.sender].claims[id][lastIndex].claimData, (uint256[4], address[2], bytes32[3], uint8));\n            Claim memory priorClaim = Claim(ids[0], address(addrs[0]), address(addrs[1]), ids[1], nonce, values[0], values[1], values[2], values[3], ids[2]);\n            require(SafeMath.add(reserves[claim.sender].proposalTimestamps[id][1], priorClaim.disputeDuration) > now);\n            require(claim.nonce > priorClaim.nonce);\n        } else {\n            for (uint256 i=0; i<reserves[claim.sender].claimIDs.length; i++) {\n                require(reserves[claim.sender].claimIDs[i] != id);\n            }\n            require(now < claim.voidTimestamp);\n            require(claim.amount > 0);  \n        }\n        require(verifyClaimSig(claimData, sigsV[0], sigsR[0], sigsS[0], true));\n        require(verifyClaimSig(claimData, sigsV[1], sigsR[1], sigsS[1], false));\n        require(reserves[claim.sender].settlements[id].settled == false);\n        return (claim.sender, id, claim.disputeDuration);\n    }\n    \n    function closeSettlement(address accountOwner, bytes32 claimID) internal {\n        require(reserves[accountOwner].claims[claimID].length > 0);\n        uint256 lastIndex = reserves[accountOwner].claims[claimID].length - 1;\n        (uint256[4] memory values, address[2] memory addrs, bytes32[3] memory ids, uint8 nonce) = abi.decode(reserves[accountOwner].claims[claimID][lastIndex].claimData, (uint256[4], address[2], bytes32[3], uint8));\n        Claim memory claim = Claim(ids[0], address(addrs[0]), address(addrs[1]), ids[1], nonce, values[0], values[1], values[2], values[3], ids[2]);\n        uint256 amount = getAdjustedClaimAmount(accountOwner, claimID);\n        reserves[claim.sender].grossClaimed = SafeMath.sub(reserves[claim.sender].grossClaimed, amount);\n        address receiver;\n        if (address(claim.receiver) == address(0)) {\n            receiver = aliases[claim.receiverAlias];\n        } else {\n            receiver = claim.receiver;\n        }\n        if (reserves[claim.sender].balance >= amount) {\n            reserves[claim.sender].settlements[claimID] = Settlement(amount, 0, true);\n            reserves[claim.sender].grossPaid = SafeMath.add(reserves[claim.sender].grossPaid, amount);\n            reserves[claim.sender].balance = SafeMath.sub(reserves[claim.sender].balance, amount);\n            reserves[receiver].balance = SafeMath.add(reserves[receiver].balance, amount);\n        } else {\n            if (reserves[claim.sender].balance > 0) {\n                uint256 defaultAmount = SafeMath.sub(amount, reserves[claim.sender].balance);\n                reserves[claim.sender].settlements[claimID] = Settlement(reserves[claim.sender].balance, defaultAmount, true);\n                reserves[claim.sender].grossPaid = SafeMath.add(reserves[claim.sender].grossPaid, reserves[claim.sender].balance);\n                reserves[claim.sender].grossDefaulted = SafeMath.add(reserves[claim.sender].grossDefaulted, defaultAmount);\n                reserves[receiver].balance = SafeMath.add(reserves[receiver].balance, reserves[claim.sender].balance);\n                reserves[claim.sender].balance = 0;\n            } else {\n                reserves[claim.sender].settlements[claimID] = Settlement(0, amount, true);\n                reserves[claim.sender].grossDefaulted = SafeMath.add(reserves[claim.sender].grossDefaulted, amount);\n            }\n        }\n    }\n    \n    function verifyLoopClaim(bytes32 loopID, bytes memory encodedPriorClaim, bytes memory encodedClaim) internal view returns (address, address) {\n        require(now < loops[loopID].lockTimestamp);\n        (bytes memory claimData1, uint8[2] memory v1, bytes32[2] memory r1, bytes32[2] memory s1) = abi.decode(encodedPriorClaim, (bytes, uint8[2], bytes32[2], bytes32[2]));\n        (bytes memory claimData2, uint8[2] memory v2, bytes32[2] memory r2, bytes32[2] memory s2) = abi.decode(encodedClaim, (bytes, uint8[2], bytes32[2], bytes32[2]));\n        require(verifyClaimSig(claimData1, v1[0], r1[0], s1[0], true));\n        require(verifyClaimSig(claimData1, v1[1], r1[1], s1[1], false));\n        require(verifyClaimSig(claimData2, v2[0], r2[0], s2[0], true));\n        require(verifyClaimSig(claimData2, v2[1], r2[1], s2[1], false));\n        return validateLoopClaim(claimData1, claimData2, loopID);\n    }\n    \n    function validateLoopClaim(bytes memory priorClaimData, bytes memory claimData, bytes32 loopID) internal  view  returns (address, address) {\n        (uint256[4] memory values, address[2] memory addrs, bytes32[3] memory ids, uint8 nonce) = abi.decode(priorClaimData, (uint256[4], address[2], bytes32[3], uint8));\n        Claim memory oldClaim = Claim(ids[0], address(addrs[0]), address(addrs[1]), ids[1], nonce, values[0], values[1], values[2], values[3], ids[2]);\n        (values, addrs, ids, nonce) = abi.decode(claimData, (uint256[4], address[2], bytes32[3], uint8));\n        Claim memory newClaim = Claim(ids[0], address(addrs[0]), address(addrs[1]), ids[1], nonce, values[0], values[1], values[2], values[3], ids[2]);\n        require(newClaim.loopID==loopID);\n        require(oldClaim.loopID!=loopID);\n        require(newClaim.nonce==oldClaim.nonce+1);\n        require(oldClaim.claimName==newClaim.claimName);\n        require(oldClaim.sender==newClaim.sender);\n        require(oldClaim.receiver==newClaim.receiver);\n        require(oldClaim.receiverAlias==newClaim.receiverAlias);\n        require(loops[loopID].minFlow > 0);\n        require(SafeMath.sub(oldClaim.amount, newClaim.amount) == loops[loopID].minFlow);\n        address receiver;\n        if (oldClaim.receiver == receiver) {\n            receiver = aliases[oldClaim.receiverAlias];\n        } else {\n            receiver = oldClaim.receiver;\n        }\n        return (oldClaim.sender, receiver);\n    }\n    \n    // Public View/Pure functions\n    function verifyClaimSig(bytes memory claimData, uint8 v, bytes32 r, bytes32 s, bool isOwner) public view returns (bool) {\n        (uint256[4] memory values, address[2] memory addrs, bytes32[3] memory ids, uint8 nonce) = abi.decode(claimData, (uint256[4], address[2], bytes32[3], uint8));\n        Claim memory claim = Claim(ids[0], address(addrs[0]), address(addrs[1]), ids[1], nonce, values[0], values[1], values[2], values[3], ids[2]);\n        if (0 >= claim.nonce) {\n            return false;\n        }\n        if (SafeMath.sub(claim.voidTimestamp, claim.vestTimestamp) < minVestDuration) {\n            return false;\n        }\n        bytes32 hash = CashlessLib.hashClaimData(claimData, DOMAIN_SEPARATOR);\n        address signer;\n        if (isOwner) {\n            signer = claim.sender;\n        } else {\n            if (address(0) != address(claim.receiver)) {\n                signer = claim.receiver;\n            } else {\n                signer = aliases[claim.receiverAlias];\n            }\n        }\n        if (ecrecover(hash, v, r, s) != signer) {\n            return false;\n        }\n        return true;\n    }\n    \n    function getAdjustedClaimAmount(address accountOwner, bytes32 claimID) public view returns (uint256) {\n        require(reserves[accountOwner].claims[claimID].length > 0);\n        uint256 lastIndex = reserves[accountOwner].claims[claimID].length - 1;\n        (uint256[4] memory values, address[2] memory addrs, bytes32[3] memory ids, uint8 nonce) = abi.decode(reserves[accountOwner].claims[claimID][lastIndex].claimData, (uint256[4], address[2], bytes32[3], uint8));\n        Claim memory claim = Claim(ids[0], address(addrs[0]), address(addrs[1]), ids[1], nonce, values[0], values[1], values[2], values[3], ids[2]);\n        uint256 numerator = SafeMath.mul(100, SafeMath.sub(reserves[accountOwner].proposalTimestamps[claimID][0], claim.vestTimestamp));\n        uint256 denominator = SafeMath.sub(claim.voidTimestamp, claim.vestTimestamp);\n        uint256 percentLost = SafeMath.div(numerator, denominator);\n        return SafeMath.div(SafeMath.sub(SafeMath.mul(100, claim.amount), SafeMath.mul(percentLost, claim.amount)), 100);\n    }\n\n    function getClaimIDs(address accountOwner) public view returns (bytes32[] memory) {\n        return reserves[accountOwner].claimIDs;\n    }\n    \n    function getReservesClaim(address accountOwner, bytes32 claimID, uint256 index) public view returns (bytes memory) {\n        return reserves[accountOwner].claims[claimID][index].claimData;\n    }\n\n    function getReservesSettlement(address accountOwner, bytes32 claimID) public view returns (uint256, uint256, bool) {\n        return (reserves[accountOwner].settlements[claimID].amountPaid, reserves[accountOwner].settlements[claimID].amountDefaulted, reserves[accountOwner].settlements[claimID].settled);\n    }\n    \n    function getLoopStatus(bytes32 loopID) public view returns (address[] memory, address[] memory) {\n        return (loops[loopID].loop, loops[loopID].committed);\n    }\n\n    // Fallback Funtion\n    function () external {}\n}",
  "sourcePath": "/Users/earth/Desktop/cashless/contracts/Cashless.sol",
  "compiler": {
    "name": "solc",
    "version": "0.5.16+commit.9c3226ce.Emscripten.clang"
  },
  "schemaVersion": "3.2.0",
  "updatedAt": "2020-07-18T16:20:25.076Z",
  "devdoc": {
    "methods": {}
  },
  "userdoc": {
    "methods": {}
  }
}