{
  "contractName": "Cashless",
  "abi": [
    {
      "inputs": [
        {
          "internalType": "bytes32",
          "name": "salt",
          "type": "bytes32"
        },
        {
          "internalType": "address",
          "name": "_tokenAddress",
          "type": "address"
        }
      ],
      "stateMutability": "nonpayable",
      "type": "constructor"
    },
    {
      "stateMutability": "nonpayable",
      "type": "fallback"
    },
    {
      "inputs": [],
      "name": "DOMAIN_SEPARATOR",
      "outputs": [
        {
          "internalType": "bytes32",
          "name": "",
          "type": "bytes32"
        }
      ],
      "stateMutability": "view",
      "type": "function"
    },
    {
      "inputs": [
        {
          "internalType": "bytes32",
          "name": "",
          "type": "bytes32"
        }
      ],
      "name": "loops",
      "outputs": [
        {
          "internalType": "bytes32",
          "name": "proposalName",
          "type": "bytes32"
        },
        {
          "internalType": "uint256",
          "name": "minFlow",
          "type": "uint256"
        },
        {
          "internalType": "uint256",
          "name": "lockTimestamp",
          "type": "uint256"
        }
      ],
      "stateMutability": "view",
      "type": "function"
    },
    {
      "inputs": [],
      "name": "minVestDuration",
      "outputs": [
        {
          "internalType": "uint256",
          "name": "",
          "type": "uint256"
        }
      ],
      "stateMutability": "view",
      "type": "function"
    },
    {
      "inputs": [
        {
          "internalType": "address",
          "name": "",
          "type": "address"
        }
      ],
      "name": "reserves",
      "outputs": [
        {
          "internalType": "address",
          "name": "owner",
          "type": "address"
        },
        {
          "internalType": "uint256",
          "name": "balance",
          "type": "uint256"
        },
        {
          "internalType": "uint256",
          "name": "grossClaimed",
          "type": "uint256"
        },
        {
          "internalType": "uint256",
          "name": "grossDefaulted",
          "type": "uint256"
        },
        {
          "internalType": "uint256",
          "name": "grossPaid",
          "type": "uint256"
        }
      ],
      "stateMutability": "view",
      "type": "function"
    },
    {
      "inputs": [],
      "name": "tokenAddress",
      "outputs": [
        {
          "internalType": "address",
          "name": "",
          "type": "address"
        }
      ],
      "stateMutability": "view",
      "type": "function"
    },
    {
      "inputs": [
        {
          "internalType": "address",
          "name": "reservesAddress",
          "type": "address"
        },
        {
          "internalType": "uint8",
          "name": "v",
          "type": "uint8"
        },
        {
          "internalType": "bytes32",
          "name": "r",
          "type": "bytes32"
        },
        {
          "internalType": "bytes32",
          "name": "s",
          "type": "bytes32"
        }
      ],
      "name": "createReserves",
      "outputs": [],
      "stateMutability": "nonpayable",
      "type": "function"
    },
    {
      "inputs": [
        {
          "internalType": "address",
          "name": "accountOwner",
          "type": "address"
        },
        {
          "internalType": "uint256",
          "name": "amount",
          "type": "uint256"
        }
      ],
      "name": "fundReserves",
      "outputs": [],
      "stateMutability": "nonpayable",
      "type": "function"
    },
    {
      "inputs": [
        {
          "internalType": "uint256",
          "name": "amount",
          "type": "uint256"
        },
        {
          "internalType": "address",
          "name": "targetReceiver",
          "type": "address"
        }
      ],
      "name": "withdrawReserves",
      "outputs": [],
      "stateMutability": "nonpayable",
      "type": "function"
    },
    {
      "inputs": [
        {
          "internalType": "bytes",
          "name": "claimData",
          "type": "bytes"
        },
        {
          "internalType": "uint8[2]",
          "name": "sigsV",
          "type": "uint8[2]"
        },
        {
          "internalType": "bytes32[2]",
          "name": "sigsR",
          "type": "bytes32[2]"
        },
        {
          "internalType": "bytes32[2]",
          "name": "sigsS",
          "type": "bytes32[2]"
        }
      ],
      "name": "proposeSettlement",
      "outputs": [],
      "stateMutability": "nonpayable",
      "type": "function"
    },
    {
      "inputs": [
        {
          "internalType": "bytes",
          "name": "claimData",
          "type": "bytes"
        },
        {
          "internalType": "uint8[2]",
          "name": "sigsV",
          "type": "uint8[2]"
        },
        {
          "internalType": "bytes32[2]",
          "name": "sigsR",
          "type": "bytes32[2]"
        },
        {
          "internalType": "bytes32[2]",
          "name": "sigsS",
          "type": "bytes32[2]"
        }
      ],
      "name": "disputeSettlement",
      "outputs": [],
      "stateMutability": "nonpayable",
      "type": "function"
    },
    {
      "inputs": [
        {
          "internalType": "address",
          "name": "accountOwner",
          "type": "address"
        },
        {
          "internalType": "bytes32",
          "name": "claimID",
          "type": "bytes32"
        }
      ],
      "name": "redeemClaim",
      "outputs": [],
      "stateMutability": "nonpayable",
      "type": "function"
    },
    {
      "inputs": [
        {
          "internalType": "bytes32",
          "name": "proposalName",
          "type": "bytes32"
        },
        {
          "internalType": "address[]",
          "name": "loop",
          "type": "address[]"
        },
        {
          "internalType": "uint256",
          "name": "minFlow",
          "type": "uint256"
        },
        {
          "internalType": "uint256",
          "name": "lockTimestamp",
          "type": "uint256"
        }
      ],
      "name": "proposeLoop",
      "outputs": [],
      "stateMutability": "nonpayable",
      "type": "function"
    },
    {
      "inputs": [
        {
          "internalType": "bytes32",
          "name": "loopID",
          "type": "bytes32"
        },
        {
          "internalType": "bytes",
          "name": "encodedPriorClaim",
          "type": "bytes"
        },
        {
          "internalType": "bytes",
          "name": "encodedClaim",
          "type": "bytes"
        }
      ],
      "name": "commitLoopClaim",
      "outputs": [],
      "stateMutability": "nonpayable",
      "type": "function"
    },
    {
      "inputs": [
        {
          "internalType": "bytes",
          "name": "claimData",
          "type": "bytes"
        },
        {
          "internalType": "uint8",
          "name": "v",
          "type": "uint8"
        },
        {
          "internalType": "bytes32",
          "name": "r",
          "type": "bytes32"
        },
        {
          "internalType": "bytes32",
          "name": "s",
          "type": "bytes32"
        },
        {
          "internalType": "bool",
          "name": "isOwner",
          "type": "bool"
        }
      ],
      "name": "verifyClaimSig",
      "outputs": [
        {
          "internalType": "bool",
          "name": "",
          "type": "bool"
        }
      ],
      "stateMutability": "view",
      "type": "function"
    },
    {
      "inputs": [
        {
          "internalType": "address",
          "name": "accountOwner",
          "type": "address"
        },
        {
          "internalType": "bytes32",
          "name": "claimID",
          "type": "bytes32"
        }
      ],
      "name": "getAdjustedClaimAmount",
      "outputs": [
        {
          "internalType": "uint256",
          "name": "",
          "type": "uint256"
        }
      ],
      "stateMutability": "view",
      "type": "function"
    },
    {
      "inputs": [
        {
          "internalType": "address",
          "name": "accountOwner",
          "type": "address"
        }
      ],
      "name": "getClaimIDs",
      "outputs": [
        {
          "internalType": "bytes32[]",
          "name": "",
          "type": "bytes32[]"
        }
      ],
      "stateMutability": "view",
      "type": "function"
    },
    {
      "inputs": [
        {
          "internalType": "address",
          "name": "accountOwner",
          "type": "address"
        },
        {
          "internalType": "bytes32",
          "name": "claimID",
          "type": "bytes32"
        },
        {
          "internalType": "uint256",
          "name": "index",
          "type": "uint256"
        }
      ],
      "name": "getReservesClaim",
      "outputs": [
        {
          "internalType": "bytes",
          "name": "",
          "type": "bytes"
        }
      ],
      "stateMutability": "view",
      "type": "function"
    },
    {
      "inputs": [
        {
          "internalType": "address",
          "name": "accountOwner",
          "type": "address"
        },
        {
          "internalType": "bytes32",
          "name": "claimID",
          "type": "bytes32"
        }
      ],
      "name": "getReservesSettlement",
      "outputs": [
        {
          "internalType": "uint256",
          "name": "",
          "type": "uint256"
        },
        {
          "internalType": "uint256",
          "name": "",
          "type": "uint256"
        },
        {
          "internalType": "bool",
          "name": "",
          "type": "bool"
        }
      ],
      "stateMutability": "view",
      "type": "function"
    },
    {
      "inputs": [
        {
          "internalType": "bytes32",
          "name": "loopID",
          "type": "bytes32"
        }
      ],
      "name": "getLoopStatus",
      "outputs": [
        {
          "internalType": "address[]",
          "name": "",
          "type": "address[]"
        },
        {
          "internalType": "address[]",
          "name": "",
          "type": "address[]"
        }
      ],
      "stateMutability": "view",
      "type": "function"
    }
  ],
  "bytecode": "0x608060405262093a8060015534801561001757600080fd5b5060405162005448380380620054488339818101604052604081101561003c57600080fd5b8101908080519060200190929190805190602001909291905050507f0eff6c88c44fbde2113ba7421deef795c18fc5a553a55b2ba4d237269e1c266260001b3083604051602001808481526020018373ffffffffffffffffffffffffffffffffffffffff1673ffffffffffffffffffffffffffffffffffffffff1660601b815260140182815260200193505050506040516020818303038152906040528051906020012060008190555080600260006101000a81548173ffffffffffffffffffffffffffffffffffffffff021916908373ffffffffffffffffffffffffffffffffffffffff160217905550505061530f80620001396000396000f3fe608060405234801561001057600080fd5b50600436106101255760003560e01c80637351cfea116100ad578063a29742ab11610071578063a29742ab14610adb578063ab37994914610af9578063b20ad10414610b47578063c4d309cd14610bbb578063d66bd52414610c8657610126565b80637351cfea1461074c57806374b37e4e146107ae578063852b5ed5146108135780638ceec2cb146109135780639d76ea5814610a9157610126565b806336431f5b116100f457806336431f5b146103b65780633644e5151461040457806344a07c1b146104225780635728e1611461057e57806360cf47c1146105ce57610126565b8063075e42a9146101285780631641a744146101f957806320664c7b14610292578063279f0343146102e057610126565b5b005b61017e6004803603606081101561013e57600080fd5b81019080803573ffffffffffffffffffffffffffffffffffffffff1690602001909291908035906020019092919080359060200190929190505050610d26565b6040518080602001828103825283818151815260200191508051906020019080838360005b838110156101be5780820151818401526020810190506101a3565b50505050905090810190601f1680156101eb5780820380516001836020036101000a031916815260200191505b509250505060405180910390f35b61023b6004803603602081101561020f57600080fd5b81019080803573ffffffffffffffffffffffffffffffffffffffff169060200190929190505050610e39565b6040518080602001828103825283818151815260200191508051906020019060200280838360005b8381101561027e578082015181840152602081019050610263565b505050509050019250505060405180910390f35b6102de600480360360408110156102a857600080fd5b81019080803573ffffffffffffffffffffffffffffffffffffffff16906020019092919080359060200190929190505050610ed3565b005b6103b4600480360360808110156102f657600080fd5b81019080803590602001909291908035906020019064010000000081111561031d57600080fd5b82018360208201111561032f57600080fd5b8035906020019184602083028401116401000000008311171561035157600080fd5b919080806020026020016040519081016040528093929190818152602001838360200280828437600081840152601f19601f8201169050808301925050505050505091929192908035906020019092919080359060200190929190505050611376565b005b610402600480360360408110156103cc57600080fd5b81019080803573ffffffffffffffffffffffffffffffffffffffff1690602001909291908035906020019092919050505061143b565b005b61040c6116c6565b6040518082815260200191505060405180910390f35b61057c6004803603606081101561043857600080fd5b81019080803590602001909291908035906020019064010000000081111561045f57600080fd5b82018360208201111561047157600080fd5b8035906020019184600183028401116401000000008311171561049357600080fd5b91908080601f016020809104026020016040519081016040528093929190818152602001838380828437600081840152601f19601f820116905080830192505050505050509192919290803590602001906401000000008111156104f657600080fd5b82018360208201111561050857600080fd5b8035906020019184600183028401116401000000008311171561052a57600080fd5b91908080601f016020809104026020016040519081016040528093929190818152602001838380828437600081840152601f19601f8201169050808301925050505050505091929192905050506116cc565b005b6105aa6004803603602081101561059457600080fd5b8101908080359060200190929190505050611bff565b60405180848152602001838152602001828152602001935050505060405180910390f35b61074a600480360360e08110156105e457600080fd5b810190808035906020019064010000000081111561060157600080fd5b82018360208201111561061357600080fd5b8035906020019184600183028401116401000000008311171561063557600080fd5b91908080601f016020809104026020016040519081016040528093929190818152602001838380828437600081840152601f19601f82011690508083019250505050505050919291929080604001906002806020026040519081016040528092919082600260200280828437600081840152601f19601f820116905080830192505050505050919291929080604001906002806020026040519081016040528092919082600260200280828437600081840152601f19601f820116905080830192505050505050919291929080604001906002806020026040519081016040528092919082600260200280828437600081840152601f19601f8201169050808301925050505050509192919290505050611c29565b005b6107986004803603604081101561076257600080fd5b81019080803573ffffffffffffffffffffffffffffffffffffffff16906020019092919080359060200190929190505050611f31565b6040518082815260200191505060405180910390f35b610811600480360360808110156107c457600080fd5b81019080803573ffffffffffffffffffffffffffffffffffffffff169060200190929190803560ff1690602001909291908035906020019092919080359060200190929190505050612336565b005b6108f9600480360360a081101561082957600080fd5b810190808035906020019064010000000081111561084657600080fd5b82018360208201111561085857600080fd5b8035906020019184600183028401116401000000008311171561087a57600080fd5b91908080601f016020809104026020016040519081016040528093929190818152602001838380828437600081840152601f19601f820116905080830192505050505050509192919290803560ff16906020019092919080359060200190929190803590602001909291908035151590602001909291905050506125a1565b604051808215151515815260200191505060405180910390f35b610a8f600480360360e081101561092957600080fd5b810190808035906020019064010000000081111561094657600080fd5b82018360208201111561095857600080fd5b8035906020019184600183028401116401000000008311171561097a57600080fd5b91908080601f016020809104026020016040519081016040528093929190818152602001838380828437600081840152601f19601f82011690508083019250505050505050919291929080604001906002806020026040519081016040528092919082600260200280828437600081840152601f19601f820116905080830192505050505050919291929080604001906002806020026040519081016040528092919082600260200280828437600081840152601f19601f820116905080830192505050505050919291929080604001906002806020026040519081016040528092919082600260200280828437600081840152601f19601f820116905080830192505050505050919291929050505061282f565b005b610a99612b10565b604051808273ffffffffffffffffffffffffffffffffffffffff1673ffffffffffffffffffffffffffffffffffffffff16815260200191505060405180910390f35b610ae3612b36565b6040518082815260200191505060405180910390f35b610b4560048036036040811015610b0f57600080fd5b8101908080359060200190929190803573ffffffffffffffffffffffffffffffffffffffff169060200190929190505050612b3c565b005b610b9360048036036040811015610b5d57600080fd5b81019080803573ffffffffffffffffffffffffffffffffffffffff16906020019092919080359060200190929190505050612e00565b6040518084815260200183815260200182151515158152602001935050505060405180910390f35b610be760048036036020811015610bd157600080fd5b8101908080359060200190929190505050612f24565b604051808060200180602001838103835285818151815260200191508051906020019060200280838360005b83811015610c2e578082015181840152602081019050610c13565b50505050905001838103825284818151815260200191508051906020019060200280838360005b83811015610c70578082015181840152602081019050610c55565b5050505090500194505050505060405180910390f35b610cc860048036036020811015610c9c57600080fd5b81019080803573ffffffffffffffffffffffffffffffffffffffff16906020019092919050505061306c565b604051808673ffffffffffffffffffffffffffffffffffffffff1673ffffffffffffffffffffffffffffffffffffffff1681526020018581526020018481526020018381526020018281526020019550505050505060405180910390f35b6060600360008573ffffffffffffffffffffffffffffffffffffffff1673ffffffffffffffffffffffffffffffffffffffff16815260200190815260200160002060030160008481526020019081526020016000208281548110610d8657fe5b90600052602060002090600602016000018054600181600116156101000203166002900480601f016020809104026020016040519081016040528092919081815260200182805460018160011615610100020316600290048015610e2b5780601f10610e0057610100808354040283529160200191610e2b565b820191906000526020600020905b815481529060010190602001808311610e0e57829003601f168201915b505050505090509392505050565b6060600360008373ffffffffffffffffffffffffffffffffffffffff1673ffffffffffffffffffffffffffffffffffffffff168152602001908152602001600020600201805480602002602001604051908101604052809291908181526020018280548015610ec757602002820191906000526020600020905b815481526020019060010190808311610eb3575b50505050509050919050565b60001515600360008473ffffffffffffffffffffffffffffffffffffffff1673ffffffffffffffffffffffffffffffffffffffff168152602001908152602001600020600801600083815260200190815260200160002060020160009054906101000a900460ff16151514610f4757600080fd5b6000600360008473ffffffffffffffffffffffffffffffffffffffff1673ffffffffffffffffffffffffffffffffffffffff1681526020019081526020016000206007016000838152602001908152602001600020600160028110610fa857fe5b015411610fb457600080fd5b6000600360008473ffffffffffffffffffffffffffffffffffffffff1673ffffffffffffffffffffffffffffffffffffffff1681526020019081526020016000206003016000838152602001908152602001600020805490501161101757600080fd5b60006001600360008573ffffffffffffffffffffffffffffffffffffffff1673ffffffffffffffffffffffffffffffffffffffff16815260200190815260200160002060030160008481526020019081526020016000208054905003905061107d614f2f565b611085614f51565b61108d614f73565b6000600360008873ffffffffffffffffffffffffffffffffffffffff1673ffffffffffffffffffffffffffffffffffffffff168152602001908152602001600020600301600087815260200190815260200160002085815481106110ed57fe5b90600052602060002090600602016000018054600181600116156101000203166002900480601f0160208091040260200160405190810160405280929190818152602001828054600181600116156101000203166002900480156111925780601f1061116757610100808354040283529160200191611192565b820191906000526020600020905b81548152906001019060200180831161117557829003601f168201915b50505050508060200190516101208110156111ac57600080fd5b810190809190826080019190826040019190826040018051906020019092919050505093509350935093506111df614f95565b604051806101200160405280846000600281106111f857fe5b602002015181526020018560006002811061120f57fe5b602002015173ffffffffffffffffffffffffffffffffffffffff1681526020018560016002811061123c57fe5b602002015173ffffffffffffffffffffffffffffffffffffffff1681526020018360ff1681526020018660006004811061127257fe5b602002015181526020018660016004811061128957fe5b60200201518152602001866002600481106112a057fe5b60200201518152602001866003600481106112b757fe5b60200201518152602001846001600281106112ce57fe5b6020020151815250905042611347600360008b73ffffffffffffffffffffffffffffffffffffffff1673ffffffffffffffffffffffffffffffffffffffff16815260200190815260200160002060070160008a815260200190815260200160002060016002811061133b57fe5b01548360a001516130c2565b1061135157600080fd5b600081608001511161136257600080fd5b61136c88886130e1565b5050505050505050565b60028351101561138557600080fd5b60006113918585613d0f565b90506000806004600084815260200190815260200160002060000154146113b757600080fd5b856004600084815260200190815260200160002060000181905550846004600084815260200190815260200160002060010190805190602001906113fc929190615016565b50826004600084815260200190815260200160002060030181905550836004600084815260200190815260200160002060020181905550505050505050565b600073ffffffffffffffffffffffffffffffffffffffff168273ffffffffffffffffffffffffffffffffffffffff16141561147557600080fd5b8173ffffffffffffffffffffffffffffffffffffffff16600360008473ffffffffffffffffffffffffffffffffffffffff1673ffffffffffffffffffffffffffffffffffffffff16815260200190815260200160002060000160009054906101000a900473ffffffffffffffffffffffffffffffffffffffff1673ffffffffffffffffffffffffffffffffffffffff161461150f57600080fd5b61155b600360008473ffffffffffffffffffffffffffffffffffffffff1673ffffffffffffffffffffffffffffffffffffffff16815260200190815260200160002060010154826130c2565b600360008473ffffffffffffffffffffffffffffffffffffffff1673ffffffffffffffffffffffffffffffffffffffff16815260200190815260200160002060010181905550600260009054906101000a900473ffffffffffffffffffffffffffffffffffffffff1673ffffffffffffffffffffffffffffffffffffffff166323b872dd3330846040518463ffffffff1660e01b8152600401808473ffffffffffffffffffffffffffffffffffffffff1673ffffffffffffffffffffffffffffffffffffffff1681526020018373ffffffffffffffffffffffffffffffffffffffff1673ffffffffffffffffffffffffffffffffffffffff1681526020018281526020019350505050602060405180830381600087803b15801561167e57600080fd5b505af1158015611692573d6000803e3d6000fd5b505050506040513d60208110156116a857600080fd5b81019080805190602001909291905050506116c257600080fd5b5050565b60005481565b6000806116da858585613d75565b91509150600080905060008090505b60046000888152602001908152602001600020600101805490508110156118d3578373ffffffffffffffffffffffffffffffffffffffff1660046000898152602001908152602001600020600101828154811061174257fe5b9060005260206000200160009054906101000a900473ffffffffffffffffffffffffffffffffffffffff1673ffffffffffffffffffffffffffffffffffffffff1614156118c6576001600460008981526020019081526020016000206001018054905003811415611836578273ffffffffffffffffffffffffffffffffffffffff16600460008981526020019081526020016000206001016000815481106117e657fe5b9060005260206000200160009054906101000a900473ffffffffffffffffffffffffffffffffffffffff1673ffffffffffffffffffffffffffffffffffffffff161461183157600080fd5b6118bd565b8273ffffffffffffffffffffffffffffffffffffffff1660046000898152602001908152602001600020600101600183018154811061187157fe5b9060005260206000200160009054906101000a900473ffffffffffffffffffffffffffffffffffffffff1673ffffffffffffffffffffffffffffffffffffffff16146118bc57600080fd5b5b600191506118d3565b80806001019150506116e9565b5060011515811515146118e557600080fd5b60008090505b600460008881526020019081526020016000206005018054905081101561199d578373ffffffffffffffffffffffffffffffffffffffff1660046000898152602001908152602001600020600501828154811061194457fe5b9060005260206000200160009054906101000a900473ffffffffffffffffffffffffffffffffffffffff1673ffffffffffffffffffffffffffffffffffffffff16141561199057600080fd5b80806001019150506118eb565b5060606119a86150a0565b6119b0614f73565b6119b8614f73565b8780602001905160e08110156119cd57600080fd5b81019080805160405193929190846401000000008211156119ed57600080fd5b83820191506020820185811115611a0357600080fd5b8251866001820283011164010000000082111715611a2057600080fd5b8083526020830192505050908051906020019080838360005b83811015611a54578082015181840152602081019050611a39565b50505050905090810190601f168015611a815780820380516001836020036101000a031916815260200191505b50604052602001919082604001919082604001919050509350935093509350604051806080016040528085815260200184815260200183815260200182815250600460008c815260200190815260200160002060040160008973ffffffffffffffffffffffffffffffffffffffff1673ffffffffffffffffffffffffffffffffffffffff1681526020019081526020016000206000820151816000019080519060200190611b309291906150c2565b50602082015181600101906002611b48929190615142565b50604082015181600201906002611b609291906151dc565b50606082015181600401906002611b789291906151dc565b50905050600460008b8152602001908152602001600020600501879080600181540180825580915050600190039060005260206000200160009091909190916101000a81548173ffffffffffffffffffffffffffffffffffffffff021916908373ffffffffffffffffffffffffffffffffffffffff16021790555050505050505050505050565b60046020528060005260406000206000915090508060000154908060020154908060030154905083565b6000806000611c3c8787878760006140e5565b925092509250600360008473ffffffffffffffffffffffffffffffffffffffff1673ffffffffffffffffffffffffffffffffffffffff168152602001908152602001600020600201829080600181540180825580915050600190039060005260206000200160009091909190915055600360008473ffffffffffffffffffffffffffffffffffffffff1673ffffffffffffffffffffffffffffffffffffffff168152602001908152602001600020600301600083815260200190815260200160002060405180608001604052808981526020018881526020018781526020018681525090806001815401808255809150506001900390600052602060002090600602016000909190919091506000820151816000019080519060200190611d649291906150c2565b50602082015181600101906002611d7c929190615142565b50604082015181600201906002611d949291906151dc565b50606082015181600401906002611dac9291906151dc565b50505042600360008573ffffffffffffffffffffffffffffffffffffffff1673ffffffffffffffffffffffffffffffffffffffff1681526020019081526020016000206007016000848152602001908152602001600020600060028110611e0f57fe5b018190555042600360008573ffffffffffffffffffffffffffffffffffffffff1673ffffffffffffffffffffffffffffffffffffffff1681526020019081526020016000206007016000848152602001908152602001600020600160028110611e7457fe5b0181905550611ece600360008573ffffffffffffffffffffffffffffffffffffffff1673ffffffffffffffffffffffffffffffffffffffff16815260200190815260200160002060040154611ec98585611f31565b6130c2565b600360008573ffffffffffffffffffffffffffffffffffffffff1673ffffffffffffffffffffffffffffffffffffffff168152602001908152602001600020600401819055506000811415611f2857611f2783836130e1565b5b50505050505050565b600080600360008573ffffffffffffffffffffffffffffffffffffffff1673ffffffffffffffffffffffffffffffffffffffff16815260200190815260200160002060030160008481526020019081526020016000208054905011611f9557600080fd5b60006001600360008673ffffffffffffffffffffffffffffffffffffffff1673ffffffffffffffffffffffffffffffffffffffff168152602001908152602001600020600301600085815260200190815260200160002080549050039050611ffb614f2f565b612003614f51565b61200b614f73565b6000600360008973ffffffffffffffffffffffffffffffffffffffff1673ffffffffffffffffffffffffffffffffffffffff1681526020019081526020016000206003016000888152602001908152602001600020858154811061206b57fe5b90600052602060002090600602016000018054600181600116156101000203166002900480601f0160208091040260200160405190810160405280929190818152602001828054600181600116156101000203166002900480156121105780601f106120e557610100808354040283529160200191612110565b820191906000526020600020905b8154815290600101906020018083116120f357829003601f168201915b505050505080602001905161012081101561212a57600080fd5b8101908091908260800191908260400191908260400180519060200190929190505050935093509350935061215d614f95565b6040518061012001604052808460006002811061217657fe5b602002015181526020018560006002811061218d57fe5b602002015173ffffffffffffffffffffffffffffffffffffffff168152602001856001600281106121ba57fe5b602002015173ffffffffffffffffffffffffffffffffffffffff1681526020018360ff168152602001866000600481106121f057fe5b602002015181526020018660016004811061220757fe5b602002015181526020018660026004811061221e57fe5b602002015181526020018660036004811061223557fe5b602002015181526020018460016002811061224c57fe5b6020020151815250905060006122d060646122cb600360008e73ffffffffffffffffffffffffffffffffffffffff1673ffffffffffffffffffffffffffffffffffffffff16815260200190815260200160002060070160008d81526020019081526020016000206000600281106122bf57fe5b01548560c001516149af565b6149cf565b905060006122e68360e001518460c001516149af565b905060006122f48383614a09565b905061232561231e61230b606487608001516149cf565b6123198488608001516149cf565b6149af565b6064614a09565b995050505050505050505092915050565b600061238f85604051602001808273ffffffffffffffffffffffffffffffffffffffff1673ffffffffffffffffffffffffffffffffffffffff168152602001915050604051602081830303815290604052600054614a2f565b90506000600360008773ffffffffffffffffffffffffffffffffffffffff1673ffffffffffffffffffffffffffffffffffffffff16815260200190815260200160002060010154146123e057600080fd5b600073ffffffffffffffffffffffffffffffffffffffff16600360008773ffffffffffffffffffffffffffffffffffffffff1673ffffffffffffffffffffffffffffffffffffffff16815260200190815260200160002060000160009054906101000a900473ffffffffffffffffffffffffffffffffffffffff1673ffffffffffffffffffffffffffffffffffffffff161461247b57600080fd5b8473ffffffffffffffffffffffffffffffffffffffff1660018286868660405160008152602001604052604051808581526020018460ff1660ff1681526020018381526020018281526020019450505050506020604051602081039080840390855afa1580156124ef573d6000803e3d6000fd5b5050506020604051035173ffffffffffffffffffffffffffffffffffffffff161461251957600080fd5b84600360008773ffffffffffffffffffffffffffffffffffffffff1673ffffffffffffffffffffffffffffffffffffffff16815260200190815260200160002060000160006101000a81548173ffffffffffffffffffffffffffffffffffffffff021916908373ffffffffffffffffffffffffffffffffffffffff1602179055505050505050565b60006125ab614f2f565b6125b3614f51565b6125bb614f73565b6000898060200190516101208110156125d357600080fd5b81019080919082608001919082604001919082604001805190602001909291905050509350935093509350612606614f95565b6040518061012001604052808460006002811061261f57fe5b602002015181526020018560006002811061263657fe5b602002015173ffffffffffffffffffffffffffffffffffffffff1681526020018560016002811061266357fe5b602002015173ffffffffffffffffffffffffffffffffffffffff1681526020018360ff1681526020018660006004811061269957fe5b60200201518152602001866001600481106126b057fe5b60200201518152602001866002600481106126c757fe5b60200201518152602001866003600481106126de57fe5b60200201518152602001846001600281106126f557fe5b60200201518152509050806060015160ff1660001061271c57600095505050505050612826565b6001546127318260e001518360c001516149af565b101561274557600095505050505050612826565b60006127538c600054614a2f565b9050600088156127695782602001519050612771565b826040015190505b8073ffffffffffffffffffffffffffffffffffffffff166001838e8e8e60405160008152602001604052604051808581526020018460ff1660ff1681526020018381526020018281526020019450505050506020604051602081039080840390855afa1580156127e5573d6000803e3d6000fd5b5050506020604051035173ffffffffffffffffffffffffffffffffffffffff161461281a576000975050505050505050612826565b60019750505050505050505b95945050505050565b60008060006128428787878760016140e5565b92509250925060006128548484611f31565b9050600360008573ffffffffffffffffffffffffffffffffffffffff1673ffffffffffffffffffffffffffffffffffffffff168152602001908152602001600020600301600084815260200190815260200160002060405180608001604052808a8152602001898152602001888152602001878152509080600181540180825580915050600190039060005260206000209060060201600090919091909150600082015181600001908051906020019061290f9291906150c2565b50602082015181600101906002612927929190615142565b5060408201518160020190600261293f9291906151dc565b506060820151816004019060026129579291906151dc565b50505042600360008673ffffffffffffffffffffffffffffffffffffffff1673ffffffffffffffffffffffffffffffffffffffff16815260200190815260200160002060070160008581526020019081526020016000206001600281106129ba57fe5b018190555060006129cb8585611f31565b9050612a19600360008773ffffffffffffffffffffffffffffffffffffffff1673ffffffffffffffffffffffffffffffffffffffff16815260200190815260200160002060040154836149af565b600360008773ffffffffffffffffffffffffffffffffffffffff1673ffffffffffffffffffffffffffffffffffffffff16815260200190815260200160002060040181905550612aab600360008773ffffffffffffffffffffffffffffffffffffffff1673ffffffffffffffffffffffffffffffffffffffff16815260200190815260200160002060040154826130c2565b600360008773ffffffffffffffffffffffffffffffffffffffff1673ffffffffffffffffffffffffffffffffffffffff168152602001908152602001600020600401819055506000831415612b0557612b0485856130e1565b5b505050505050505050565b600260009054906101000a900473ffffffffffffffffffffffffffffffffffffffff1681565b60015481565b3373ffffffffffffffffffffffffffffffffffffffff16600360003373ffffffffffffffffffffffffffffffffffffffff1673ffffffffffffffffffffffffffffffffffffffff16815260200190815260200160002060000160009054906101000a900473ffffffffffffffffffffffffffffffffffffffff1673ffffffffffffffffffffffffffffffffffffffff1614612bd657600080fd5b60008211612be357600080fd5b612c2f600360003373ffffffffffffffffffffffffffffffffffffffff1673ffffffffffffffffffffffffffffffffffffffff16815260200190815260200160002060040154836130c2565b600360003373ffffffffffffffffffffffffffffffffffffffff1673ffffffffffffffffffffffffffffffffffffffff168152602001908152602001600020600101541015612c7d57600080fd5b612cc9600360003373ffffffffffffffffffffffffffffffffffffffff1673ffffffffffffffffffffffffffffffffffffffff16815260200190815260200160002060010154836149af565b600360003373ffffffffffffffffffffffffffffffffffffffff1673ffffffffffffffffffffffffffffffffffffffff16815260200190815260200160002060010181905550600260009054906101000a900473ffffffffffffffffffffffffffffffffffffffff1673ffffffffffffffffffffffffffffffffffffffff1663a9059cbb82846040518363ffffffff1660e01b8152600401808373ffffffffffffffffffffffffffffffffffffffff1673ffffffffffffffffffffffffffffffffffffffff16815260200182815260200192505050602060405180830381600087803b158015612db857600080fd5b505af1158015612dcc573d6000803e3d6000fd5b505050506040513d6020811015612de257600080fd5b8101908080519060200190929190505050612dfc57600080fd5b5050565b6000806000600360008673ffffffffffffffffffffffffffffffffffffffff1673ffffffffffffffffffffffffffffffffffffffff168152602001908152602001600020600801600085815260200190815260200160002060000154600360008773ffffffffffffffffffffffffffffffffffffffff1673ffffffffffffffffffffffffffffffffffffffff168152602001908152602001600020600801600086815260200190815260200160002060010154600360008873ffffffffffffffffffffffffffffffffffffffff1673ffffffffffffffffffffffffffffffffffffffff168152602001908152602001600020600801600087815260200190815260200160002060020160009054906101000a900460ff169250925092509250925092565b606080600460008481526020019081526020016000206001016004600085815260200190815260200160002060050181805480602002602001604051908101604052809291908181526020018280548015612fd457602002820191906000526020600020905b8160009054906101000a900473ffffffffffffffffffffffffffffffffffffffff1673ffffffffffffffffffffffffffffffffffffffff1681526020019060010190808311612f8a575b505050505091508080548060200260200160405190810160405280929190818152602001828054801561305c57602002820191906000526020600020905b8160009054906101000a900473ffffffffffffffffffffffffffffffffffffffff1673ffffffffffffffffffffffffffffffffffffffff1681526020019060010190808311613012575b5050505050905091509150915091565b60036020528060005260406000206000915090508060000160009054906101000a900473ffffffffffffffffffffffffffffffffffffffff16908060010154908060040154908060050154908060060154905085565b6000808284019050838110156130d757600080fd5b8091505092915050565b6000600360008473ffffffffffffffffffffffffffffffffffffffff1673ffffffffffffffffffffffffffffffffffffffff1681526020019081526020016000206003016000838152602001908152602001600020805490501161314457600080fd5b60006001600360008573ffffffffffffffffffffffffffffffffffffffff1673ffffffffffffffffffffffffffffffffffffffff1681526020019081526020016000206003016000848152602001908152602001600020805490500390506131aa614f2f565b6131b2614f51565b6131ba614f73565b6000600360008873ffffffffffffffffffffffffffffffffffffffff1673ffffffffffffffffffffffffffffffffffffffff1681526020019081526020016000206003016000878152602001908152602001600020858154811061321a57fe5b90600052602060002090600602016000018054600181600116156101000203166002900480601f0160208091040260200160405190810160405280929190818152602001828054600181600116156101000203166002900480156132bf5780601f10613294576101008083540402835291602001916132bf565b820191906000526020600020905b8154815290600101906020018083116132a257829003601f168201915b50505050508060200190516101208110156132d957600080fd5b8101908091908260800191908260400191908260400180519060200190929190505050935093509350935061330c614f95565b6040518061012001604052808460006002811061332557fe5b602002015181526020018560006002811061333c57fe5b602002015173ffffffffffffffffffffffffffffffffffffffff1681526020018560016002811061336957fe5b602002015173ffffffffffffffffffffffffffffffffffffffff1681526020018360ff1681526020018660006004811061339f57fe5b60200201518152602001866001600481106133b657fe5b60200201518152602001866002600481106133cd57fe5b60200201518152602001866003600481106133e457fe5b60200201518152602001846001600281106133fb57fe5b6020020151815250905060006134118989611f31565b905061346360036000846020015173ffffffffffffffffffffffffffffffffffffffff1673ffffffffffffffffffffffffffffffffffffffff16815260200190815260200160002060040154826149af565b60036000846020015173ffffffffffffffffffffffffffffffffffffffff1673ffffffffffffffffffffffffffffffffffffffff168152602001908152602001600020600401819055508060036000846020015173ffffffffffffffffffffffffffffffffffffffff1673ffffffffffffffffffffffffffffffffffffffff168152602001908152602001600020600101541061377a576040518060600160405280828152602001600081526020016001151581525060036000846020015173ffffffffffffffffffffffffffffffffffffffff1673ffffffffffffffffffffffffffffffffffffffff16815260200190815260200160002060080160008a8152602001908152602001600020600082015181600001556020820151816001015560408201518160020160006101000a81548160ff0219169083151502179055509050506135f760036000846020015173ffffffffffffffffffffffffffffffffffffffff1673ffffffffffffffffffffffffffffffffffffffff16815260200190815260200160002060060154826130c2565b60036000846020015173ffffffffffffffffffffffffffffffffffffffff1673ffffffffffffffffffffffffffffffffffffffff1681526020019081526020016000206006018190555061369160036000846020015173ffffffffffffffffffffffffffffffffffffffff1673ffffffffffffffffffffffffffffffffffffffff16815260200190815260200160002060010154826149af565b60036000846020015173ffffffffffffffffffffffffffffffffffffffff1673ffffffffffffffffffffffffffffffffffffffff1681526020019081526020016000206001018190555061372b60036000846040015173ffffffffffffffffffffffffffffffffffffffff1673ffffffffffffffffffffffffffffffffffffffff16815260200190815260200160002060010154826130c2565b60036000846040015173ffffffffffffffffffffffffffffffffffffffff1673ffffffffffffffffffffffffffffffffffffffff16815260200190815260200160002060010181905550613d04565b600060036000846020015173ffffffffffffffffffffffffffffffffffffffff1673ffffffffffffffffffffffffffffffffffffffff168152602001908152602001600020600101541115613bbb57600061381b8260036000866020015173ffffffffffffffffffffffffffffffffffffffff1673ffffffffffffffffffffffffffffffffffffffff168152602001908152602001600020600101546149af565b9050604051806060016040528060036000866020015173ffffffffffffffffffffffffffffffffffffffff1673ffffffffffffffffffffffffffffffffffffffff1681526020019081526020016000206001015481526020018281526020016001151581525060036000856020015173ffffffffffffffffffffffffffffffffffffffff1673ffffffffffffffffffffffffffffffffffffffff16815260200190815260200160002060080160008b8152602001908152602001600020600082015181600001556020820151816001015560408201518160020160006101000a81548160ff0219169083151502179055509050506139a560036000856020015173ffffffffffffffffffffffffffffffffffffffff1673ffffffffffffffffffffffffffffffffffffffff1681526020019081526020016000206006015460036000866020015173ffffffffffffffffffffffffffffffffffffffff1673ffffffffffffffffffffffffffffffffffffffff168152602001908152602001600020600101546130c2565b60036000856020015173ffffffffffffffffffffffffffffffffffffffff1673ffffffffffffffffffffffffffffffffffffffff16815260200190815260200160002060060181905550613a3f60036000856020015173ffffffffffffffffffffffffffffffffffffffff1673ffffffffffffffffffffffffffffffffffffffff16815260200190815260200160002060050154826130c2565b60036000856020015173ffffffffffffffffffffffffffffffffffffffff1673ffffffffffffffffffffffffffffffffffffffff16815260200190815260200160002060050181905550613b1f60036000856040015173ffffffffffffffffffffffffffffffffffffffff1673ffffffffffffffffffffffffffffffffffffffff1681526020019081526020016000206001015460036000866020015173ffffffffffffffffffffffffffffffffffffffff1673ffffffffffffffffffffffffffffffffffffffff168152602001908152602001600020600101546130c2565b60036000856040015173ffffffffffffffffffffffffffffffffffffffff1673ffffffffffffffffffffffffffffffffffffffff16815260200190815260200160002060010181905550600060036000856020015173ffffffffffffffffffffffffffffffffffffffff1673ffffffffffffffffffffffffffffffffffffffff1681526020019081526020016000206001018190555050613d03565b6040518060600160405280600081526020018281526020016001151581525060036000846020015173ffffffffffffffffffffffffffffffffffffffff1673ffffffffffffffffffffffffffffffffffffffff16815260200190815260200160002060080160008a8152602001908152602001600020600082015181600001556020820151816001015560408201518160020160006101000a81548160ff021916908315150217905550905050613cb860036000846020015173ffffffffffffffffffffffffffffffffffffffff1673ffffffffffffffffffffffffffffffffffffffff16815260200190815260200160002060050154826130c2565b60036000846020015173ffffffffffffffffffffffffffffffffffffffff1673ffffffffffffffffffffffffffffffffffffffff168152602001908152602001600020600501819055505b5b505050505050505050565b6000828260405160200180838152602001828051906020019060200280838360005b83811015613d4c578082015181840152602081019050613d31565b505050509050019250505060405160208183030381529060405280519060200120905092915050565b60008060046000868152602001908152602001600020600301544210613d9a57600080fd5b6060613da46150a0565b613dac614f73565b613db4614f73565b8780602001905160e0811015613dc957600080fd5b8101908080516040519392919084640100000000821115613de957600080fd5b83820191506020820185811115613dff57600080fd5b8251866001820283011164010000000082111715613e1c57600080fd5b8083526020830192505050908051906020019080838360005b83811015613e50578082015181840152602081019050613e35565b50505050905090810190601f168015613e7d5780820380516001836020036101000a031916815260200191505b506040526020019190826040019190826040019190505093509350935093506060613ea66150a0565b613eae614f73565b613eb6614f73565b8a80602001905160e0811015613ecb57600080fd5b8101908080516040519392919084640100000000821115613eeb57600080fd5b83820191506020820185811115613f0157600080fd5b8251866001820283011164010000000082111715613f1e57600080fd5b8083526020830192505050908051906020019080838360005b83811015613f52578082015181840152602081019050613f37565b50505050905090810190601f168015613f7f5780820380516001836020036101000a031916815260200191505b50604052602001919082604001919082604001919050509350935093509350613fdf8888600060028110613faf57fe5b602002015188600060028110613fc157fe5b602002015188600060028110613fd357fe5b602002015160016125a1565b613fe857600080fd5b6140298888600160028110613ff957fe5b60200201518860016002811061400b57fe5b60200201518860016002811061401d57fe5b602002015160006125a1565b61403257600080fd5b614073848460006002811061404357fe5b60200201518460006002811061405557fe5b60200201518460006002811061406757fe5b602002015160016125a1565b61407c57600080fd5b6140bd848460016002811061408d57fe5b60200201518460016002811061409f57fe5b6020020151846001600281106140b157fe5b602002015160006125a1565b6140c657600080fd5b6140d188858f614a97565b995099505050505050505050935093915050565b60008060006140f2614f2f565b6140fa614f51565b614102614f73565b60008b80602001905161012081101561411a57600080fd5b8101908091908260800191908260400191908260400180519060200190929190505050935093509350935061414d614f95565b6040518061012001604052808460006002811061416657fe5b602002015181526020018560006002811061417d57fe5b602002015173ffffffffffffffffffffffffffffffffffffffff168152602001856001600281106141aa57fe5b602002015173ffffffffffffffffffffffffffffffffffffffff1681526020018360ff168152602001866000600481106141e057fe5b60200201518152602001866001600481106141f757fe5b602002015181526020018660026004811061420e57fe5b602002015181526020018660036004811061422557fe5b602002015181526020018460016002811061423c57fe5b60200201518152509050806020015173ffffffffffffffffffffffffffffffffffffffff1660036000836020015173ffffffffffffffffffffffffffffffffffffffff1673ffffffffffffffffffffffffffffffffffffffff16815260200190815260200160002060000160009054906101000a900473ffffffffffffffffffffffffffffffffffffffff1673ffffffffffffffffffffffffffffffffffffffff16146142e857600080fd5b6000808261010001511461436a576000600460008461010001518152602001908152602001600020600501805490501161432157600080fd5b60046000836101000151815260200190815260200160002060010180549050600460008461010001518152602001908152602001600020600501805490501461436957600080fd5b5b6000826060015160ff161161437e57600080fd5b6001546143938360e001518460c001516149af565b101561439e57600080fd5b8160c0015142116143ae57600080fd5b6143c5826000015183602001518460400151614e8f565b9050891561479257600060036000846020015173ffffffffffffffffffffffffffffffffffffffff1673ffffffffffffffffffffffffffffffffffffffff1681526020019081526020016000206003016000838152602001908152602001600020805490501161443457600080fd5b6000600160036000856020015173ffffffffffffffffffffffffffffffffffffffff1673ffffffffffffffffffffffffffffffffffffffff16815260200190815260200160002060030160008481526020019081526020016000208054905003905060036000846020015173ffffffffffffffffffffffffffffffffffffffff1673ffffffffffffffffffffffffffffffffffffffff168152602001908152602001600020600301600083815260200190815260200160002081815481106144f857fe5b90600052602060002090600602016000018054600181600116156101000203166002900480601f01602080910402602001604051908101604052809291908181526020018280546001816001161561010002031660029004801561459d5780601f106145725761010080835404028352916020019161459d565b820191906000526020600020905b81548152906001019060200180831161458057829003601f168201915b50505050508060200190516101208110156145b757600080fd5b8101908091908260800191908260400191908260400180519060200190929190505050839350829250819150809750819850829950839a50505050506145fb614f95565b6040518061012001604052808760006002811061461457fe5b602002015181526020018860006002811061462b57fe5b602002015173ffffffffffffffffffffffffffffffffffffffff1681526020018860016002811061465857fe5b602002015173ffffffffffffffffffffffffffffffffffffffff1681526020018660ff1681526020018960006004811061468e57fe5b60200201518152602001896001600481106146a557fe5b60200201518152602001896002600481106146bc57fe5b60200201518152602001896003600481106146d357fe5b60200201518152602001876001600281106146ea57fe5b602002015181525090504261476760036000876020015173ffffffffffffffffffffffffffffffffffffffff1673ffffffffffffffffffffffffffffffffffffffff168152602001908152602001600020600701600086815260200190815260200160002060016002811061475b57fe5b01548360a001516130c2565b1161477157600080fd5b806060015160ff16846060015160ff161161478b57600080fd5b5050614881565b60008090505b60036000846020015173ffffffffffffffffffffffffffffffffffffffff1673ffffffffffffffffffffffffffffffffffffffff1681526020019081526020016000206002018054905081101561485e578160036000856020015173ffffffffffffffffffffffffffffffffffffffff1673ffffffffffffffffffffffffffffffffffffffff168152602001908152602001600020600201828154811061483b57fe5b9060005260206000200154141561485157600080fd5b8080600101915050614798565b508160e00151421061486f57600080fd5b600082608001511161488057600080fd5b5b6148c28e8e60006002811061489257fe5b60200201518e6000600281106148a457fe5b60200201518e6000600281106148b657fe5b602002015160016125a1565b6148cb57600080fd5b61490c8e8e6001600281106148dc57fe5b60200201518e6001600281106148ee57fe5b60200201518e60016002811061490057fe5b602002015160006125a1565b61491557600080fd5b6000151560036000846020015173ffffffffffffffffffffffffffffffffffffffff1673ffffffffffffffffffffffffffffffffffffffff168152602001908152602001600020600801600083815260200190815260200160002060020160009054906101000a900460ff1615151461498d57600080fd5b8160200151818360a00151985098509850505050505050955095509592505050565b6000828211156149be57600080fd5b600082840390508091505092915050565b6000808314156149e25760009050614a03565b60008284029050828482816149f357fe5b04146149fe57600080fd5b809150505b92915050565b6000808211614a1757600080fd5b6000828481614a2257fe5b0490508091505092915050565b600081838051906020012060405160200180807f19010000000000000000000000000000000000000000000000000000000000008152506002018381526020018281526020019250505060405160208183030381529060405280519060200120905092915050565b600080614aa2614f2f565b614aaa614f51565b614ab2614f73565b600088806020019051610120811015614aca57600080fd5b81019080919082608001919082604001919082604001805190602001909291905050509350935093509350614afd614f95565b60405180610120016040528084600060028110614b1657fe5b6020020151815260200185600060028110614b2d57fe5b602002015173ffffffffffffffffffffffffffffffffffffffff16815260200185600160028110614b5a57fe5b602002015173ffffffffffffffffffffffffffffffffffffffff1681526020018360ff16815260200186600060048110614b9057fe5b6020020151815260200186600160048110614ba757fe5b6020020151815260200186600260048110614bbe57fe5b6020020151815260200186600360048110614bd557fe5b6020020151815260200184600160028110614bec57fe5b6020020151815250905088806020019051610120811015614c0c57600080fd5b810190809190826080019190826040019190826040018051906020019092919050505083935082925081915080955081965082975083985050505050614c50614f95565b60405180610120016040528085600060028110614c6957fe5b6020020151815260200186600060028110614c8057fe5b602002015173ffffffffffffffffffffffffffffffffffffffff16815260200186600160028110614cad57fe5b602002015173ffffffffffffffffffffffffffffffffffffffff1681526020018460ff16815260200187600060048110614ce357fe5b6020020151815260200187600160048110614cfa57fe5b6020020151815260200187600260048110614d1157fe5b6020020151815260200187600360048110614d2857fe5b6020020151815260200185600160028110614d3f57fe5b602002015181525090508881610100015114614d5a57600080fd5b888261010001511415614d6c57600080fd5b600182606001510160ff16816060015160ff1614614d8957600080fd5b8060000151826000015114614d9d57600080fd5b806020015173ffffffffffffffffffffffffffffffffffffffff16826020015173ffffffffffffffffffffffffffffffffffffffff1614614ddd57600080fd5b806040015173ffffffffffffffffffffffffffffffffffffffff16826040015173ffffffffffffffffffffffffffffffffffffffff1614614e1d57600080fd5b6000600460008b81526020019081526020016000206002015411614e4057600080fd5b600460008a815260200190815260200160002060020154614e69836080015183608001516149af565b14614e7357600080fd5b8160200151826040015197509750505050505050935093915050565b6000838383604051602001808481526020018373ffffffffffffffffffffffffffffffffffffffff1673ffffffffffffffffffffffffffffffffffffffff1660601b81526014018273ffffffffffffffffffffffffffffffffffffffff1673ffffffffffffffffffffffffffffffffffffffff1660601b815260140193505050506040516020818303038152906040528051906020012090509392505050565b6040518060800160405280600490602082028038833980820191505090505090565b6040518060400160405280600290602082028038833980820191505090505090565b6040518060400160405280600290602082028038833980820191505090505090565b60405180610120016040528060008019168152602001600073ffffffffffffffffffffffffffffffffffffffff168152602001600073ffffffffffffffffffffffffffffffffffffffff168152602001600060ff16815260200160008152602001600081526020016000815260200160008152602001600080191681525090565b82805482825590600052602060002090810192821561508f579160200282015b8281111561508e5782518260006101000a81548173ffffffffffffffffffffffffffffffffffffffff021916908373ffffffffffffffffffffffffffffffffffffffff16021790555091602001919060010190615036565b5b50905061509c919061521c565b5090565b6040518060400160405280600290602082028038833980820191505090505090565b828054600181600116156101000203166002900490600052602060002090601f016020900481019282601f1061510357805160ff1916838001178555615131565b82800160010185558215615131579182015b82811115615130578251825591602001919060010190615115565b5b50905061513e919061525f565b5090565b826002601f016020900481019282156151cb5791602002820160005b8382111561519c57835183826101000a81548160ff021916908360ff160217905550926020019260010160208160000104928301926001030261515e565b80156151c95782816101000a81549060ff021916905560010160208160000104928301926001030261519c565b505b5090506151d89190615284565b5090565b826002810192821561520b579160200282015b8281111561520a5782518255916020019190600101906151ef565b5b50905061521891906152b4565b5090565b61525c91905b8082111561525857600081816101000a81549073ffffffffffffffffffffffffffffffffffffffff021916905550600101615222565b5090565b90565b61528191905b8082111561527d576000816000905550600101615265565b5090565b90565b6152b191905b808211156152ad57600081816101000a81549060ff02191690555060010161528a565b5090565b90565b6152d691905b808211156152d25760008160009055506001016152ba565b5090565b9056fea26469706673582212203c8a14a0f5571d002374c3e9dfd75d7635a3e52029ab42b34fd1508f4b67842464736f6c63430006020033",
  "source": "pragma solidity ^0.6.0;\nimport \"./SafeMath.sol\";\nimport \"./CashlessLib.sol\";\nimport \"./../node_modules/@openzeppelin/contracts/token/ERC20/IERC20.sol\";\n\ncontract Cashless {\n    // Precomputed hash for EIP712 domain separator\n    bytes32 constant EIP712HASH = 0x0eff6c88c44fbde2113ba7421deef795c18fc5a553a55b2ba4d237269e1c2662;\n    \n    // Domain separator completed on contract construction\n    bytes32 public DOMAIN_SEPARATOR;\n    \n    // Claim\n    struct Claim {\n        bytes32 claimName;\n        address sender;\n        address receiver;\n        uint8 nonce;\n        uint256 amount;\n        uint256 disputeDuration;\n        uint256 vestTimestamp;\n        uint256 voidTimestamp;\n        bytes32 loopID;\n    }\n    \n    // SignedClaim\n    struct SignedClaim {\n        bytes claimData;\n        uint8[2] sigsV;\n        bytes32[2] sigsR;\n        bytes32[2] sigsS;\n    }\n    \n    // Settlement\n    struct Settlement {\n        uint256 amountPaid;\n        uint256 amountDefaulted;\n        bool settled;\n    }\n    \n    // LoopProposal\n    struct LoopProposal {\n        bytes32 proposalName;\n        address[] loop;\n        uint256 minFlow;\n        uint256 lockTimestamp;\n        mapping (address => SignedClaim) claims;\n        address[] committed;\n    }\n    \n    // Reserves\n    struct Reserves {\n        address owner;\n        uint256 balance;\n        bytes32[] claimIDs;\n        mapping (bytes32 => SignedClaim[]) claims;\n        uint256 grossClaimed;\n        uint256 grossDefaulted;\n        uint256 grossPaid;\n        mapping (bytes32 => uint256[2]) proposalTimestamps;\n        mapping (bytes32 => Settlement) settlements;\n    }\n    \n    uint256 public minVestDuration = 604800;\n    address public tokenAddress;\n    mapping (address => Reserves) public reserves;\n    mapping (bytes32 => LoopProposal) public loops;\n\n    // Constructor function\n    constructor (bytes32 salt, address _tokenAddress) public {\n        DOMAIN_SEPARATOR = keccak256(abi.encodePacked(EIP712HASH, this, salt));\n        tokenAddress = _tokenAddress;\n    }\n    \n    // Public State Modifying functions\n    function createReserves(address reservesAddress, uint8 v, bytes32 r, bytes32 s) public {\n        bytes32 hash = CashlessLib.hashClaimData(abi.encode(reservesAddress), DOMAIN_SEPARATOR);\n        require(reserves[reservesAddress].balance == 0);\n        require(reserves[reservesAddress].owner == address(0));\n        require(ecrecover(hash, v, r, s) == reservesAddress);\n        reserves[reservesAddress].owner = reservesAddress;\n    }\n    \n    function fundReserves(address accountOwner, uint256 amount) public {\n        require(accountOwner != address(0));\n        require(address(reserves[accountOwner].owner) == accountOwner);\n        reserves[accountOwner].balance = SafeMath.add(reserves[accountOwner].balance, amount);\n        require(IERC20(tokenAddress).transferFrom(msg.sender, address(this), amount));\n    }\n    \n    function withdrawReserves(uint256 amount, address targetReceiver) public {\n        require(reserves[msg.sender].owner == address(msg.sender));\n        require(amount>0);\n        require(reserves[msg.sender].balance >= SafeMath.add(reserves[msg.sender].grossClaimed, amount));\n        reserves[msg.sender].balance = SafeMath.sub(reserves[msg.sender].balance, amount);\n        require(IERC20(tokenAddress).transfer(targetReceiver, amount));\n    }\n    \n    function proposeSettlement(bytes memory claimData, uint8[2] memory sigsV, bytes32[2] memory sigsR, bytes32[2] memory sigsS) public {\n        (address sender, bytes32 id, uint256 disputeDuration) = verifySettlement(claimData, sigsV, sigsR, sigsS, false); \n        reserves[sender].claimIDs.push(id);\n        reserves[sender].claims[id].push(SignedClaim(claimData, sigsV, sigsR, sigsS));\n        reserves[sender].proposalTimestamps[id][0] = now;\n        reserves[sender].proposalTimestamps[id][1] = now;\n        reserves[sender].grossClaimed = SafeMath.add(reserves[sender].grossClaimed, getAdjustedClaimAmount(sender, id));\n        // if no dispute period settle immediately\n        if (disputeDuration == 0) {\n            closeSettlement(sender, id);\n        }\n    }\n\n    function disputeSettlement(bytes memory claimData, uint8[2] memory sigsV, bytes32[2] memory sigsR, bytes32[2] memory sigsS) public {\n        (address sender, bytes32 id, uint256 disputeDuration) = verifySettlement(claimData, sigsV, sigsR, sigsS, true); \n        // minimum required duration between vest and void time\n        uint256 oldAmount = getAdjustedClaimAmount(sender, id);\n        reserves[sender].claims[id].push(SignedClaim(claimData, sigsV, sigsR, sigsS));\n        reserves[sender].proposalTimestamps[id][1] = now;\n        uint256 newAmount = getAdjustedClaimAmount(sender, id);\n        reserves[sender].grossClaimed = SafeMath.sub(reserves[sender].grossClaimed, oldAmount);\n        reserves[sender].grossClaimed = SafeMath.add(reserves[sender].grossClaimed, newAmount);\n        if (disputeDuration == 0) {\n            closeSettlement(sender, id);\n        }\n    }\n    \n    function redeemClaim(address accountOwner, bytes32 claimID) public {\n        require(reserves[accountOwner].settlements[claimID].settled == false);\n        require(reserves[accountOwner].proposalTimestamps[claimID][1] > 0);\n        require(reserves[accountOwner].claims[claimID].length > 0);\n        uint256 index = reserves[accountOwner].claims[claimID].length - 1;\n        (uint256[4] memory values, address[2] memory addrs, bytes32[2] memory ids, uint8 nonce) = abi.decode(reserves[accountOwner].claims[claimID][index].claimData, (uint256[4], address[2], bytes32[2], uint8));\n        Claim memory claim = Claim(ids[0], address(addrs[0]), address(addrs[1]), nonce, values[0], values[1], values[2], values[3], ids[1]);\n        require(SafeMath.add(reserves[accountOwner].proposalTimestamps[claimID][1], claim.disputeDuration) < now);\n        require(claim.amount > 0);\n        closeSettlement(accountOwner, claimID);\n    }\n    \n    function proposeLoop(bytes32 proposalName, address[] memory loop, uint256 minFlow, uint256 lockTimestamp) public {\n        require(loop.length >= 2);\n        bytes32 id = CashlessLib.getLoopID(proposalName, loop);\n        bytes32 nil;\n        require(loops[id].proposalName == nil);\n        loops[id].proposalName = proposalName;\n        loops[id].loop = loop;\n        loops[id].lockTimestamp = lockTimestamp;\n        loops[id].minFlow = minFlow;\n    }\n    \n    function commitLoopClaim(bytes32 loopID, bytes memory encodedPriorClaim, bytes memory encodedClaim) public {\n        (address sender, address receiver) = verifyLoopClaim(loopID, encodedPriorClaim, encodedClaim);\n        bool found = false;\n        for (uint256 i=0; i<loops[loopID].loop.length; i++) {\n            if (loops[loopID].loop[i] == sender) {\n                if (i==loops[loopID].loop.length-1) {\n                    require(loops[loopID].loop[0]==receiver);\n                } else {\n                    require(loops[loopID].loop[i+1]==receiver);\n                }\n                found = true;\n                break;\n            }\n        }\n        require(found==true);\n        for (uint256 j=0; j<loops[loopID].committed.length; j++) {\n            require(loops[loopID].committed[j]!=sender);\n        }\n        (bytes memory claimData2, uint8[2] memory v2, bytes32[2] memory r2, bytes32[2] memory s2) = abi.decode(encodedClaim, (bytes, uint8[2], bytes32[2], bytes32[2]));\n        loops[loopID].claims[sender] = SignedClaim(claimData2, v2, r2, s2);\n        loops[loopID].committed.push(sender);\n    }\n    \n    // Internal (Protected) State Modifying functions\n    function verifySettlement(bytes memory claimData, uint8[2] memory sigsV, bytes32[2] memory sigsR, bytes32[2] memory sigsS, bool isDispute) internal view returns (address, bytes32, uint256) {\n        (uint256[4] memory values, address[2] memory addrs, bytes32[2] memory ids, uint8 nonce) = abi.decode(claimData, (uint256[4], address[2], bytes32[2], uint8));\n        Claim memory claim = Claim(ids[0], address(addrs[0]), address(addrs[1]), nonce, values[0], values[1], values[2], values[3], ids[1]);\n        require(reserves[claim.sender].owner == claim.sender);\n        bytes32 id;\n        if (claim.loopID != id) {\n            require(loops[claim.loopID].committed.length > 0);\n            require(loops[claim.loopID].committed.length == loops[claim.loopID].loop.length);\n        }\n        require(claim.nonce > 0);\n        // minimum required duration between vest and void time\n        require(SafeMath.sub(claim.voidTimestamp, claim.vestTimestamp) >= minVestDuration);\n        require(now > claim.vestTimestamp);\n        id = CashlessLib.getClaimID(claim.claimName, claim.sender, claim.receiver);\n        if (isDispute) {\n            require(reserves[claim.sender].claims[id].length > 0);\n            uint256 lastIndex = reserves[claim.sender].claims[id].length - 1;\n            (values, addrs, ids, nonce) = abi.decode(reserves[claim.sender].claims[id][lastIndex].claimData, (uint256[4], address[2], bytes32[2], uint8));\n            Claim memory priorClaim = Claim(ids[0], address(addrs[0]), address(addrs[1]), nonce, values[0], values[1], values[2], values[3], ids[1]);\n            require(SafeMath.add(reserves[claim.sender].proposalTimestamps[id][1], priorClaim.disputeDuration) > now);\n            require(claim.nonce > priorClaim.nonce);\n        } else {\n            for (uint256 i=0; i<reserves[claim.sender].claimIDs.length; i++) {\n                require(reserves[claim.sender].claimIDs[i] != id);\n            }\n            require(now < claim.voidTimestamp);\n            require(claim.amount > 0); \n        }\n        require(verifyClaimSig(claimData, sigsV[0], sigsR[0], sigsS[0], true));\n        require(verifyClaimSig(claimData, sigsV[1], sigsR[1], sigsS[1], false));\n        require(reserves[claim.sender].settlements[id].settled == false);\n        return (claim.sender, id, claim.disputeDuration);\n    }\n    \n    function closeSettlement(address accountOwner, bytes32 claimID) internal {\n        require(reserves[accountOwner].claims[claimID].length > 0);\n        uint256 lastIndex = reserves[accountOwner].claims[claimID].length - 1;\n        (uint256[4] memory values, address[2] memory addrs, bytes32[2] memory ids, uint8 nonce) = abi.decode(reserves[accountOwner].claims[claimID][lastIndex].claimData, (uint256[4], address[2], bytes32[2], uint8));\n        Claim memory claim = Claim(ids[0], address(addrs[0]), address(addrs[1]), nonce, values[0], values[1], values[2], values[3], ids[1]);\n        uint256 amount = getAdjustedClaimAmount(accountOwner, claimID);\n        reserves[claim.sender].grossClaimed = SafeMath.sub(reserves[claim.sender].grossClaimed, amount);\n        if (reserves[claim.sender].balance >= amount) {\n            reserves[claim.sender].settlements[claimID] = Settlement(amount, 0, true);\n            reserves[claim.sender].grossPaid = SafeMath.add(reserves[claim.sender].grossPaid, amount);\n            reserves[claim.sender].balance = SafeMath.sub(reserves[claim.sender].balance, amount);\n            reserves[claim.receiver].balance = SafeMath.add(reserves[claim.receiver].balance, amount);\n        } else {\n            if (reserves[claim.sender].balance > 0) {\n                uint256 defaultAmount = SafeMath.sub(amount, reserves[claim.sender].balance);\n                reserves[claim.sender].settlements[claimID] = Settlement(reserves[claim.sender].balance, defaultAmount, true);\n                reserves[claim.sender].grossPaid = SafeMath.add(reserves[claim.sender].grossPaid, reserves[claim.sender].balance);\n                reserves[claim.sender].grossDefaulted = SafeMath.add(reserves[claim.sender].grossDefaulted, defaultAmount);\n                reserves[claim.receiver].balance = SafeMath.add(reserves[claim.receiver].balance, reserves[claim.sender].balance);\n                reserves[claim.sender].balance = 0;\n            } else {\n                reserves[claim.sender].settlements[claimID] = Settlement(0, amount, true);\n                reserves[claim.sender].grossDefaulted = SafeMath.add(reserves[claim.sender].grossDefaulted, amount);\n            }\n        }\n    }\n    \n    function verifyLoopClaim(bytes32 loopID, bytes memory encodedPriorClaim, bytes memory encodedClaim) internal view returns (address, address) {\n        require(now < loops[loopID].lockTimestamp);\n        (bytes memory claimData1, uint8[2] memory v1, bytes32[2] memory r1, bytes32[2] memory s1) = abi.decode(encodedPriorClaim, (bytes, uint8[2], bytes32[2], bytes32[2]));\n        (bytes memory claimData2, uint8[2] memory v2, bytes32[2] memory r2, bytes32[2] memory s2) = abi.decode(encodedClaim, (bytes, uint8[2], bytes32[2], bytes32[2]));\n        require(verifyClaimSig(claimData1, v1[0], r1[0], s1[0], true));\n        require(verifyClaimSig(claimData1, v1[1], r1[1], s1[1], false));\n        require(verifyClaimSig(claimData2, v2[0], r2[0], s2[0], true));\n        require(verifyClaimSig(claimData2, v2[1], r2[1], s2[1], false));\n        return validateLoopClaim(claimData1, claimData2, loopID);\n    }\n    \n    function validateLoopClaim(bytes memory priorClaimData, bytes memory claimData, bytes32 loopID) internal  view  returns (address, address) {\n        (uint256[4] memory values, address[2] memory addrs, bytes32[2] memory ids, uint8 nonce) = abi.decode(priorClaimData, (uint256[4], address[2], bytes32[2], uint8));\n        Claim memory oldClaim = Claim(ids[0], address(addrs[0]), address(addrs[1]), nonce, values[0], values[1], values[2], values[3], ids[1]);\n        (values, addrs, ids, nonce) = abi.decode(claimData, (uint256[4], address[2], bytes32[2], uint8));\n        Claim memory newClaim = Claim(ids[0], address(addrs[0]), address(addrs[1]), nonce, values[0], values[1], values[2], values[3], ids[1]);\n        require(newClaim.loopID==loopID);\n        require(oldClaim.loopID!=loopID);\n        require(newClaim.nonce==oldClaim.nonce+1);\n        require(oldClaim.claimName==newClaim.claimName);\n        require(oldClaim.sender==newClaim.sender);\n        require(oldClaim.receiver==newClaim.receiver);\n        require(loops[loopID].minFlow > 0);\n        require(SafeMath.sub(oldClaim.amount, newClaim.amount) == loops[loopID].minFlow);\n        return (oldClaim.sender, oldClaim.receiver);\n    }\n    \n    // Public View/Pure functions\n    function verifyClaimSig(bytes memory claimData, uint8 v, bytes32 r, bytes32 s, bool isOwner) public view returns (bool) {\n        (uint256[4] memory values, address[2] memory addrs, bytes32[2] memory ids, uint8 nonce) = abi.decode(claimData, (uint256[4], address[2], bytes32[2], uint8));\n        Claim memory claim = Claim(ids[0], address(addrs[0]), address(addrs[1]), nonce, values[0], values[1], values[2], values[3], ids[1]);\n        if (0 >= claim.nonce) {\n            return false;\n        }\n        if (SafeMath.sub(claim.voidTimestamp, claim.vestTimestamp) < minVestDuration) {\n            return false;\n        }\n        bytes32 hash = CashlessLib.hashClaimData(claimData, DOMAIN_SEPARATOR);\n        address signer;\n        if (isOwner) {\n            signer = claim.sender;\n        } else {\n            signer = claim.receiver;\n        }\n        if (ecrecover(hash, v, r, s) != signer) {\n            return false;\n        }\n        return true;\n    }\n    \n    function getAdjustedClaimAmount(address accountOwner, bytes32 claimID) public view returns (uint256) {\n        require(reserves[accountOwner].claims[claimID].length > 0);\n        uint256 lastIndex = reserves[accountOwner].claims[claimID].length - 1;\n        (uint256[4] memory values, address[2] memory addrs, bytes32[2] memory ids, uint8 nonce) = abi.decode(reserves[accountOwner].claims[claimID][lastIndex].claimData, (uint256[4], address[2], bytes32[2], uint8));\n        Claim memory claim = Claim(ids[0], address(addrs[0]), address(addrs[1]), nonce, values[0], values[1], values[2], values[3], ids[1]);\n        uint256 numerator = SafeMath.mul(100, SafeMath.sub(reserves[accountOwner].proposalTimestamps[claimID][0], claim.vestTimestamp));\n        uint256 denominator = SafeMath.sub(claim.voidTimestamp, claim.vestTimestamp);\n        uint256 percentLost = SafeMath.div(numerator, denominator);\n        return SafeMath.div(SafeMath.sub(SafeMath.mul(100, claim.amount), SafeMath.mul(percentLost, claim.amount)), 100);\n    }\n\n    function getClaimIDs(address accountOwner) public view returns (bytes32[] memory) {\n        return reserves[accountOwner].claimIDs;\n    }\n    \n    function getReservesClaim(address accountOwner, bytes32 claimID, uint256 index) public view returns (bytes memory) {\n        return reserves[accountOwner].claims[claimID][index].claimData;\n    }\n\n    function getReservesSettlement(address accountOwner, bytes32 claimID) public view returns (uint256, uint256, bool) {\n        return (reserves[accountOwner].settlements[claimID].amountPaid, reserves[accountOwner].settlements[claimID].amountDefaulted, reserves[accountOwner].settlements[claimID].settled);\n    }\n    \n    function getLoopStatus(bytes32 loopID) public view returns (address[] memory, address[] memory) {\n        return (loops[loopID].loop, loops[loopID].committed);\n    }\n\n    // Fallback Funtion\n    fallback () external {}\n}",
  "sourcePath": "/Users/earth/Desktop/WORK/cashless/contracts/Cashless.sol",
  "compiler": {
    "name": "solc",
    "version": "0.6.2+commit.bacdbe57.Emscripten.clang"
  },
  "schemaVersion": "3.2.0",
  "updatedAt": "2020-09-19T17:59:37.680Z",
  "devdoc": {
    "methods": {}
  },
  "userdoc": {
    "methods": {}
  }
}