{
  "contractName": "CashlessLibPub",
  "abi": [
    {
      "inputs": [],
      "stateMutability": "nonpayable",
      "type": "constructor"
    },
    {
      "stateMutability": "nonpayable",
      "type": "fallback"
    },
    {
      "inputs": [
        {
          "internalType": "bytes",
          "name": "data",
          "type": "bytes"
        },
        {
          "internalType": "bytes32",
          "name": "domainSeparator",
          "type": "bytes32"
        }
      ],
      "name": "hashClaimData",
      "outputs": [
        {
          "internalType": "bytes32",
          "name": "",
          "type": "bytes32"
        }
      ],
      "stateMutability": "pure",
      "type": "function"
    },
    {
      "inputs": [
        {
          "internalType": "bytes32",
          "name": "claimName",
          "type": "bytes32"
        },
        {
          "internalType": "address",
          "name": "sender",
          "type": "address"
        },
        {
          "internalType": "address",
          "name": "receiver",
          "type": "address"
        }
      ],
      "name": "getClaimID",
      "outputs": [
        {
          "internalType": "bytes32",
          "name": "",
          "type": "bytes32"
        }
      ],
      "stateMutability": "pure",
      "type": "function"
    },
    {
      "inputs": [
        {
          "internalType": "bytes32",
          "name": "proposalName",
          "type": "bytes32"
        },
        {
          "internalType": "address[]",
          "name": "loop",
          "type": "address[]"
        }
      ],
      "name": "getLoopID",
      "outputs": [
        {
          "internalType": "bytes32",
          "name": "",
          "type": "bytes32"
        }
      ],
      "stateMutability": "pure",
      "type": "function"
    },
    {
      "inputs": [
        {
          "internalType": "bytes",
          "name": "a",
          "type": "bytes"
        },
        {
          "internalType": "uint8[2]",
          "name": "b",
          "type": "uint8[2]"
        },
        {
          "internalType": "bytes32[2]",
          "name": "c",
          "type": "bytes32[2]"
        },
        {
          "internalType": "bytes32[2]",
          "name": "d",
          "type": "bytes32[2]"
        }
      ],
      "name": "encodeLoopClaim",
      "outputs": [
        {
          "internalType": "bytes",
          "name": "",
          "type": "bytes"
        }
      ],
      "stateMutability": "pure",
      "type": "function"
    },
    {
      "inputs": [
        {
          "internalType": "bytes32",
          "name": "hash",
          "type": "bytes32"
        },
        {
          "internalType": "uint8",
          "name": "v",
          "type": "uint8"
        },
        {
          "internalType": "bytes32",
          "name": "r",
          "type": "bytes32"
        },
        {
          "internalType": "bytes32",
          "name": "s",
          "type": "bytes32"
        },
        {
          "internalType": "address",
          "name": "signer",
          "type": "address"
        }
      ],
      "name": "verifySignature",
      "outputs": [
        {
          "internalType": "bool",
          "name": "",
          "type": "bool"
        }
      ],
      "stateMutability": "pure",
      "type": "function"
    }
  ],
  "bytecode": "0x608060405234801561001057600080fd5b50610885806100206000396000f3fe608060405234801561001057600080fd5b506004361061005b5760003560e01c806374a191741461005e57806396bed3bb14610134578063a044ed911461020d578063a6426c6d14610294578063e6a7f7c91461048b5761005c565b5b005b61011e6004803603604081101561007457600080fd5b81019080803590602001909291908035906020019064010000000081111561009b57600080fd5b8201836020820111156100ad57600080fd5b803590602001918460208302840111640100000000831117156100cf57600080fd5b919080806020026020016040519081016040528093929190818152602001838360200280828437600081840152601f19601f82011690508083019250505050505050919291929050505061050d565b6040518082815260200191505060405180910390f35b6101f76004803603604081101561014a57600080fd5b810190808035906020019064010000000081111561016757600080fd5b82018360208201111561017957600080fd5b8035906020019184600183028401116401000000008311171561019b57600080fd5b91908080601f016020809104026020016040519081016040528093929190818152602001838380828437600081840152601f19601f82011690508083019250505050505050919291929080359060200190929190505050610573565b6040518082815260200191505060405180910390f35b61027a600480360360a081101561022357600080fd5b8101908080359060200190929190803560ff1690602001909291908035906020019092919080359060200190929190803573ffffffffffffffffffffffffffffffffffffffff1690602001909291905050506105db565b604051808215151515815260200191505060405180910390f35b610410600480360360e08110156102aa57600080fd5b81019080803590602001906401000000008111156102c757600080fd5b8201836020820111156102d957600080fd5b803590602001918460018302840111640100000000831117156102fb57600080fd5b91908080601f016020809104026020016040519081016040528093929190818152602001838380828437600081840152601f19601f82011690508083019250505050505050919291929080604001906002806020026040519081016040528092919082600260200280828437600081840152601f19601f820116905080830192505050505050919291929080604001906002806020026040519081016040528092919082600260200280828437600081840152601f19601f820116905080830192505050505050919291929080604001906002806020026040519081016040528092919082600260200280828437600081840152601f19601f820116905080830192505050505050919291929050505061068e565b6040518080602001828103825283818151815260200191508051906020019080838360005b83811015610450578082015181840152602081019050610435565b50505050905090810190601f16801561047d5780820380516001836020036101000a031916815260200191505b509250505060405180910390f35b6104f7600480360360608110156104a157600080fd5b8101908080359060200190929190803573ffffffffffffffffffffffffffffffffffffffff169060200190929190803573ffffffffffffffffffffffffffffffffffffffff1690602001909291905050506107af565b6040518082815260200191505060405180910390f35b6000828260405160200180838152602001828051906020019060200280838360005b8381101561054a57808201518184015260208101905061052f565b505050509050019250505060405160208183030381529060405280519060200120905092915050565b600081838051906020012060405160200180807f19010000000000000000000000000000000000000000000000000000000000008152506002018381526020018281526020019250505060405160208183030381529060405280519060200120905092915050565b60008173ffffffffffffffffffffffffffffffffffffffff1660018787878760405160008152602001604052604051808581526020018460ff1660ff1681526020018381526020018281526020019450505050506020604051602081039080840390855afa158015610651573d6000803e3d6000fd5b5050506020604051035173ffffffffffffffffffffffffffffffffffffffff1614156106805760019050610685565b600090505b95945050505050565b606084848484604051602001808060200185600260200280838360005b838110156106c65780820151818401526020810190506106ab565b5050505090500184600260200280838360005b838110156106f45780820151818401526020810190506106d9565b5050505090500183600260200280838360005b83811015610722578082015181840152602081019050610707565b50505050905001828103825286818151815260200191508051906020019080838360005b83811015610761578082015181840152602081019050610746565b50505050905090810190601f16801561078e5780820380516001836020036101000a031916815260200191505b50955050505050506040516020818303038152906040529050949350505050565b6000838383604051602001808481526020018373ffffffffffffffffffffffffffffffffffffffff1673ffffffffffffffffffffffffffffffffffffffff1660601b81526014018273ffffffffffffffffffffffffffffffffffffffff1673ffffffffffffffffffffffffffffffffffffffff1660601b81526014019350505050604051602081830303815290604052805190602001209050939250505056fea26469706673582212205f3fbdb4690f1ed351f20cf4632606c835361b7413bc849b42951554e1762afb64736f6c63430006020033",
  "source": "pragma solidity ^0.6.0;\n\ncontract CashlessLibPub {\n\n\tconstructor () public {}\n    \n    function hashClaimData(bytes memory data, bytes32 domainSeparator) public pure returns (bytes32) {\n        return keccak256(abi.encodePacked(\"\\x19\\x01\", domainSeparator, keccak256(data)));\n    }\n    \n    function getClaimID(bytes32 claimName, address sender, address receiver) public pure returns (bytes32) {\n        return keccak256(abi.encodePacked(claimName, sender, receiver));\n    }\n    \n    function getLoopID(bytes32 proposalName, address[] memory loop) public pure returns (bytes32) {\n        return keccak256(abi.encodePacked(proposalName, loop));\n    }\n\n    function encodeLoopClaim(bytes memory a, uint8[2] memory b, bytes32[2] memory c,  bytes32[2] memory d) public pure returns (bytes memory) {\n    \treturn abi.encode(a, b, c, d);\n    }\n\n    function verifySignature(bytes32 hash, uint8 v, bytes32 r, bytes32 s, address signer) public pure returns (bool) {\n        if (ecrecover(hash, v, r, s) == signer) {\n            return true;\n        }\n        return false;\n    }\n\n    fallback () external {}\n}",
  "sourcePath": "/Users/earth/Desktop/WORK/cashless/contracts/CashlessLibPub.sol",
  "compiler": {
    "name": "solc",
    "version": "0.6.2+commit.bacdbe57.Emscripten.clang"
  },
  "schemaVersion": "3.2.0",
  "updatedAt": "2020-09-25T20:11:30.585Z",
  "devdoc": {
    "methods": {}
  },
  "userdoc": {
    "methods": {}
  }
}