{
  "contractName": "Cashless",
  "abi": [
    {
      "inputs": [
        {
          "internalType": "bytes32",
          "name": "salt",
          "type": "bytes32"
        }
      ],
      "payable": false,
      "stateMutability": "nonpayable",
      "type": "constructor"
    },
    {
      "payable": false,
      "stateMutability": "nonpayable",
      "type": "fallback"
    },
    {
      "constant": true,
      "inputs": [],
      "name": "DOMAIN_SEPARATOR",
      "outputs": [
        {
          "internalType": "bytes32",
          "name": "",
          "type": "bytes32"
        }
      ],
      "payable": false,
      "stateMutability": "view",
      "type": "function"
    },
    {
      "constant": true,
      "inputs": [
        {
          "internalType": "bytes32",
          "name": "",
          "type": "bytes32"
        }
      ],
      "name": "aliases",
      "outputs": [
        {
          "internalType": "address",
          "name": "",
          "type": "address"
        }
      ],
      "payable": false,
      "stateMutability": "view",
      "type": "function"
    },
    {
      "constant": true,
      "inputs": [],
      "name": "flatWithdrawFee",
      "outputs": [
        {
          "internalType": "uint256",
          "name": "",
          "type": "uint256"
        }
      ],
      "payable": false,
      "stateMutability": "view",
      "type": "function"
    },
    {
      "constant": true,
      "inputs": [
        {
          "internalType": "bytes32",
          "name": "",
          "type": "bytes32"
        }
      ],
      "name": "loops",
      "outputs": [
        {
          "internalType": "bytes32",
          "name": "proposalName",
          "type": "bytes32"
        },
        {
          "internalType": "uint256",
          "name": "minFlow",
          "type": "uint256"
        },
        {
          "internalType": "uint256",
          "name": "lockTimestamp",
          "type": "uint256"
        }
      ],
      "payable": false,
      "stateMutability": "view",
      "type": "function"
    },
    {
      "constant": true,
      "inputs": [],
      "name": "minVestDuration",
      "outputs": [
        {
          "internalType": "uint256",
          "name": "",
          "type": "uint256"
        }
      ],
      "payable": false,
      "stateMutability": "view",
      "type": "function"
    },
    {
      "constant": true,
      "inputs": [],
      "name": "networkAdmin",
      "outputs": [
        {
          "internalType": "address payable",
          "name": "",
          "type": "address"
        }
      ],
      "payable": false,
      "stateMutability": "view",
      "type": "function"
    },
    {
      "constant": true,
      "inputs": [
        {
          "internalType": "bytes32",
          "name": "",
          "type": "bytes32"
        }
      ],
      "name": "pendingAliases",
      "outputs": [
        {
          "internalType": "address",
          "name": "",
          "type": "address"
        }
      ],
      "payable": false,
      "stateMutability": "view",
      "type": "function"
    },
    {
      "constant": true,
      "inputs": [],
      "name": "percentWithdrawFee",
      "outputs": [
        {
          "internalType": "uint256",
          "name": "",
          "type": "uint256"
        }
      ],
      "payable": false,
      "stateMutability": "view",
      "type": "function"
    },
    {
      "constant": false,
      "inputs": [
        {
          "internalType": "address",
          "name": "reservesAddress",
          "type": "address"
        },
        {
          "internalType": "uint8",
          "name": "v",
          "type": "uint8"
        },
        {
          "internalType": "bytes32",
          "name": "r",
          "type": "bytes32"
        },
        {
          "internalType": "bytes32",
          "name": "s",
          "type": "bytes32"
        }
      ],
      "name": "createReserves",
      "outputs": [],
      "payable": false,
      "stateMutability": "nonpayable",
      "type": "function"
    },
    {
      "constant": false,
      "inputs": [
        {
          "internalType": "address",
          "name": "accountOwner",
          "type": "address"
        }
      ],
      "name": "fundReserves",
      "outputs": [],
      "payable": true,
      "stateMutability": "payable",
      "type": "function"
    },
    {
      "constant": false,
      "inputs": [
        {
          "internalType": "uint256",
          "name": "amount",
          "type": "uint256"
        },
        {
          "internalType": "address payable",
          "name": "targetReceiver",
          "type": "address"
        },
        {
          "internalType": "uint256",
          "name": "fee",
          "type": "uint256"
        }
      ],
      "name": "withdrawReserves",
      "outputs": [],
      "payable": false,
      "stateMutability": "nonpayable",
      "type": "function"
    },
    {
      "constant": false,
      "inputs": [
        {
          "internalType": "bytes32",
          "name": "newAlias",
          "type": "bytes32"
        }
      ],
      "name": "addAlias",
      "outputs": [],
      "payable": false,
      "stateMutability": "nonpayable",
      "type": "function"
    },
    {
      "constant": false,
      "inputs": [
        {
          "internalType": "bytes32",
          "name": "existingAlias",
          "type": "bytes32"
        }
      ],
      "name": "deleteAlias",
      "outputs": [],
      "payable": false,
      "stateMutability": "nonpayable",
      "type": "function"
    },
    {
      "constant": false,
      "inputs": [
        {
          "internalType": "bytes32",
          "name": "newAlias",
          "type": "bytes32"
        }
      ],
      "name": "addPendingAlias",
      "outputs": [],
      "payable": false,
      "stateMutability": "nonpayable",
      "type": "function"
    },
    {
      "constant": false,
      "inputs": [
        {
          "internalType": "bytes32",
          "name": "newAlias",
          "type": "bytes32"
        },
        {
          "internalType": "address",
          "name": "addr",
          "type": "address"
        }
      ],
      "name": "commitPendingAlias",
      "outputs": [],
      "payable": false,
      "stateMutability": "nonpayable",
      "type": "function"
    },
    {
      "constant": false,
      "inputs": [
        {
          "internalType": "bytes",
          "name": "claimData",
          "type": "bytes"
        },
        {
          "internalType": "uint8[2]",
          "name": "sigsV",
          "type": "uint8[2]"
        },
        {
          "internalType": "bytes32[2]",
          "name": "sigsR",
          "type": "bytes32[2]"
        },
        {
          "internalType": "bytes32[2]",
          "name": "sigsS",
          "type": "bytes32[2]"
        }
      ],
      "name": "proposeSettlement",
      "outputs": [],
      "payable": false,
      "stateMutability": "nonpayable",
      "type": "function"
    },
    {
      "constant": false,
      "inputs": [
        {
          "internalType": "bytes",
          "name": "claimData",
          "type": "bytes"
        },
        {
          "internalType": "uint8[2]",
          "name": "sigsV",
          "type": "uint8[2]"
        },
        {
          "internalType": "bytes32[2]",
          "name": "sigsR",
          "type": "bytes32[2]"
        },
        {
          "internalType": "bytes32[2]",
          "name": "sigsS",
          "type": "bytes32[2]"
        }
      ],
      "name": "disputeSettlement",
      "outputs": [],
      "payable": false,
      "stateMutability": "nonpayable",
      "type": "function"
    },
    {
      "constant": false,
      "inputs": [
        {
          "internalType": "address",
          "name": "accountOwner",
          "type": "address"
        },
        {
          "internalType": "bytes32",
          "name": "claimID",
          "type": "bytes32"
        }
      ],
      "name": "redeemClaim",
      "outputs": [],
      "payable": false,
      "stateMutability": "nonpayable",
      "type": "function"
    },
    {
      "constant": false,
      "inputs": [
        {
          "internalType": "bytes32",
          "name": "proposalName",
          "type": "bytes32"
        },
        {
          "internalType": "address[]",
          "name": "loop",
          "type": "address[]"
        },
        {
          "internalType": "uint256",
          "name": "minFlow",
          "type": "uint256"
        },
        {
          "internalType": "uint256",
          "name": "lockTimestamp",
          "type": "uint256"
        }
      ],
      "name": "proposeLoop",
      "outputs": [],
      "payable": false,
      "stateMutability": "nonpayable",
      "type": "function"
    },
    {
      "constant": false,
      "inputs": [
        {
          "internalType": "bytes32",
          "name": "loopID",
          "type": "bytes32"
        },
        {
          "internalType": "bytes",
          "name": "encodedPriorClaim",
          "type": "bytes"
        },
        {
          "internalType": "bytes",
          "name": "encodedClaim",
          "type": "bytes"
        }
      ],
      "name": "commitLoopClaim",
      "outputs": [],
      "payable": false,
      "stateMutability": "nonpayable",
      "type": "function"
    },
    {
      "constant": true,
      "inputs": [
        {
          "internalType": "bytes",
          "name": "claimData",
          "type": "bytes"
        },
        {
          "internalType": "uint8",
          "name": "v",
          "type": "uint8"
        },
        {
          "internalType": "bytes32",
          "name": "r",
          "type": "bytes32"
        },
        {
          "internalType": "bytes32",
          "name": "s",
          "type": "bytes32"
        },
        {
          "internalType": "bool",
          "name": "isOwner",
          "type": "bool"
        }
      ],
      "name": "verifyClaimSig",
      "outputs": [
        {
          "internalType": "bool",
          "name": "",
          "type": "bool"
        }
      ],
      "payable": false,
      "stateMutability": "view",
      "type": "function"
    },
    {
      "constant": true,
      "inputs": [
        {
          "internalType": "address",
          "name": "accountOwner",
          "type": "address"
        },
        {
          "internalType": "bytes32",
          "name": "claimID",
          "type": "bytes32"
        }
      ],
      "name": "getAdjustedClaimAmount",
      "outputs": [
        {
          "internalType": "uint256",
          "name": "",
          "type": "uint256"
        }
      ],
      "payable": false,
      "stateMutability": "view",
      "type": "function"
    },
    {
      "constant": true,
      "inputs": [
        {
          "internalType": "address",
          "name": "accountOwner",
          "type": "address"
        }
      ],
      "name": "getClaimIDs",
      "outputs": [
        {
          "internalType": "bytes32[]",
          "name": "",
          "type": "bytes32[]"
        }
      ],
      "payable": false,
      "stateMutability": "view",
      "type": "function"
    },
    {
      "constant": true,
      "inputs": [
        {
          "internalType": "address",
          "name": "accountOwner",
          "type": "address"
        },
        {
          "internalType": "bytes32",
          "name": "claimID",
          "type": "bytes32"
        },
        {
          "internalType": "uint256",
          "name": "index",
          "type": "uint256"
        }
      ],
      "name": "getReservesClaim",
      "outputs": [
        {
          "internalType": "bytes",
          "name": "",
          "type": "bytes"
        }
      ],
      "payable": false,
      "stateMutability": "view",
      "type": "function"
    },
    {
      "constant": true,
      "inputs": [
        {
          "internalType": "address",
          "name": "accountOwner",
          "type": "address"
        },
        {
          "internalType": "bytes32",
          "name": "claimID",
          "type": "bytes32"
        }
      ],
      "name": "getReservesSettlement",
      "outputs": [
        {
          "internalType": "uint256",
          "name": "",
          "type": "uint256"
        },
        {
          "internalType": "uint256",
          "name": "",
          "type": "uint256"
        },
        {
          "internalType": "bool",
          "name": "",
          "type": "bool"
        }
      ],
      "payable": false,
      "stateMutability": "view",
      "type": "function"
    },
    {
      "constant": true,
      "inputs": [
        {
          "internalType": "bytes32",
          "name": "loopID",
          "type": "bytes32"
        }
      ],
      "name": "getLoopStatus",
      "outputs": [
        {
          "internalType": "address[]",
          "name": "",
          "type": "address[]"
        },
        {
          "internalType": "address[]",
          "name": "",
          "type": "address[]"
        }
      ],
      "payable": false,
      "stateMutability": "view",
      "type": "function"
    }
  ],
  "bytecode": "0x608060405262093a806001556298968060025560016003553480156200002457600080fd5b5060405162005fe638038062005fe6833981810160405260208110156200004a57600080fd5b81019080805190602001909291905050507f0eaa6c88c44fbde2113ba7421deef795c18fc5a553a55b2ba4d237269e1c266260001b3082604051602001808481526020018373ffffffffffffffffffffffffffffffffffffffff1673ffffffffffffffffffffffffffffffffffffffff1660601b815260140182815260200193505050506040516020818303038152906040528051906020012060008190555033600460006101000a81548173ffffffffffffffffffffffffffffffffffffffff021916908373ffffffffffffffffffffffffffffffffffffffff16021790555050615eaa806200013c6000396000f3fe6080604052600436106101815760003560e01c806360cf47c1116100d1578063a29742ab1161008a578063ba53960211610064578063ba53960214610e61578063c4d309cd14610ea5578063ca3feb1814610f7d578063e751187314610fa857610181565b8063a29742ab14610d8a578063acc663d214610db5578063b20ad10414610de057610181565b806360cf47c11461084b57806367717402146109d65780637351cfea14610a1157806374b37e4e14610a80578063852b5ed514610af25780638ceec2cb14610bff57610181565b8063279f03431161013e57806344a07c1b1161011857806344a07c1b146105ef5780634cffa16a146107585780635728e161146107935780635c99903d146107f057610181565b8063279f03431461048a5780633644e5151461056d578063378126511461059857610181565b8063075e42a9146101905780631641a7441461026e5780631a3a0f4f146103145780631c2b90a6146103795780631ebe89c6146103b457806320664c7b1461042f575b34801561018d57600080fd5b50005b34801561019c57600080fd5b506101f3600480360360608110156101b357600080fd5b81019080803573ffffffffffffffffffffffffffffffffffffffff1690602001909291908035906020019092919080359060200190929190505050611023565b6040518080602001828103825283818151815260200191508051906020019080838360005b83811015610233578082015181840152602081019050610218565b50505050905090810190601f1680156102605780820380516001836020036101000a031916815260200191505b509250505060405180910390f35b34801561027a57600080fd5b506102bd6004803603602081101561029157600080fd5b81019080803573ffffffffffffffffffffffffffffffffffffffff169060200190929190505050611136565b6040518080602001828103825283818151815260200191508051906020019060200280838360005b838110156103005780820151818401526020810190506102e5565b505050509050019250505060405180910390f35b34801561032057600080fd5b506103776004803603606081101561033757600080fd5b8101908080359060200190929190803573ffffffffffffffffffffffffffffffffffffffff169060200190929190803590602001909291905050506111d0565b005b34801561038557600080fd5b506103b26004803603602081101561039c57600080fd5b810190808035906020019092919050505061149a565b005b3480156103c057600080fd5b506103ed600480360360208110156103d757600080fd5b8101908080359060200190929190505050611661565b604051808273ffffffffffffffffffffffffffffffffffffffff1673ffffffffffffffffffffffffffffffffffffffff16815260200191505060405180910390f35b34801561043b57600080fd5b506104886004803603604081101561045257600080fd5b81019080803573ffffffffffffffffffffffffffffffffffffffff16906020019092919080359060200190929190505050611694565b005b34801561049657600080fd5b5061056b600480360360808110156104ad57600080fd5b8101908080359060200190929190803590602001906401000000008111156104d457600080fd5b8201836020820111156104e657600080fd5b8035906020019184602083028401116401000000008311171561050857600080fd5b919080806020026020016040519081016040528093929190818152602001838360200280828437600081840152601f19601f8201169050808301925050505050505091929192908035906020019092919080359060200190929190505050611b4e565b005b34801561057957600080fd5b50610582611c13565b6040518082815260200191505060405180910390f35b3480156105a457600080fd5b506105ad611c19565b604051808273ffffffffffffffffffffffffffffffffffffffff1673ffffffffffffffffffffffffffffffffffffffff16815260200191505060405180910390f35b3480156105fb57600080fd5b506107566004803603606081101561061257600080fd5b81019080803590602001909291908035906020019064010000000081111561063957600080fd5b82018360208201111561064b57600080fd5b8035906020019184600183028401116401000000008311171561066d57600080fd5b91908080601f016020809104026020016040519081016040528093929190818152602001838380828437600081840152601f19601f820116905080830192505050505050509192919290803590602001906401000000008111156106d057600080fd5b8201836020820111156106e257600080fd5b8035906020019184600183028401116401000000008311171561070457600080fd5b91908080601f016020809104026020016040519081016040528093929190818152602001838380828437600081840152601f19601f820116905080830192505050505050509192919290505050611c3f565b005b34801561076457600080fd5b506107916004803603602081101561077b57600080fd5b8101908080359060200190929190505050612175565b005b34801561079f57600080fd5b506107cc600480360360208110156107b657600080fd5b810190808035906020019092919050505061233c565b60405180848152602001838152602001828152602001935050505060405180910390f35b3480156107fc57600080fd5b506108496004803603604081101561081357600080fd5b8101908080359060200190929190803573ffffffffffffffffffffffffffffffffffffffff169060200190929190505050612366565b005b34801561085757600080fd5b506109d4600480360360e081101561086e57600080fd5b810190808035906020019064010000000081111561088b57600080fd5b82018360208201111561089d57600080fd5b803590602001918460018302840111640100000000831117156108bf57600080fd5b91908080601f016020809104026020016040519081016040528093929190818152602001838380828437600081840152601f19601f82011690508083019250505050505050919291929080604001906002806020026040519081016040528092919082600260200280828437600081840152601f19601f820116905080830192505050505050919291929080604001906002806020026040519081016040528092919082600260200280828437600081840152601f19601f820116905080830192505050505050919291929080604001906002806020026040519081016040528092919082600260200280828437600081840152601f19601f8201169050808301925050505050509192919290505050612514565b005b3480156109e257600080fd5b50610a0f600480360360208110156109f957600080fd5b8101908080359060200190929190505050612822565b005b348015610a1d57600080fd5b50610a6a60048036036040811015610a3457600080fd5b81019080803573ffffffffffffffffffffffffffffffffffffffff169060200190929190803590602001909291905050506128e3565b6040518082815260200191505060405180910390f35b348015610a8c57600080fd5b50610af060048036036080811015610aa357600080fd5b81019080803573ffffffffffffffffffffffffffffffffffffffff169060200190929190803560ff1690602001909291908035906020019092919080359060200190929190505050612d00565b005b348015610afe57600080fd5b50610be5600480360360a0811015610b1557600080fd5b8101908080359060200190640100000000811115610b3257600080fd5b820183602082011115610b4457600080fd5b80359060200191846001830284011164010000000083111715610b6657600080fd5b91908080601f016020809104026020016040519081016040528093929190818152602001838380828437600081840152601f19601f820116905080830192505050505050509192919290803560ff1690602001909291908035906020019092919080359060200190929190803515159060200190929190505050613081565b604051808215151515815260200191505060405180910390f35b348015610c0b57600080fd5b50610d88600480360360e0811015610c2257600080fd5b8101908080359060200190640100000000811115610c3f57600080fd5b820183602082011115610c5157600080fd5b80359060200191846001830284011164010000000083111715610c7357600080fd5b91908080601f016020809104026020016040519081016040528093929190818152602001838380828437600081840152601f19601f82011690508083019250505050505050919291929080604001906002806020026040519081016040528092919082600260200280828437600081840152601f19601f820116905080830192505050505050919291929080604001906002806020026040519081016040528092919082600260200280828437600081840152601f19601f820116905080830192505050505050919291929080604001906002806020026040519081016040528092919082600260200280828437600081840152601f19601f820116905080830192505050505050919291929050505061339f565b005b348015610d9657600080fd5b50610d9f613683565b6040518082815260200191505060405180910390f35b348015610dc157600080fd5b50610dca613689565b6040518082815260200191505060405180910390f35b348015610dec57600080fd5b50610e3960048036036040811015610e0357600080fd5b81019080803573ffffffffffffffffffffffffffffffffffffffff1690602001909291908035906020019092919050505061368f565b6040518084815260200183815260200182151515158152602001935050505060405180910390f35b610ea360048036036020811015610e7757600080fd5b81019080803573ffffffffffffffffffffffffffffffffffffffff1690602001909291905050506137b3565b005b348015610eb157600080fd5b50610ede60048036036020811015610ec857600080fd5b810190808035906020019092919050505061392a565b604051808060200180602001838103835285818151815260200191508051906020019060200280838360005b83811015610f25578082015181840152602081019050610f0a565b50505050905001838103825284818151815260200191508051906020019060200280838360005b83811015610f67578082015181840152602081019050610f4c565b5050505090500194505050505060405180910390f35b348015610f8957600080fd5b50610f92613a72565b6040518082815260200191505060405180910390f35b348015610fb457600080fd5b50610fe160048036036020811015610fcb57600080fd5b8101908080359060200190929190505050613a78565b604051808273ffffffffffffffffffffffffffffffffffffffff1673ffffffffffffffffffffffffffffffffffffffff16815260200191505060405180910390f35b6060600560008573ffffffffffffffffffffffffffffffffffffffff1673ffffffffffffffffffffffffffffffffffffffff1681526020019081526020016000206003016000848152602001908152602001600020828154811061108357fe5b90600052602060002090600602016000018054600181600116156101000203166002900480601f0160208091040260200160405190810160405280929190818152602001828054600181600116156101000203166002900480156111285780601f106110fd57610100808354040283529160200191611128565b820191906000526020600020905b81548152906001019060200180831161110b57829003601f168201915b505050505090509392505050565b6060600560008373ffffffffffffffffffffffffffffffffffffffff1673ffffffffffffffffffffffffffffffffffffffff1681526020019081526020016000206002018054806020026020016040519081016040528092919081815260200182805480156111c457602002820191906000526020600020905b8154815260200190600101908083116111b0575b50505050509050919050565b3373ffffffffffffffffffffffffffffffffffffffff16600560003373ffffffffffffffffffffffffffffffffffffffff1673ffffffffffffffffffffffffffffffffffffffff16815260200190815260200160002060000160009054906101000a900473ffffffffffffffffffffffffffffffffffffffff1673ffffffffffffffffffffffffffffffffffffffff161461126a57600080fd5b6000831161127757600080fd5b600061129a61129261128b86600354613aab565b6064613ae5565b600254613b0b565b9050808210156112a957600080fd5b60006112b58584613b0b565b9050611303600560003373ffffffffffffffffffffffffffffffffffffffff1673ffffffffffffffffffffffffffffffffffffffff1681526020019081526020016000206004015482613b0b565b600560003373ffffffffffffffffffffffffffffffffffffffff1673ffffffffffffffffffffffffffffffffffffffff16815260200190815260200160002060010154101561135157600080fd5b61139d600560003373ffffffffffffffffffffffffffffffffffffffff1673ffffffffffffffffffffffffffffffffffffffff1681526020019081526020016000206001015482613b2a565b600560003373ffffffffffffffffffffffffffffffffffffffff1673ffffffffffffffffffffffffffffffffffffffff168152602001908152602001600020600101819055508373ffffffffffffffffffffffffffffffffffffffff166108fc869081150290604051600060405180830381858888f19350505050158015611429573d6000803e3d6000fd5b50600460009054906101000a900473ffffffffffffffffffffffffffffffffffffffff1673ffffffffffffffffffffffffffffffffffffffff166108fc849081150290604051600060405180830381858888f19350505050158015611492573d6000803e3d6000fd5b505050505050565b3373ffffffffffffffffffffffffffffffffffffffff16600560003373ffffffffffffffffffffffffffffffffffffffff1673ffffffffffffffffffffffffffffffffffffffff16815260200190815260200160002060000160009054906101000a900473ffffffffffffffffffffffffffffffffffffffff1673ffffffffffffffffffffffffffffffffffffffff161461153457600080fd5b600073ffffffffffffffffffffffffffffffffffffffff166006600083815260200190815260200160002060009054906101000a900473ffffffffffffffffffffffffffffffffffffffff1673ffffffffffffffffffffffffffffffffffffffff16146115a057600080fd5b600073ffffffffffffffffffffffffffffffffffffffff166007600083815260200190815260200160002060009054906101000a900473ffffffffffffffffffffffffffffffffffffffff1673ffffffffffffffffffffffffffffffffffffffff161461160c57600080fd5b336006600083815260200190815260200160002060006101000a81548173ffffffffffffffffffffffffffffffffffffffff021916908373ffffffffffffffffffffffffffffffffffffffff16021790555050565b60076020528060005260406000206000915054906101000a900473ffffffffffffffffffffffffffffffffffffffff1681565b60001515600560008473ffffffffffffffffffffffffffffffffffffffff1673ffffffffffffffffffffffffffffffffffffffff168152602001908152602001600020600801600083815260200190815260200160002060020160009054906101000a900460ff1615151461170857600080fd5b6000600560008473ffffffffffffffffffffffffffffffffffffffff1673ffffffffffffffffffffffffffffffffffffffff168152602001908152602001600020600701600083815260200190815260200160002060016002811061176957fe5b01541161177557600080fd5b6000600560008473ffffffffffffffffffffffffffffffffffffffff1673ffffffffffffffffffffffffffffffffffffffff168152602001908152602001600020600301600083815260200190815260200160002080549050116117d857600080fd5b60006001600560008573ffffffffffffffffffffffffffffffffffffffff1673ffffffffffffffffffffffffffffffffffffffff16815260200190815260200160002060030160008481526020019081526020016000208054905003905061183e615a9f565b611846615ac1565b61184e615ae3565b6000600560008873ffffffffffffffffffffffffffffffffffffffff1673ffffffffffffffffffffffffffffffffffffffff168152602001908152602001600020600301600087815260200190815260200160002085815481106118ae57fe5b90600052602060002090600602016000018054600181600116156101000203166002900480601f0160208091040260200160405190810160405280929190818152602001828054600181600116156101000203166002900480156119535780601f1061192857610100808354040283529160200191611953565b820191906000526020600020905b81548152906001019060200180831161193657829003601f168201915b505050505080602001905161014081101561196d57600080fd5b810190809190826080019190826040019190826060018051906020019092919050505093509350935093506119a0615b05565b604051806101400160405280846000600381106119b957fe5b60200201518152602001856000600281106119d057fe5b602002015173ffffffffffffffffffffffffffffffffffffffff168152602001856001600281106119fd57fe5b602002015173ffffffffffffffffffffffffffffffffffffffff16815260200184600160038110611a2a57fe5b602002015181526020018360ff16815260200186600060048110611a4a57fe5b6020020151815260200186600160048110611a6157fe5b6020020151815260200186600260048110611a7857fe5b6020020151815260200186600360048110611a8f57fe5b6020020151815260200184600260038110611aa657fe5b6020020151815250905042611b1f600560008b73ffffffffffffffffffffffffffffffffffffffff1673ffffffffffffffffffffffffffffffffffffffff16815260200190815260200160002060070160008a8152602001908152602001600020600160028110611b1357fe5b01548360c00151613b0b565b10611b2957600080fd5b60008160a0015111611b3a57600080fd5b611b448888613b4a565b5050505050505050565b600283511015611b5d57600080fd5b6000611b698585614801565b9050600080600860008481526020019081526020016000206000015414611b8f57600080fd5b85600860008481526020019081526020016000206000018190555084600860008481526020019081526020016000206001019080519060200190611bd4929190615b90565b50826008600084815260200190815260200160002060030181905550836008600084815260200190815260200160002060020181905550505050505050565b60005481565b600460009054906101000a900473ffffffffffffffffffffffffffffffffffffffff1681565b600080611c4d858585614867565b91509150600080905060008090505b6008600088815260200190815260200160002060010180549050811015611e46578373ffffffffffffffffffffffffffffffffffffffff16600860008981526020019081526020016000206001018281548110611cb557fe5b9060005260206000200160009054906101000a900473ffffffffffffffffffffffffffffffffffffffff1673ffffffffffffffffffffffffffffffffffffffff161415611e39576001600860008981526020019081526020016000206001018054905003811415611da9578273ffffffffffffffffffffffffffffffffffffffff1660086000898152602001908152602001600020600101600081548110611d5957fe5b9060005260206000200160009054906101000a900473ffffffffffffffffffffffffffffffffffffffff1673ffffffffffffffffffffffffffffffffffffffff1614611da457600080fd5b611e30565b8273ffffffffffffffffffffffffffffffffffffffff16600860008981526020019081526020016000206001016001830181548110611de457fe5b9060005260206000200160009054906101000a900473ffffffffffffffffffffffffffffffffffffffff1673ffffffffffffffffffffffffffffffffffffffff1614611e2f57600080fd5b5b60019150611e46565b8080600101915050611c5c565b506001151581151514611e5857600080fd5b60008090505b6008600088815260200190815260200160002060050180549050811015611f10578373ffffffffffffffffffffffffffffffffffffffff16600860008981526020019081526020016000206005018281548110611eb757fe5b9060005260206000200160009054906101000a900473ffffffffffffffffffffffffffffffffffffffff1673ffffffffffffffffffffffffffffffffffffffff161415611f0357600080fd5b8080600101915050611e5e565b506060611f1b615c1a565b611f23615c3c565b611f2b615c3c565b8780602001905160e0811015611f4057600080fd5b8101908080516040519392919084640100000000821115611f6057600080fd5b83820191506020820185811115611f7657600080fd5b8251866001820283011164010000000082111715611f9357600080fd5b8083526020830192505050908051906020019080838360005b83811015611fc7578082015181840152602081019050611fac565b50505050905090810190601f168015611ff45780820380516001836020036101000a031916815260200191505b50604052602001919082604001919082604001919050509350935093509350604051806080016040528085815260200184815260200183815260200182815250600860008c815260200190815260200160002060040160008973ffffffffffffffffffffffffffffffffffffffff1673ffffffffffffffffffffffffffffffffffffffff16815260200190815260200160002060008201518160000190805190602001906120a3929190615c5e565b506020820151816001019060026120bb929190615cde565b506040820151816002019060026120d3929190615d78565b506060820151816004019060026120eb929190615d78565b50905050600860008b81526020019081526020016000206005018790806001815401808255809150509060018203906000526020600020016000909192909190916101000a81548173ffffffffffffffffffffffffffffffffffffffff021916908373ffffffffffffffffffffffffffffffffffffffff1602179055505050505050505050505050565b3373ffffffffffffffffffffffffffffffffffffffff16600560003373ffffffffffffffffffffffffffffffffffffffff1673ffffffffffffffffffffffffffffffffffffffff16815260200190815260200160002060000160009054906101000a900473ffffffffffffffffffffffffffffffffffffffff1673ffffffffffffffffffffffffffffffffffffffff161461220f57600080fd5b600073ffffffffffffffffffffffffffffffffffffffff166006600083815260200190815260200160002060009054906101000a900473ffffffffffffffffffffffffffffffffffffffff1673ffffffffffffffffffffffffffffffffffffffff161461227b57600080fd5b600073ffffffffffffffffffffffffffffffffffffffff166007600083815260200190815260200160002060009054906101000a900473ffffffffffffffffffffffffffffffffffffffff1673ffffffffffffffffffffffffffffffffffffffff16146122e757600080fd5b336007600083815260200190815260200160002060006101000a81548173ffffffffffffffffffffffffffffffffffffffff021916908373ffffffffffffffffffffffffffffffffffffffff16021790555050565b60086020528060005260406000206000915090508060000154908060020154908060030154905083565b3373ffffffffffffffffffffffffffffffffffffffff166007600084815260200190815260200160002060009054906101000a900473ffffffffffffffffffffffffffffffffffffffff1673ffffffffffffffffffffffffffffffffffffffff16146123d157600080fd5b8073ffffffffffffffffffffffffffffffffffffffff16600560008373ffffffffffffffffffffffffffffffffffffffff1673ffffffffffffffffffffffffffffffffffffffff16815260200190815260200160002060000160009054906101000a900473ffffffffffffffffffffffffffffffffffffffff1673ffffffffffffffffffffffffffffffffffffffff161461246b57600080fd5b60006007600084815260200190815260200160002060006101000a81548173ffffffffffffffffffffffffffffffffffffffff021916908373ffffffffffffffffffffffffffffffffffffffff160217905550806006600084815260200190815260200160002060006101000a81548173ffffffffffffffffffffffffffffffffffffffff021916908373ffffffffffffffffffffffffffffffffffffffff1602179055505050565b6000806000612527878787876000614bd7565b925092509250600560008473ffffffffffffffffffffffffffffffffffffffff1673ffffffffffffffffffffffffffffffffffffffff168152602001908152602001600020600201829080600181540180825580915050906001820390600052602060002001600090919290919091505550600560008473ffffffffffffffffffffffffffffffffffffffff1673ffffffffffffffffffffffffffffffffffffffff1681526020019081526020016000206003016000838152602001908152602001600020604051806080016040528089815260200188815260200187815260200186815250908060018154018082558091505090600182039060005260206000209060060201600090919290919091506000820151816000019080519060200190612654929190615c5e565b5060208201518160010190600261266c929190615cde565b50604082015181600201906002612684929190615d78565b5060608201518160040190600261269c929190615d78565b5050505042600560008573ffffffffffffffffffffffffffffffffffffffff1673ffffffffffffffffffffffffffffffffffffffff168152602001908152602001600020600701600084815260200190815260200160002060006002811061270057fe5b018190555042600560008573ffffffffffffffffffffffffffffffffffffffff1673ffffffffffffffffffffffffffffffffffffffff168152602001908152602001600020600701600084815260200190815260200160002060016002811061276557fe5b01819055506127bf600560008573ffffffffffffffffffffffffffffffffffffffff1673ffffffffffffffffffffffffffffffffffffffff168152602001908152602001600020600401546127ba85856128e3565b613b0b565b600560008573ffffffffffffffffffffffffffffffffffffffff1673ffffffffffffffffffffffffffffffffffffffff168152602001908152602001600020600401819055506000811415612819576128188383613b4a565b5b50505050505050565b3373ffffffffffffffffffffffffffffffffffffffff166006600083815260200190815260200160002060009054906101000a900473ffffffffffffffffffffffffffffffffffffffff1673ffffffffffffffffffffffffffffffffffffffff161461288d57600080fd5b60006006600083815260200190815260200160002060006101000a81548173ffffffffffffffffffffffffffffffffffffffff021916908373ffffffffffffffffffffffffffffffffffffffff16021790555050565b600080600560008573ffffffffffffffffffffffffffffffffffffffff1673ffffffffffffffffffffffffffffffffffffffff1681526020019081526020016000206003016000848152602001908152602001600020805490501161294757600080fd5b60006001600560008673ffffffffffffffffffffffffffffffffffffffff1673ffffffffffffffffffffffffffffffffffffffff1681526020019081526020016000206003016000858152602001908152602001600020805490500390506129ad615a9f565b6129b5615ac1565b6129bd615ae3565b6000600560008973ffffffffffffffffffffffffffffffffffffffff1673ffffffffffffffffffffffffffffffffffffffff16815260200190815260200160002060030160008881526020019081526020016000208581548110612a1d57fe5b90600052602060002090600602016000018054600181600116156101000203166002900480601f016020809104026020016040519081016040528092919081815260200182805460018160011615610100020316600290048015612ac25780601f10612a9757610100808354040283529160200191612ac2565b820191906000526020600020905b815481529060010190602001808311612aa557829003601f168201915b5050505050806020019051610140811015612adc57600080fd5b81019080919082608001919082604001919082606001805190602001909291905050509350935093509350612b0f615b05565b60405180610140016040528084600060038110612b2857fe5b6020020151815260200185600060028110612b3f57fe5b602002015173ffffffffffffffffffffffffffffffffffffffff16815260200185600160028110612b6c57fe5b602002015173ffffffffffffffffffffffffffffffffffffffff16815260200184600160038110612b9957fe5b602002015181526020018360ff16815260200186600060048110612bb957fe5b6020020151815260200186600160048110612bd057fe5b6020020151815260200186600260048110612be757fe5b6020020151815260200186600360048110612bfe57fe5b6020020151815260200184600260038110612c1557fe5b602002015181525090506000612c996064612c94600560008e73ffffffffffffffffffffffffffffffffffffffff1673ffffffffffffffffffffffffffffffffffffffff16815260200190815260200160002060070160008d8152602001908152602001600020600060028110612c8857fe5b01548560e00151613b2a565b613aab565b90506000612cb08361010001518460e00151613b2a565b90506000612cbe8383613ae5565b9050612cef612ce8612cd560648760a00151613aab565b612ce3848860a00151613aab565b613b2a565b6064613ae5565b995050505050505050505092915050565b6000612d5985604051602001808273ffffffffffffffffffffffffffffffffffffffff1673ffffffffffffffffffffffffffffffffffffffff1681526020019150506040516020818303038152906040526000546154d6565b9050600085604051602001808273ffffffffffffffffffffffffffffffffffffffff1673ffffffffffffffffffffffffffffffffffffffff168152602001915050604051602081830303815290604052805190602001209050600073ffffffffffffffffffffffffffffffffffffffff166006600083815260200190815260200160002060009054906101000a900473ffffffffffffffffffffffffffffffffffffffff1673ffffffffffffffffffffffffffffffffffffffff1614612e1e57600080fd5b6000600560008873ffffffffffffffffffffffffffffffffffffffff1673ffffffffffffffffffffffffffffffffffffffff1681526020019081526020016000206001015414612e6d57600080fd5b600073ffffffffffffffffffffffffffffffffffffffff16600560008873ffffffffffffffffffffffffffffffffffffffff1673ffffffffffffffffffffffffffffffffffffffff16815260200190815260200160002060000160009054906101000a900473ffffffffffffffffffffffffffffffffffffffff1673ffffffffffffffffffffffffffffffffffffffff1614612f0857600080fd5b8573ffffffffffffffffffffffffffffffffffffffff1660018387878760405160008152602001604052604051808581526020018460ff1660ff1681526020018381526020018281526020019450505050506020604051602081039080840390855afa158015612f7c573d6000803e3d6000fd5b5050506020604051035173ffffffffffffffffffffffffffffffffffffffff1614612fa657600080fd5b856006600083815260200190815260200160002060006101000a81548173ffffffffffffffffffffffffffffffffffffffff021916908373ffffffffffffffffffffffffffffffffffffffff16021790555085600560008873ffffffffffffffffffffffffffffffffffffffff1673ffffffffffffffffffffffffffffffffffffffff16815260200190815260200160002060000160006101000a81548173ffffffffffffffffffffffffffffffffffffffff021916908373ffffffffffffffffffffffffffffffffffffffff160217905550505050505050565b600061308b615a9f565b613093615ac1565b61309b615ae3565b6000898060200190516101408110156130b357600080fd5b810190809190826080019190826040019190826060018051906020019092919050505093509350935093506130e6615b05565b604051806101400160405280846000600381106130ff57fe5b602002015181526020018560006002811061311657fe5b602002015173ffffffffffffffffffffffffffffffffffffffff1681526020018560016002811061314357fe5b602002015173ffffffffffffffffffffffffffffffffffffffff1681526020018460016003811061317057fe5b602002015181526020018360ff1681526020018660006004811061319057fe5b60200201518152602001866001600481106131a757fe5b60200201518152602001866002600481106131be57fe5b60200201518152602001866003600481106131d557fe5b60200201518152602001846002600381106131ec57fe5b60200201518152509050806080015160ff1660001061321357600095505050505050613396565b6001546132298261010001518360e00151613b2a565b101561323d57600095505050505050613396565b600061324b8c6000546154d6565b90506000881561326157826020015190506132e1565b826040015173ffffffffffffffffffffffffffffffffffffffff16600073ffffffffffffffffffffffffffffffffffffffff16146132a557826040015190506132e0565b600660008460600151815260200190815260200160002060009054906101000a900473ffffffffffffffffffffffffffffffffffffffff1690505b5b8073ffffffffffffffffffffffffffffffffffffffff166001838e8e8e60405160008152602001604052604051808581526020018460ff1660ff1681526020018381526020018281526020019450505050506020604051602081039080840390855afa158015613355573d6000803e3d6000fd5b5050506020604051035173ffffffffffffffffffffffffffffffffffffffff161461338a576000975050505050505050613396565b60019750505050505050505b95945050505050565b60008060006133b2878787876001614bd7565b92509250925060006133c484846128e3565b9050600560008573ffffffffffffffffffffffffffffffffffffffff1673ffffffffffffffffffffffffffffffffffffffff168152602001908152602001600020600301600084815260200190815260200160002060405180608001604052808a815260200189815260200188815260200187815250908060018154018082558091505090600182039060005260206000209060060201600090919290919091506000820151816000019080519060200190613481929190615c5e565b50602082015181600101906002613499929190615cde565b506040820151816002019060026134b1929190615d78565b506060820151816004019060026134c9929190615d78565b5050505042600560008673ffffffffffffffffffffffffffffffffffffffff1673ffffffffffffffffffffffffffffffffffffffff168152602001908152602001600020600701600085815260200190815260200160002060016002811061352d57fe5b0181905550600061353e85856128e3565b905061358c600560008773ffffffffffffffffffffffffffffffffffffffff1673ffffffffffffffffffffffffffffffffffffffff1681526020019081526020016000206004015483613b2a565b600560008773ffffffffffffffffffffffffffffffffffffffff1673ffffffffffffffffffffffffffffffffffffffff1681526020019081526020016000206004018190555061361e600560008773ffffffffffffffffffffffffffffffffffffffff1673ffffffffffffffffffffffffffffffffffffffff1681526020019081526020016000206004015482613b0b565b600560008773ffffffffffffffffffffffffffffffffffffffff1673ffffffffffffffffffffffffffffffffffffffff168152602001908152602001600020600401819055506000831415613678576136778585613b4a565b5b505050505050505050565b60015481565b60035481565b6000806000600560008673ffffffffffffffffffffffffffffffffffffffff1673ffffffffffffffffffffffffffffffffffffffff168152602001908152602001600020600801600085815260200190815260200160002060000154600560008773ffffffffffffffffffffffffffffffffffffffff1673ffffffffffffffffffffffffffffffffffffffff168152602001908152602001600020600801600086815260200190815260200160002060010154600560008873ffffffffffffffffffffffffffffffffffffffff1673ffffffffffffffffffffffffffffffffffffffff168152602001908152602001600020600801600087815260200190815260200160002060020160009054906101000a900460ff169250925092509250925092565b600073ffffffffffffffffffffffffffffffffffffffff168173ffffffffffffffffffffffffffffffffffffffff1614156137ed57600080fd5b8073ffffffffffffffffffffffffffffffffffffffff16600560008373ffffffffffffffffffffffffffffffffffffffff1673ffffffffffffffffffffffffffffffffffffffff16815260200190815260200160002060000160009054906101000a900473ffffffffffffffffffffffffffffffffffffffff1673ffffffffffffffffffffffffffffffffffffffff161461388757600080fd5b600254341161389557600080fd5b6138e1600560008373ffffffffffffffffffffffffffffffffffffffff1673ffffffffffffffffffffffffffffffffffffffff1681526020019081526020016000206001015434613b0b565b600560008373ffffffffffffffffffffffffffffffffffffffff1673ffffffffffffffffffffffffffffffffffffffff1681526020019081526020016000206001018190555050565b6060806008600084815260200190815260200160002060010160086000858152602001908152602001600020600501818054806020026020016040519081016040528092919081815260200182805480156139da57602002820191906000526020600020905b8160009054906101000a900473ffffffffffffffffffffffffffffffffffffffff1673ffffffffffffffffffffffffffffffffffffffff1681526020019060010190808311613990575b5050505050915080805480602002602001604051908101604052809291908181526020018280548015613a6257602002820191906000526020600020905b8160009054906101000a900473ffffffffffffffffffffffffffffffffffffffff1673ffffffffffffffffffffffffffffffffffffffff1681526020019060010190808311613a18575b5050505050905091509150915091565b60025481565b60066020528060005260406000206000915054906101000a900473ffffffffffffffffffffffffffffffffffffffff1681565b600080831415613abe5760009050613adf565b6000828402905082848281613acf57fe5b0414613ada57600080fd5b809150505b92915050565b6000808211613af357600080fd5b6000828481613afe57fe5b0490508091505092915050565b600080828401905083811015613b2057600080fd5b8091505092915050565b600082821115613b3957600080fd5b600082840390508091505092915050565b6000600560008473ffffffffffffffffffffffffffffffffffffffff1673ffffffffffffffffffffffffffffffffffffffff16815260200190815260200160002060030160008381526020019081526020016000208054905011613bad57600080fd5b60006001600560008573ffffffffffffffffffffffffffffffffffffffff1673ffffffffffffffffffffffffffffffffffffffff168152602001908152602001600020600301600084815260200190815260200160002080549050039050613c13615a9f565b613c1b615ac1565b613c23615ae3565b6000600560008873ffffffffffffffffffffffffffffffffffffffff1673ffffffffffffffffffffffffffffffffffffffff16815260200190815260200160002060030160008781526020019081526020016000208581548110613c8357fe5b90600052602060002090600602016000018054600181600116156101000203166002900480601f016020809104026020016040519081016040528092919081815260200182805460018160011615610100020316600290048015613d285780601f10613cfd57610100808354040283529160200191613d28565b820191906000526020600020905b815481529060010190602001808311613d0b57829003601f168201915b5050505050806020019051610140811015613d4257600080fd5b81019080919082608001919082604001919082606001805190602001909291905050509350935093509350613d75615b05565b60405180610140016040528084600060038110613d8e57fe5b6020020151815260200185600060028110613da557fe5b602002015173ffffffffffffffffffffffffffffffffffffffff16815260200185600160028110613dd257fe5b602002015173ffffffffffffffffffffffffffffffffffffffff16815260200184600160038110613dff57fe5b602002015181526020018360ff16815260200186600060048110613e1f57fe5b6020020151815260200186600160048110613e3657fe5b6020020151815260200186600260048110613e4d57fe5b6020020151815260200186600360048110613e6457fe5b6020020151815260200184600260038110613e7b57fe5b602002015181525090506000613e9189896128e3565b9050613ee360056000846020015173ffffffffffffffffffffffffffffffffffffffff1673ffffffffffffffffffffffffffffffffffffffff1681526020019081526020016000206004015482613b2a565b60056000846020015173ffffffffffffffffffffffffffffffffffffffff1673ffffffffffffffffffffffffffffffffffffffff1681526020019081526020016000206004018190555060008073ffffffffffffffffffffffffffffffffffffffff16836040015173ffffffffffffffffffffffffffffffffffffffff161415613fa657600660008460600151815260200190815260200160002060009054906101000a900473ffffffffffffffffffffffffffffffffffffffff169050613fae565b826040015190505b8160056000856020015173ffffffffffffffffffffffffffffffffffffffff1673ffffffffffffffffffffffffffffffffffffffff1681526020019081526020016000206001015410614273576040518060600160405280838152602001600081526020016001151581525060056000856020015173ffffffffffffffffffffffffffffffffffffffff1673ffffffffffffffffffffffffffffffffffffffff16815260200190815260200160002060080160008b8152602001908152602001600020600082015181600001556020820151816001015560408201518160020160006101000a81548160ff0219169083151502179055509050506140f860056000856020015173ffffffffffffffffffffffffffffffffffffffff1673ffffffffffffffffffffffffffffffffffffffff1681526020019081526020016000206006015483613b0b565b60056000856020015173ffffffffffffffffffffffffffffffffffffffff1673ffffffffffffffffffffffffffffffffffffffff1681526020019081526020016000206006018190555061419260056000856020015173ffffffffffffffffffffffffffffffffffffffff1673ffffffffffffffffffffffffffffffffffffffff1681526020019081526020016000206001015483613b2a565b60056000856020015173ffffffffffffffffffffffffffffffffffffffff1673ffffffffffffffffffffffffffffffffffffffff16815260200190815260200160002060010181905550614228600560008373ffffffffffffffffffffffffffffffffffffffff1673ffffffffffffffffffffffffffffffffffffffff1681526020019081526020016000206001015483613b0b565b600560008373ffffffffffffffffffffffffffffffffffffffff1673ffffffffffffffffffffffffffffffffffffffff168152602001908152602001600020600101819055506147f5565b600060056000856020015173ffffffffffffffffffffffffffffffffffffffff1673ffffffffffffffffffffffffffffffffffffffff1681526020019081526020016000206001015411156146ac5760006143148360056000876020015173ffffffffffffffffffffffffffffffffffffffff1673ffffffffffffffffffffffffffffffffffffffff16815260200190815260200160002060010154613b2a565b9050604051806060016040528060056000876020015173ffffffffffffffffffffffffffffffffffffffff1673ffffffffffffffffffffffffffffffffffffffff1681526020019081526020016000206001015481526020018281526020016001151581525060056000866020015173ffffffffffffffffffffffffffffffffffffffff1673ffffffffffffffffffffffffffffffffffffffff16815260200190815260200160002060080160008c8152602001908152602001600020600082015181600001556020820151816001015560408201518160020160006101000a81548160ff02191690831515021790555090505061449e60056000866020015173ffffffffffffffffffffffffffffffffffffffff1673ffffffffffffffffffffffffffffffffffffffff1681526020019081526020016000206006015460056000876020015173ffffffffffffffffffffffffffffffffffffffff1673ffffffffffffffffffffffffffffffffffffffff16815260200190815260200160002060010154613b0b565b60056000866020015173ffffffffffffffffffffffffffffffffffffffff1673ffffffffffffffffffffffffffffffffffffffff1681526020019081526020016000206006018190555061453860056000866020015173ffffffffffffffffffffffffffffffffffffffff1673ffffffffffffffffffffffffffffffffffffffff1681526020019081526020016000206005015482613b0b565b60056000866020015173ffffffffffffffffffffffffffffffffffffffff1673ffffffffffffffffffffffffffffffffffffffff16815260200190815260200160002060050181905550614614600560008473ffffffffffffffffffffffffffffffffffffffff1673ffffffffffffffffffffffffffffffffffffffff1681526020019081526020016000206001015460056000876020015173ffffffffffffffffffffffffffffffffffffffff1673ffffffffffffffffffffffffffffffffffffffff16815260200190815260200160002060010154613b0b565b600560008473ffffffffffffffffffffffffffffffffffffffff1673ffffffffffffffffffffffffffffffffffffffff16815260200190815260200160002060010181905550600060056000866020015173ffffffffffffffffffffffffffffffffffffffff1673ffffffffffffffffffffffffffffffffffffffff16815260200190815260200160002060010181905550506147f4565b6040518060600160405280600081526020018381526020016001151581525060056000856020015173ffffffffffffffffffffffffffffffffffffffff1673ffffffffffffffffffffffffffffffffffffffff16815260200190815260200160002060080160008b8152602001908152602001600020600082015181600001556020820151816001015560408201518160020160006101000a81548160ff0219169083151502179055509050506147a960056000856020015173ffffffffffffffffffffffffffffffffffffffff1673ffffffffffffffffffffffffffffffffffffffff1681526020019081526020016000206005015483613b0b565b60056000856020015173ffffffffffffffffffffffffffffffffffffffff1673ffffffffffffffffffffffffffffffffffffffff168152602001908152602001600020600501819055505b5b50505050505050505050565b6000828260405160200180838152602001828051906020019060200280838360005b8381101561483e578082015181840152602081019050614823565b505050509050019250505060405160208183030381529060405280519060200120905092915050565b6000806008600086815260200190815260200160002060030154421061488c57600080fd5b6060614896615c1a565b61489e615c3c565b6148a6615c3c565b8780602001905160e08110156148bb57600080fd5b81019080805160405193929190846401000000008211156148db57600080fd5b838201915060208201858111156148f157600080fd5b825186600182028301116401000000008211171561490e57600080fd5b8083526020830192505050908051906020019080838360005b83811015614942578082015181840152602081019050614927565b50505050905090810190601f16801561496f5780820380516001836020036101000a031916815260200191505b506040526020019190826040019190826040019190505093509350935093506060614998615c1a565b6149a0615c3c565b6149a8615c3c565b8a80602001905160e08110156149bd57600080fd5b81019080805160405193929190846401000000008211156149dd57600080fd5b838201915060208201858111156149f357600080fd5b8251866001820283011164010000000082111715614a1057600080fd5b8083526020830192505050908051906020019080838360005b83811015614a44578082015181840152602081019050614a29565b50505050905090810190601f168015614a715780820380516001836020036101000a031916815260200191505b50604052602001919082604001919082604001919050509350935093509350614ad18888600060028110614aa157fe5b602002015188600060028110614ab357fe5b602002015188600060028110614ac557fe5b60200201516001613081565b614ada57600080fd5b614b1b8888600160028110614aeb57fe5b602002015188600160028110614afd57fe5b602002015188600160028110614b0f57fe5b60200201516000613081565b614b2457600080fd5b614b658484600060028110614b3557fe5b602002015184600060028110614b4757fe5b602002015184600060028110614b5957fe5b60200201516001613081565b614b6e57600080fd5b614baf8484600160028110614b7f57fe5b602002015184600160028110614b9157fe5b602002015184600160028110614ba357fe5b60200201516000613081565b614bb857600080fd5b614bc388858f61553e565b995099505050505050505050935093915050565b6000806000614be4615a9f565b614bec615ac1565b614bf4615ae3565b60008b806020019051610140811015614c0c57600080fd5b81019080919082608001919082604001919082606001805190602001909291905050509350935093509350614c3f615b05565b60405180610140016040528084600060038110614c5857fe5b6020020151815260200185600060028110614c6f57fe5b602002015173ffffffffffffffffffffffffffffffffffffffff16815260200185600160028110614c9c57fe5b602002015173ffffffffffffffffffffffffffffffffffffffff16815260200184600160038110614cc957fe5b602002015181526020018360ff16815260200186600060048110614ce957fe5b6020020151815260200186600160048110614d0057fe5b6020020151815260200186600260048110614d1757fe5b6020020151815260200186600360048110614d2e57fe5b6020020151815260200184600260038110614d4557fe5b60200201518152509050806020015173ffffffffffffffffffffffffffffffffffffffff1660056000836020015173ffffffffffffffffffffffffffffffffffffffff1673ffffffffffffffffffffffffffffffffffffffff16815260200190815260200160002060000160009054906101000a900473ffffffffffffffffffffffffffffffffffffffff1673ffffffffffffffffffffffffffffffffffffffff1614614df157600080fd5b60008082610120015114614e735760006008600084610120015181526020019081526020016000206005018054905011614e2a57600080fd5b600860008361012001518152602001908152602001600020600101805490506008600084610120015181526020019081526020016000206005018054905014614e7257600080fd5b5b6000826080015160ff1611614e8757600080fd5b600154614e9d8361010001518460e00151613b2a565b1015614ea857600080fd5b8160e001514211614eb857600080fd5b614ed482600001518360200151846040015185606001516159f6565b905089156152b857600060056000846020015173ffffffffffffffffffffffffffffffffffffffff1673ffffffffffffffffffffffffffffffffffffffff16815260200190815260200160002060030160008381526020019081526020016000208054905011614f4357600080fd5b6000600160056000856020015173ffffffffffffffffffffffffffffffffffffffff1673ffffffffffffffffffffffffffffffffffffffff16815260200190815260200160002060030160008481526020019081526020016000208054905003905060056000846020015173ffffffffffffffffffffffffffffffffffffffff1673ffffffffffffffffffffffffffffffffffffffff1681526020019081526020016000206003016000838152602001908152602001600020818154811061500757fe5b90600052602060002090600602016000018054600181600116156101000203166002900480601f0160208091040260200160405190810160405280929190818152602001828054600181600116156101000203166002900480156150ac5780601f10615081576101008083540402835291602001916150ac565b820191906000526020600020905b81548152906001019060200180831161508f57829003601f168201915b50505050508060200190516101408110156150c657600080fd5b8101908091908260800191908260400191908260600180519060200190929190505050839350829250819150809750819850829950839a505050505061510a615b05565b6040518061014001604052808760006003811061512357fe5b602002015181526020018860006002811061513a57fe5b602002015173ffffffffffffffffffffffffffffffffffffffff1681526020018860016002811061516757fe5b602002015173ffffffffffffffffffffffffffffffffffffffff1681526020018760016003811061519457fe5b602002015181526020018660ff168152602001896000600481106151b457fe5b60200201518152602001896001600481106151cb57fe5b60200201518152602001896002600481106151e257fe5b60200201518152602001896003600481106151f957fe5b602002015181526020018760026003811061521057fe5b602002015181525090504261528d60056000876020015173ffffffffffffffffffffffffffffffffffffffff1673ffffffffffffffffffffffffffffffffffffffff168152602001908152602001600020600701600086815260200190815260200160002060016002811061528157fe5b01548360c00151613b0b565b1161529757600080fd5b806080015160ff16846080015160ff16116152b157600080fd5b50506153a8565b60008090505b60056000846020015173ffffffffffffffffffffffffffffffffffffffff1673ffffffffffffffffffffffffffffffffffffffff16815260200190815260200160002060020180549050811015615384578160056000856020015173ffffffffffffffffffffffffffffffffffffffff1673ffffffffffffffffffffffffffffffffffffffff168152602001908152602001600020600201828154811061536157fe5b9060005260206000200154141561537757600080fd5b80806001019150506152be565b50816101000151421061539657600080fd5b60008260a00151116153a757600080fd5b5b6153e98e8e6000600281106153b957fe5b60200201518e6000600281106153cb57fe5b60200201518e6000600281106153dd57fe5b60200201516001613081565b6153f257600080fd5b6154338e8e60016002811061540357fe5b60200201518e60016002811061541557fe5b60200201518e60016002811061542757fe5b60200201516000613081565b61543c57600080fd5b6000151560056000846020015173ffffffffffffffffffffffffffffffffffffffff1673ffffffffffffffffffffffffffffffffffffffff168152602001908152602001600020600801600083815260200190815260200160002060020160009054906101000a900460ff161515146154b457600080fd5b8160200151818360c00151985098509850505050505050955095509592505050565b600081838051906020012060405160200180807f19010000000000000000000000000000000000000000000000000000000000008152506002018381526020018281526020019250505060405160208183030381529060405280519060200120905092915050565b600080615549615a9f565b615551615ac1565b615559615ae3565b60008880602001905161014081101561557157600080fd5b810190809190826080019190826040019190826060018051906020019092919050505093509350935093506155a4615b05565b604051806101400160405280846000600381106155bd57fe5b60200201518152602001856000600281106155d457fe5b602002015173ffffffffffffffffffffffffffffffffffffffff1681526020018560016002811061560157fe5b602002015173ffffffffffffffffffffffffffffffffffffffff1681526020018460016003811061562e57fe5b602002015181526020018360ff1681526020018660006004811061564e57fe5b602002015181526020018660016004811061566557fe5b602002015181526020018660026004811061567c57fe5b602002015181526020018660036004811061569357fe5b60200201518152602001846002600381106156aa57fe5b60200201518152509050888060200190516101408110156156ca57600080fd5b81019080919082608001919082604001919082606001805190602001909291905050508393508292508191508095508196508297508398505050505061570e615b05565b6040518061014001604052808560006003811061572757fe5b602002015181526020018660006002811061573e57fe5b602002015173ffffffffffffffffffffffffffffffffffffffff1681526020018660016002811061576b57fe5b602002015173ffffffffffffffffffffffffffffffffffffffff1681526020018560016003811061579857fe5b602002015181526020018460ff168152602001876000600481106157b857fe5b60200201518152602001876001600481106157cf57fe5b60200201518152602001876002600481106157e657fe5b60200201518152602001876003600481106157fd57fe5b602002015181526020018560026003811061581457fe5b60200201518152509050888161012001511461582f57600080fd5b88826101200151141561584157600080fd5b600182608001510160ff16816080015160ff161461585e57600080fd5b806000015182600001511461587257600080fd5b806020015173ffffffffffffffffffffffffffffffffffffffff16826020015173ffffffffffffffffffffffffffffffffffffffff16146158b257600080fd5b806040015173ffffffffffffffffffffffffffffffffffffffff16826040015173ffffffffffffffffffffffffffffffffffffffff16146158f257600080fd5b806060015182606001511461590657600080fd5b6000600860008b8152602001908152602001600020600201541161592957600080fd5b600860008a8152602001908152602001600020600201546159528360a001518360a00151613b2a565b1461595c57600080fd5b60008073ffffffffffffffffffffffffffffffffffffffff16836040015173ffffffffffffffffffffffffffffffffffffffff1614156159d557600660008460600151815260200190815260200160002060009054906101000a900473ffffffffffffffffffffffffffffffffffffffff1690506159dd565b826040015190505b8260200151819850985050505050505050935093915050565b600084848484604051602001808581526020018473ffffffffffffffffffffffffffffffffffffffff1673ffffffffffffffffffffffffffffffffffffffff1660601b81526014018373ffffffffffffffffffffffffffffffffffffffff1673ffffffffffffffffffffffffffffffffffffffff1660601b8152601401828152602001945050505050604051602081830303815290604052805190602001209050949350505050565b6040518060800160405280600490602082028038833980820191505090505090565b6040518060400160405280600290602082028038833980820191505090505090565b6040518060600160405280600390602082028038833980820191505090505090565b60405180610140016040528060008019168152602001600073ffffffffffffffffffffffffffffffffffffffff168152602001600073ffffffffffffffffffffffffffffffffffffffff16815260200160008019168152602001600060ff16815260200160008152602001600081526020016000815260200160008152602001600080191681525090565b828054828255906000526020600020908101928215615c09579160200282015b82811115615c085782518260006101000a81548173ffffffffffffffffffffffffffffffffffffffff021916908373ffffffffffffffffffffffffffffffffffffffff16021790555091602001919060010190615bb0565b5b509050615c169190615db8565b5090565b6040518060400160405280600290602082028038833980820191505090505090565b6040518060400160405280600290602082028038833980820191505090505090565b828054600181600116156101000203166002900490600052602060002090601f016020900481019282601f10615c9f57805160ff1916838001178555615ccd565b82800160010185558215615ccd579182015b82811115615ccc578251825591602001919060010190615cb1565b5b509050615cda9190615dfb565b5090565b826002601f01602090048101928215615d675791602002820160005b83821115615d3857835183826101000a81548160ff021916908360ff1602179055509260200192600101602081600001049283019260010302615cfa565b8015615d655782816101000a81549060ff0219169055600101602081600001049283019260010302615d38565b505b509050615d749190615e20565b5090565b8260028101928215615da7579160200282015b82811115615da6578251825591602001919060010190615d8b565b5b509050615db49190615e50565b5090565b615df891905b80821115615df457600081816101000a81549073ffffffffffffffffffffffffffffffffffffffff021916905550600101615dbe565b5090565b90565b615e1d91905b80821115615e19576000816000905550600101615e01565b5090565b90565b615e4d91905b80821115615e4957600081816101000a81549060ff021916905550600101615e26565b5090565b90565b615e7291905b80821115615e6e576000816000905550600101615e56565b5090565b9056fea265627a7a72315820573253d611fbbb5d9f1a7e1b3b095f1db7977f6fbf69139a479267a5481dffb464736f6c63430005100032",
  "source": "pragma solidity >=0.5.0;\nimport \"./SafeMath.sol\";\nimport \"./CashlessLib.sol\";\n\ncontract Cashless {\n    // Precomputed hash for EIP712 domain separator\n    bytes32 constant EIP712HASH = 0x0eaa6c88c44fbde2113ba7421deef795c18fc5a553a55b2ba4d237269e1c2662;\n    \n    // Domain separator completed on contract construction\n    bytes32 public DOMAIN_SEPARATOR;\n    \n    // Claim\n    struct Claim {\n        bytes32 claimName;\n        address sender;\n        address receiver;\n        bytes32 receiverAlias;\n        uint8 nonce;\n        uint256 amount;\n        uint256 disputeDuration;\n        uint256 vestTimestamp;\n        uint256 voidTimestamp;\n        bytes32 loopID;\n    }\n    \n    // SignedClaim\n    struct SignedClaim {\n        bytes claimData;\n        uint8[2] sigsV;\n        bytes32[2] sigsR;\n        bytes32[2] sigsS;\n    }\n    \n    // Settlement\n    struct Settlement {\n        uint256 amountPaid;\n        uint256 amountDefaulted;\n        bool settled;\n    }\n    \n    // LoopProposal\n    struct LoopProposal {\n        bytes32 proposalName;\n        address[] loop;\n        uint256 minFlow;\n        uint256 lockTimestamp;\n        mapping (address => SignedClaim) claims;\n        address[] committed;\n    }\n    \n    // Reserves\n    struct Reserves {\n        address owner;\n        uint256 balance;\n        bytes32[] claimIDs;\n        mapping (bytes32 => SignedClaim[]) claims;\n        uint256 grossClaimed;\n        uint256 grossDefaulted;\n        uint256 grossPaid;\n        mapping (bytes32 => uint256[2]) proposalTimestamps;\n        mapping (bytes32 => Settlement) settlements;\n    }\n    \n    uint256 public minVestDuration = 604800;\n    uint256 public flatWithdrawFee = 10000000;\n    uint256 public percentWithdrawFee = 1;\n    address payable public networkAdmin;\n    mapping (address => Reserves) reserves;\n    mapping (bytes32 => address) public aliases;\n    mapping (bytes32 => address) public pendingAliases;\n    mapping (bytes32 => LoopProposal) public loops;\n\n    // Constructor function\n    constructor (bytes32 salt) public {\n        DOMAIN_SEPARATOR = keccak256(abi.encodePacked(EIP712HASH, this, salt));\n        networkAdmin = msg.sender;\n    }\n    \n    // Public State Modifying functions\n    function createReserves(address reservesAddress, uint8 v, bytes32 r, bytes32 s) public {\n        bytes32 hash = CashlessLib.hashClaimData(abi.encode(reservesAddress), DOMAIN_SEPARATOR);\n        bytes32 defaultAlias = keccak256(abi.encode(reservesAddress));\n        require(aliases[defaultAlias] == address(0));\n        require(reserves[reservesAddress].balance == 0);\n        require(reserves[reservesAddress].owner == address(0));\n        require(ecrecover(hash, v, r, s) == reservesAddress);\n        aliases[defaultAlias] = reservesAddress;\n        reserves[reservesAddress].owner = reservesAddress;\n    }\n    \n    function fundReserves(address accountOwner) public payable {\n        require(accountOwner != address(0));\n        require(address(reserves[accountOwner].owner) == accountOwner);\n        require(msg.value > flatWithdrawFee);\n        reserves[accountOwner].balance = SafeMath.add(reserves[accountOwner].balance, msg.value);\n    }\n    \n    function withdrawReserves(uint256 amount, address payable targetReceiver, uint256 fee) public {\n        require(reserves[msg.sender].owner == address(msg.sender));\n        require(amount>0);\n        uint256 minFee = SafeMath.add(SafeMath.div(SafeMath.mul(amount, percentWithdrawFee), 100), flatWithdrawFee);\n        require(fee>=minFee);\n        uint256 total = SafeMath.add(amount, fee);\n        require(reserves[msg.sender].balance >= SafeMath.add(reserves[msg.sender].grossClaimed, total));\n        reserves[msg.sender].balance = SafeMath.sub(reserves[msg.sender].balance, total);\n        targetReceiver.transfer(amount);\n        networkAdmin.transfer(fee);\n    }\n    \n    function addAlias(bytes32 newAlias) public {\n        require(reserves[msg.sender].owner == address(msg.sender));\n        require(aliases[newAlias]==address(0));\n        require(pendingAliases[newAlias]==address(0));\n        aliases[newAlias] = msg.sender;\n    }\n    \n    function deleteAlias(bytes32 existingAlias) public {\n        require(aliases[existingAlias] == address(msg.sender));\n        aliases[existingAlias] = address(0);\n    }\n\n    function addPendingAlias(bytes32 newAlias) public {\n        require(reserves[msg.sender].owner == address(msg.sender));\n        require(aliases[newAlias]==address(0));\n        require(pendingAliases[newAlias]==address(0));\n        pendingAliases[newAlias] = msg.sender;    \n    }\n\n    function commitPendingAlias(bytes32 newAlias, address addr) public {\n        require(pendingAliases[newAlias] == msg.sender);\n        require(reserves[addr].owner == addr);\n        pendingAliases[newAlias] = address(0);\n        aliases[newAlias] = addr;\n    }\n    \n    function proposeSettlement(bytes memory claimData, uint8[2] memory sigsV, bytes32[2] memory sigsR, bytes32[2] memory sigsS) public {\n        (address sender, bytes32 id, uint256 disputeDuration) = verifySettlement(claimData, sigsV, sigsR, sigsS, false); \n        reserves[sender].claimIDs.push(id);\n        reserves[sender].claims[id].push(SignedClaim(claimData, sigsV, sigsR, sigsS));\n        reserves[sender].proposalTimestamps[id][0] = now;\n        reserves[sender].proposalTimestamps[id][1] = now;\n        reserves[sender].grossClaimed = SafeMath.add(reserves[sender].grossClaimed, getAdjustedClaimAmount(sender, id));\n        // if no dispute period settle immediately\n        if (disputeDuration == 0) {\n            closeSettlement(sender, id);\n        }\n    }\n\n    function disputeSettlement(bytes memory claimData, uint8[2] memory sigsV, bytes32[2] memory sigsR, bytes32[2] memory sigsS) public {\n        (address sender, bytes32 id, uint256 disputeDuration) = verifySettlement(claimData, sigsV, sigsR, sigsS, true); \n        // minimum required duration between vest and void time\n        uint256 oldAmount = getAdjustedClaimAmount(sender, id);\n        reserves[sender].claims[id].push(SignedClaim(claimData, sigsV, sigsR, sigsS));\n        reserves[sender].proposalTimestamps[id][1] = now;\n        uint256 newAmount = getAdjustedClaimAmount(sender, id);\n        reserves[sender].grossClaimed = SafeMath.sub(reserves[sender].grossClaimed, oldAmount);\n        reserves[sender].grossClaimed = SafeMath.add(reserves[sender].grossClaimed, newAmount);\n        if (disputeDuration == 0) {\n            closeSettlement(sender, id);\n        }\n    }\n    \n    function redeemClaim(address accountOwner, bytes32 claimID) public {\n        require(reserves[accountOwner].settlements[claimID].settled == false);\n        require(reserves[accountOwner].proposalTimestamps[claimID][1] > 0);\n        require(reserves[accountOwner].claims[claimID].length > 0);\n        uint256 index = reserves[accountOwner].claims[claimID].length - 1;\n        (uint256[4] memory values, address[2] memory addrs, bytes32[3] memory ids, uint8 nonce) = abi.decode(reserves[accountOwner].claims[claimID][index].claimData, (uint256[4], address[2], bytes32[3], uint8));\n        Claim memory claim = Claim(ids[0], address(addrs[0]), address(addrs[1]), ids[1], nonce, values[0], values[1], values[2], values[3], ids[2]);\n        require(SafeMath.add(reserves[accountOwner].proposalTimestamps[claimID][1], claim.disputeDuration) < now);\n        require(claim.amount > 0);\n        closeSettlement(accountOwner, claimID);\n    }\n    \n    function proposeLoop(bytes32 proposalName, address[] memory loop, uint256 minFlow, uint256 lockTimestamp) public {\n        require(loop.length >= 2);\n        bytes32 id = CashlessLib.getLoopID(proposalName, loop);\n        bytes32 nil;\n        require(loops[id].proposalName == nil);\n        loops[id].proposalName = proposalName;\n        loops[id].loop = loop;\n        loops[id].lockTimestamp = lockTimestamp;\n        loops[id].minFlow = minFlow;\n    }\n    \n    function commitLoopClaim(bytes32 loopID, bytes memory encodedPriorClaim, bytes memory encodedClaim) public {\n        (address sender, address receiver) = verifyLoopClaim(loopID, encodedPriorClaim, encodedClaim);\n        bool found = false;\n        for (uint256 i=0; i<loops[loopID].loop.length; i++) {\n            if (loops[loopID].loop[i] == sender) {\n                if (i==loops[loopID].loop.length-1) {\n                    require(loops[loopID].loop[0]==receiver);\n                } else {\n                    require(loops[loopID].loop[i+1]==receiver);\n                }\n                found = true;\n                break;\n            }\n        }\n        require(found==true);\n        for (uint256 j=0; j<loops[loopID].committed.length; j++) {\n            require(loops[loopID].committed[j]!=sender);\n        }\n        (bytes memory claimData2, uint8[2] memory v2, bytes32[2] memory r2, bytes32[2] memory s2) = abi.decode(encodedClaim, (bytes, uint8[2], bytes32[2], bytes32[2]));\n        loops[loopID].claims[sender] = SignedClaim(claimData2, v2, r2, s2);\n        loops[loopID].committed.push(sender);\n    }\n    \n    // Internal (Protected) State Modifying functions\n    function verifySettlement(bytes memory claimData, uint8[2] memory sigsV, bytes32[2] memory sigsR, bytes32[2] memory sigsS, bool isDispute) internal view returns (address, bytes32, uint256) {\n        (uint256[4] memory values, address[2] memory addrs, bytes32[3] memory ids, uint8 nonce) = abi.decode(claimData, (uint256[4], address[2], bytes32[3], uint8));\n        Claim memory claim = Claim(ids[0], address(addrs[0]), address(addrs[1]), ids[1], nonce, values[0], values[1], values[2], values[3], ids[2]);\n        require(reserves[claim.sender].owner == claim.sender);\n        bytes32 id;\n        if (claim.loopID != id) {\n            require(loops[claim.loopID].committed.length > 0);\n            require(loops[claim.loopID].committed.length == loops[claim.loopID].loop.length);\n        }\n        require(claim.nonce > 0);\n        // minimum required duration between vest and void time\n        require(SafeMath.sub(claim.voidTimestamp, claim.vestTimestamp) >= minVestDuration);\n        require(now > claim.vestTimestamp);\n        id = CashlessLib.getClaimID(claim.claimName, claim.sender, claim.receiver, claim.receiverAlias);\n        if (isDispute) {\n            require(reserves[claim.sender].claims[id].length > 0);\n            uint256 lastIndex = reserves[claim.sender].claims[id].length - 1;\n            (values, addrs, ids, nonce) = abi.decode(reserves[claim.sender].claims[id][lastIndex].claimData, (uint256[4], address[2], bytes32[3], uint8));\n            Claim memory priorClaim = Claim(ids[0], address(addrs[0]), address(addrs[1]), ids[1], nonce, values[0], values[1], values[2], values[3], ids[2]);\n            require(SafeMath.add(reserves[claim.sender].proposalTimestamps[id][1], priorClaim.disputeDuration) > now);\n            require(claim.nonce > priorClaim.nonce);\n        } else {\n            for (uint256 i=0; i<reserves[claim.sender].claimIDs.length; i++) {\n                require(reserves[claim.sender].claimIDs[i] != id);\n            }\n            require(now < claim.voidTimestamp);\n            require(claim.amount > 0);  \n        }\n        require(verifyClaimSig(claimData, sigsV[0], sigsR[0], sigsS[0], true));\n        require(verifyClaimSig(claimData, sigsV[1], sigsR[1], sigsS[1], false));\n        require(reserves[claim.sender].settlements[id].settled == false);\n        return (claim.sender, id, claim.disputeDuration);\n    }\n    \n    function closeSettlement(address accountOwner, bytes32 claimID) internal {\n        require(reserves[accountOwner].claims[claimID].length > 0);\n        uint256 lastIndex = reserves[accountOwner].claims[claimID].length - 1;\n        (uint256[4] memory values, address[2] memory addrs, bytes32[3] memory ids, uint8 nonce) = abi.decode(reserves[accountOwner].claims[claimID][lastIndex].claimData, (uint256[4], address[2], bytes32[3], uint8));\n        Claim memory claim = Claim(ids[0], address(addrs[0]), address(addrs[1]), ids[1], nonce, values[0], values[1], values[2], values[3], ids[2]);\n        uint256 amount = getAdjustedClaimAmount(accountOwner, claimID);\n        reserves[claim.sender].grossClaimed = SafeMath.sub(reserves[claim.sender].grossClaimed, amount);\n        address receiver;\n        if (address(claim.receiver) == address(0)) {\n            receiver = aliases[claim.receiverAlias];\n        } else {\n            receiver = claim.receiver;\n        }\n        if (reserves[claim.sender].balance >= amount) {\n            reserves[claim.sender].settlements[claimID] = Settlement(amount, 0, true);\n            reserves[claim.sender].grossPaid = SafeMath.add(reserves[claim.sender].grossPaid, amount);\n            reserves[claim.sender].balance = SafeMath.sub(reserves[claim.sender].balance, amount);\n            reserves[receiver].balance = SafeMath.add(reserves[receiver].balance, amount);\n        } else {\n            if (reserves[claim.sender].balance > 0) {\n                uint256 defaultAmount = SafeMath.sub(amount, reserves[claim.sender].balance);\n                reserves[claim.sender].settlements[claimID] = Settlement(reserves[claim.sender].balance, defaultAmount, true);\n                reserves[claim.sender].grossPaid = SafeMath.add(reserves[claim.sender].grossPaid, reserves[claim.sender].balance);\n                reserves[claim.sender].grossDefaulted = SafeMath.add(reserves[claim.sender].grossDefaulted, defaultAmount);\n                reserves[receiver].balance = SafeMath.add(reserves[receiver].balance, reserves[claim.sender].balance);\n                reserves[claim.sender].balance = 0;\n            } else {\n                reserves[claim.sender].settlements[claimID] = Settlement(0, amount, true);\n                reserves[claim.sender].grossDefaulted = SafeMath.add(reserves[claim.sender].grossDefaulted, amount);\n            }\n        }\n    }\n    \n    function verifyLoopClaim(bytes32 loopID, bytes memory encodedPriorClaim, bytes memory encodedClaim) internal view returns (address, address) {\n        require(now < loops[loopID].lockTimestamp);\n        (bytes memory claimData1, uint8[2] memory v1, bytes32[2] memory r1, bytes32[2] memory s1) = abi.decode(encodedPriorClaim, (bytes, uint8[2], bytes32[2], bytes32[2]));\n        (bytes memory claimData2, uint8[2] memory v2, bytes32[2] memory r2, bytes32[2] memory s2) = abi.decode(encodedClaim, (bytes, uint8[2], bytes32[2], bytes32[2]));\n        require(verifyClaimSig(claimData1, v1[0], r1[0], s1[0], true));\n        require(verifyClaimSig(claimData1, v1[1], r1[1], s1[1], false));\n        require(verifyClaimSig(claimData2, v2[0], r2[0], s2[0], true));\n        require(verifyClaimSig(claimData2, v2[1], r2[1], s2[1], false));\n        return validateLoopClaim(claimData1, claimData2, loopID);\n    }\n    \n    function validateLoopClaim(bytes memory priorClaimData, bytes memory claimData, bytes32 loopID) internal  view  returns (address, address) {\n        (uint256[4] memory values, address[2] memory addrs, bytes32[3] memory ids, uint8 nonce) = abi.decode(priorClaimData, (uint256[4], address[2], bytes32[3], uint8));\n        Claim memory oldClaim = Claim(ids[0], address(addrs[0]), address(addrs[1]), ids[1], nonce, values[0], values[1], values[2], values[3], ids[2]);\n        (values, addrs, ids, nonce) = abi.decode(claimData, (uint256[4], address[2], bytes32[3], uint8));\n        Claim memory newClaim = Claim(ids[0], address(addrs[0]), address(addrs[1]), ids[1], nonce, values[0], values[1], values[2], values[3], ids[2]);\n        require(newClaim.loopID==loopID);\n        require(oldClaim.loopID!=loopID);\n        require(newClaim.nonce==oldClaim.nonce+1);\n        require(oldClaim.claimName==newClaim.claimName);\n        require(oldClaim.sender==newClaim.sender);\n        require(oldClaim.receiver==newClaim.receiver);\n        require(oldClaim.receiverAlias==newClaim.receiverAlias);\n        require(loops[loopID].minFlow > 0);\n        require(SafeMath.sub(oldClaim.amount, newClaim.amount) == loops[loopID].minFlow);\n        address receiver;\n        if (oldClaim.receiver == receiver) {\n            receiver = aliases[oldClaim.receiverAlias];\n        } else {\n            receiver = oldClaim.receiver;\n        }\n        return (oldClaim.sender, receiver);\n    }\n    \n    // Public View/Pure functions\n    function verifyClaimSig(bytes memory claimData, uint8 v, bytes32 r, bytes32 s, bool isOwner) public view returns (bool) {\n        (uint256[4] memory values, address[2] memory addrs, bytes32[3] memory ids, uint8 nonce) = abi.decode(claimData, (uint256[4], address[2], bytes32[3], uint8));\n        Claim memory claim = Claim(ids[0], address(addrs[0]), address(addrs[1]), ids[1], nonce, values[0], values[1], values[2], values[3], ids[2]);\n        if (0 >= claim.nonce) {\n            return false;\n        }\n        if (SafeMath.sub(claim.voidTimestamp, claim.vestTimestamp) < minVestDuration) {\n            return false;\n        }\n        bytes32 hash = CashlessLib.hashClaimData(claimData, DOMAIN_SEPARATOR);\n        address signer;\n        if (isOwner) {\n            signer = claim.sender;\n        } else {\n            if (address(0) != address(claim.receiver)) {\n                signer = claim.receiver;\n            } else {\n                signer = aliases[claim.receiverAlias];\n            }\n        }\n        if (ecrecover(hash, v, r, s) != signer) {\n            return false;\n        }\n        return true;\n    }\n    \n    function getAdjustedClaimAmount(address accountOwner, bytes32 claimID) public view returns (uint256) {\n        require(reserves[accountOwner].claims[claimID].length > 0);\n        uint256 lastIndex = reserves[accountOwner].claims[claimID].length - 1;\n        (uint256[4] memory values, address[2] memory addrs, bytes32[3] memory ids, uint8 nonce) = abi.decode(reserves[accountOwner].claims[claimID][lastIndex].claimData, (uint256[4], address[2], bytes32[3], uint8));\n        Claim memory claim = Claim(ids[0], address(addrs[0]), address(addrs[1]), ids[1], nonce, values[0], values[1], values[2], values[3], ids[2]);\n        uint256 numerator = SafeMath.mul(100, SafeMath.sub(reserves[accountOwner].proposalTimestamps[claimID][0], claim.vestTimestamp));\n        uint256 denominator = SafeMath.sub(claim.voidTimestamp, claim.vestTimestamp);\n        uint256 percentLost = SafeMath.div(numerator, denominator);\n        return SafeMath.div(SafeMath.sub(SafeMath.mul(100, claim.amount), SafeMath.mul(percentLost, claim.amount)), 100);\n    }\n\n    function getClaimIDs(address accountOwner) public view returns (bytes32[] memory) {\n        return reserves[accountOwner].claimIDs;\n    }\n    \n    function getReservesClaim(address accountOwner, bytes32 claimID, uint256 index) public view returns (bytes memory) {\n        return reserves[accountOwner].claims[claimID][index].claimData;\n    }\n\n    function getReservesSettlement(address accountOwner, bytes32 claimID) public view returns (uint256, uint256, bool) {\n        return (reserves[accountOwner].settlements[claimID].amountPaid, reserves[accountOwner].settlements[claimID].amountDefaulted, reserves[accountOwner].settlements[claimID].settled);\n    }\n    \n    function getLoopStatus(bytes32 loopID) public view returns (address[] memory, address[] memory) {\n        return (loops[loopID].loop, loops[loopID].committed);\n    }\n\n    // Fallback Funtion\n    function () external {}\n}",
  "sourcePath": "/Users/earth/Desktop/cashless/contracts/Cashless.sol",
  "compiler": {
    "name": "solc",
    "version": "0.5.16+commit.9c3226ce.Emscripten.clang"
  },
  "schemaVersion": "3.2.0",
  "updatedAt": "2020-07-14T19:00:09.048Z",
  "devdoc": {
    "methods": {}
  },
  "userdoc": {
    "methods": {}
  }
}