{
  "contractName": "Cashless",
  "abi": [
    {
      "inputs": [
        {
          "internalType": "bytes32",
          "name": "salt",
          "type": "bytes32"
        },
        {
          "internalType": "address",
          "name": "_redeemableTokenAddress",
          "type": "address"
        }
      ],
      "stateMutability": "nonpayable",
      "type": "constructor"
    },
    {
      "anonymous": false,
      "inputs": [
        {
          "indexed": true,
          "internalType": "address",
          "name": "owner",
          "type": "address"
        },
        {
          "indexed": true,
          "internalType": "address",
          "name": "spender",
          "type": "address"
        },
        {
          "indexed": false,
          "internalType": "uint256",
          "name": "value",
          "type": "uint256"
        }
      ],
      "name": "Approval",
      "type": "event"
    },
    {
      "anonymous": false,
      "inputs": [
        {
          "indexed": true,
          "internalType": "address",
          "name": "from",
          "type": "address"
        },
        {
          "indexed": true,
          "internalType": "address",
          "name": "to",
          "type": "address"
        },
        {
          "indexed": false,
          "internalType": "uint256",
          "name": "value",
          "type": "uint256"
        }
      ],
      "name": "Transfer",
      "type": "event"
    },
    {
      "stateMutability": "nonpayable",
      "type": "fallback"
    },
    {
      "inputs": [],
      "name": "DOMAIN_SEPARATOR",
      "outputs": [
        {
          "internalType": "bytes32",
          "name": "",
          "type": "bytes32"
        }
      ],
      "stateMutability": "view",
      "type": "function"
    },
    {
      "inputs": [
        {
          "internalType": "bytes32",
          "name": "",
          "type": "bytes32"
        }
      ],
      "name": "loops",
      "outputs": [
        {
          "internalType": "bytes32",
          "name": "proposalName",
          "type": "bytes32"
        },
        {
          "internalType": "uint256",
          "name": "minFlow",
          "type": "uint256"
        }
      ],
      "stateMutability": "view",
      "type": "function"
    },
    {
      "inputs": [],
      "name": "minVestDuration",
      "outputs": [
        {
          "internalType": "uint256",
          "name": "",
          "type": "uint256"
        }
      ],
      "stateMutability": "view",
      "type": "function"
    },
    {
      "inputs": [],
      "name": "redeemableTokenAddress",
      "outputs": [
        {
          "internalType": "address",
          "name": "",
          "type": "address"
        }
      ],
      "stateMutability": "view",
      "type": "function"
    },
    {
      "inputs": [
        {
          "internalType": "address",
          "name": "collectingAccount",
          "type": "address"
        },
        {
          "internalType": "uint256",
          "name": "amount",
          "type": "uint256"
        }
      ],
      "name": "fund",
      "outputs": [],
      "stateMutability": "nonpayable",
      "type": "function"
    },
    {
      "inputs": [
        {
          "internalType": "uint256",
          "name": "amount",
          "type": "uint256"
        },
        {
          "internalType": "address",
          "name": "targetReceiver",
          "type": "address"
        }
      ],
      "name": "redeem",
      "outputs": [],
      "stateMutability": "nonpayable",
      "type": "function"
    },
    {
      "inputs": [
        {
          "internalType": "bytes",
          "name": "claimData",
          "type": "bytes"
        },
        {
          "internalType": "uint8[2]",
          "name": "sigsV",
          "type": "uint8[2]"
        },
        {
          "internalType": "bytes32[2]",
          "name": "sigsR",
          "type": "bytes32[2]"
        },
        {
          "internalType": "bytes32[2]",
          "name": "sigsS",
          "type": "bytes32[2]"
        }
      ],
      "name": "proposeSettlement",
      "outputs": [],
      "stateMutability": "nonpayable",
      "type": "function"
    },
    {
      "inputs": [
        {
          "internalType": "bytes",
          "name": "claimData",
          "type": "bytes"
        },
        {
          "internalType": "uint8[2]",
          "name": "sigsV",
          "type": "uint8[2]"
        },
        {
          "internalType": "bytes32[2]",
          "name": "sigsR",
          "type": "bytes32[2]"
        },
        {
          "internalType": "bytes32[2]",
          "name": "sigsS",
          "type": "bytes32[2]"
        }
      ],
      "name": "disputeSettlement",
      "outputs": [],
      "stateMutability": "nonpayable",
      "type": "function"
    },
    {
      "inputs": [
        {
          "internalType": "address",
          "name": "accountOwner",
          "type": "address"
        },
        {
          "internalType": "bytes32",
          "name": "claimID",
          "type": "bytes32"
        }
      ],
      "name": "commitSettlement",
      "outputs": [],
      "stateMutability": "nonpayable",
      "type": "function"
    },
    {
      "inputs": [
        {
          "internalType": "bytes32",
          "name": "proposalName",
          "type": "bytes32"
        },
        {
          "internalType": "address[]",
          "name": "loop",
          "type": "address[]"
        },
        {
          "internalType": "uint256",
          "name": "minFlow",
          "type": "uint256"
        }
      ],
      "name": "proposeLoop",
      "outputs": [],
      "stateMutability": "nonpayable",
      "type": "function"
    },
    {
      "inputs": [
        {
          "internalType": "bytes32",
          "name": "loopID",
          "type": "bytes32"
        },
        {
          "internalType": "bytes",
          "name": "encodedPriorClaim",
          "type": "bytes"
        },
        {
          "internalType": "bytes",
          "name": "encodedClaim",
          "type": "bytes"
        }
      ],
      "name": "commitLoopClaim",
      "outputs": [],
      "stateMutability": "nonpayable",
      "type": "function"
    },
    {
      "inputs": [
        {
          "internalType": "bytes",
          "name": "claimData",
          "type": "bytes"
        },
        {
          "internalType": "uint8",
          "name": "v",
          "type": "uint8"
        },
        {
          "internalType": "bytes32",
          "name": "r",
          "type": "bytes32"
        },
        {
          "internalType": "bytes32",
          "name": "s",
          "type": "bytes32"
        },
        {
          "internalType": "bool",
          "name": "isOwner",
          "type": "bool"
        }
      ],
      "name": "verifyClaimSig",
      "outputs": [
        {
          "internalType": "bool",
          "name": "",
          "type": "bool"
        }
      ],
      "stateMutability": "view",
      "type": "function"
    },
    {
      "inputs": [
        {
          "internalType": "address",
          "name": "accountOwner",
          "type": "address"
        }
      ],
      "name": "getClaimIDs",
      "outputs": [
        {
          "internalType": "bytes32[]",
          "name": "",
          "type": "bytes32[]"
        }
      ],
      "stateMutability": "view",
      "type": "function"
    },
    {
      "inputs": [
        {
          "internalType": "address",
          "name": "accountOwner",
          "type": "address"
        },
        {
          "internalType": "bytes32",
          "name": "claimID",
          "type": "bytes32"
        },
        {
          "internalType": "uint256",
          "name": "index",
          "type": "uint256"
        }
      ],
      "name": "getClaim",
      "outputs": [
        {
          "internalType": "bytes",
          "name": "",
          "type": "bytes"
        }
      ],
      "stateMutability": "view",
      "type": "function"
    },
    {
      "inputs": [
        {
          "internalType": "address",
          "name": "accountOwner",
          "type": "address"
        },
        {
          "internalType": "bytes32",
          "name": "claimID",
          "type": "bytes32"
        }
      ],
      "name": "getSettlement",
      "outputs": [
        {
          "internalType": "uint256",
          "name": "",
          "type": "uint256"
        },
        {
          "internalType": "uint256",
          "name": "",
          "type": "uint256"
        },
        {
          "internalType": "bool",
          "name": "",
          "type": "bool"
        }
      ],
      "stateMutability": "view",
      "type": "function"
    },
    {
      "inputs": [
        {
          "internalType": "bytes32",
          "name": "loopID",
          "type": "bytes32"
        }
      ],
      "name": "getLoopStatus",
      "outputs": [
        {
          "internalType": "address[]",
          "name": "",
          "type": "address[]"
        },
        {
          "internalType": "address[]",
          "name": "",
          "type": "address[]"
        }
      ],
      "stateMutability": "view",
      "type": "function"
    },
    {
      "inputs": [],
      "name": "name",
      "outputs": [
        {
          "internalType": "string",
          "name": "",
          "type": "string"
        }
      ],
      "stateMutability": "view",
      "type": "function"
    },
    {
      "inputs": [],
      "name": "symbol",
      "outputs": [
        {
          "internalType": "string",
          "name": "",
          "type": "string"
        }
      ],
      "stateMutability": "view",
      "type": "function"
    },
    {
      "inputs": [],
      "name": "decimals",
      "outputs": [
        {
          "internalType": "uint8",
          "name": "",
          "type": "uint8"
        }
      ],
      "stateMutability": "view",
      "type": "function"
    },
    {
      "inputs": [],
      "name": "totalSupply",
      "outputs": [
        {
          "internalType": "uint256",
          "name": "",
          "type": "uint256"
        }
      ],
      "stateMutability": "view",
      "type": "function"
    },
    {
      "inputs": [
        {
          "internalType": "address",
          "name": "account",
          "type": "address"
        }
      ],
      "name": "balanceOf",
      "outputs": [
        {
          "internalType": "uint256",
          "name": "",
          "type": "uint256"
        }
      ],
      "stateMutability": "view",
      "type": "function"
    },
    {
      "inputs": [
        {
          "internalType": "address",
          "name": "recipient",
          "type": "address"
        },
        {
          "internalType": "uint256",
          "name": "amount",
          "type": "uint256"
        }
      ],
      "name": "transfer",
      "outputs": [
        {
          "internalType": "bool",
          "name": "",
          "type": "bool"
        }
      ],
      "stateMutability": "nonpayable",
      "type": "function"
    },
    {
      "inputs": [
        {
          "internalType": "address",
          "name": "owner",
          "type": "address"
        },
        {
          "internalType": "address",
          "name": "spender",
          "type": "address"
        }
      ],
      "name": "allowance",
      "outputs": [
        {
          "internalType": "uint256",
          "name": "",
          "type": "uint256"
        }
      ],
      "stateMutability": "view",
      "type": "function"
    },
    {
      "inputs": [
        {
          "internalType": "address",
          "name": "spender",
          "type": "address"
        },
        {
          "internalType": "uint256",
          "name": "amount",
          "type": "uint256"
        }
      ],
      "name": "approve",
      "outputs": [
        {
          "internalType": "bool",
          "name": "",
          "type": "bool"
        }
      ],
      "stateMutability": "nonpayable",
      "type": "function"
    },
    {
      "inputs": [
        {
          "internalType": "address",
          "name": "sender",
          "type": "address"
        },
        {
          "internalType": "address",
          "name": "recipient",
          "type": "address"
        },
        {
          "internalType": "uint256",
          "name": "amount",
          "type": "uint256"
        }
      ],
      "name": "transferFrom",
      "outputs": [
        {
          "internalType": "bool",
          "name": "",
          "type": "bool"
        }
      ],
      "stateMutability": "nonpayable",
      "type": "function"
    },
    {
      "inputs": [
        {
          "internalType": "address",
          "name": "spender",
          "type": "address"
        },
        {
          "internalType": "uint256",
          "name": "addedValue",
          "type": "uint256"
        }
      ],
      "name": "increaseAllowance",
      "outputs": [
        {
          "internalType": "bool",
          "name": "",
          "type": "bool"
        }
      ],
      "stateMutability": "nonpayable",
      "type": "function"
    },
    {
      "inputs": [
        {
          "internalType": "address",
          "name": "spender",
          "type": "address"
        },
        {
          "internalType": "uint256",
          "name": "subtractedValue",
          "type": "uint256"
        }
      ],
      "name": "decreaseAllowance",
      "outputs": [
        {
          "internalType": "bool",
          "name": "",
          "type": "bool"
        }
      ],
      "stateMutability": "nonpayable",
      "type": "function"
    }
  ],
  "bytecode": "0x608060405262093a806001553480156200001857600080fd5b50604051620051f8380380620051f8833981810160405260408110156200003e57600080fd5b8101908080519060200190929190805190602001909291905050506040518060400160405280601181526020017f526573657276652055534420546f6b656e00000000000000000000000000000081525060089080519060200190620000a6929190620001e9565b506040518060400160405280600781526020017f524553455256450000000000000000000000000000000000000000000000000081525060099080519060200190620000f4929190620001e9565b506012600a60006101000a81548160ff021916908360ff1602179055507f0eff6c88c44fbde2113ba7421deef795c18fc5a553a55b2ba4d237269e1c266260001b3083604051602001808481526020018373ffffffffffffffffffffffffffffffffffffffff1673ffffffffffffffffffffffffffffffffffffffff1660601b815260140182815260200193505050506040516020818303038152906040528051906020012060008190555080600260006101000a81548173ffffffffffffffffffffffffffffffffffffffff021916908373ffffffffffffffffffffffffffffffffffffffff160217905550505062000298565b828054600181600116156101000203166002900490600052602060002090601f016020900481019282601f106200022c57805160ff19168380011785556200025d565b828001600101855582156200025d579182015b828111156200025c5782518255916020019190600101906200023f565b5b5090506200026c919062000270565b5090565b6200029591905b808211156200029157600081600090555060010162000277565b5090565b90565b614f5080620002a86000396000f3fe608060405234801561001057600080fd5b50600436106101ad5760003560e01c806370a08231116100f9578063a29742ab11610097578063ba0b2e6511610071578063ba0b2e6514610e0a578063c4d309cd14610edb578063db49f3c114610fa6578063dd62ed3e14610ff4576101ae565b8063a29742ab14610d20578063a457c2d714610d3e578063a9059cbb14610da4576101ae565b8063852b5ed5116100d3578063852b5ed5146109535780638ceec2cb14610a5357806395d89b4114610bd157806398e5fc1814610c54576101ae565b806370a082311461085f5780637b1837de146108b75780637bde82f214610905576101ae565b806323b872dd11610166578063395093511161014057806339509351146104d657806344a07c1b1461053c5780635728e1611461069857806360cf47c1146106e1576101ae565b806323b872dd1461040e578063313ce567146104945780633644e515146104b8576101ae565b806303c9fa6b146101b057806306fdde03146101fa578063095ea7b31461027d578063098da042146102e35780631641a7441461035757806318160ddd146103f0576101ae565b5b005b6101b861106c565b604051808273ffffffffffffffffffffffffffffffffffffffff1673ffffffffffffffffffffffffffffffffffffffff16815260200191505060405180910390f35b610202611092565b6040518080602001828103825283818151815260200191508051906020019080838360005b83811015610242578082015181840152602081019050610227565b50505050905090810190601f16801561026f5780820380516001836020036101000a031916815260200191505b509250505060405180910390f35b6102c96004803603604081101561029357600080fd5b81019080803573ffffffffffffffffffffffffffffffffffffffff16906020019092919080359060200190929190505050611134565b604051808215151515815260200191505060405180910390f35b61032f600480360360408110156102f957600080fd5b81019080803573ffffffffffffffffffffffffffffffffffffffff1690602001909291908035906020019092919050505061114b565b6040518084815260200183815260200182151515158152602001935050505060405180910390f35b6103996004803603602081101561036d57600080fd5b81019080803573ffffffffffffffffffffffffffffffffffffffff16906020019092919050505061126f565b6040518080602001828103825283818151815260200191508051906020019060200280838360005b838110156103dc5780820151818401526020810190506103c1565b505050509050019250505060405180910390f35b6103f8611309565b6040518082815260200191505060405180910390f35b61047a6004803603606081101561042457600080fd5b81019080803573ffffffffffffffffffffffffffffffffffffffff169060200190929190803573ffffffffffffffffffffffffffffffffffffffff16906020019092919080359060200190929190505050611313565b604051808215151515815260200191505060405180910390f35b61049c6113de565b604051808260ff1660ff16815260200191505060405180910390f35b6104c06113f5565b6040518082815260200191505060405180910390f35b610522600480360360408110156104ec57600080fd5b81019080803573ffffffffffffffffffffffffffffffffffffffff169060200190929190803590602001909291905050506113fb565b604051808215151515815260200191505060405180910390f35b6106966004803603606081101561055257600080fd5b81019080803590602001909291908035906020019064010000000081111561057957600080fd5b82018360208201111561058b57600080fd5b803590602001918460018302840111640100000000831117156105ad57600080fd5b91908080601f016020809104026020016040519081016040528093929190818152602001838380828437600081840152601f19601f8201169050808301925050505050505091929192908035906020019064010000000081111561061057600080fd5b82018360208201111561062257600080fd5b8035906020019184600183028401116401000000008311171561064457600080fd5b91908080601f016020809104026020016040519081016040528093929190818152602001838380828437600081840152601f19601f8201169050808301925050505050505091929192905050506114a0565b005b6106c4600480360360208110156106ae57600080fd5b81019080803590602001909291905050506117f1565b604051808381526020018281526020019250505060405180910390f35b61085d600480360360e08110156106f757600080fd5b810190808035906020019064010000000081111561071457600080fd5b82018360208201111561072657600080fd5b8035906020019184600183028401116401000000008311171561074857600080fd5b91908080601f016020809104026020016040519081016040528093929190818152602001838380828437600081840152601f19601f82011690508083019250505050505050919291929080604001906002806020026040519081016040528092919082600260200280828437600081840152601f19601f820116905080830192505050505050919291929080604001906002806020026040519081016040528092919082600260200280828437600081840152601f19601f820116905080830192505050505050919291929080604001906002806020026040519081016040528092919082600260200280828437600081840152601f19601f8201169050808301925050505050509192919290505050611815565b005b6108a16004803603602081101561087557600080fd5b81019080803573ffffffffffffffffffffffffffffffffffffffff169060200190929190505050611999565b6040518082815260200191505060405180910390f35b610903600480360360408110156108cd57600080fd5b81019080803573ffffffffffffffffffffffffffffffffffffffff169060200190929190803590602001909291905050506119e2565b005b6109516004803603604081101561091b57600080fd5b8101908080359060200190929190803573ffffffffffffffffffffffffffffffffffffffff169060200190929190505050611b11565b005b610a39600480360360a081101561096957600080fd5b810190808035906020019064010000000081111561098657600080fd5b82018360208201111561099857600080fd5b803590602001918460018302840111640100000000831117156109ba57600080fd5b91908080601f016020809104026020016040519081016040528093929190818152602001838380828437600081840152601f19601f820116905080830192505050505050509192919290803560ff1690602001909291908035906020019092919080359060200190929190803515159060200190929190505050611c19565b604051808215151515815260200191505060405180910390f35b610bcf600480360360e0811015610a6957600080fd5b8101908080359060200190640100000000811115610a8657600080fd5b820183602082011115610a9857600080fd5b80359060200191846001830284011164010000000083111715610aba57600080fd5b91908080601f016020809104026020016040519081016040528093929190818152602001838380828437600081840152601f19601f82011690508083019250505050505050919291929080604001906002806020026040519081016040528092919082600260200280828437600081840152601f19601f820116905080830192505050505050919291929080604001906002806020026040519081016040528092919082600260200280828437600081840152601f19601f820116905080830192505050505050919291929080604001906002806020026040519081016040528092919082600260200280828437600081840152601f19601f8201169050808301925050505050509192919290505050611eb8565b005b610bd9611fd3565b6040518080602001828103825283818151815260200191508051906020019080838360005b83811015610c19578082015181840152602081019050610bfe565b50505050905090810190601f168015610c465780820380516001836020036101000a031916815260200191505b509250505060405180910390f35b610d1e60048036036060811015610c6a57600080fd5b810190808035906020019092919080359060200190640100000000811115610c9157600080fd5b820183602082011115610ca357600080fd5b80359060200191846020830284011164010000000083111715610cc557600080fd5b919080806020026020016040519081016040528093929190818152602001838360200280828437600081840152601f19601f82011690508083019250505050505050919291929080359060200190929190505050612075565b005b610d2861211e565b6040518082815260200191505060405180910390f35b610d8a60048036036040811015610d5457600080fd5b81019080803573ffffffffffffffffffffffffffffffffffffffff16906020019092919080359060200190929190505050612124565b604051808215151515815260200191505060405180910390f35b610df060048036036040811015610dba57600080fd5b81019080803573ffffffffffffffffffffffffffffffffffffffff169060200190929190803590602001909291905050506121e3565b604051808215151515815260200191505060405180910390f35b610e6060048036036060811015610e2057600080fd5b81019080803573ffffffffffffffffffffffffffffffffffffffff16906020019092919080359060200190929190803590602001909291905050506121fa565b6040518080602001828103825283818151815260200191508051906020019080838360005b83811015610ea0578082015181840152602081019050610e85565b50505050905090810190601f168015610ecd5780820380516001836020036101000a031916815260200191505b509250505060405180910390f35b610f0760048036036020811015610ef157600080fd5b8101908080359060200190929190505050612306565b604051808060200180602001838103835285818151815260200191508051906020019060200280838360005b83811015610f4e578082015181840152602081019050610f33565b50505050905001838103825284818151815260200191508051906020019060200280838360005b83811015610f90578082015181840152602081019050610f75565b5050505090500194505050505060405180910390f35b610ff260048036036040811015610fbc57600080fd5b81019080803573ffffffffffffffffffffffffffffffffffffffff1690602001909291908035906020019092919050505061244e565b005b6110566004803603604081101561100a57600080fd5b81019080803573ffffffffffffffffffffffffffffffffffffffff169060200190929190803573ffffffffffffffffffffffffffffffffffffffff1690602001909291905050506128d9565b6040518082815260200191505060405180910390f35b600260009054906101000a900473ffffffffffffffffffffffffffffffffffffffff1681565b606060088054600181600116156101000203166002900480601f01602080910402602001604051908101604052809291908181526020018280546001816001161561010002031660029004801561112a5780601f106110ff5761010080835404028352916020019161112a565b820191906000526020600020905b81548152906001019060200180831161110d57829003601f168201915b5050505050905090565b6000611141338484612960565b6001905092915050565b6000806000600360008673ffffffffffffffffffffffffffffffffffffffff1673ffffffffffffffffffffffffffffffffffffffff168152602001908152602001600020600301600085815260200190815260200160002060000154600360008773ffffffffffffffffffffffffffffffffffffffff1673ffffffffffffffffffffffffffffffffffffffff168152602001908152602001600020600301600086815260200190815260200160002060010154600360008873ffffffffffffffffffffffffffffffffffffffff1673ffffffffffffffffffffffffffffffffffffffff168152602001908152602001600020600301600087815260200190815260200160002060020160009054906101000a900460ff169250925092509250925092565b6060600360008373ffffffffffffffffffffffffffffffffffffffff1673ffffffffffffffffffffffffffffffffffffffff1681526020019081526020016000206000018054806020026020016040519081016040528092919081815260200182805480156112fd57602002820191906000526020600020905b8154815260200190600101908083116112e9575b50505050509050919050565b6000600754905090565b6000611320848484612b57565b6113d384336113ce85604051806060016040528060288152602001614e6460289139600660008b73ffffffffffffffffffffffffffffffffffffffff1673ffffffffffffffffffffffffffffffffffffffff16815260200190815260200160002060003373ffffffffffffffffffffffffffffffffffffffff1673ffffffffffffffffffffffffffffffffffffffff16815260200190815260200160002054612e119092919063ffffffff16565b612960565b600190509392505050565b6000600a60009054906101000a900460ff16905090565b60005481565b6000611496338461149185600660003373ffffffffffffffffffffffffffffffffffffffff1673ffffffffffffffffffffffffffffffffffffffff16815260200190815260200160002060008973ffffffffffffffffffffffffffffffffffffffff1673ffffffffffffffffffffffffffffffffffffffff16815260200190815260200160002054612ed190919063ffffffff16565b612960565b6001905092915050565b6000806114ae858585612f59565b91509150600080905060008090505b60046000888152602001908152602001600020600101805490508110156116a7578373ffffffffffffffffffffffffffffffffffffffff1660046000898152602001908152602001600020600101828154811061151657fe5b9060005260206000200160009054906101000a900473ffffffffffffffffffffffffffffffffffffffff1673ffffffffffffffffffffffffffffffffffffffff16141561169a57600160046000898152602001908152602001600020600101805490500381141561160a578273ffffffffffffffffffffffffffffffffffffffff16600460008981526020019081526020016000206001016000815481106115ba57fe5b9060005260206000200160009054906101000a900473ffffffffffffffffffffffffffffffffffffffff1673ffffffffffffffffffffffffffffffffffffffff161461160557600080fd5b611691565b8273ffffffffffffffffffffffffffffffffffffffff1660046000898152602001908152602001600020600101600183018154811061164557fe5b9060005260206000200160009054906101000a900473ffffffffffffffffffffffffffffffffffffffff1673ffffffffffffffffffffffffffffffffffffffff161461169057600080fd5b5b600191506116a7565b80806001019150506114bd565b5060011515811515146116b957600080fd5b60008090505b6004600088815260200190815260200160002060030180549050811015611771578373ffffffffffffffffffffffffffffffffffffffff1660046000898152602001908152602001600020600301828154811061171857fe5b9060005260206000200160009054906101000a900473ffffffffffffffffffffffffffffffffffffffff1673ffffffffffffffffffffffffffffffffffffffff16141561176457600080fd5b80806001019150506116bf565b5060046000878152602001908152602001600020600301839080600181540180825580915050600190039060005260206000200160009091909190916101000a81548173ffffffffffffffffffffffffffffffffffffffff021916908373ffffffffffffffffffffffffffffffffffffffff160217905550505050505050565b60046020528060005260406000206000915090508060000154908060020154905082565b60008060006118288787878760006132a7565b925092509250600360008473ffffffffffffffffffffffffffffffffffffffff1673ffffffffffffffffffffffffffffffffffffffff168152602001908152602001600020600001829080600181540180825580915050600190039060005260206000200160009091909190915055600360008473ffffffffffffffffffffffffffffffffffffffff1673ffffffffffffffffffffffffffffffffffffffff168152602001908152602001600020600101600083815260200190815260200160002087908060018154018082558091505060019003906000526020600020016000909190919091509080519060200190611923929190614b5b565b5042600360008573ffffffffffffffffffffffffffffffffffffffff1673ffffffffffffffffffffffffffffffffffffffff16815260200190815260200160002060020160008481526020019081526020016000208190555060008114156119905761198f8383613acd565b5b50505050505050565b6000600560008373ffffffffffffffffffffffffffffffffffffffff1673ffffffffffffffffffffffffffffffffffffffff168152602001908152602001600020549050919050565b600260009054906101000a900473ffffffffffffffffffffffffffffffffffffffff1673ffffffffffffffffffffffffffffffffffffffff166323b872dd3330846040518463ffffffff1660e01b8152600401808473ffffffffffffffffffffffffffffffffffffffff1673ffffffffffffffffffffffffffffffffffffffff1681526020018373ffffffffffffffffffffffffffffffffffffffff1673ffffffffffffffffffffffffffffffffffffffff1681526020018281526020019350505050602060405180830381600087803b158015611abf57600080fd5b505af1158015611ad3573d6000803e3d6000fd5b505050506040513d6020811015611ae957600080fd5b8101908080519060200190929190505050611b0357600080fd5b611b0d82826141b7565b5050565b60008211611b1e57600080fd5b600260009054906101000a900473ffffffffffffffffffffffffffffffffffffffff1673ffffffffffffffffffffffffffffffffffffffff1663a9059cbb82846040518363ffffffff1660e01b8152600401808373ffffffffffffffffffffffffffffffffffffffff1673ffffffffffffffffffffffffffffffffffffffff16815260200182815260200192505050602060405180830381600087803b158015611bc757600080fd5b505af1158015611bdb573d6000803e3d6000fd5b505050506040513d6020811015611bf157600080fd5b8101908080519060200190929190505050611c0b57600080fd5b611c153383614374565b5050565b6000611c23614bdb565b611c2b614bfd565b611c33614c1f565b600089806020019051610120811015611c4b57600080fd5b81019080919082608001919082604001919082604001805190602001909291905050509350935093509350611c7e614c41565b60405180610120016040528084600060028110611c9757fe5b6020020151815260200185600060028110611cae57fe5b602002015173ffffffffffffffffffffffffffffffffffffffff16815260200185600160028110611cdb57fe5b602002015173ffffffffffffffffffffffffffffffffffffffff1681526020018360ff16815260200186600060048110611d1157fe5b6020020151815260200186600160048110611d2857fe5b6020020151815260200186600260048110611d3f57fe5b6020020151815260200186600360048110611d5657fe5b6020020151815260200184600160028110611d6d57fe5b60200201518152509050806060015160ff16600010611d9457600095505050505050611eaf565b600154611db28260c001518360e0015161452e90919063ffffffff16565b1015611dc657600095505050505050611eaf565b6000611ddc611dd78d600054614578565b6145fc565b905060008815611df25782602001519050611dfa565b826040015190505b8073ffffffffffffffffffffffffffffffffffffffff166001838e8e8e60405160008152602001604052604051808581526020018460ff1660ff1681526020018381526020018281526020019450505050506020604051602081039080840390855afa158015611e6e573d6000803e3d6000fd5b5050506020604051035173ffffffffffffffffffffffffffffffffffffffff1614611ea3576000975050505050505050611eaf565b60019750505050505050505b95945050505050565b6000806000611ecb8787878760016132a7565b925092509250600360008473ffffffffffffffffffffffffffffffffffffffff1673ffffffffffffffffffffffffffffffffffffffff168152602001908152602001600020600101600083815260200190815260200160002087908060018154018082558091505060019003906000526020600020016000909190919091509080519060200190611f5d929190614b5b565b5042600360008573ffffffffffffffffffffffffffffffffffffffff1673ffffffffffffffffffffffffffffffffffffffff1681526020019081526020016000206002016000848152602001908152602001600020819055506000811415611fca57611fc98383613acd565b5b50505050505050565b606060098054600181600116156101000203166002900480601f01602080910402602001604051908101604052809291908181526020018280546001816001161561010002031660029004801561206b5780601f106120405761010080835404028352916020019161206b565b820191906000526020600020905b81548152906001019060200180831161204e57829003601f168201915b5050505050905090565b60028251101561208457600080fd5b60006120908484614654565b90506000806004600084815260200190815260200160002060000154146120b657600080fd5b846004600084815260200190815260200160002060000181905550836004600084815260200190815260200160002060010190805190602001906120fb929190614cc2565b508260046000848152602001908152602001600020600201819055505050505050565b60015481565b60006121d933846121d485604051806060016040528060258152602001614ef660259139600660003373ffffffffffffffffffffffffffffffffffffffff1673ffffffffffffffffffffffffffffffffffffffff16815260200190815260200160002060008a73ffffffffffffffffffffffffffffffffffffffff1673ffffffffffffffffffffffffffffffffffffffff16815260200190815260200160002054612e119092919063ffffffff16565b612960565b6001905092915050565b60006121f0338484612b57565b6001905092915050565b6060600360008573ffffffffffffffffffffffffffffffffffffffff1673ffffffffffffffffffffffffffffffffffffffff1681526020019081526020016000206001016000848152602001908152602001600020828154811061225a57fe5b906000526020600020018054600181600116156101000203166002900480601f0160208091040260200160405190810160405280929190818152602001828054600181600116156101000203166002900480156122f85780601f106122cd576101008083540402835291602001916122f8565b820191906000526020600020905b8154815290600101906020018083116122db57829003601f168201915b505050505090509392505050565b6060806004600084815260200190815260200160002060010160046000858152602001908152602001600020600301818054806020026020016040519081016040528092919081815260200182805480156123b657602002820191906000526020600020905b8160009054906101000a900473ffffffffffffffffffffffffffffffffffffffff1673ffffffffffffffffffffffffffffffffffffffff168152602001906001019080831161236c575b505050505091508080548060200260200160405190810160405280929190818152602001828054801561243e57602002820191906000526020600020905b8160009054906101000a900473ffffffffffffffffffffffffffffffffffffffff1673ffffffffffffffffffffffffffffffffffffffff16815260200190600101908083116123f4575b5050505050905091509150915091565b60001515600360008473ffffffffffffffffffffffffffffffffffffffff1673ffffffffffffffffffffffffffffffffffffffff168152602001908152602001600020600301600083815260200190815260200160002060020160009054906101000a900460ff161515146124c257600080fd5b6000600360008473ffffffffffffffffffffffffffffffffffffffff1673ffffffffffffffffffffffffffffffffffffffff1681526020019081526020016000206002016000838152602001908152602001600020541161252257600080fd5b6000600360008473ffffffffffffffffffffffffffffffffffffffff1673ffffffffffffffffffffffffffffffffffffffff1681526020019081526020016000206001016000838152602001908152602001600020805490501161258557600080fd5b60006001600360008573ffffffffffffffffffffffffffffffffffffffff1673ffffffffffffffffffffffffffffffffffffffff1681526020019081526020016000206001016000848152602001908152602001600020805490500390506125eb614bdb565b6125f3614bfd565b6125fb614c1f565b6000600360008873ffffffffffffffffffffffffffffffffffffffff1673ffffffffffffffffffffffffffffffffffffffff1681526020019081526020016000206001016000878152602001908152602001600020858154811061265b57fe5b906000526020600020018054600181600116156101000203166002900480601f0160208091040260200160405190810160405280929190818152602001828054600181600116156101000203166002900480156126f95780601f106126ce576101008083540402835291602001916126f9565b820191906000526020600020905b8154815290600101906020018083116126dc57829003601f168201915b505050505080602001905161012081101561271357600080fd5b81019080919082608001919082604001919082604001805190602001909291905050509350935093509350612746614c41565b6040518061012001604052808460006002811061275f57fe5b602002015181526020018560006002811061277657fe5b602002015173ffffffffffffffffffffffffffffffffffffffff168152602001856001600281106127a357fe5b602002015173ffffffffffffffffffffffffffffffffffffffff1681526020018360ff168152602001866000600481106127d957fe5b60200201518152602001866001600481106127f057fe5b602002015181526020018660026004811061280757fe5b602002015181526020018660036004811061281e57fe5b602002015181526020018460016002811061283557fe5b60200201518152509050426128aa8260a00151600360008c73ffffffffffffffffffffffffffffffffffffffff1673ffffffffffffffffffffffffffffffffffffffff16815260200190815260200160002060020160008b815260200190815260200160002054612ed190919063ffffffff16565b106128b457600080fd5b60008160800151116128c557600080fd5b6128cf8888613acd565b5050505050505050565b6000600660008473ffffffffffffffffffffffffffffffffffffffff1673ffffffffffffffffffffffffffffffffffffffff16815260200190815260200160002060008373ffffffffffffffffffffffffffffffffffffffff1673ffffffffffffffffffffffffffffffffffffffff16815260200190815260200160002054905092915050565b600073ffffffffffffffffffffffffffffffffffffffff168373ffffffffffffffffffffffffffffffffffffffff1614156129e6576040517f08c379a0000000000000000000000000000000000000000000000000000000008152600401808060200182810382526024815260200180614ed26024913960400191505060405180910390fd5b600073ffffffffffffffffffffffffffffffffffffffff168273ffffffffffffffffffffffffffffffffffffffff161415612a6c576040517f08c379a0000000000000000000000000000000000000000000000000000000008152600401808060200182810382526022815260200180614e1c6022913960400191505060405180910390fd5b80600660008573ffffffffffffffffffffffffffffffffffffffff1673ffffffffffffffffffffffffffffffffffffffff16815260200190815260200160002060008473ffffffffffffffffffffffffffffffffffffffff1673ffffffffffffffffffffffffffffffffffffffff168152602001908152602001600020819055508173ffffffffffffffffffffffffffffffffffffffff168373ffffffffffffffffffffffffffffffffffffffff167f8c5be1e5ebec7d5bd14f71427d1e84f3dd0314c0f7b2291e5b200ac8c7c3b925836040518082815260200191505060405180910390a3505050565b600073ffffffffffffffffffffffffffffffffffffffff168373ffffffffffffffffffffffffffffffffffffffff161415612bdd576040517f08c379a0000000000000000000000000000000000000000000000000000000008152600401808060200182810382526025815260200180614ead6025913960400191505060405180910390fd5b600073ffffffffffffffffffffffffffffffffffffffff168273ffffffffffffffffffffffffffffffffffffffff161415612c63576040517f08c379a0000000000000000000000000000000000000000000000000000000008152600401808060200182810382526023815260200180614dd76023913960400191505060405180910390fd5b612ccf81604051806060016040528060268152602001614e3e60269139600560008773ffffffffffffffffffffffffffffffffffffffff1673ffffffffffffffffffffffffffffffffffffffff16815260200190815260200160002054612e119092919063ffffffff16565b600560008573ffffffffffffffffffffffffffffffffffffffff1673ffffffffffffffffffffffffffffffffffffffff16815260200190815260200160002081905550612d6481600560008573ffffffffffffffffffffffffffffffffffffffff1673ffffffffffffffffffffffffffffffffffffffff16815260200190815260200160002054612ed190919063ffffffff16565b600560008473ffffffffffffffffffffffffffffffffffffffff1673ffffffffffffffffffffffffffffffffffffffff168152602001908152602001600020819055508173ffffffffffffffffffffffffffffffffffffffff168373ffffffffffffffffffffffffffffffffffffffff167fddf252ad1be2c89b69c2b068fc378daa952ba7f163c4a11628f55a4df523b3ef836040518082815260200191505060405180910390a3505050565b6000838311158290612ebe576040517f08c379a00000000000000000000000000000000000000000000000000000000081526004018080602001828103825283818151815260200191508051906020019080838360005b83811015612e83578082015181840152602081019050612e68565b50505050905090810190601f168015612eb05780820380516001836020036101000a031916815260200191505b509250505060405180910390fd5b5060008385039050809150509392505050565b600080828401905083811015612f4f576040517f08c379a000000000000000000000000000000000000000000000000000000000815260040180806020018281038252601b8152602001807f536166654d6174683a206164646974696f6e206f766572666c6f77000000000081525060200191505060405180910390fd5b8091505092915050565b6000806060612f66614d4c565b612f6e614c1f565b612f76614c1f565b8780602001905160e0811015612f8b57600080fd5b8101908080516040519392919084640100000000821115612fab57600080fd5b83820191506020820185811115612fc157600080fd5b8251866001820283011164010000000082111715612fde57600080fd5b8083526020830192505050908051906020019080838360005b83811015613012578082015181840152602081019050612ff7565b50505050905090810190601f16801561303f5780820380516001836020036101000a031916815260200191505b506040526020019190826040019190826040019190505093509350935093506060613068614d4c565b613070614c1f565b613078614c1f565b8a80602001905160e081101561308d57600080fd5b81019080805160405193929190846401000000008211156130ad57600080fd5b838201915060208201858111156130c357600080fd5b82518660018202830111640100000000821117156130e057600080fd5b8083526020830192505050908051906020019080838360005b838110156131145780820151818401526020810190506130f9565b50505050905090810190601f1680156131415780820380516001836020036101000a031916815260200191505b506040526020019190826040019190826040019190505093509350935093506131a1888860006002811061317157fe5b60200201518860006002811061318357fe5b60200201518860006002811061319557fe5b60200201516001611c19565b6131aa57600080fd5b6131eb88886001600281106131bb57fe5b6020020151886001600281106131cd57fe5b6020020151886001600281106131df57fe5b60200201516000611c19565b6131f457600080fd5b613235848460006002811061320557fe5b60200201518460006002811061321757fe5b60200201518460006002811061322957fe5b60200201516001611c19565b61323e57600080fd5b61327f848460016002811061324f57fe5b60200201518460016002811061326157fe5b60200201518460016002811061327357fe5b60200201516000611c19565b61328857600080fd5b61329388858f6146ba565b995099505050505050505050935093915050565b60008060006132b4614bdb565b6132bc614bfd565b6132c4614c1f565b60008b8060200190516101208110156132dc57600080fd5b8101908091908260800191908260400191908260400180519060200190929190505050935093509350935061330f614c41565b6040518061012001604052808460006002811061332857fe5b602002015181526020018560006002811061333f57fe5b602002015173ffffffffffffffffffffffffffffffffffffffff1681526020018560016002811061336c57fe5b602002015173ffffffffffffffffffffffffffffffffffffffff1681526020018360ff168152602001866000600481106133a257fe5b60200201518152602001866001600481106133b957fe5b60200201518152602001866002600481106133d057fe5b60200201518152602001866003600481106133e757fe5b60200201518152602001846001600281106133fe57fe5b602002015181525090506000808261010001511461348a576000600460008461010001518152602001908152602001600020600301805490501161344157600080fd5b60046000836101000151815260200190815260200160002060010180549050600460008461010001518152602001908152602001600020600301805490501461348957600080fd5b5b6000826060015160ff161161349e57600080fd5b6001546134bc8360c001518460e0015161452e90919063ffffffff16565b10156134c757600080fd5b8160c0015142116134d757600080fd5b6134ee826000015183602001518460400151614abb565b905089156138b057600060036000846020015173ffffffffffffffffffffffffffffffffffffffff1673ffffffffffffffffffffffffffffffffffffffff1681526020019081526020016000206001016000838152602001908152602001600020805490501161355d57600080fd5b6000600160036000856020015173ffffffffffffffffffffffffffffffffffffffff1673ffffffffffffffffffffffffffffffffffffffff16815260200190815260200160002060010160008481526020019081526020016000208054905003905060036000846020015173ffffffffffffffffffffffffffffffffffffffff1673ffffffffffffffffffffffffffffffffffffffff1681526020019081526020016000206001016000838152602001908152602001600020818154811061362157fe5b906000526020600020018054600181600116156101000203166002900480601f0160208091040260200160405190810160405280929190818152602001828054600181600116156101000203166002900480156136bf5780601f10613694576101008083540402835291602001916136bf565b820191906000526020600020905b8154815290600101906020018083116136a257829003601f168201915b50505050508060200190516101208110156136d957600080fd5b8101908091908260800191908260400191908260400180519060200190929190505050839350829250819150809750819850829950839a505050505061371d614c41565b6040518061012001604052808760006002811061373657fe5b602002015181526020018860006002811061374d57fe5b602002015173ffffffffffffffffffffffffffffffffffffffff1681526020018860016002811061377a57fe5b602002015173ffffffffffffffffffffffffffffffffffffffff1681526020018660ff168152602001896000600481106137b057fe5b60200201518152602001896001600481106137c757fe5b60200201518152602001896002600481106137de57fe5b60200201518152602001896003600481106137f557fe5b602002015181526020018760016002811061380c57fe5b60200201518152509050426138858260a0015160036000886020015173ffffffffffffffffffffffffffffffffffffffff1673ffffffffffffffffffffffffffffffffffffffff168152602001908152602001600020600201600087815260200190815260200160002054612ed190919063ffffffff16565b1161388f57600080fd5b806060015160ff16846060015160ff16116138a957600080fd5b505061399f565b60008090505b60036000846020015173ffffffffffffffffffffffffffffffffffffffff1673ffffffffffffffffffffffffffffffffffffffff1681526020019081526020016000206000018054905081101561397c578160036000856020015173ffffffffffffffffffffffffffffffffffffffff1673ffffffffffffffffffffffffffffffffffffffff168152602001908152602001600020600001828154811061395957fe5b9060005260206000200154141561396f57600080fd5b80806001019150506138b6565b508160e00151421061398d57600080fd5b600082608001511161399e57600080fd5b5b6139e08e8e6000600281106139b057fe5b60200201518e6000600281106139c257fe5b60200201518e6000600281106139d457fe5b60200201516001611c19565b6139e957600080fd5b613a2a8e8e6001600281106139fa57fe5b60200201518e600160028110613a0c57fe5b60200201518e600160028110613a1e57fe5b60200201516000611c19565b613a3357600080fd5b6000151560036000846020015173ffffffffffffffffffffffffffffffffffffffff1673ffffffffffffffffffffffffffffffffffffffff168152602001908152602001600020600301600083815260200190815260200160002060020160009054906101000a900460ff16151514613aab57600080fd5b8160200151818360a00151985098509850505050505050955095509592505050565b6000600360008473ffffffffffffffffffffffffffffffffffffffff1673ffffffffffffffffffffffffffffffffffffffff16815260200190815260200160002060010160008381526020019081526020016000208054905011613b3057600080fd5b60006001600360008573ffffffffffffffffffffffffffffffffffffffff1673ffffffffffffffffffffffffffffffffffffffff168152602001908152602001600020600101600084815260200190815260200160002080549050039050613b96614bdb565b613b9e614bfd565b613ba6614c1f565b6000600360008873ffffffffffffffffffffffffffffffffffffffff1673ffffffffffffffffffffffffffffffffffffffff16815260200190815260200160002060010160008781526020019081526020016000208581548110613c0657fe5b906000526020600020018054600181600116156101000203166002900480601f016020809104026020016040519081016040528092919081815260200182805460018160011615610100020316600290048015613ca45780601f10613c7957610100808354040283529160200191613ca4565b820191906000526020600020905b815481529060010190602001808311613c8757829003601f168201915b5050505050806020019051610120811015613cbe57600080fd5b81019080919082608001919082604001919082604001805190602001909291905050509350935093509350613cf1614c41565b60405180610120016040528084600060028110613d0a57fe5b6020020151815260200185600060028110613d2157fe5b602002015173ffffffffffffffffffffffffffffffffffffffff16815260200185600160028110613d4e57fe5b602002015173ffffffffffffffffffffffffffffffffffffffff1681526020018360ff16815260200186600060048110613d8457fe5b6020020151815260200186600160048110613d9b57fe5b6020020151815260200186600260048110613db257fe5b6020020151815260200186600360048110613dc957fe5b6020020151815260200184600160028110613de057fe5b60200201518152509050806080015160056000836020015173ffffffffffffffffffffffffffffffffffffffff1673ffffffffffffffffffffffffffffffffffffffff1681526020019081526020016000205410613f0557604051806060016040528082608001518152602001600081526020016001151581525060036000836020015173ffffffffffffffffffffffffffffffffffffffff1673ffffffffffffffffffffffffffffffffffffffff1681526020019081526020016000206003016000898152602001908152602001600020600082015181600001556020820151816001015560408201518160020160006101000a81548160ff021916908315150217905550905050613f00816020015182604001518360800151612b57565b6141ad565b600060056000836020015173ffffffffffffffffffffffffffffffffffffffff1673ffffffffffffffffffffffffffffffffffffffff1681526020019081526020016000205411156140fa576000613fad60056000846020015173ffffffffffffffffffffffffffffffffffffffff1673ffffffffffffffffffffffffffffffffffffffff16815260200190815260200160002054836080015161452e90919063ffffffff16565b9050604051806060016040528060056000856020015173ffffffffffffffffffffffffffffffffffffffff1673ffffffffffffffffffffffffffffffffffffffff1681526020019081526020016000205481526020018281526020016001151581525060036000846020015173ffffffffffffffffffffffffffffffffffffffff1673ffffffffffffffffffffffffffffffffffffffff16815260200190815260200160002060030160008a8152602001908152602001600020600082015181600001556020820151816001015560408201518160020160006101000a81548160ff0219169083151502179055509050506140f48260200151836040015160056000866020015173ffffffffffffffffffffffffffffffffffffffff1673ffffffffffffffffffffffffffffffffffffffff16815260200190815260200160002054612b57565b506141ac565b604051806060016040528060008152602001826080015181526020016001151581525060036000836020015173ffffffffffffffffffffffffffffffffffffffff1673ffffffffffffffffffffffffffffffffffffffff1681526020019081526020016000206003016000898152602001908152602001600020600082015181600001556020820151816001015560408201518160020160006101000a81548160ff0219169083151502179055509050505b5b5050505050505050565b600073ffffffffffffffffffffffffffffffffffffffff168273ffffffffffffffffffffffffffffffffffffffff16141561425a576040517f08c379a000000000000000000000000000000000000000000000000000000000815260040180806020018281038252601f8152602001807f45524332303a206d696e7420746f20746865207a65726f20616464726573730081525060200191505060405180910390fd5b61426f81600754612ed190919063ffffffff16565b6007819055506142c781600560008573ffffffffffffffffffffffffffffffffffffffff1673ffffffffffffffffffffffffffffffffffffffff16815260200190815260200160002054612ed190919063ffffffff16565b600560008473ffffffffffffffffffffffffffffffffffffffff1673ffffffffffffffffffffffffffffffffffffffff168152602001908152602001600020819055508173ffffffffffffffffffffffffffffffffffffffff16600073ffffffffffffffffffffffffffffffffffffffff167fddf252ad1be2c89b69c2b068fc378daa952ba7f163c4a11628f55a4df523b3ef836040518082815260200191505060405180910390a35050565b600073ffffffffffffffffffffffffffffffffffffffff168273ffffffffffffffffffffffffffffffffffffffff1614156143fa576040517f08c379a0000000000000000000000000000000000000000000000000000000008152600401808060200182810382526021815260200180614e8c6021913960400191505060405180910390fd5b61446681604051806060016040528060228152602001614dfa60229139600560008673ffffffffffffffffffffffffffffffffffffffff1673ffffffffffffffffffffffffffffffffffffffff16815260200190815260200160002054612e119092919063ffffffff16565b600560008473ffffffffffffffffffffffffffffffffffffffff1673ffffffffffffffffffffffffffffffffffffffff168152602001908152602001600020819055506144be8160075461452e90919063ffffffff16565b600781905550600073ffffffffffffffffffffffffffffffffffffffff168273ffffffffffffffffffffffffffffffffffffffff167fddf252ad1be2c89b69c2b068fc378daa952ba7f163c4a11628f55a4df523b3ef836040518082815260200191505060405180910390a35050565b600061457083836040518060400160405280601e81526020017f536166654d6174683a207375627472616374696f6e206f766572666c6f770000815250612e11565b905092915050565b600081836040516020018083815260200182805190602001908083835b602083106145b85780518252602082019150602081019050602083039250614595565b6001836020036101000a0380198251168184511680821785525050505050509050019250505060405160208183030381529060405280519060200120905092915050565b60008160405160200180807f19457468657265756d205369676e6564204d6573736167653a0a333200000000815250601c01828152602001915050604051602081830303815290604052805190602001209050919050565b6000828260405160200180838152602001828051906020019060200280838360005b83811015614691578082015181840152602081019050614676565b505050509050019250505060405160208183030381529060405280519060200120905092915050565b6000806146c5614bdb565b6146cd614bfd565b6146d5614c1f565b6000888060200190516101208110156146ed57600080fd5b81019080919082608001919082604001919082604001805190602001909291905050509350935093509350614720614c41565b6040518061012001604052808460006002811061473957fe5b602002015181526020018560006002811061475057fe5b602002015173ffffffffffffffffffffffffffffffffffffffff1681526020018560016002811061477d57fe5b602002015173ffffffffffffffffffffffffffffffffffffffff1681526020018360ff168152602001866000600481106147b357fe5b60200201518152602001866001600481106147ca57fe5b60200201518152602001866002600481106147e157fe5b60200201518152602001866003600481106147f857fe5b602002015181526020018460016002811061480f57fe5b602002015181525090508880602001905161012081101561482f57600080fd5b810190809190826080019190826040019190826040018051906020019092919050505083935082925081915080955081965082975083985050505050614873614c41565b6040518061012001604052808560006002811061488c57fe5b60200201518152602001866000600281106148a357fe5b602002015173ffffffffffffffffffffffffffffffffffffffff168152602001866001600281106148d057fe5b602002015173ffffffffffffffffffffffffffffffffffffffff1681526020018460ff1681526020018760006004811061490657fe5b602002015181526020018760016004811061491d57fe5b602002015181526020018760026004811061493457fe5b602002015181526020018760036004811061494b57fe5b602002015181526020018560016002811061496257fe5b60200201518152509050888161010001511461497d57600080fd5b88826101000151141561498f57600080fd5b600182606001510160ff16816060015160ff16146149ac57600080fd5b80600001518260000151146149c057600080fd5b806020015173ffffffffffffffffffffffffffffffffffffffff16826020015173ffffffffffffffffffffffffffffffffffffffff1614614a0057600080fd5b806040015173ffffffffffffffffffffffffffffffffffffffff16826040015173ffffffffffffffffffffffffffffffffffffffff1614614a4057600080fd5b6000600460008b81526020019081526020016000206002015411614a6357600080fd5b600460008a815260200190815260200160002060020154614a958260800151846080015161452e90919063ffffffff16565b14614a9f57600080fd5b8160200151826040015197509750505050505050935093915050565b6000838383604051602001808481526020018373ffffffffffffffffffffffffffffffffffffffff1673ffffffffffffffffffffffffffffffffffffffff1660601b81526014018273ffffffffffffffffffffffffffffffffffffffff1673ffffffffffffffffffffffffffffffffffffffff1660601b815260140193505050506040516020818303038152906040528051906020012090509392505050565b828054600181600116156101000203166002900490600052602060002090601f016020900481019282601f10614b9c57805160ff1916838001178555614bca565b82800160010185558215614bca579182015b82811115614bc9578251825591602001919060010190614bae565b5b509050614bd79190614d6e565b5090565b6040518060800160405280600490602082028038833980820191505090505090565b6040518060400160405280600290602082028038833980820191505090505090565b6040518060400160405280600290602082028038833980820191505090505090565b60405180610120016040528060008019168152602001600073ffffffffffffffffffffffffffffffffffffffff168152602001600073ffffffffffffffffffffffffffffffffffffffff168152602001600060ff16815260200160008152602001600081526020016000815260200160008152602001600080191681525090565b828054828255906000526020600020908101928215614d3b579160200282015b82811115614d3a5782518260006101000a81548173ffffffffffffffffffffffffffffffffffffffff021916908373ffffffffffffffffffffffffffffffffffffffff16021790555091602001919060010190614ce2565b5b509050614d489190614d93565b5090565b6040518060400160405280600290602082028038833980820191505090505090565b614d9091905b80821115614d8c576000816000905550600101614d74565b5090565b90565b614dd391905b80821115614dcf57600081816101000a81549073ffffffffffffffffffffffffffffffffffffffff021916905550600101614d99565b5090565b9056fe45524332303a207472616e7366657220746f20746865207a65726f206164647265737345524332303a206275726e20616d6f756e7420657863656564732062616c616e636545524332303a20617070726f766520746f20746865207a65726f206164647265737345524332303a207472616e7366657220616d6f756e7420657863656564732062616c616e636545524332303a207472616e7366657220616d6f756e74206578636565647320616c6c6f77616e636545524332303a206275726e2066726f6d20746865207a65726f206164647265737345524332303a207472616e736665722066726f6d20746865207a65726f206164647265737345524332303a20617070726f76652066726f6d20746865207a65726f206164647265737345524332303a2064656372656173656420616c6c6f77616e63652062656c6f77207a65726fa26469706673582212203054d500a520ac94f0a7a857a63ecc1b8d877df9ebd1ae88011714a1e773489064736f6c63430006020033",
  "source": "pragma solidity ^0.6.0;\nimport \"./CashlessLib.sol\";\nimport \"./../node_modules/@openzeppelin/contracts/token/ERC20/IERC20.sol\";\nimport \"./../node_modules/@openzeppelin/contracts/math/SafeMath.sol\";\n\ncontract Cashless is IERC20 {\n    using SafeMath for uint256;\n\n   // Precomputed hash for EIP712 domain separator\n    bytes32 constant EIP712HASH = 0x0eff6c88c44fbde2113ba7421deef795c18fc5a553a55b2ba4d237269e1c2662;\n    \n    // Domain separator completed on contract construction\n    bytes32 public DOMAIN_SEPARATOR;\n    \n    // Claim\n    struct Claim {\n        bytes32 claimName;\n        address sender;\n        address receiver;\n        uint8 nonce;\n        uint256 amount;\n        uint256 disputeDuration;\n        uint256 vestTimestamp;\n        uint256 voidTimestamp;\n        bytes32 loopID;\n    }\n    \n    // Settlement\n    struct Settlement {\n        uint256 amountPaid;\n        uint256 amountDefaulted;\n        bool settled;\n    }\n    \n    // LoopProposal\n    struct LoopProposal {\n        bytes32 proposalName;\n        address[] loop;\n        uint256 minFlow;\n        address[] committed;\n    }\n    \n    struct ClaimHistory {\n        bytes32[] claimIDs;\n        mapping (bytes32 => bytes[]) claims;\n        mapping (bytes32 => uint256) proposalTimestamp;\n        mapping (bytes32 => Settlement) settlements;\n    }\n    \n    uint256 public minVestDuration = 604800;\n    address public redeemableTokenAddress;\n    mapping (address => ClaimHistory) private history;\n    mapping (bytes32 => LoopProposal) public loops;\n    mapping (address => uint256) private _balances;\n    mapping (address => mapping (address => uint256)) private _allowances;\n    uint256 private _totalSupply;\n    string private _name;\n    string private _symbol;\n    uint8 private _decimals;\n\n    constructor (bytes32 salt, address _redeemableTokenAddress) public {\n        _name = \"Reserve USD Token\";\n        _symbol = \"RESERVE\";\n        _decimals = 18;\n        DOMAIN_SEPARATOR = keccak256(abi.encodePacked(EIP712HASH, this, salt));\n        redeemableTokenAddress = _redeemableTokenAddress;\n    }\n    \n    function fund(address collectingAccount, uint256 amount) public {\n        require(IERC20(redeemableTokenAddress).transferFrom(msg.sender, address(this), amount));\n        _mint(collectingAccount, amount);\n    }\n    \n    function redeem(uint256 amount, address targetReceiver) public {\n        require(amount>0);\n        require(IERC20(redeemableTokenAddress).transfer(targetReceiver, amount));\n        _burn(msg.sender, amount);\n    }\n    \n    function proposeSettlement(bytes memory claimData, uint8[2] memory sigsV, bytes32[2] memory sigsR, bytes32[2] memory sigsS) public {\n        (address sender, bytes32 id, uint256 disputeDuration) = verifySettlement(claimData, sigsV, sigsR, sigsS, false); \n        history[sender].claimIDs.push(id);\n        history[sender].claims[id].push(claimData);\n        history[sender].proposalTimestamp[id] = now;\n        // if no dispute period settle immediately\n        if (disputeDuration == 0) {\n            closeSettlement(sender, id);\n        }\n    }\n\n    function disputeSettlement(bytes memory claimData, uint8[2] memory sigsV, bytes32[2] memory sigsR, bytes32[2] memory sigsS) public {\n        (address sender, bytes32 id, uint256 disputeDuration) = verifySettlement(claimData, sigsV, sigsR, sigsS, true); \n        // minimum required duration between vest and void time\n        history[sender].claims[id].push(claimData);\n        history[sender].proposalTimestamp[id] = now;\n        if (disputeDuration == 0) {\n            closeSettlement(sender, id);\n        }\n    }\n    \n    function commitSettlement(address accountOwner, bytes32 claimID) public {\n        require(history[accountOwner].settlements[claimID].settled == false);\n        require(history[accountOwner].proposalTimestamp[claimID] > 0);\n        require(history[accountOwner].claims[claimID].length > 0);\n        uint256 index = history[accountOwner].claims[claimID].length - 1;\n        (uint256[4] memory values, address[2] memory addrs, bytes32[2] memory ids, uint8 nonce) = abi.decode(history[accountOwner].claims[claimID][index], (uint256[4], address[2], bytes32[2], uint8));\n        Claim memory claim = Claim(ids[0], address(addrs[0]), address(addrs[1]), nonce, values[0], values[1], values[2], values[3], ids[1]);\n        require(history[accountOwner].proposalTimestamp[claimID].add(claim.disputeDuration) < now);\n        require(claim.amount > 0);\n        closeSettlement(accountOwner, claimID);\n    }\n    \n    function proposeLoop(bytes32 proposalName, address[] memory loop, uint256 minFlow) public {\n        require(loop.length >= 2);\n        bytes32 id = CashlessLib.getLoopID(proposalName, loop);\n        bytes32 nil;\n        require(loops[id].proposalName == nil);\n        loops[id].proposalName = proposalName;\n        loops[id].loop = loop;\n        loops[id].minFlow = minFlow;\n    }\n    \n    function commitLoopClaim(bytes32 loopID, bytes memory encodedPriorClaim, bytes memory encodedClaim) public {\n        (address sender, address receiver) = verifyLoopClaim(loopID, encodedPriorClaim, encodedClaim);\n        bool found = false;\n        for (uint256 i=0; i<loops[loopID].loop.length; i++) {\n            if (loops[loopID].loop[i] == sender) {\n                if (i==loops[loopID].loop.length-1) {\n                    require(loops[loopID].loop[0]==receiver);\n                } else {\n                    require(loops[loopID].loop[i+1]==receiver);\n                }\n                found = true;\n                break;\n            }\n        }\n        require(found==true);\n        for (uint256 j=0; j<loops[loopID].committed.length; j++) {\n            require(loops[loopID].committed[j]!=sender);\n        }\n        loops[loopID].committed.push(sender);\n    }\n    \n    // Internal (Protected) functions\n    function verifySettlement(bytes memory claimData, uint8[2] memory sigsV, bytes32[2] memory sigsR, bytes32[2] memory sigsS, bool isDispute) internal view returns (address, bytes32, uint256) {\n        (uint256[4] memory values, address[2] memory addrs, bytes32[2] memory ids, uint8 nonce) = abi.decode(claimData, (uint256[4], address[2], bytes32[2], uint8));\n        Claim memory claim = Claim(ids[0], address(addrs[0]), address(addrs[1]), nonce, values[0], values[1], values[2], values[3], ids[1]);\n        bytes32 id;\n        if (claim.loopID != id) {\n            require(loops[claim.loopID].committed.length > 0);\n            require(loops[claim.loopID].committed.length == loops[claim.loopID].loop.length);\n        }\n        require(claim.nonce > 0);\n        // minimum required duration between vest and void time\n        require(claim.voidTimestamp.sub(claim.vestTimestamp) >= minVestDuration);\n        require(now > claim.vestTimestamp);\n        id = CashlessLib.getClaimID(claim.claimName, claim.sender, claim.receiver);\n        if (isDispute) {\n            require(history[claim.sender].claims[id].length > 0);\n            uint256 lastIndex = history[claim.sender].claims[id].length - 1;\n            (values, addrs, ids, nonce) = abi.decode(history[claim.sender].claims[id][lastIndex], (uint256[4], address[2], bytes32[2], uint8));\n            Claim memory priorClaim = Claim(ids[0], address(addrs[0]), address(addrs[1]), nonce, values[0], values[1], values[2], values[3], ids[1]);\n            require(history[claim.sender].proposalTimestamp[id].add(priorClaim.disputeDuration) > now);\n            require(claim.nonce > priorClaim.nonce);\n        } else {\n            for (uint256 i=0; i<history[claim.sender].claimIDs.length; i++) {\n                require(history[claim.sender].claimIDs[i] != id);\n            }\n            require(now < claim.voidTimestamp);\n            require(claim.amount > 0); \n        }\n        require(verifyClaimSig(claimData, sigsV[0], sigsR[0], sigsS[0], true));\n        require(verifyClaimSig(claimData, sigsV[1], sigsR[1], sigsS[1], false));\n        require(history[claim.sender].settlements[id].settled == false);\n        return (claim.sender, id, claim.disputeDuration);\n    }\n    \n    function closeSettlement(address accountOwner, bytes32 claimID) internal {\n        require(history[accountOwner].claims[claimID].length > 0);\n        uint256 lastIndex = history[accountOwner].claims[claimID].length - 1;\n        (uint256[4] memory values, address[2] memory addrs, bytes32[2] memory ids, uint8 nonce) = abi.decode(history[accountOwner].claims[claimID][lastIndex], (uint256[4], address[2], bytes32[2], uint8));\n        Claim memory claim = Claim(ids[0], address(addrs[0]), address(addrs[1]), nonce, values[0], values[1], values[2], values[3], ids[1]);\n        if (_balances[claim.sender] >= claim.amount) {\n            history[claim.sender].settlements[claimID] = Settlement(claim.amount, 0, true);\n            _transfer(claim.sender, claim.receiver, claim.amount);\n        } else {\n            if (_balances[claim.sender] > 0) {\n                uint256 defaultAmount = claim.amount.sub(_balances[claim.sender]);\n                history[claim.sender].settlements[claimID] = Settlement(_balances[claim.sender], defaultAmount, true);\n                _transfer(claim.sender, claim.receiver, _balances[claim.sender]);\n            } else {\n                history[claim.sender].settlements[claimID] = Settlement(0, claim.amount, true);\n            }\n        }\n    }\n    \n    function verifyLoopClaim(bytes32 loopID, bytes memory encodedPriorClaim, bytes memory encodedClaim) internal view returns (address, address) {\n        (bytes memory claimData1, uint8[2] memory v1, bytes32[2] memory r1, bytes32[2] memory s1) = abi.decode(encodedPriorClaim, (bytes, uint8[2], bytes32[2], bytes32[2]));\n        (bytes memory claimData2, uint8[2] memory v2, bytes32[2] memory r2, bytes32[2] memory s2) = abi.decode(encodedClaim, (bytes, uint8[2], bytes32[2], bytes32[2]));\n        require(verifyClaimSig(claimData1, v1[0], r1[0], s1[0], true));\n        require(verifyClaimSig(claimData1, v1[1], r1[1], s1[1], false));\n        require(verifyClaimSig(claimData2, v2[0], r2[0], s2[0], true));\n        require(verifyClaimSig(claimData2, v2[1], r2[1], s2[1], false));\n        return validateLoopClaim(claimData1, claimData2, loopID);\n    }\n    \n    function validateLoopClaim(bytes memory priorClaimData, bytes memory claimData, bytes32 loopID) internal  view  returns (address, address) {\n        (uint256[4] memory values, address[2] memory addrs, bytes32[2] memory ids, uint8 nonce) = abi.decode(priorClaimData, (uint256[4], address[2], bytes32[2], uint8));\n        Claim memory oldClaim = Claim(ids[0], address(addrs[0]), address(addrs[1]), nonce, values[0], values[1], values[2], values[3], ids[1]);\n        (values, addrs, ids, nonce) = abi.decode(claimData, (uint256[4], address[2], bytes32[2], uint8));\n        Claim memory newClaim = Claim(ids[0], address(addrs[0]), address(addrs[1]), nonce, values[0], values[1], values[2], values[3], ids[1]);\n        require(newClaim.loopID==loopID);\n        require(oldClaim.loopID!=loopID);\n        require(newClaim.nonce==oldClaim.nonce+1);\n        require(oldClaim.claimName==newClaim.claimName);\n        require(oldClaim.sender==newClaim.sender);\n        require(oldClaim.receiver==newClaim.receiver);\n        require(loops[loopID].minFlow > 0);\n        require(oldClaim.amount.sub(newClaim.amount) == loops[loopID].minFlow);\n        return (oldClaim.sender, oldClaim.receiver);\n    }\n    \n    // Public View/Pure functions\n    function verifyClaimSig(bytes memory claimData, uint8 v, bytes32 r, bytes32 s, bool isOwner) public view returns (bool) {\n        (uint256[4] memory values, address[2] memory addrs, bytes32[2] memory ids, uint8 nonce) = abi.decode(claimData, (uint256[4], address[2], bytes32[2], uint8));\n        Claim memory claim = Claim(ids[0], address(addrs[0]), address(addrs[1]), nonce, values[0], values[1], values[2], values[3], ids[1]);\n        if (0 >= claim.nonce) {\n            return false;\n        }\n        if (claim.voidTimestamp.sub(claim.vestTimestamp) < minVestDuration) {\n            return false;\n        }\n        bytes32 hash = CashlessLib.messageHash(CashlessLib.hashClaimData(claimData, DOMAIN_SEPARATOR));\n        address signer;\n        if (isOwner) {\n            signer = claim.sender;\n        } else {\n            signer = claim.receiver;\n        }\n        if (ecrecover(hash, v, r, s) != signer) {\n            return false;\n        }\n        return true;\n    }\n\n    function getClaimIDs(address accountOwner) public view returns (bytes32[] memory) {\n        return history[accountOwner].claimIDs;\n    }\n    \n    function getClaim(address accountOwner, bytes32 claimID, uint256 index) public view returns (bytes memory) {\n        return history[accountOwner].claims[claimID][index];\n    }\n\n    function getSettlement(address accountOwner, bytes32 claimID) public view returns (uint256, uint256, bool) {\n        return (history[accountOwner].settlements[claimID].amountPaid, history[accountOwner].settlements[claimID].amountDefaulted, history[accountOwner].settlements[claimID].settled);\n    }\n    \n    function getLoopStatus(bytes32 loopID) public view returns (address[] memory, address[] memory) {\n        return (loops[loopID].loop, loops[loopID].committed);\n    }\n\n    function name() public view returns (string memory) {\n        return _name;\n    }\n\n    function symbol() public view returns (string memory) {\n        return _symbol;\n    }\n\n    function decimals() public view returns (uint8) {\n        return _decimals;\n    }\n\n    function totalSupply() public view override returns (uint256) {\n        return _totalSupply;\n    }\n\n    function balanceOf(address account) public view override returns (uint256) {\n        return _balances[account];\n    }\n\n    function transfer(address recipient, uint256 amount) public override returns (bool) {\n        _transfer(msg.sender, recipient, amount);\n        return true;\n    }\n\n    function allowance(address owner, address spender) public view override returns (uint256) {\n        return _allowances[owner][spender];\n    }\n\n    function approve(address spender, uint256 amount) public override returns (bool) {\n        _approve(msg.sender, spender, amount);\n        return true;\n    }\n\n    function transferFrom(address sender, address recipient, uint256 amount) public override returns (bool) {\n        _transfer(sender, recipient, amount);\n        _approve(sender, msg.sender, _allowances[sender][msg.sender].sub(amount, \"ERC20: transfer amount exceeds allowance\"));\n        return true;\n    }\n\n    function increaseAllowance(address spender, uint256 addedValue) public returns (bool) {\n        _approve(msg.sender, spender, _allowances[msg.sender][spender].add(addedValue));\n        return true;\n    }\n\n    function decreaseAllowance(address spender, uint256 subtractedValue) public returns (bool) {\n        _approve(msg.sender, spender, _allowances[msg.sender][spender].sub(subtractedValue, \"ERC20: decreased allowance below zero\"));\n        return true;\n    }\n\n    function _transfer(address sender, address recipient, uint256 amount) internal {\n        require(sender != address(0), \"ERC20: transfer from the zero address\");\n        require(recipient != address(0), \"ERC20: transfer to the zero address\");\n\n        _balances[sender] = _balances[sender].sub(amount, \"ERC20: transfer amount exceeds balance\");\n        _balances[recipient] = _balances[recipient].add(amount);\n        emit Transfer(sender, recipient, amount);\n    }\n\n    function _mint(address account, uint256 amount) internal {\n        require(account != address(0), \"ERC20: mint to the zero address\");\n\n        _totalSupply = _totalSupply.add(amount);\n        _balances[account] = _balances[account].add(amount);\n        emit Transfer(address(0), account, amount);\n    }\n\n    function _burn(address account, uint256 amount) internal {\n        require(account != address(0), \"ERC20: burn from the zero address\");\n\n        _balances[account] = _balances[account].sub(amount, \"ERC20: burn amount exceeds balance\");\n        _totalSupply = _totalSupply.sub(amount);\n        emit Transfer(account, address(0), amount);\n    }\n\n    function _approve(address owner, address spender, uint256 amount) internal  {\n        require(owner != address(0), \"ERC20: approve from the zero address\");\n        require(spender != address(0), \"ERC20: approve to the zero address\");\n\n        _allowances[owner][spender] = amount;\n        emit Approval(owner, spender, amount);\n    }\n\n    function _setupDecimals(uint8 decimals_) internal {\n        _decimals = decimals_;\n    }\n\n    // Fallback Funtion\n    fallback () external {}\n}",
  "sourcePath": "/Users/earth/Desktop/WORK/cashless/contracts/Cashless.sol",
  "compiler": {
    "name": "solc",
    "version": "0.6.2+commit.bacdbe57.Emscripten.clang"
  },
  "schemaVersion": "3.2.0",
  "updatedAt": "2020-09-28T21:11:54.692Z",
  "devdoc": {
    "methods": {}
  },
  "userdoc": {
    "methods": {}
  }
}