{
  "contractName": "Cashless",
  "abi": [
    {
      "inputs": [
        {
          "internalType": "bytes32",
          "name": "salt",
          "type": "bytes32"
        }
      ],
      "payable": false,
      "stateMutability": "nonpayable",
      "type": "constructor"
    },
    {
      "payable": false,
      "stateMutability": "nonpayable",
      "type": "fallback"
    },
    {
      "constant": true,
      "inputs": [],
      "name": "DOMAIN_SEPARATOR",
      "outputs": [
        {
          "internalType": "bytes32",
          "name": "",
          "type": "bytes32"
        }
      ],
      "payable": false,
      "stateMutability": "view",
      "type": "function"
    },
    {
      "constant": true,
      "inputs": [
        {
          "internalType": "bytes32",
          "name": "",
          "type": "bytes32"
        }
      ],
      "name": "aliases",
      "outputs": [
        {
          "internalType": "address",
          "name": "",
          "type": "address"
        }
      ],
      "payable": false,
      "stateMutability": "view",
      "type": "function"
    },
    {
      "constant": true,
      "inputs": [],
      "name": "flatWithdrawFee",
      "outputs": [
        {
          "internalType": "uint256",
          "name": "",
          "type": "uint256"
        }
      ],
      "payable": false,
      "stateMutability": "view",
      "type": "function"
    },
    {
      "constant": true,
      "inputs": [
        {
          "internalType": "bytes32",
          "name": "",
          "type": "bytes32"
        }
      ],
      "name": "loops",
      "outputs": [
        {
          "internalType": "bytes32",
          "name": "proposalName",
          "type": "bytes32"
        },
        {
          "internalType": "uint256",
          "name": "minFlow",
          "type": "uint256"
        },
        {
          "internalType": "uint256",
          "name": "lockTimestamp",
          "type": "uint256"
        }
      ],
      "payable": false,
      "stateMutability": "view",
      "type": "function"
    },
    {
      "constant": true,
      "inputs": [],
      "name": "minVestDuration",
      "outputs": [
        {
          "internalType": "uint256",
          "name": "",
          "type": "uint256"
        }
      ],
      "payable": false,
      "stateMutability": "view",
      "type": "function"
    },
    {
      "constant": true,
      "inputs": [],
      "name": "networkAdmin",
      "outputs": [
        {
          "internalType": "address payable",
          "name": "",
          "type": "address"
        }
      ],
      "payable": false,
      "stateMutability": "view",
      "type": "function"
    },
    {
      "constant": true,
      "inputs": [
        {
          "internalType": "bytes32",
          "name": "",
          "type": "bytes32"
        }
      ],
      "name": "pendingAliases",
      "outputs": [
        {
          "internalType": "address",
          "name": "",
          "type": "address"
        }
      ],
      "payable": false,
      "stateMutability": "view",
      "type": "function"
    },
    {
      "constant": true,
      "inputs": [],
      "name": "percentWithdrawFee",
      "outputs": [
        {
          "internalType": "uint256",
          "name": "",
          "type": "uint256"
        }
      ],
      "payable": false,
      "stateMutability": "view",
      "type": "function"
    },
    {
      "constant": false,
      "inputs": [],
      "name": "createReserves",
      "outputs": [],
      "payable": true,
      "stateMutability": "payable",
      "type": "function"
    },
    {
      "constant": false,
      "inputs": [
        {
          "internalType": "address",
          "name": "accountOwner",
          "type": "address"
        }
      ],
      "name": "fundReserves",
      "outputs": [],
      "payable": true,
      "stateMutability": "payable",
      "type": "function"
    },
    {
      "constant": false,
      "inputs": [
        {
          "internalType": "uint256",
          "name": "amount",
          "type": "uint256"
        },
        {
          "internalType": "address payable",
          "name": "targetReceiver",
          "type": "address"
        },
        {
          "internalType": "uint256",
          "name": "fee",
          "type": "uint256"
        }
      ],
      "name": "withdrawReserves",
      "outputs": [],
      "payable": false,
      "stateMutability": "nonpayable",
      "type": "function"
    },
    {
      "constant": false,
      "inputs": [
        {
          "internalType": "bytes32",
          "name": "newAlias",
          "type": "bytes32"
        }
      ],
      "name": "addAlias",
      "outputs": [],
      "payable": false,
      "stateMutability": "nonpayable",
      "type": "function"
    },
    {
      "constant": false,
      "inputs": [
        {
          "internalType": "bytes32",
          "name": "existingAlias",
          "type": "bytes32"
        }
      ],
      "name": "deleteAlias",
      "outputs": [],
      "payable": false,
      "stateMutability": "nonpayable",
      "type": "function"
    },
    {
      "constant": false,
      "inputs": [
        {
          "internalType": "bytes32",
          "name": "newAlias",
          "type": "bytes32"
        }
      ],
      "name": "addPendingAlias",
      "outputs": [],
      "payable": false,
      "stateMutability": "nonpayable",
      "type": "function"
    },
    {
      "constant": false,
      "inputs": [
        {
          "internalType": "bytes32",
          "name": "newAlias",
          "type": "bytes32"
        },
        {
          "internalType": "address",
          "name": "addr",
          "type": "address"
        }
      ],
      "name": "commitPendingAlias",
      "outputs": [],
      "payable": false,
      "stateMutability": "nonpayable",
      "type": "function"
    },
    {
      "constant": false,
      "inputs": [
        {
          "internalType": "bytes",
          "name": "claimData",
          "type": "bytes"
        },
        {
          "internalType": "uint8[2]",
          "name": "sigsV",
          "type": "uint8[2]"
        },
        {
          "internalType": "bytes32[2]",
          "name": "sigsR",
          "type": "bytes32[2]"
        },
        {
          "internalType": "bytes32[2]",
          "name": "sigsS",
          "type": "bytes32[2]"
        }
      ],
      "name": "proposeSettlement",
      "outputs": [],
      "payable": false,
      "stateMutability": "nonpayable",
      "type": "function"
    },
    {
      "constant": false,
      "inputs": [
        {
          "internalType": "bytes",
          "name": "claimData",
          "type": "bytes"
        },
        {
          "internalType": "uint8[2]",
          "name": "sigsV",
          "type": "uint8[2]"
        },
        {
          "internalType": "bytes32[2]",
          "name": "sigsR",
          "type": "bytes32[2]"
        },
        {
          "internalType": "bytes32[2]",
          "name": "sigsS",
          "type": "bytes32[2]"
        }
      ],
      "name": "disputeSettlement",
      "outputs": [],
      "payable": false,
      "stateMutability": "nonpayable",
      "type": "function"
    },
    {
      "constant": false,
      "inputs": [
        {
          "internalType": "address",
          "name": "accountOwner",
          "type": "address"
        },
        {
          "internalType": "bytes32",
          "name": "claimID",
          "type": "bytes32"
        }
      ],
      "name": "redeemClaim",
      "outputs": [],
      "payable": false,
      "stateMutability": "nonpayable",
      "type": "function"
    },
    {
      "constant": false,
      "inputs": [
        {
          "internalType": "bytes32",
          "name": "proposalName",
          "type": "bytes32"
        },
        {
          "internalType": "address[]",
          "name": "loop",
          "type": "address[]"
        },
        {
          "internalType": "uint256",
          "name": "minFlow",
          "type": "uint256"
        },
        {
          "internalType": "uint256",
          "name": "lockTimestamp",
          "type": "uint256"
        }
      ],
      "name": "proposeLoop",
      "outputs": [],
      "payable": false,
      "stateMutability": "nonpayable",
      "type": "function"
    },
    {
      "constant": false,
      "inputs": [
        {
          "internalType": "bytes32",
          "name": "loopID",
          "type": "bytes32"
        },
        {
          "internalType": "bytes",
          "name": "encodedPriorClaim",
          "type": "bytes"
        },
        {
          "internalType": "bytes",
          "name": "encodedClaim",
          "type": "bytes"
        }
      ],
      "name": "commitLoopClaim",
      "outputs": [],
      "payable": false,
      "stateMutability": "nonpayable",
      "type": "function"
    },
    {
      "constant": true,
      "inputs": [
        {
          "internalType": "bytes",
          "name": "claimData",
          "type": "bytes"
        },
        {
          "internalType": "uint8",
          "name": "v",
          "type": "uint8"
        },
        {
          "internalType": "bytes32",
          "name": "r",
          "type": "bytes32"
        },
        {
          "internalType": "bytes32",
          "name": "s",
          "type": "bytes32"
        },
        {
          "internalType": "bool",
          "name": "isOwner",
          "type": "bool"
        }
      ],
      "name": "verifyClaimSig",
      "outputs": [
        {
          "internalType": "bool",
          "name": "",
          "type": "bool"
        }
      ],
      "payable": false,
      "stateMutability": "view",
      "type": "function"
    },
    {
      "constant": true,
      "inputs": [
        {
          "internalType": "address",
          "name": "accountOwner",
          "type": "address"
        },
        {
          "internalType": "bytes32",
          "name": "claimID",
          "type": "bytes32"
        }
      ],
      "name": "getAdjustedClaimAmount",
      "outputs": [
        {
          "internalType": "uint256",
          "name": "",
          "type": "uint256"
        }
      ],
      "payable": false,
      "stateMutability": "view",
      "type": "function"
    },
    {
      "constant": true,
      "inputs": [
        {
          "internalType": "address",
          "name": "accountOwner",
          "type": "address"
        }
      ],
      "name": "getClaimIDs",
      "outputs": [
        {
          "internalType": "bytes32[]",
          "name": "",
          "type": "bytes32[]"
        }
      ],
      "payable": false,
      "stateMutability": "view",
      "type": "function"
    },
    {
      "constant": true,
      "inputs": [
        {
          "internalType": "address",
          "name": "accountOwner",
          "type": "address"
        },
        {
          "internalType": "bytes32",
          "name": "claimID",
          "type": "bytes32"
        },
        {
          "internalType": "uint256",
          "name": "index",
          "type": "uint256"
        }
      ],
      "name": "getReservesClaim",
      "outputs": [
        {
          "internalType": "bytes",
          "name": "",
          "type": "bytes"
        }
      ],
      "payable": false,
      "stateMutability": "view",
      "type": "function"
    },
    {
      "constant": true,
      "inputs": [
        {
          "internalType": "address",
          "name": "accountOwner",
          "type": "address"
        },
        {
          "internalType": "bytes32",
          "name": "claimID",
          "type": "bytes32"
        }
      ],
      "name": "getReservesSettlement",
      "outputs": [
        {
          "internalType": "uint256",
          "name": "",
          "type": "uint256"
        },
        {
          "internalType": "uint256",
          "name": "",
          "type": "uint256"
        },
        {
          "internalType": "bool",
          "name": "",
          "type": "bool"
        }
      ],
      "payable": false,
      "stateMutability": "view",
      "type": "function"
    },
    {
      "constant": true,
      "inputs": [
        {
          "internalType": "bytes32",
          "name": "loopID",
          "type": "bytes32"
        }
      ],
      "name": "getLoopStatus",
      "outputs": [
        {
          "internalType": "address[]",
          "name": "",
          "type": "address[]"
        },
        {
          "internalType": "address[]",
          "name": "",
          "type": "address[]"
        }
      ],
      "payable": false,
      "stateMutability": "view",
      "type": "function"
    }
  ],
  "bytecode": "0x608060405262093a806001556298968060025560016003553480156200002457600080fd5b5060405162005ee038038062005ee0833981810160405260208110156200004a57600080fd5b81019080805190602001909291905050507f0eaa6c88c44fbde2113ba7421deef795c18fc5a553a55b2ba4d237269e1c266260001b3082604051602001808481526020018373ffffffffffffffffffffffffffffffffffffffff1673ffffffffffffffffffffffffffffffffffffffff1660601b815260140182815260200193505050506040516020818303038152906040528051906020012060008190555033600460006101000a81548173ffffffffffffffffffffffffffffffffffffffff021916908373ffffffffffffffffffffffffffffffffffffffff16021790555050615da4806200013c6000396000f3fe6080604052600436106101815760003560e01c80635c99903d116100d1578063a29742ab1161008a578063ba53960211610064578063ba53960214610df9578063c4d309cd14610e3d578063ca3feb1814610f15578063e751187314610f4057610181565b8063a29742ab14610d22578063acc663d214610d4d578063b20ad10414610d7857610181565b80635c99903d146107fa57806360cf47c11461085557806367717402146109e05780637351cfea14610a1b578063852b5ed514610a8a5780638ceec2cb14610b9757610181565b806322afa4a91161013e578063378126511161011857806337812651146105a257806344a07c1b146105f95780634cffa16a146107625780635728e1611461079d57610181565b806322afa4a91461048a578063279f0343146104945780633644e5151461057757610181565b8063075e42a9146101905780631641a7441461026e5780631a3a0f4f146103145780631c2b90a6146103795780631ebe89c6146103b457806320664c7b1461042f575b34801561018d57600080fd5b50005b34801561019c57600080fd5b506101f3600480360360608110156101b357600080fd5b81019080803573ffffffffffffffffffffffffffffffffffffffff1690602001909291908035906020019092919080359060200190929190505050610fbb565b6040518080602001828103825283818151815260200191508051906020019080838360005b83811015610233578082015181840152602081019050610218565b50505050905090810190601f1680156102605780820380516001836020036101000a031916815260200191505b509250505060405180910390f35b34801561027a57600080fd5b506102bd6004803603602081101561029157600080fd5b81019080803573ffffffffffffffffffffffffffffffffffffffff1690602001909291905050506110ce565b6040518080602001828103825283818151815260200191508051906020019060200280838360005b838110156103005780820151818401526020810190506102e5565b505050509050019250505060405180910390f35b34801561032057600080fd5b506103776004803603606081101561033757600080fd5b8101908080359060200190929190803573ffffffffffffffffffffffffffffffffffffffff16906020019092919080359060200190929190505050611168565b005b34801561038557600080fd5b506103b26004803603602081101561039c57600080fd5b8101908080359060200190929190505050611432565b005b3480156103c057600080fd5b506103ed600480360360208110156103d757600080fd5b81019080803590602001909291905050506115f9565b604051808273ffffffffffffffffffffffffffffffffffffffff1673ffffffffffffffffffffffffffffffffffffffff16815260200191505060405180910390f35b34801561043b57600080fd5b506104886004803603604081101561045257600080fd5b81019080803573ffffffffffffffffffffffffffffffffffffffff1690602001909291908035906020019092919050505061162c565b005b610492611ae6565b005b3480156104a057600080fd5b50610575600480360360808110156104b757600080fd5b8101908080359060200190929190803590602001906401000000008111156104de57600080fd5b8201836020820111156104f057600080fd5b8035906020019184602083028401116401000000008311171561051257600080fd5b919080806020026020016040519081016040528093929190818152602001838360200280828437600081840152601f19601f8201169050808301925050505050505091929192908035906020019092919080359060200190929190505050611dc9565b005b34801561058357600080fd5b5061058c611e8e565b6040518082815260200191505060405180910390f35b3480156105ae57600080fd5b506105b7611e94565b604051808273ffffffffffffffffffffffffffffffffffffffff1673ffffffffffffffffffffffffffffffffffffffff16815260200191505060405180910390f35b34801561060557600080fd5b506107606004803603606081101561061c57600080fd5b81019080803590602001909291908035906020019064010000000081111561064357600080fd5b82018360208201111561065557600080fd5b8035906020019184600183028401116401000000008311171561067757600080fd5b91908080601f016020809104026020016040519081016040528093929190818152602001838380828437600081840152601f19601f820116905080830192505050505050509192919290803590602001906401000000008111156106da57600080fd5b8201836020820111156106ec57600080fd5b8035906020019184600183028401116401000000008311171561070e57600080fd5b91908080601f016020809104026020016040519081016040528093929190818152602001838380828437600081840152601f19601f820116905080830192505050505050509192919290505050611eba565b005b34801561076e57600080fd5b5061079b6004803603602081101561078557600080fd5b81019080803590602001909291905050506123f0565b005b3480156107a957600080fd5b506107d6600480360360208110156107c057600080fd5b81019080803590602001909291905050506125b7565b60405180848152602001838152602001828152602001935050505060405180910390f35b34801561080657600080fd5b506108536004803603604081101561081d57600080fd5b8101908080359060200190929190803573ffffffffffffffffffffffffffffffffffffffff1690602001909291905050506125e1565b005b34801561086157600080fd5b506109de600480360360e081101561087857600080fd5b810190808035906020019064010000000081111561089557600080fd5b8201836020820111156108a757600080fd5b803590602001918460018302840111640100000000831117156108c957600080fd5b91908080601f016020809104026020016040519081016040528093929190818152602001838380828437600081840152601f19601f82011690508083019250505050505050919291929080604001906002806020026040519081016040528092919082600260200280828437600081840152601f19601f820116905080830192505050505050919291929080604001906002806020026040519081016040528092919082600260200280828437600081840152601f19601f820116905080830192505050505050919291929080604001906002806020026040519081016040528092919082600260200280828437600081840152601f19601f820116905080830192505050505050919291929050505061278f565b005b3480156109ec57600080fd5b50610a1960048036036020811015610a0357600080fd5b8101908080359060200190929190505050612a9d565b005b348015610a2757600080fd5b50610a7460048036036040811015610a3e57600080fd5b81019080803573ffffffffffffffffffffffffffffffffffffffff16906020019092919080359060200190929190505050612b5e565b6040518082815260200191505060405180910390f35b348015610a9657600080fd5b50610b7d600480360360a0811015610aad57600080fd5b8101908080359060200190640100000000811115610aca57600080fd5b820183602082011115610adc57600080fd5b80359060200191846001830284011164010000000083111715610afe57600080fd5b91908080601f016020809104026020016040519081016040528093929190818152602001838380828437600081840152601f19601f820116905080830192505050505050509192919290803560ff1690602001909291908035906020019092919080359060200190929190803515159060200190929190505050612f7b565b604051808215151515815260200191505060405180910390f35b348015610ba357600080fd5b50610d20600480360360e0811015610bba57600080fd5b8101908080359060200190640100000000811115610bd757600080fd5b820183602082011115610be957600080fd5b80359060200191846001830284011164010000000083111715610c0b57600080fd5b91908080601f016020809104026020016040519081016040528093929190818152602001838380828437600081840152601f19601f82011690508083019250505050505050919291929080604001906002806020026040519081016040528092919082600260200280828437600081840152601f19601f820116905080830192505050505050919291929080604001906002806020026040519081016040528092919082600260200280828437600081840152601f19601f820116905080830192505050505050919291929080604001906002806020026040519081016040528092919082600260200280828437600081840152601f19601f8201169050808301925050505050509192919290505050613299565b005b348015610d2e57600080fd5b50610d3761357d565b6040518082815260200191505060405180910390f35b348015610d5957600080fd5b50610d62613583565b6040518082815260200191505060405180910390f35b348015610d8457600080fd5b50610dd160048036036040811015610d9b57600080fd5b81019080803573ffffffffffffffffffffffffffffffffffffffff16906020019092919080359060200190929190505050613589565b6040518084815260200183815260200182151515158152602001935050505060405180910390f35b610e3b60048036036020811015610e0f57600080fd5b81019080803573ffffffffffffffffffffffffffffffffffffffff1690602001909291905050506136ad565b005b348015610e4957600080fd5b50610e7660048036036020811015610e6057600080fd5b8101908080359060200190929190505050613824565b604051808060200180602001838103835285818151815260200191508051906020019060200280838360005b83811015610ebd578082015181840152602081019050610ea2565b50505050905001838103825284818151815260200191508051906020019060200280838360005b83811015610eff578082015181840152602081019050610ee4565b5050505090500194505050505060405180910390f35b348015610f2157600080fd5b50610f2a61396c565b6040518082815260200191505060405180910390f35b348015610f4c57600080fd5b50610f7960048036036020811015610f6357600080fd5b8101908080359060200190929190505050613972565b604051808273ffffffffffffffffffffffffffffffffffffffff1673ffffffffffffffffffffffffffffffffffffffff16815260200191505060405180910390f35b6060600560008573ffffffffffffffffffffffffffffffffffffffff1673ffffffffffffffffffffffffffffffffffffffff1681526020019081526020016000206003016000848152602001908152602001600020828154811061101b57fe5b90600052602060002090600602016000018054600181600116156101000203166002900480601f0160208091040260200160405190810160405280929190818152602001828054600181600116156101000203166002900480156110c05780601f10611095576101008083540402835291602001916110c0565b820191906000526020600020905b8154815290600101906020018083116110a357829003601f168201915b505050505090509392505050565b6060600560008373ffffffffffffffffffffffffffffffffffffffff1673ffffffffffffffffffffffffffffffffffffffff16815260200190815260200160002060020180548060200260200160405190810160405280929190818152602001828054801561115c57602002820191906000526020600020905b815481526020019060010190808311611148575b50505050509050919050565b3373ffffffffffffffffffffffffffffffffffffffff16600560003373ffffffffffffffffffffffffffffffffffffffff1673ffffffffffffffffffffffffffffffffffffffff16815260200190815260200160002060000160009054906101000a900473ffffffffffffffffffffffffffffffffffffffff1673ffffffffffffffffffffffffffffffffffffffff161461120257600080fd5b6000831161120f57600080fd5b600061123261122a611223866003546139a5565b60646139df565b600254613a05565b90508082101561124157600080fd5b600061124d8584613a05565b905061129b600560003373ffffffffffffffffffffffffffffffffffffffff1673ffffffffffffffffffffffffffffffffffffffff1681526020019081526020016000206004015482613a05565b600560003373ffffffffffffffffffffffffffffffffffffffff1673ffffffffffffffffffffffffffffffffffffffff1681526020019081526020016000206001015410156112e957600080fd5b611335600560003373ffffffffffffffffffffffffffffffffffffffff1673ffffffffffffffffffffffffffffffffffffffff1681526020019081526020016000206001015482613a24565b600560003373ffffffffffffffffffffffffffffffffffffffff1673ffffffffffffffffffffffffffffffffffffffff168152602001908152602001600020600101819055508373ffffffffffffffffffffffffffffffffffffffff166108fc869081150290604051600060405180830381858888f193505050501580156113c1573d6000803e3d6000fd5b50600460009054906101000a900473ffffffffffffffffffffffffffffffffffffffff1673ffffffffffffffffffffffffffffffffffffffff166108fc849081150290604051600060405180830381858888f1935050505015801561142a573d6000803e3d6000fd5b505050505050565b3373ffffffffffffffffffffffffffffffffffffffff16600560003373ffffffffffffffffffffffffffffffffffffffff1673ffffffffffffffffffffffffffffffffffffffff16815260200190815260200160002060000160009054906101000a900473ffffffffffffffffffffffffffffffffffffffff1673ffffffffffffffffffffffffffffffffffffffff16146114cc57600080fd5b600073ffffffffffffffffffffffffffffffffffffffff166006600083815260200190815260200160002060009054906101000a900473ffffffffffffffffffffffffffffffffffffffff1673ffffffffffffffffffffffffffffffffffffffff161461153857600080fd5b600073ffffffffffffffffffffffffffffffffffffffff166007600083815260200190815260200160002060009054906101000a900473ffffffffffffffffffffffffffffffffffffffff1673ffffffffffffffffffffffffffffffffffffffff16146115a457600080fd5b336006600083815260200190815260200160002060006101000a81548173ffffffffffffffffffffffffffffffffffffffff021916908373ffffffffffffffffffffffffffffffffffffffff16021790555050565b60076020528060005260406000206000915054906101000a900473ffffffffffffffffffffffffffffffffffffffff1681565b60001515600560008473ffffffffffffffffffffffffffffffffffffffff1673ffffffffffffffffffffffffffffffffffffffff168152602001908152602001600020600801600083815260200190815260200160002060020160009054906101000a900460ff161515146116a057600080fd5b6000600560008473ffffffffffffffffffffffffffffffffffffffff1673ffffffffffffffffffffffffffffffffffffffff168152602001908152602001600020600701600083815260200190815260200160002060016002811061170157fe5b01541161170d57600080fd5b6000600560008473ffffffffffffffffffffffffffffffffffffffff1673ffffffffffffffffffffffffffffffffffffffff1681526020019081526020016000206003016000838152602001908152602001600020805490501161177057600080fd5b60006001600560008573ffffffffffffffffffffffffffffffffffffffff1673ffffffffffffffffffffffffffffffffffffffff1681526020019081526020016000206003016000848152602001908152602001600020805490500390506117d6615999565b6117de6159bb565b6117e66159dd565b6000600560008873ffffffffffffffffffffffffffffffffffffffff1673ffffffffffffffffffffffffffffffffffffffff1681526020019081526020016000206003016000878152602001908152602001600020858154811061184657fe5b90600052602060002090600602016000018054600181600116156101000203166002900480601f0160208091040260200160405190810160405280929190818152602001828054600181600116156101000203166002900480156118eb5780601f106118c0576101008083540402835291602001916118eb565b820191906000526020600020905b8154815290600101906020018083116118ce57829003601f168201915b505050505080602001905161014081101561190557600080fd5b810190809190826080019190826040019190826060018051906020019092919050505093509350935093506119386159ff565b6040518061014001604052808460006003811061195157fe5b602002015181526020018560006002811061196857fe5b602002015173ffffffffffffffffffffffffffffffffffffffff1681526020018560016002811061199557fe5b602002015173ffffffffffffffffffffffffffffffffffffffff168152602001846001600381106119c257fe5b602002015181526020018360ff168152602001866000600481106119e257fe5b60200201518152602001866001600481106119f957fe5b6020020151815260200186600260048110611a1057fe5b6020020151815260200186600360048110611a2757fe5b6020020151815260200184600260038110611a3e57fe5b6020020151815250905042611ab7600560008b73ffffffffffffffffffffffffffffffffffffffff1673ffffffffffffffffffffffffffffffffffffffff16815260200190815260200160002060070160008a8152602001908152602001600020600160028110611aab57fe5b01548360c00151613a05565b10611ac157600080fd5b60008160a0015111611ad257600080fd5b611adc8888613a44565b5050505050505050565b600033604051602001808273ffffffffffffffffffffffffffffffffffffffff1673ffffffffffffffffffffffffffffffffffffffff168152602001915050604051602081830303815290604052805190602001209050600073ffffffffffffffffffffffffffffffffffffffff166006600083815260200190815260200160002060009054906101000a900473ffffffffffffffffffffffffffffffffffffffff1673ffffffffffffffffffffffffffffffffffffffff1614611ba957600080fd5b6000600560003373ffffffffffffffffffffffffffffffffffffffff1673ffffffffffffffffffffffffffffffffffffffff1681526020019081526020016000206001015414611bf857600080fd5b600073ffffffffffffffffffffffffffffffffffffffff16600560003373ffffffffffffffffffffffffffffffffffffffff1673ffffffffffffffffffffffffffffffffffffffff16815260200190815260200160002060000160009054906101000a900473ffffffffffffffffffffffffffffffffffffffff1673ffffffffffffffffffffffffffffffffffffffff1614611c9357600080fd5b600254341180611ca35750600034145b611cac57600080fd5b336006600083815260200190815260200160002060006101000a81548173ffffffffffffffffffffffffffffffffffffffff021916908373ffffffffffffffffffffffffffffffffffffffff16021790555033600560003373ffffffffffffffffffffffffffffffffffffffff1673ffffffffffffffffffffffffffffffffffffffff16815260200190815260200160002060000160006101000a81548173ffffffffffffffffffffffffffffffffffffffff021916908373ffffffffffffffffffffffffffffffffffffffff16021790555034600560003373ffffffffffffffffffffffffffffffffffffffff1673ffffffffffffffffffffffffffffffffffffffff1681526020019081526020016000206001018190555050565b600283511015611dd857600080fd5b6000611de485856146fb565b9050600080600860008481526020019081526020016000206000015414611e0a57600080fd5b85600860008481526020019081526020016000206000018190555084600860008481526020019081526020016000206001019080519060200190611e4f929190615a8a565b50826008600084815260200190815260200160002060030181905550836008600084815260200190815260200160002060020181905550505050505050565b60005481565b600460009054906101000a900473ffffffffffffffffffffffffffffffffffffffff1681565b600080611ec8858585614761565b91509150600080905060008090505b60086000888152602001908152602001600020600101805490508110156120c1578373ffffffffffffffffffffffffffffffffffffffff16600860008981526020019081526020016000206001018281548110611f3057fe5b9060005260206000200160009054906101000a900473ffffffffffffffffffffffffffffffffffffffff1673ffffffffffffffffffffffffffffffffffffffff1614156120b4576001600860008981526020019081526020016000206001018054905003811415612024578273ffffffffffffffffffffffffffffffffffffffff1660086000898152602001908152602001600020600101600081548110611fd457fe5b9060005260206000200160009054906101000a900473ffffffffffffffffffffffffffffffffffffffff1673ffffffffffffffffffffffffffffffffffffffff161461201f57600080fd5b6120ab565b8273ffffffffffffffffffffffffffffffffffffffff1660086000898152602001908152602001600020600101600183018154811061205f57fe5b9060005260206000200160009054906101000a900473ffffffffffffffffffffffffffffffffffffffff1673ffffffffffffffffffffffffffffffffffffffff16146120aa57600080fd5b5b600191506120c1565b8080600101915050611ed7565b5060011515811515146120d357600080fd5b60008090505b600860008881526020019081526020016000206005018054905081101561218b578373ffffffffffffffffffffffffffffffffffffffff1660086000898152602001908152602001600020600501828154811061213257fe5b9060005260206000200160009054906101000a900473ffffffffffffffffffffffffffffffffffffffff1673ffffffffffffffffffffffffffffffffffffffff16141561217e57600080fd5b80806001019150506120d9565b506060612196615b14565b61219e615b36565b6121a6615b36565b8780602001905160e08110156121bb57600080fd5b81019080805160405193929190846401000000008211156121db57600080fd5b838201915060208201858111156121f157600080fd5b825186600182028301116401000000008211171561220e57600080fd5b8083526020830192505050908051906020019080838360005b83811015612242578082015181840152602081019050612227565b50505050905090810190601f16801561226f5780820380516001836020036101000a031916815260200191505b50604052602001919082604001919082604001919050509350935093509350604051806080016040528085815260200184815260200183815260200182815250600860008c815260200190815260200160002060040160008973ffffffffffffffffffffffffffffffffffffffff1673ffffffffffffffffffffffffffffffffffffffff168152602001908152602001600020600082015181600001908051906020019061231e929190615b58565b50602082015181600101906002612336929190615bd8565b5060408201518160020190600261234e929190615c72565b50606082015181600401906002612366929190615c72565b50905050600860008b81526020019081526020016000206005018790806001815401808255809150509060018203906000526020600020016000909192909190916101000a81548173ffffffffffffffffffffffffffffffffffffffff021916908373ffffffffffffffffffffffffffffffffffffffff1602179055505050505050505050505050565b3373ffffffffffffffffffffffffffffffffffffffff16600560003373ffffffffffffffffffffffffffffffffffffffff1673ffffffffffffffffffffffffffffffffffffffff16815260200190815260200160002060000160009054906101000a900473ffffffffffffffffffffffffffffffffffffffff1673ffffffffffffffffffffffffffffffffffffffff161461248a57600080fd5b600073ffffffffffffffffffffffffffffffffffffffff166006600083815260200190815260200160002060009054906101000a900473ffffffffffffffffffffffffffffffffffffffff1673ffffffffffffffffffffffffffffffffffffffff16146124f657600080fd5b600073ffffffffffffffffffffffffffffffffffffffff166007600083815260200190815260200160002060009054906101000a900473ffffffffffffffffffffffffffffffffffffffff1673ffffffffffffffffffffffffffffffffffffffff161461256257600080fd5b336007600083815260200190815260200160002060006101000a81548173ffffffffffffffffffffffffffffffffffffffff021916908373ffffffffffffffffffffffffffffffffffffffff16021790555050565b60086020528060005260406000206000915090508060000154908060020154908060030154905083565b3373ffffffffffffffffffffffffffffffffffffffff166007600084815260200190815260200160002060009054906101000a900473ffffffffffffffffffffffffffffffffffffffff1673ffffffffffffffffffffffffffffffffffffffff161461264c57600080fd5b8073ffffffffffffffffffffffffffffffffffffffff16600560008373ffffffffffffffffffffffffffffffffffffffff1673ffffffffffffffffffffffffffffffffffffffff16815260200190815260200160002060000160009054906101000a900473ffffffffffffffffffffffffffffffffffffffff1673ffffffffffffffffffffffffffffffffffffffff16146126e657600080fd5b60006007600084815260200190815260200160002060006101000a81548173ffffffffffffffffffffffffffffffffffffffff021916908373ffffffffffffffffffffffffffffffffffffffff160217905550806006600084815260200190815260200160002060006101000a81548173ffffffffffffffffffffffffffffffffffffffff021916908373ffffffffffffffffffffffffffffffffffffffff1602179055505050565b60008060006127a2878787876000614ad1565b925092509250600560008473ffffffffffffffffffffffffffffffffffffffff1673ffffffffffffffffffffffffffffffffffffffff168152602001908152602001600020600201829080600181540180825580915050906001820390600052602060002001600090919290919091505550600560008473ffffffffffffffffffffffffffffffffffffffff1673ffffffffffffffffffffffffffffffffffffffff16815260200190815260200160002060030160008381526020019081526020016000206040518060800160405280898152602001888152602001878152602001868152509080600181540180825580915050906001820390600052602060002090600602016000909192909190915060008201518160000190805190602001906128cf929190615b58565b506020820151816001019060026128e7929190615bd8565b506040820151816002019060026128ff929190615c72565b50606082015181600401906002612917929190615c72565b5050505042600560008573ffffffffffffffffffffffffffffffffffffffff1673ffffffffffffffffffffffffffffffffffffffff168152602001908152602001600020600701600084815260200190815260200160002060006002811061297b57fe5b018190555042600560008573ffffffffffffffffffffffffffffffffffffffff1673ffffffffffffffffffffffffffffffffffffffff16815260200190815260200160002060070160008481526020019081526020016000206001600281106129e057fe5b0181905550612a3a600560008573ffffffffffffffffffffffffffffffffffffffff1673ffffffffffffffffffffffffffffffffffffffff16815260200190815260200160002060040154612a358585612b5e565b613a05565b600560008573ffffffffffffffffffffffffffffffffffffffff1673ffffffffffffffffffffffffffffffffffffffff168152602001908152602001600020600401819055506000811415612a9457612a938383613a44565b5b50505050505050565b3373ffffffffffffffffffffffffffffffffffffffff166006600083815260200190815260200160002060009054906101000a900473ffffffffffffffffffffffffffffffffffffffff1673ffffffffffffffffffffffffffffffffffffffff1614612b0857600080fd5b60006006600083815260200190815260200160002060006101000a81548173ffffffffffffffffffffffffffffffffffffffff021916908373ffffffffffffffffffffffffffffffffffffffff16021790555050565b600080600560008573ffffffffffffffffffffffffffffffffffffffff1673ffffffffffffffffffffffffffffffffffffffff16815260200190815260200160002060030160008481526020019081526020016000208054905011612bc257600080fd5b60006001600560008673ffffffffffffffffffffffffffffffffffffffff1673ffffffffffffffffffffffffffffffffffffffff168152602001908152602001600020600301600085815260200190815260200160002080549050039050612c28615999565b612c306159bb565b612c386159dd565b6000600560008973ffffffffffffffffffffffffffffffffffffffff1673ffffffffffffffffffffffffffffffffffffffff16815260200190815260200160002060030160008881526020019081526020016000208581548110612c9857fe5b90600052602060002090600602016000018054600181600116156101000203166002900480601f016020809104026020016040519081016040528092919081815260200182805460018160011615610100020316600290048015612d3d5780601f10612d1257610100808354040283529160200191612d3d565b820191906000526020600020905b815481529060010190602001808311612d2057829003601f168201915b5050505050806020019051610140811015612d5757600080fd5b81019080919082608001919082604001919082606001805190602001909291905050509350935093509350612d8a6159ff565b60405180610140016040528084600060038110612da357fe5b6020020151815260200185600060028110612dba57fe5b602002015173ffffffffffffffffffffffffffffffffffffffff16815260200185600160028110612de757fe5b602002015173ffffffffffffffffffffffffffffffffffffffff16815260200184600160038110612e1457fe5b602002015181526020018360ff16815260200186600060048110612e3457fe5b6020020151815260200186600160048110612e4b57fe5b6020020151815260200186600260048110612e6257fe5b6020020151815260200186600360048110612e7957fe5b6020020151815260200184600260038110612e9057fe5b602002015181525090506000612f146064612f0f600560008e73ffffffffffffffffffffffffffffffffffffffff1673ffffffffffffffffffffffffffffffffffffffff16815260200190815260200160002060070160008d8152602001908152602001600020600060028110612f0357fe5b01548560e00151613a24565b6139a5565b90506000612f2b8361010001518460e00151613a24565b90506000612f3983836139df565b9050612f6a612f63612f5060648760a001516139a5565b612f5e848860a001516139a5565b613a24565b60646139df565b995050505050505050505092915050565b6000612f85615999565b612f8d6159bb565b612f956159dd565b600089806020019051610140811015612fad57600080fd5b81019080919082608001919082604001919082606001805190602001909291905050509350935093509350612fe06159ff565b60405180610140016040528084600060038110612ff957fe5b602002015181526020018560006002811061301057fe5b602002015173ffffffffffffffffffffffffffffffffffffffff1681526020018560016002811061303d57fe5b602002015173ffffffffffffffffffffffffffffffffffffffff1681526020018460016003811061306a57fe5b602002015181526020018360ff1681526020018660006004811061308a57fe5b60200201518152602001866001600481106130a157fe5b60200201518152602001866002600481106130b857fe5b60200201518152602001866003600481106130cf57fe5b60200201518152602001846002600381106130e657fe5b60200201518152509050806080015160ff1660001061310d57600095505050505050613290565b6001546131238261010001518360e00151613a24565b101561313757600095505050505050613290565b60006131458c6000546153d0565b90506000881561315b57826020015190506131db565b826040015173ffffffffffffffffffffffffffffffffffffffff16600073ffffffffffffffffffffffffffffffffffffffff161461319f57826040015190506131da565b600660008460600151815260200190815260200160002060009054906101000a900473ffffffffffffffffffffffffffffffffffffffff1690505b5b8073ffffffffffffffffffffffffffffffffffffffff166001838e8e8e60405160008152602001604052604051808581526020018460ff1660ff1681526020018381526020018281526020019450505050506020604051602081039080840390855afa15801561324f573d6000803e3d6000fd5b5050506020604051035173ffffffffffffffffffffffffffffffffffffffff1614613284576000975050505050505050613290565b60019750505050505050505b95945050505050565b60008060006132ac878787876001614ad1565b92509250925060006132be8484612b5e565b9050600560008573ffffffffffffffffffffffffffffffffffffffff1673ffffffffffffffffffffffffffffffffffffffff168152602001908152602001600020600301600084815260200190815260200160002060405180608001604052808a81526020018981526020018881526020018781525090806001815401808255809150509060018203906000526020600020906006020160009091929091909150600082015181600001908051906020019061337b929190615b58565b50602082015181600101906002613393929190615bd8565b506040820151816002019060026133ab929190615c72565b506060820151816004019060026133c3929190615c72565b5050505042600560008673ffffffffffffffffffffffffffffffffffffffff1673ffffffffffffffffffffffffffffffffffffffff168152602001908152602001600020600701600085815260200190815260200160002060016002811061342757fe5b018190555060006134388585612b5e565b9050613486600560008773ffffffffffffffffffffffffffffffffffffffff1673ffffffffffffffffffffffffffffffffffffffff1681526020019081526020016000206004015483613a24565b600560008773ffffffffffffffffffffffffffffffffffffffff1673ffffffffffffffffffffffffffffffffffffffff16815260200190815260200160002060040181905550613518600560008773ffffffffffffffffffffffffffffffffffffffff1673ffffffffffffffffffffffffffffffffffffffff1681526020019081526020016000206004015482613a05565b600560008773ffffffffffffffffffffffffffffffffffffffff1673ffffffffffffffffffffffffffffffffffffffff168152602001908152602001600020600401819055506000831415613572576135718585613a44565b5b505050505050505050565b60015481565b60035481565b6000806000600560008673ffffffffffffffffffffffffffffffffffffffff1673ffffffffffffffffffffffffffffffffffffffff168152602001908152602001600020600801600085815260200190815260200160002060000154600560008773ffffffffffffffffffffffffffffffffffffffff1673ffffffffffffffffffffffffffffffffffffffff168152602001908152602001600020600801600086815260200190815260200160002060010154600560008873ffffffffffffffffffffffffffffffffffffffff1673ffffffffffffffffffffffffffffffffffffffff168152602001908152602001600020600801600087815260200190815260200160002060020160009054906101000a900460ff169250925092509250925092565b600073ffffffffffffffffffffffffffffffffffffffff168173ffffffffffffffffffffffffffffffffffffffff1614156136e757600080fd5b8073ffffffffffffffffffffffffffffffffffffffff16600560008373ffffffffffffffffffffffffffffffffffffffff1673ffffffffffffffffffffffffffffffffffffffff16815260200190815260200160002060000160009054906101000a900473ffffffffffffffffffffffffffffffffffffffff1673ffffffffffffffffffffffffffffffffffffffff161461378157600080fd5b600254341161378f57600080fd5b6137db600560008373ffffffffffffffffffffffffffffffffffffffff1673ffffffffffffffffffffffffffffffffffffffff1681526020019081526020016000206001015434613a05565b600560008373ffffffffffffffffffffffffffffffffffffffff1673ffffffffffffffffffffffffffffffffffffffff1681526020019081526020016000206001018190555050565b6060806008600084815260200190815260200160002060010160086000858152602001908152602001600020600501818054806020026020016040519081016040528092919081815260200182805480156138d457602002820191906000526020600020905b8160009054906101000a900473ffffffffffffffffffffffffffffffffffffffff1673ffffffffffffffffffffffffffffffffffffffff168152602001906001019080831161388a575b505050505091508080548060200260200160405190810160405280929190818152602001828054801561395c57602002820191906000526020600020905b8160009054906101000a900473ffffffffffffffffffffffffffffffffffffffff1673ffffffffffffffffffffffffffffffffffffffff1681526020019060010190808311613912575b5050505050905091509150915091565b60025481565b60066020528060005260406000206000915054906101000a900473ffffffffffffffffffffffffffffffffffffffff1681565b6000808314156139b857600090506139d9565b60008284029050828482816139c957fe5b04146139d457600080fd5b809150505b92915050565b60008082116139ed57600080fd5b60008284816139f857fe5b0490508091505092915050565b600080828401905083811015613a1a57600080fd5b8091505092915050565b600082821115613a3357600080fd5b600082840390508091505092915050565b6000600560008473ffffffffffffffffffffffffffffffffffffffff1673ffffffffffffffffffffffffffffffffffffffff16815260200190815260200160002060030160008381526020019081526020016000208054905011613aa757600080fd5b60006001600560008573ffffffffffffffffffffffffffffffffffffffff1673ffffffffffffffffffffffffffffffffffffffff168152602001908152602001600020600301600084815260200190815260200160002080549050039050613b0d615999565b613b156159bb565b613b1d6159dd565b6000600560008873ffffffffffffffffffffffffffffffffffffffff1673ffffffffffffffffffffffffffffffffffffffff16815260200190815260200160002060030160008781526020019081526020016000208581548110613b7d57fe5b90600052602060002090600602016000018054600181600116156101000203166002900480601f016020809104026020016040519081016040528092919081815260200182805460018160011615610100020316600290048015613c225780601f10613bf757610100808354040283529160200191613c22565b820191906000526020600020905b815481529060010190602001808311613c0557829003601f168201915b5050505050806020019051610140811015613c3c57600080fd5b81019080919082608001919082604001919082606001805190602001909291905050509350935093509350613c6f6159ff565b60405180610140016040528084600060038110613c8857fe5b6020020151815260200185600060028110613c9f57fe5b602002015173ffffffffffffffffffffffffffffffffffffffff16815260200185600160028110613ccc57fe5b602002015173ffffffffffffffffffffffffffffffffffffffff16815260200184600160038110613cf957fe5b602002015181526020018360ff16815260200186600060048110613d1957fe5b6020020151815260200186600160048110613d3057fe5b6020020151815260200186600260048110613d4757fe5b6020020151815260200186600360048110613d5e57fe5b6020020151815260200184600260038110613d7557fe5b602002015181525090506000613d8b8989612b5e565b9050613ddd60056000846020015173ffffffffffffffffffffffffffffffffffffffff1673ffffffffffffffffffffffffffffffffffffffff1681526020019081526020016000206004015482613a24565b60056000846020015173ffffffffffffffffffffffffffffffffffffffff1673ffffffffffffffffffffffffffffffffffffffff1681526020019081526020016000206004018190555060008073ffffffffffffffffffffffffffffffffffffffff16836040015173ffffffffffffffffffffffffffffffffffffffff161415613ea057600660008460600151815260200190815260200160002060009054906101000a900473ffffffffffffffffffffffffffffffffffffffff169050613ea8565b826040015190505b8160056000856020015173ffffffffffffffffffffffffffffffffffffffff1673ffffffffffffffffffffffffffffffffffffffff168152602001908152602001600020600101541061416d576040518060600160405280838152602001600081526020016001151581525060056000856020015173ffffffffffffffffffffffffffffffffffffffff1673ffffffffffffffffffffffffffffffffffffffff16815260200190815260200160002060080160008b8152602001908152602001600020600082015181600001556020820151816001015560408201518160020160006101000a81548160ff021916908315150217905550905050613ff260056000856020015173ffffffffffffffffffffffffffffffffffffffff1673ffffffffffffffffffffffffffffffffffffffff1681526020019081526020016000206006015483613a05565b60056000856020015173ffffffffffffffffffffffffffffffffffffffff1673ffffffffffffffffffffffffffffffffffffffff1681526020019081526020016000206006018190555061408c60056000856020015173ffffffffffffffffffffffffffffffffffffffff1673ffffffffffffffffffffffffffffffffffffffff1681526020019081526020016000206001015483613a24565b60056000856020015173ffffffffffffffffffffffffffffffffffffffff1673ffffffffffffffffffffffffffffffffffffffff16815260200190815260200160002060010181905550614122600560008373ffffffffffffffffffffffffffffffffffffffff1673ffffffffffffffffffffffffffffffffffffffff1681526020019081526020016000206001015483613a05565b600560008373ffffffffffffffffffffffffffffffffffffffff1673ffffffffffffffffffffffffffffffffffffffff168152602001908152602001600020600101819055506146ef565b600060056000856020015173ffffffffffffffffffffffffffffffffffffffff1673ffffffffffffffffffffffffffffffffffffffff1681526020019081526020016000206001015411156145a657600061420e8360056000876020015173ffffffffffffffffffffffffffffffffffffffff1673ffffffffffffffffffffffffffffffffffffffff16815260200190815260200160002060010154613a24565b9050604051806060016040528060056000876020015173ffffffffffffffffffffffffffffffffffffffff1673ffffffffffffffffffffffffffffffffffffffff1681526020019081526020016000206001015481526020018281526020016001151581525060056000866020015173ffffffffffffffffffffffffffffffffffffffff1673ffffffffffffffffffffffffffffffffffffffff16815260200190815260200160002060080160008c8152602001908152602001600020600082015181600001556020820151816001015560408201518160020160006101000a81548160ff02191690831515021790555090505061439860056000866020015173ffffffffffffffffffffffffffffffffffffffff1673ffffffffffffffffffffffffffffffffffffffff1681526020019081526020016000206006015460056000876020015173ffffffffffffffffffffffffffffffffffffffff1673ffffffffffffffffffffffffffffffffffffffff16815260200190815260200160002060010154613a05565b60056000866020015173ffffffffffffffffffffffffffffffffffffffff1673ffffffffffffffffffffffffffffffffffffffff1681526020019081526020016000206006018190555061443260056000866020015173ffffffffffffffffffffffffffffffffffffffff1673ffffffffffffffffffffffffffffffffffffffff1681526020019081526020016000206005015482613a05565b60056000866020015173ffffffffffffffffffffffffffffffffffffffff1673ffffffffffffffffffffffffffffffffffffffff1681526020019081526020016000206005018190555061450e600560008473ffffffffffffffffffffffffffffffffffffffff1673ffffffffffffffffffffffffffffffffffffffff1681526020019081526020016000206001015460056000876020015173ffffffffffffffffffffffffffffffffffffffff1673ffffffffffffffffffffffffffffffffffffffff16815260200190815260200160002060010154613a05565b600560008473ffffffffffffffffffffffffffffffffffffffff1673ffffffffffffffffffffffffffffffffffffffff16815260200190815260200160002060010181905550600060056000866020015173ffffffffffffffffffffffffffffffffffffffff1673ffffffffffffffffffffffffffffffffffffffff16815260200190815260200160002060010181905550506146ee565b6040518060600160405280600081526020018381526020016001151581525060056000856020015173ffffffffffffffffffffffffffffffffffffffff1673ffffffffffffffffffffffffffffffffffffffff16815260200190815260200160002060080160008b8152602001908152602001600020600082015181600001556020820151816001015560408201518160020160006101000a81548160ff0219169083151502179055509050506146a360056000856020015173ffffffffffffffffffffffffffffffffffffffff1673ffffffffffffffffffffffffffffffffffffffff1681526020019081526020016000206005015483613a05565b60056000856020015173ffffffffffffffffffffffffffffffffffffffff1673ffffffffffffffffffffffffffffffffffffffff168152602001908152602001600020600501819055505b5b50505050505050505050565b6000828260405160200180838152602001828051906020019060200280838360005b8381101561473857808201518184015260208101905061471d565b505050509050019250505060405160208183030381529060405280519060200120905092915050565b6000806008600086815260200190815260200160002060030154421061478657600080fd5b6060614790615b14565b614798615b36565b6147a0615b36565b8780602001905160e08110156147b557600080fd5b81019080805160405193929190846401000000008211156147d557600080fd5b838201915060208201858111156147eb57600080fd5b825186600182028301116401000000008211171561480857600080fd5b8083526020830192505050908051906020019080838360005b8381101561483c578082015181840152602081019050614821565b50505050905090810190601f1680156148695780820380516001836020036101000a031916815260200191505b506040526020019190826040019190826040019190505093509350935093506060614892615b14565b61489a615b36565b6148a2615b36565b8a80602001905160e08110156148b757600080fd5b81019080805160405193929190846401000000008211156148d757600080fd5b838201915060208201858111156148ed57600080fd5b825186600182028301116401000000008211171561490a57600080fd5b8083526020830192505050908051906020019080838360005b8381101561493e578082015181840152602081019050614923565b50505050905090810190601f16801561496b5780820380516001836020036101000a031916815260200191505b506040526020019190826040019190826040019190505093509350935093506149cb888860006002811061499b57fe5b6020020151886000600281106149ad57fe5b6020020151886000600281106149bf57fe5b60200201516001612f7b565b6149d457600080fd5b614a1588886001600281106149e557fe5b6020020151886001600281106149f757fe5b602002015188600160028110614a0957fe5b60200201516000612f7b565b614a1e57600080fd5b614a5f8484600060028110614a2f57fe5b602002015184600060028110614a4157fe5b602002015184600060028110614a5357fe5b60200201516001612f7b565b614a6857600080fd5b614aa98484600160028110614a7957fe5b602002015184600160028110614a8b57fe5b602002015184600160028110614a9d57fe5b60200201516000612f7b565b614ab257600080fd5b614abd88858f615438565b995099505050505050505050935093915050565b6000806000614ade615999565b614ae66159bb565b614aee6159dd565b60008b806020019051610140811015614b0657600080fd5b81019080919082608001919082604001919082606001805190602001909291905050509350935093509350614b396159ff565b60405180610140016040528084600060038110614b5257fe5b6020020151815260200185600060028110614b6957fe5b602002015173ffffffffffffffffffffffffffffffffffffffff16815260200185600160028110614b9657fe5b602002015173ffffffffffffffffffffffffffffffffffffffff16815260200184600160038110614bc357fe5b602002015181526020018360ff16815260200186600060048110614be357fe5b6020020151815260200186600160048110614bfa57fe5b6020020151815260200186600260048110614c1157fe5b6020020151815260200186600360048110614c2857fe5b6020020151815260200184600260038110614c3f57fe5b60200201518152509050806020015173ffffffffffffffffffffffffffffffffffffffff1660056000836020015173ffffffffffffffffffffffffffffffffffffffff1673ffffffffffffffffffffffffffffffffffffffff16815260200190815260200160002060000160009054906101000a900473ffffffffffffffffffffffffffffffffffffffff1673ffffffffffffffffffffffffffffffffffffffff1614614ceb57600080fd5b60008082610120015114614d6d5760006008600084610120015181526020019081526020016000206005018054905011614d2457600080fd5b600860008361012001518152602001908152602001600020600101805490506008600084610120015181526020019081526020016000206005018054905014614d6c57600080fd5b5b6000826080015160ff1611614d8157600080fd5b600154614d978361010001518460e00151613a24565b1015614da257600080fd5b8160e001514211614db257600080fd5b614dce82600001518360200151846040015185606001516158f0565b905089156151b257600060056000846020015173ffffffffffffffffffffffffffffffffffffffff1673ffffffffffffffffffffffffffffffffffffffff16815260200190815260200160002060030160008381526020019081526020016000208054905011614e3d57600080fd5b6000600160056000856020015173ffffffffffffffffffffffffffffffffffffffff1673ffffffffffffffffffffffffffffffffffffffff16815260200190815260200160002060030160008481526020019081526020016000208054905003905060056000846020015173ffffffffffffffffffffffffffffffffffffffff1673ffffffffffffffffffffffffffffffffffffffff16815260200190815260200160002060030160008381526020019081526020016000208181548110614f0157fe5b90600052602060002090600602016000018054600181600116156101000203166002900480601f016020809104026020016040519081016040528092919081815260200182805460018160011615610100020316600290048015614fa65780601f10614f7b57610100808354040283529160200191614fa6565b820191906000526020600020905b815481529060010190602001808311614f8957829003601f168201915b5050505050806020019051610140811015614fc057600080fd5b8101908091908260800191908260400191908260600180519060200190929190505050839350829250819150809750819850829950839a50505050506150046159ff565b6040518061014001604052808760006003811061501d57fe5b602002015181526020018860006002811061503457fe5b602002015173ffffffffffffffffffffffffffffffffffffffff1681526020018860016002811061506157fe5b602002015173ffffffffffffffffffffffffffffffffffffffff1681526020018760016003811061508e57fe5b602002015181526020018660ff168152602001896000600481106150ae57fe5b60200201518152602001896001600481106150c557fe5b60200201518152602001896002600481106150dc57fe5b60200201518152602001896003600481106150f357fe5b602002015181526020018760026003811061510a57fe5b602002015181525090504261518760056000876020015173ffffffffffffffffffffffffffffffffffffffff1673ffffffffffffffffffffffffffffffffffffffff168152602001908152602001600020600701600086815260200190815260200160002060016002811061517b57fe5b01548360c00151613a05565b1161519157600080fd5b806080015160ff16846080015160ff16116151ab57600080fd5b50506152a2565b60008090505b60056000846020015173ffffffffffffffffffffffffffffffffffffffff1673ffffffffffffffffffffffffffffffffffffffff1681526020019081526020016000206002018054905081101561527e578160056000856020015173ffffffffffffffffffffffffffffffffffffffff1673ffffffffffffffffffffffffffffffffffffffff168152602001908152602001600020600201828154811061525b57fe5b9060005260206000200154141561527157600080fd5b80806001019150506151b8565b50816101000151421061529057600080fd5b60008260a00151116152a157600080fd5b5b6152e38e8e6000600281106152b357fe5b60200201518e6000600281106152c557fe5b60200201518e6000600281106152d757fe5b60200201516001612f7b565b6152ec57600080fd5b61532d8e8e6001600281106152fd57fe5b60200201518e60016002811061530f57fe5b60200201518e60016002811061532157fe5b60200201516000612f7b565b61533657600080fd5b6000151560056000846020015173ffffffffffffffffffffffffffffffffffffffff1673ffffffffffffffffffffffffffffffffffffffff168152602001908152602001600020600801600083815260200190815260200160002060020160009054906101000a900460ff161515146153ae57600080fd5b8160200151818360c00151985098509850505050505050955095509592505050565b600081838051906020012060405160200180807f19010000000000000000000000000000000000000000000000000000000000008152506002018381526020018281526020019250505060405160208183030381529060405280519060200120905092915050565b600080615443615999565b61544b6159bb565b6154536159dd565b60008880602001905161014081101561546b57600080fd5b8101908091908260800191908260400191908260600180519060200190929190505050935093509350935061549e6159ff565b604051806101400160405280846000600381106154b757fe5b60200201518152602001856000600281106154ce57fe5b602002015173ffffffffffffffffffffffffffffffffffffffff168152602001856001600281106154fb57fe5b602002015173ffffffffffffffffffffffffffffffffffffffff1681526020018460016003811061552857fe5b602002015181526020018360ff1681526020018660006004811061554857fe5b602002015181526020018660016004811061555f57fe5b602002015181526020018660026004811061557657fe5b602002015181526020018660036004811061558d57fe5b60200201518152602001846002600381106155a457fe5b60200201518152509050888060200190516101408110156155c457600080fd5b8101908091908260800191908260400191908260600180519060200190929190505050839350829250819150809550819650829750839850505050506156086159ff565b6040518061014001604052808560006003811061562157fe5b602002015181526020018660006002811061563857fe5b602002015173ffffffffffffffffffffffffffffffffffffffff1681526020018660016002811061566557fe5b602002015173ffffffffffffffffffffffffffffffffffffffff1681526020018560016003811061569257fe5b602002015181526020018460ff168152602001876000600481106156b257fe5b60200201518152602001876001600481106156c957fe5b60200201518152602001876002600481106156e057fe5b60200201518152602001876003600481106156f757fe5b602002015181526020018560026003811061570e57fe5b60200201518152509050888161012001511461572957600080fd5b88826101200151141561573b57600080fd5b600182608001510160ff16816080015160ff161461575857600080fd5b806000015182600001511461576c57600080fd5b806020015173ffffffffffffffffffffffffffffffffffffffff16826020015173ffffffffffffffffffffffffffffffffffffffff16146157ac57600080fd5b806040015173ffffffffffffffffffffffffffffffffffffffff16826040015173ffffffffffffffffffffffffffffffffffffffff16146157ec57600080fd5b806060015182606001511461580057600080fd5b6000600860008b8152602001908152602001600020600201541161582357600080fd5b600860008a81526020019081526020016000206002015461584c8360a001518360a00151613a24565b1461585657600080fd5b60008073ffffffffffffffffffffffffffffffffffffffff16836040015173ffffffffffffffffffffffffffffffffffffffff1614156158cf57600660008460600151815260200190815260200160002060009054906101000a900473ffffffffffffffffffffffffffffffffffffffff1690506158d7565b826040015190505b8260200151819850985050505050505050935093915050565b600084848484604051602001808581526020018473ffffffffffffffffffffffffffffffffffffffff1673ffffffffffffffffffffffffffffffffffffffff1660601b81526014018373ffffffffffffffffffffffffffffffffffffffff1673ffffffffffffffffffffffffffffffffffffffff1660601b8152601401828152602001945050505050604051602081830303815290604052805190602001209050949350505050565b6040518060800160405280600490602082028038833980820191505090505090565b6040518060400160405280600290602082028038833980820191505090505090565b6040518060600160405280600390602082028038833980820191505090505090565b60405180610140016040528060008019168152602001600073ffffffffffffffffffffffffffffffffffffffff168152602001600073ffffffffffffffffffffffffffffffffffffffff16815260200160008019168152602001600060ff16815260200160008152602001600081526020016000815260200160008152602001600080191681525090565b828054828255906000526020600020908101928215615b03579160200282015b82811115615b025782518260006101000a81548173ffffffffffffffffffffffffffffffffffffffff021916908373ffffffffffffffffffffffffffffffffffffffff16021790555091602001919060010190615aaa565b5b509050615b109190615cb2565b5090565b6040518060400160405280600290602082028038833980820191505090505090565b6040518060400160405280600290602082028038833980820191505090505090565b828054600181600116156101000203166002900490600052602060002090601f016020900481019282601f10615b9957805160ff1916838001178555615bc7565b82800160010185558215615bc7579182015b82811115615bc6578251825591602001919060010190615bab565b5b509050615bd49190615cf5565b5090565b826002601f01602090048101928215615c615791602002820160005b83821115615c3257835183826101000a81548160ff021916908360ff1602179055509260200192600101602081600001049283019260010302615bf4565b8015615c5f5782816101000a81549060ff0219169055600101602081600001049283019260010302615c32565b505b509050615c6e9190615d1a565b5090565b8260028101928215615ca1579160200282015b82811115615ca0578251825591602001919060010190615c85565b5b509050615cae9190615d4a565b5090565b615cf291905b80821115615cee57600081816101000a81549073ffffffffffffffffffffffffffffffffffffffff021916905550600101615cb8565b5090565b90565b615d1791905b80821115615d13576000816000905550600101615cfb565b5090565b90565b615d4791905b80821115615d4357600081816101000a81549060ff021916905550600101615d20565b5090565b90565b615d6c91905b80821115615d68576000816000905550600101615d50565b5090565b9056fea265627a7a723158209ce6f12fa3e5c6790d2d3d7e6672612ebf291f3b1644e05f8fe6a87526bad17064736f6c63430005100032",
  "source": "pragma solidity >=0.5.0;\nimport \"./SafeMath.sol\";\nimport \"./CashlessLib.sol\";\n\ncontract Cashless {\n    // Precomputed hash for EIP712 domain separator\n    bytes32 constant EIP712HASH = 0x0eaa6c88c44fbde2113ba7421deef795c18fc5a553a55b2ba4d237269e1c2662;\n    \n    // Domain separator completed on contract construction\n    bytes32 public DOMAIN_SEPARATOR;\n    \n    // Claim\n    struct Claim {\n        bytes32 claimName;\n        address sender;\n        address receiver;\n        bytes32 receiverAlias;\n        uint8 nonce;\n        uint256 amount;\n        uint256 disputeDuration;\n        uint256 vestTimestamp;\n        uint256 voidTimestamp;\n        bytes32 loopID;\n    }\n    \n    // SignedClaim\n    struct SignedClaim {\n        bytes claimData;\n        uint8[2] sigsV;\n        bytes32[2] sigsR;\n        bytes32[2] sigsS;\n    }\n    \n    // Settlement\n    struct Settlement {\n        uint256 amountPaid;\n        uint256 amountDefaulted;\n        bool settled;\n    }\n    \n    // LoopProposal\n    struct LoopProposal {\n        bytes32 proposalName;\n        address[] loop;\n        uint256 minFlow;\n        uint256 lockTimestamp;\n        mapping (address => SignedClaim) claims;\n        address[] committed;\n    }\n    \n    // Reserves\n    struct Reserves {\n        address owner;\n        uint256 balance;\n        bytes32[] claimIDs;\n        mapping (bytes32 => SignedClaim[]) claims;\n        uint256 grossClaimed;\n        uint256 grossDefaulted;\n        uint256 grossPaid;\n        mapping (bytes32 => uint256[2]) proposalTimestamps;\n        mapping (bytes32 => Settlement) settlements;\n    }\n    \n    uint256 public minVestDuration = 604800;\n    uint256 public flatWithdrawFee = 10000000;\n    uint256 public percentWithdrawFee = 1;\n    address payable public networkAdmin;\n    mapping (address => Reserves) reserves;\n    mapping (bytes32 => address) public aliases;\n    mapping (bytes32 => address) public pendingAliases;\n    mapping (bytes32 => LoopProposal) public loops;\n\n    // Constructor function\n    constructor (bytes32 salt) public {\n        DOMAIN_SEPARATOR = keccak256(abi.encodePacked(EIP712HASH, this, salt));\n        networkAdmin = msg.sender;\n    }\n    \n    // Public State Modifying functions\n    function createReserves() public payable {\n        bytes32 defaultAlias = keccak256(abi.encode(msg.sender));\n        require(aliases[defaultAlias] == address(0));\n        require(reserves[msg.sender].balance == 0);\n        require(address(reserves[msg.sender].owner) == address(0));\n        require(msg.value > flatWithdrawFee || msg.value == 0);\n        aliases[defaultAlias] = msg.sender;\n        reserves[msg.sender].owner = msg.sender;\n        reserves[msg.sender].balance = msg.value;\n    }\n    \n    function fundReserves(address accountOwner) public payable {\n        require(accountOwner != address(0));\n        require(address(reserves[accountOwner].owner) == accountOwner);\n        require(msg.value > flatWithdrawFee);\n        reserves[accountOwner].balance = SafeMath.add(reserves[accountOwner].balance, msg.value);\n    }\n    \n    function withdrawReserves(uint256 amount, address payable targetReceiver, uint256 fee) public {\n        require(reserves[msg.sender].owner == address(msg.sender));\n        require(amount>0);\n        uint256 minFee = SafeMath.add(SafeMath.div(SafeMath.mul(amount, percentWithdrawFee), 100), flatWithdrawFee);\n        require(fee>=minFee);\n        uint256 total = SafeMath.add(amount, fee);\n        require(reserves[msg.sender].balance >= SafeMath.add(reserves[msg.sender].grossClaimed, total));\n        reserves[msg.sender].balance = SafeMath.sub(reserves[msg.sender].balance, total);\n        targetReceiver.transfer(amount);\n        networkAdmin.transfer(fee);\n    }\n    \n    function addAlias(bytes32 newAlias) public {\n        require(reserves[msg.sender].owner == address(msg.sender));\n        require(aliases[newAlias]==address(0));\n        require(pendingAliases[newAlias]==address(0));\n        aliases[newAlias] = msg.sender;\n    }\n    \n    function deleteAlias(bytes32 existingAlias) public {\n        require(aliases[existingAlias] == address(msg.sender));\n        aliases[existingAlias] = address(0);\n    }\n\n    function addPendingAlias(bytes32 newAlias) public {\n        require(reserves[msg.sender].owner == address(msg.sender));\n        require(aliases[newAlias]==address(0));\n        require(pendingAliases[newAlias]==address(0));\n        pendingAliases[newAlias] = msg.sender;    \n    }\n\n    function commitPendingAlias(bytes32 newAlias, address addr) public {\n        require(pendingAliases[newAlias] == msg.sender);\n        require(reserves[addr].owner == addr);\n        pendingAliases[newAlias] = address(0);\n        aliases[newAlias] = addr;\n    }\n    \n    function proposeSettlement(bytes memory claimData, uint8[2] memory sigsV, bytes32[2] memory sigsR, bytes32[2] memory sigsS) public {\n        (address sender, bytes32 id, uint256 disputeDuration) = verifySettlement(claimData, sigsV, sigsR, sigsS, false); \n        reserves[sender].claimIDs.push(id);\n        reserves[sender].claims[id].push(SignedClaim(claimData, sigsV, sigsR, sigsS));\n        reserves[sender].proposalTimestamps[id][0] = now;\n        reserves[sender].proposalTimestamps[id][1] = now;\n        reserves[sender].grossClaimed = SafeMath.add(reserves[sender].grossClaimed, getAdjustedClaimAmount(sender, id));\n        // if no dispute period settle immediately\n        if (disputeDuration == 0) {\n            closeSettlement(sender, id);\n        }\n    }\n\n    function disputeSettlement(bytes memory claimData, uint8[2] memory sigsV, bytes32[2] memory sigsR, bytes32[2] memory sigsS) public {\n        (address sender, bytes32 id, uint256 disputeDuration) = verifySettlement(claimData, sigsV, sigsR, sigsS, true); \n        // minimum required duration between vest and void time\n        uint256 oldAmount = getAdjustedClaimAmount(sender, id);\n        reserves[sender].claims[id].push(SignedClaim(claimData, sigsV, sigsR, sigsS));\n        reserves[sender].proposalTimestamps[id][1] = now;\n        uint256 newAmount = getAdjustedClaimAmount(sender, id);\n        reserves[sender].grossClaimed = SafeMath.sub(reserves[sender].grossClaimed, oldAmount);\n        reserves[sender].grossClaimed = SafeMath.add(reserves[sender].grossClaimed, newAmount);\n        if (disputeDuration == 0) {\n            closeSettlement(sender, id);\n        }\n    }\n    \n    function redeemClaim(address accountOwner, bytes32 claimID) public {\n        require(reserves[accountOwner].settlements[claimID].settled == false);\n        require(reserves[accountOwner].proposalTimestamps[claimID][1] > 0);\n        require(reserves[accountOwner].claims[claimID].length > 0);\n        uint256 index = reserves[accountOwner].claims[claimID].length - 1;\n        (uint256[4] memory values, address[2] memory addrs, bytes32[3] memory ids, uint8 nonce) = abi.decode(reserves[accountOwner].claims[claimID][index].claimData, (uint256[4], address[2], bytes32[3], uint8));\n        Claim memory claim = Claim(ids[0], address(addrs[0]), address(addrs[1]), ids[1], nonce, values[0], values[1], values[2], values[3], ids[2]);\n        require(SafeMath.add(reserves[accountOwner].proposalTimestamps[claimID][1], claim.disputeDuration) < now);\n        require(claim.amount > 0);\n        closeSettlement(accountOwner, claimID);\n    }\n    \n    function proposeLoop(bytes32 proposalName, address[] memory loop, uint256 minFlow, uint256 lockTimestamp) public {\n        require(loop.length >= 2);\n        bytes32 id = CashlessLib.getLoopID(proposalName, loop);\n        bytes32 nil;\n        require(loops[id].proposalName == nil);\n        loops[id].proposalName = proposalName;\n        loops[id].loop = loop;\n        loops[id].lockTimestamp = lockTimestamp;\n        loops[id].minFlow = minFlow;\n    }\n    \n    function commitLoopClaim(bytes32 loopID, bytes memory encodedPriorClaim, bytes memory encodedClaim) public {\n        (address sender, address receiver) = verifyLoopClaim(loopID, encodedPriorClaim, encodedClaim);\n        bool found = false;\n        for (uint256 i=0; i<loops[loopID].loop.length; i++) {\n            if (loops[loopID].loop[i] == sender) {\n                if (i==loops[loopID].loop.length-1) {\n                    require(loops[loopID].loop[0]==receiver);\n                } else {\n                    require(loops[loopID].loop[i+1]==receiver);\n                }\n                found = true;\n                break;\n            }\n        }\n        require(found==true);\n        for (uint256 j=0; j<loops[loopID].committed.length; j++) {\n            require(loops[loopID].committed[j]!=sender);\n        }\n        (bytes memory claimData2, uint8[2] memory v2, bytes32[2] memory r2, bytes32[2] memory s2) = abi.decode(encodedClaim, (bytes, uint8[2], bytes32[2], bytes32[2]));\n        loops[loopID].claims[sender] = SignedClaim(claimData2, v2, r2, s2);\n        loops[loopID].committed.push(sender);\n    }\n    \n    // Internal (Protected) State Modifying functions\n    function verifySettlement(bytes memory claimData, uint8[2] memory sigsV, bytes32[2] memory sigsR, bytes32[2] memory sigsS, bool isDispute) internal view returns (address, bytes32, uint256) {\n        (uint256[4] memory values, address[2] memory addrs, bytes32[3] memory ids, uint8 nonce) = abi.decode(claimData, (uint256[4], address[2], bytes32[3], uint8));\n        Claim memory claim = Claim(ids[0], address(addrs[0]), address(addrs[1]), ids[1], nonce, values[0], values[1], values[2], values[3], ids[2]);\n        require(reserves[claim.sender].owner == claim.sender);\n        bytes32 id;\n        if (claim.loopID != id) {\n            require(loops[claim.loopID].committed.length > 0);\n            require(loops[claim.loopID].committed.length == loops[claim.loopID].loop.length);\n        }\n        require(claim.nonce > 0);\n        // minimum required duration between vest and void time\n        require(SafeMath.sub(claim.voidTimestamp, claim.vestTimestamp) >= minVestDuration);\n        require(now > claim.vestTimestamp);\n        id = CashlessLib.getClaimID(claim.claimName, claim.sender, claim.receiver, claim.receiverAlias);\n        if (isDispute) {\n            require(reserves[claim.sender].claims[id].length > 0);\n            uint256 lastIndex = reserves[claim.sender].claims[id].length - 1;\n            (values, addrs, ids, nonce) = abi.decode(reserves[claim.sender].claims[id][lastIndex].claimData, (uint256[4], address[2], bytes32[3], uint8));\n            Claim memory priorClaim = Claim(ids[0], address(addrs[0]), address(addrs[1]), ids[1], nonce, values[0], values[1], values[2], values[3], ids[2]);\n            require(SafeMath.add(reserves[claim.sender].proposalTimestamps[id][1], priorClaim.disputeDuration) > now);\n            require(claim.nonce > priorClaim.nonce);\n        } else {\n            for (uint256 i=0; i<reserves[claim.sender].claimIDs.length; i++) {\n                require(reserves[claim.sender].claimIDs[i] != id);\n            }\n            require(now < claim.voidTimestamp);\n            require(claim.amount > 0);  \n        }\n        require(verifyClaimSig(claimData, sigsV[0], sigsR[0], sigsS[0], true));\n        require(verifyClaimSig(claimData, sigsV[1], sigsR[1], sigsS[1], false));\n        require(reserves[claim.sender].settlements[id].settled == false);\n        return (claim.sender, id, claim.disputeDuration);\n    }\n    \n    function closeSettlement(address accountOwner, bytes32 claimID) internal {\n        require(reserves[accountOwner].claims[claimID].length > 0);\n        uint256 lastIndex = reserves[accountOwner].claims[claimID].length - 1;\n        (uint256[4] memory values, address[2] memory addrs, bytes32[3] memory ids, uint8 nonce) = abi.decode(reserves[accountOwner].claims[claimID][lastIndex].claimData, (uint256[4], address[2], bytes32[3], uint8));\n        Claim memory claim = Claim(ids[0], address(addrs[0]), address(addrs[1]), ids[1], nonce, values[0], values[1], values[2], values[3], ids[2]);\n        uint256 amount = getAdjustedClaimAmount(accountOwner, claimID);\n        reserves[claim.sender].grossClaimed = SafeMath.sub(reserves[claim.sender].grossClaimed, amount);\n        address receiver;\n        if (address(claim.receiver) == address(0)) {\n            receiver = aliases[claim.receiverAlias];\n        } else {\n            receiver = claim.receiver;\n        }\n        if (reserves[claim.sender].balance >= amount) {\n            reserves[claim.sender].settlements[claimID] = Settlement(amount, 0, true);\n            reserves[claim.sender].grossPaid = SafeMath.add(reserves[claim.sender].grossPaid, amount);\n            reserves[claim.sender].balance = SafeMath.sub(reserves[claim.sender].balance, amount);\n            reserves[receiver].balance = SafeMath.add(reserves[receiver].balance, amount);\n        } else {\n            if (reserves[claim.sender].balance > 0) {\n                uint256 defaultAmount = SafeMath.sub(amount, reserves[claim.sender].balance);\n                reserves[claim.sender].settlements[claimID] = Settlement(reserves[claim.sender].balance, defaultAmount, true);\n                reserves[claim.sender].grossPaid = SafeMath.add(reserves[claim.sender].grossPaid, reserves[claim.sender].balance);\n                reserves[claim.sender].grossDefaulted = SafeMath.add(reserves[claim.sender].grossDefaulted, defaultAmount);\n                reserves[receiver].balance = SafeMath.add(reserves[receiver].balance, reserves[claim.sender].balance);\n                reserves[claim.sender].balance = 0;\n            } else {\n                reserves[claim.sender].settlements[claimID] = Settlement(0, amount, true);\n                reserves[claim.sender].grossDefaulted = SafeMath.add(reserves[claim.sender].grossDefaulted, amount);\n            }\n        }\n    }\n    \n    function verifyLoopClaim(bytes32 loopID, bytes memory encodedPriorClaim, bytes memory encodedClaim) internal view returns (address, address) {\n        require(now < loops[loopID].lockTimestamp);\n        (bytes memory claimData1, uint8[2] memory v1, bytes32[2] memory r1, bytes32[2] memory s1) = abi.decode(encodedPriorClaim, (bytes, uint8[2], bytes32[2], bytes32[2]));\n        (bytes memory claimData2, uint8[2] memory v2, bytes32[2] memory r2, bytes32[2] memory s2) = abi.decode(encodedClaim, (bytes, uint8[2], bytes32[2], bytes32[2]));\n        require(verifyClaimSig(claimData1, v1[0], r1[0], s1[0], true));\n        require(verifyClaimSig(claimData1, v1[1], r1[1], s1[1], false));\n        require(verifyClaimSig(claimData2, v2[0], r2[0], s2[0], true));\n        require(verifyClaimSig(claimData2, v2[1], r2[1], s2[1], false));\n        return validateLoopClaim(claimData1, claimData2, loopID);\n    }\n    \n    function validateLoopClaim(bytes memory priorClaimData, bytes memory claimData, bytes32 loopID) internal  view  returns (address, address) {\n        (uint256[4] memory values, address[2] memory addrs, bytes32[3] memory ids, uint8 nonce) = abi.decode(priorClaimData, (uint256[4], address[2], bytes32[3], uint8));\n        Claim memory oldClaim = Claim(ids[0], address(addrs[0]), address(addrs[1]), ids[1], nonce, values[0], values[1], values[2], values[3], ids[2]);\n        (values, addrs, ids, nonce) = abi.decode(claimData, (uint256[4], address[2], bytes32[3], uint8));\n        Claim memory newClaim = Claim(ids[0], address(addrs[0]), address(addrs[1]), ids[1], nonce, values[0], values[1], values[2], values[3], ids[2]);\n        require(newClaim.loopID==loopID);\n        require(oldClaim.loopID!=loopID);\n        require(newClaim.nonce==oldClaim.nonce+1);\n        require(oldClaim.claimName==newClaim.claimName);\n        require(oldClaim.sender==newClaim.sender);\n        require(oldClaim.receiver==newClaim.receiver);\n        require(oldClaim.receiverAlias==newClaim.receiverAlias);\n        require(loops[loopID].minFlow > 0);\n        require(SafeMath.sub(oldClaim.amount, newClaim.amount) == loops[loopID].minFlow);\n        address receiver;\n        if (oldClaim.receiver == receiver) {\n            receiver = aliases[oldClaim.receiverAlias];\n        } else {\n            receiver = oldClaim.receiver;\n        }\n        return (oldClaim.sender, receiver);\n    }\n    \n    // Public View/Pure functions\n    function verifyClaimSig(bytes memory claimData, uint8 v, bytes32 r, bytes32 s, bool isOwner) public view returns (bool) {\n        (uint256[4] memory values, address[2] memory addrs, bytes32[3] memory ids, uint8 nonce) = abi.decode(claimData, (uint256[4], address[2], bytes32[3], uint8));\n        Claim memory claim = Claim(ids[0], address(addrs[0]), address(addrs[1]), ids[1], nonce, values[0], values[1], values[2], values[3], ids[2]);\n        if (0 >= claim.nonce) {\n            return false;\n        }\n        if (SafeMath.sub(claim.voidTimestamp, claim.vestTimestamp) < minVestDuration) {\n            return false;\n        }\n        bytes32 hash = CashlessLib.hashClaimData(claimData, DOMAIN_SEPARATOR);\n        address signer;\n        if (isOwner) {\n            signer = claim.sender;\n        } else {\n            if (address(0) != address(claim.receiver)) {\n                signer = claim.receiver;\n            } else {\n                signer = aliases[claim.receiverAlias];\n            }\n        }\n        if (ecrecover(hash, v, r, s) != signer) {\n            return false;\n        }\n        return true;\n    }\n    \n    function getAdjustedClaimAmount(address accountOwner, bytes32 claimID) public view returns (uint256) {\n        require(reserves[accountOwner].claims[claimID].length > 0);\n        uint256 lastIndex = reserves[accountOwner].claims[claimID].length - 1;\n        (uint256[4] memory values, address[2] memory addrs, bytes32[3] memory ids, uint8 nonce) = abi.decode(reserves[accountOwner].claims[claimID][lastIndex].claimData, (uint256[4], address[2], bytes32[3], uint8));\n        Claim memory claim = Claim(ids[0], address(addrs[0]), address(addrs[1]), ids[1], nonce, values[0], values[1], values[2], values[3], ids[2]);\n        uint256 numerator = SafeMath.mul(100, SafeMath.sub(reserves[accountOwner].proposalTimestamps[claimID][0], claim.vestTimestamp));\n        uint256 denominator = SafeMath.sub(claim.voidTimestamp, claim.vestTimestamp);\n        uint256 percentLost = SafeMath.div(numerator, denominator);\n        return SafeMath.div(SafeMath.sub(SafeMath.mul(100, claim.amount), SafeMath.mul(percentLost, claim.amount)), 100);\n    }\n\n    function getClaimIDs(address accountOwner) public view returns (bytes32[] memory) {\n        return reserves[accountOwner].claimIDs;\n    }\n    \n    function getReservesClaim(address accountOwner, bytes32 claimID, uint256 index) public view returns (bytes memory) {\n        return reserves[accountOwner].claims[claimID][index].claimData;\n    }\n\n    function getReservesSettlement(address accountOwner, bytes32 claimID) public view returns (uint256, uint256, bool) {\n        return (reserves[accountOwner].settlements[claimID].amountPaid, reserves[accountOwner].settlements[claimID].amountDefaulted, reserves[accountOwner].settlements[claimID].settled);\n    }\n    \n    function getLoopStatus(bytes32 loopID) public view returns (address[] memory, address[] memory) {\n        return (loops[loopID].loop, loops[loopID].committed);\n    }\n\n    // Fallback Funtion\n    function () external {}\n}",
  "sourcePath": "/Users/earth/Desktop/cashless/contracts/Cashless.sol",
  "compiler": {
    "name": "solc",
    "version": "0.5.16+commit.9c3226ce.Emscripten.clang"
  },
  "schemaVersion": "3.2.0",
  "updatedAt": "2020-07-07T21:14:12.325Z",
  "devdoc": {
    "methods": {}
  },
  "userdoc": {
    "methods": {}
  }
}