{
  "contractName": "CashlessLibPub",
  "abi": [
    {
      "inputs": [],
      "payable": false,
      "stateMutability": "nonpayable",
      "type": "constructor"
    },
    {
      "payable": false,
      "stateMutability": "nonpayable",
      "type": "fallback"
    },
    {
      "constant": true,
      "inputs": [
        {
          "internalType": "bytes",
          "name": "data",
          "type": "bytes"
        },
        {
          "internalType": "bytes32",
          "name": "domainSeparator",
          "type": "bytes32"
        }
      ],
      "name": "hashClaimData",
      "outputs": [
        {
          "internalType": "bytes32",
          "name": "",
          "type": "bytes32"
        }
      ],
      "payable": false,
      "stateMutability": "pure",
      "type": "function"
    },
    {
      "constant": true,
      "inputs": [
        {
          "internalType": "bytes32",
          "name": "claimName",
          "type": "bytes32"
        },
        {
          "internalType": "address",
          "name": "sender",
          "type": "address"
        },
        {
          "internalType": "address",
          "name": "receiver",
          "type": "address"
        },
        {
          "internalType": "bytes32",
          "name": "receiverAlias",
          "type": "bytes32"
        }
      ],
      "name": "getClaimID",
      "outputs": [
        {
          "internalType": "bytes32",
          "name": "",
          "type": "bytes32"
        }
      ],
      "payable": false,
      "stateMutability": "pure",
      "type": "function"
    },
    {
      "constant": true,
      "inputs": [
        {
          "internalType": "bytes32",
          "name": "proposalName",
          "type": "bytes32"
        },
        {
          "internalType": "address[]",
          "name": "loop",
          "type": "address[]"
        }
      ],
      "name": "getLoopID",
      "outputs": [
        {
          "internalType": "bytes32",
          "name": "",
          "type": "bytes32"
        }
      ],
      "payable": false,
      "stateMutability": "pure",
      "type": "function"
    },
    {
      "constant": true,
      "inputs": [
        {
          "internalType": "bytes",
          "name": "a",
          "type": "bytes"
        },
        {
          "internalType": "uint8[2]",
          "name": "b",
          "type": "uint8[2]"
        },
        {
          "internalType": "bytes32[2]",
          "name": "c",
          "type": "bytes32[2]"
        },
        {
          "internalType": "bytes32[2]",
          "name": "d",
          "type": "bytes32[2]"
        }
      ],
      "name": "encodeLoopClaim",
      "outputs": [
        {
          "internalType": "bytes",
          "name": "",
          "type": "bytes"
        }
      ],
      "payable": false,
      "stateMutability": "pure",
      "type": "function"
    }
  ],
  "bytecode": "0x608060405234801561001057600080fd5b5061074d806100206000396000f3fe608060405234801561001057600080fd5b506004361061004c5760003560e01c806374a191741461004e57806396bed3bb14610124578063a6426c6d146101fd578063e007995b146103f4575b005b61010e6004803603604081101561006457600080fd5b81019080803590602001909291908035906020019064010000000081111561008b57600080fd5b82018360208201111561009d57600080fd5b803590602001918460208302840111640100000000831117156100bf57600080fd5b919080806020026020016040519081016040528093929190818152602001838360200280828437600081840152601f19601f820116905080830192505050505050509192919290505050610480565b6040518082815260200191505060405180910390f35b6101e76004803603604081101561013a57600080fd5b810190808035906020019064010000000081111561015757600080fd5b82018360208201111561016957600080fd5b8035906020019184600183028401116401000000008311171561018b57600080fd5b91908080601f016020809104026020016040519081016040528093929190818152602001838380828437600081840152601f19601f820116905080830192505050505050509192919290803590602001909291905050506104e6565b6040518082815260200191505060405180910390f35b610379600480360360e081101561021357600080fd5b810190808035906020019064010000000081111561023057600080fd5b82018360208201111561024257600080fd5b8035906020019184600183028401116401000000008311171561026457600080fd5b91908080601f016020809104026020016040519081016040528093929190818152602001838380828437600081840152601f19601f82011690508083019250505050505050919291929080604001906002806020026040519081016040528092919082600260200280828437600081840152601f19601f820116905080830192505050505050919291929080604001906002806020026040519081016040528092919082600260200280828437600081840152601f19601f820116905080830192505050505050919291929080604001906002806020026040519081016040528092919082600260200280828437600081840152601f19601f820116905080830192505050505050919291929050505061054e565b6040518080602001828103825283818151815260200191508051906020019080838360005b838110156103b957808201518184015260208101905061039e565b50505050905090810190601f1680156103e65780820380516001836020036101000a031916815260200191505b509250505060405180910390f35b61046a6004803603608081101561040a57600080fd5b8101908080359060200190929190803573ffffffffffffffffffffffffffffffffffffffff169060200190929190803573ffffffffffffffffffffffffffffffffffffffff1690602001909291908035906020019092919050505061066f565b6040518082815260200191505060405180910390f35b6000828260405160200180838152602001828051906020019060200280838360005b838110156104bd5780820151818401526020810190506104a2565b505050509050019250505060405160208183030381529060405280519060200120905092915050565b600081838051906020012060405160200180807f19010000000000000000000000000000000000000000000000000000000000008152506002018381526020018281526020019250505060405160208183030381529060405280519060200120905092915050565b606084848484604051602001808060200185600260200280838360005b8381101561058657808201518184015260208101905061056b565b5050505090500184600260200280838360005b838110156105b4578082015181840152602081019050610599565b5050505090500183600260200280838360005b838110156105e25780820151818401526020810190506105c7565b50505050905001828103825286818151815260200191508051906020019080838360005b83811015610621578082015181840152602081019050610606565b50505050905090810190601f16801561064e5780820380516001836020036101000a031916815260200191505b50955050505050506040516020818303038152906040529050949350505050565b600084848484604051602001808581526020018473ffffffffffffffffffffffffffffffffffffffff1673ffffffffffffffffffffffffffffffffffffffff1660601b81526014018373ffffffffffffffffffffffffffffffffffffffff1673ffffffffffffffffffffffffffffffffffffffff1660601b815260140182815260200194505050505060405160208183030381529060405280519060200120905094935050505056fea265627a7a72315820de8761c25dc80e0ac686b8ba37796c7d222a120ad9839dccebe8a3399c647dc864736f6c63430005100032",
  "source": "pragma solidity >=0.5.0;\n\ncontract CashlessLibPub {\n\n\tconstructor () public {}\n    \n    function hashClaimData(bytes memory data, bytes32 domainSeparator) public pure returns (bytes32) {\n        return keccak256(abi.encodePacked(\"\\x19\\x01\", domainSeparator, keccak256(data)));\n    }\n    \n    function getClaimID(bytes32 claimName, address sender, address receiver, bytes32 receiverAlias) public pure returns (bytes32) {\n        return keccak256(abi.encodePacked(claimName, sender, receiver, receiverAlias));\n    }\n    \n    function getLoopID(bytes32 proposalName, address[] memory loop) public pure returns (bytes32) {\n        return keccak256(abi.encodePacked(proposalName, loop));\n    }\n\n    function encodeLoopClaim(bytes memory a, uint8[2] memory b, bytes32[2] memory c,  bytes32[2] memory d) public pure returns (bytes memory) {\n    \treturn abi.encode(a, b, c, d);\n    }\n\n    function () external {}\n}",
  "sourcePath": "/Users/earth/Desktop/cashless/contracts/CashlessLibPub.sol",
  "compiler": {
    "name": "solc",
    "version": "0.5.16+commit.9c3226ce.Emscripten.clang"
  },
  "schemaVersion": "3.2.0",
  "updatedAt": "2020-07-07T20:59:06.578Z",
  "devdoc": {
    "methods": {}
  },
  "userdoc": {
    "methods": {}
  }
}