{
  "contractName": "CashlessLibPub",
  "abi": [
    {
      "inputs": [],
      "stateMutability": "nonpayable",
      "type": "constructor"
    },
    {
      "stateMutability": "nonpayable",
      "type": "fallback"
    },
    {
      "inputs": [
        {
          "internalType": "bytes",
          "name": "data",
          "type": "bytes"
        },
        {
          "internalType": "bytes32",
          "name": "domainSeparator",
          "type": "bytes32"
        }
      ],
      "name": "hashClaimData",
      "outputs": [
        {
          "internalType": "bytes32",
          "name": "",
          "type": "bytes32"
        }
      ],
      "stateMutability": "pure",
      "type": "function"
    },
    {
      "inputs": [
        {
          "internalType": "bytes32",
          "name": "_hash",
          "type": "bytes32"
        }
      ],
      "name": "messageHash",
      "outputs": [
        {
          "internalType": "bytes32",
          "name": "",
          "type": "bytes32"
        }
      ],
      "stateMutability": "pure",
      "type": "function"
    },
    {
      "inputs": [
        {
          "internalType": "bytes32",
          "name": "claimName",
          "type": "bytes32"
        },
        {
          "internalType": "address",
          "name": "sender",
          "type": "address"
        },
        {
          "internalType": "address",
          "name": "receiver",
          "type": "address"
        }
      ],
      "name": "getClaimID",
      "outputs": [
        {
          "internalType": "bytes32",
          "name": "",
          "type": "bytes32"
        }
      ],
      "stateMutability": "pure",
      "type": "function"
    },
    {
      "inputs": [
        {
          "internalType": "bytes32",
          "name": "proposalName",
          "type": "bytes32"
        },
        {
          "internalType": "address[]",
          "name": "loop",
          "type": "address[]"
        }
      ],
      "name": "getLoopID",
      "outputs": [
        {
          "internalType": "bytes32",
          "name": "",
          "type": "bytes32"
        }
      ],
      "stateMutability": "pure",
      "type": "function"
    },
    {
      "inputs": [
        {
          "internalType": "bytes",
          "name": "a",
          "type": "bytes"
        },
        {
          "internalType": "uint8[2]",
          "name": "b",
          "type": "uint8[2]"
        },
        {
          "internalType": "bytes32[2]",
          "name": "c",
          "type": "bytes32[2]"
        },
        {
          "internalType": "bytes32[2]",
          "name": "d",
          "type": "bytes32[2]"
        }
      ],
      "name": "encodeLoopClaim",
      "outputs": [
        {
          "internalType": "bytes",
          "name": "",
          "type": "bytes"
        }
      ],
      "stateMutability": "pure",
      "type": "function"
    },
    {
      "inputs": [
        {
          "internalType": "bytes32",
          "name": "hash",
          "type": "bytes32"
        },
        {
          "internalType": "uint8",
          "name": "v",
          "type": "uint8"
        },
        {
          "internalType": "bytes32",
          "name": "r",
          "type": "bytes32"
        },
        {
          "internalType": "bytes32",
          "name": "s",
          "type": "bytes32"
        },
        {
          "internalType": "address",
          "name": "signer",
          "type": "address"
        }
      ],
      "name": "verifySignature",
      "outputs": [
        {
          "internalType": "bool",
          "name": "",
          "type": "bool"
        }
      ],
      "stateMutability": "pure",
      "type": "function"
    }
  ],
  "bytecode": "0x608060405234801561001057600080fd5b50610946806100206000396000f3fe608060405234801561001057600080fd5b50600436106100665760003560e01c806374a191741461006957806396bed3bb1461013f578063a044ed9114610218578063a6426c6d1461029f578063bc9ffa1714610496578063e6a7f7c9146104d857610067565b5b005b6101296004803603604081101561007f57600080fd5b8101908080359060200190929190803590602001906401000000008111156100a657600080fd5b8201836020820111156100b857600080fd5b803590602001918460208302840111640100000000831117156100da57600080fd5b919080806020026020016040519081016040528093929190818152602001838360200280828437600081840152601f19601f82011690508083019250505050505050919291929050505061055a565b6040518082815260200191505060405180910390f35b6102026004803603604081101561015557600080fd5b810190808035906020019064010000000081111561017257600080fd5b82018360208201111561018457600080fd5b803590602001918460018302840111640100000000831117156101a657600080fd5b91908080601f016020809104026020016040519081016040528093929190818152602001838380828437600081840152601f19601f820116905080830192505050505050509192919290803590602001909291905050506105c0565b6040518082815260200191505060405180910390f35b610285600480360360a081101561022e57600080fd5b8101908080359060200190929190803560ff1690602001909291908035906020019092919080359060200190929190803573ffffffffffffffffffffffffffffffffffffffff169060200190929190505050610644565b604051808215151515815260200191505060405180910390f35b61041b600480360360e08110156102b557600080fd5b81019080803590602001906401000000008111156102d257600080fd5b8201836020820111156102e457600080fd5b8035906020019184600183028401116401000000008311171561030657600080fd5b91908080601f016020809104026020016040519081016040528093929190818152602001838380828437600081840152601f19601f82011690508083019250505050505050919291929080604001906002806020026040519081016040528092919082600260200280828437600081840152601f19601f820116905080830192505050505050919291929080604001906002806020026040519081016040528092919082600260200280828437600081840152601f19601f820116905080830192505050505050919291929080604001906002806020026040519081016040528092919082600260200280828437600081840152601f19601f82011690508083019250505050505091929192905050506106f7565b6040518080602001828103825283818151815260200191508051906020019080838360005b8381101561045b578082015181840152602081019050610440565b50505050905090810190601f1680156104885780820380516001836020036101000a031916815260200191505b509250505060405180910390f35b6104c2600480360360208110156104ac57600080fd5b8101908080359060200190929190505050610818565b6040518082815260200191505060405180910390f35b610544600480360360608110156104ee57600080fd5b8101908080359060200190929190803573ffffffffffffffffffffffffffffffffffffffff169060200190929190803573ffffffffffffffffffffffffffffffffffffffff169060200190929190505050610870565b6040518082815260200191505060405180910390f35b6000828260405160200180838152602001828051906020019060200280838360005b8381101561059757808201518184015260208101905061057c565b505050509050019250505060405160208183030381529060405280519060200120905092915050565b600081836040516020018083815260200182805190602001908083835b6020831061060057805182526020820191506020810190506020830392506105dd565b6001836020036101000a0380198251168184511680821785525050505050509050019250505060405160208183030381529060405280519060200120905092915050565b60008173ffffffffffffffffffffffffffffffffffffffff1660018787878760405160008152602001604052604051808581526020018460ff1660ff1681526020018381526020018281526020019450505050506020604051602081039080840390855afa1580156106ba573d6000803e3d6000fd5b5050506020604051035173ffffffffffffffffffffffffffffffffffffffff1614156106e957600190506106ee565b600090505b95945050505050565b606084848484604051602001808060200185600260200280838360005b8381101561072f578082015181840152602081019050610714565b5050505090500184600260200280838360005b8381101561075d578082015181840152602081019050610742565b5050505090500183600260200280838360005b8381101561078b578082015181840152602081019050610770565b50505050905001828103825286818151815260200191508051906020019080838360005b838110156107ca5780820151818401526020810190506107af565b50505050905090810190601f1680156107f75780820380516001836020036101000a031916815260200191505b50955050505050506040516020818303038152906040529050949350505050565b60008160405160200180807f19457468657265756d205369676e6564204d6573736167653a0a333200000000815250601c01828152602001915050604051602081830303815290604052805190602001209050919050565b6000838383604051602001808481526020018373ffffffffffffffffffffffffffffffffffffffff1673ffffffffffffffffffffffffffffffffffffffff1660601b81526014018273ffffffffffffffffffffffffffffffffffffffff1673ffffffffffffffffffffffffffffffffffffffff1660601b81526014019350505050604051602081830303815290604052805190602001209050939250505056fea2646970667358221220023bc859344b0c7c984714a8b9b15a3bd7e8d0f7884d8cf51d4f5513e363dd6264736f6c63430006020033",
  "source": "pragma solidity ^0.6.0;\n\ncontract CashlessLibPub {\n\n\tconstructor () public {}\n    \n    function hashClaimData(bytes memory data, bytes32 domainSeparator) public pure returns (bytes32) {\n        return keccak256(abi.encodePacked(domainSeparator, data));\n    }\n\n    function messageHash(bytes32 _hash) public pure returns (bytes32) {\n        return keccak256(abi.encodePacked(\"\\x19Ethereum Signed Message:\\n32\", _hash));\n    }\n    \n    function getClaimID(bytes32 claimName, address sender, address receiver) public pure returns (bytes32) {\n        return keccak256(abi.encodePacked(claimName, sender, receiver));\n    }\n    \n    function getLoopID(bytes32 proposalName, address[] memory loop) public pure returns (bytes32) {\n        return keccak256(abi.encodePacked(proposalName, loop));\n    }\n\n    function encodeLoopClaim(bytes memory a, uint8[2] memory b, bytes32[2] memory c,  bytes32[2] memory d) public pure returns (bytes memory) {\n    \treturn abi.encode(a, b, c, d);\n    }\n\n    function verifySignature(bytes32 hash, uint8 v, bytes32 r, bytes32 s, address signer) public pure returns (bool) {\n        if (ecrecover(hash, v, r, s) == signer) {\n            return true;\n        }\n        return false;\n    }\n\n    fallback () external {}\n}",
  "sourcePath": "/Users/earth/Desktop/WORK/cashless/contracts/CashlessLibPub.sol",
  "compiler": {
    "name": "solc",
    "version": "0.6.2+commit.bacdbe57.Emscripten.clang"
  },
  "schemaVersion": "3.2.0",
  "updatedAt": "2020-10-10T02:38:41.841Z",
  "devdoc": {
    "methods": {}
  },
  "userdoc": {
    "methods": {}
  }
}