{
  "contractName": "Cashless",
  "abi": [
    {
      "inputs": [
        {
          "internalType": "bytes32",
          "name": "salt",
          "type": "bytes32"
        },
        {
          "internalType": "address",
          "name": "_tokenAddress",
          "type": "address"
        }
      ],
      "stateMutability": "nonpayable",
      "type": "constructor"
    },
    {
      "stateMutability": "nonpayable",
      "type": "fallback"
    },
    {
      "inputs": [],
      "name": "DOMAIN_SEPARATOR",
      "outputs": [
        {
          "internalType": "bytes32",
          "name": "",
          "type": "bytes32"
        }
      ],
      "stateMutability": "view",
      "type": "function"
    },
    {
      "inputs": [
        {
          "internalType": "bytes32",
          "name": "",
          "type": "bytes32"
        }
      ],
      "name": "loops",
      "outputs": [
        {
          "internalType": "bytes32",
          "name": "proposalName",
          "type": "bytes32"
        },
        {
          "internalType": "uint256",
          "name": "minFlow",
          "type": "uint256"
        }
      ],
      "stateMutability": "view",
      "type": "function"
    },
    {
      "inputs": [],
      "name": "minVestDuration",
      "outputs": [
        {
          "internalType": "uint256",
          "name": "",
          "type": "uint256"
        }
      ],
      "stateMutability": "view",
      "type": "function"
    },
    {
      "inputs": [
        {
          "internalType": "address",
          "name": "",
          "type": "address"
        }
      ],
      "name": "reserves",
      "outputs": [
        {
          "internalType": "uint256",
          "name": "balance",
          "type": "uint256"
        }
      ],
      "stateMutability": "view",
      "type": "function"
    },
    {
      "inputs": [],
      "name": "tokenAddress",
      "outputs": [
        {
          "internalType": "address",
          "name": "",
          "type": "address"
        }
      ],
      "stateMutability": "view",
      "type": "function"
    },
    {
      "inputs": [
        {
          "internalType": "address",
          "name": "accountOwner",
          "type": "address"
        },
        {
          "internalType": "uint256",
          "name": "amount",
          "type": "uint256"
        }
      ],
      "name": "fundReserves",
      "outputs": [],
      "stateMutability": "nonpayable",
      "type": "function"
    },
    {
      "inputs": [
        {
          "internalType": "uint256",
          "name": "amount",
          "type": "uint256"
        },
        {
          "internalType": "address",
          "name": "targetReceiver",
          "type": "address"
        }
      ],
      "name": "withdrawReserves",
      "outputs": [],
      "stateMutability": "nonpayable",
      "type": "function"
    },
    {
      "inputs": [
        {
          "internalType": "bytes",
          "name": "claimData",
          "type": "bytes"
        },
        {
          "internalType": "uint8[2]",
          "name": "sigsV",
          "type": "uint8[2]"
        },
        {
          "internalType": "bytes32[2]",
          "name": "sigsR",
          "type": "bytes32[2]"
        },
        {
          "internalType": "bytes32[2]",
          "name": "sigsS",
          "type": "bytes32[2]"
        }
      ],
      "name": "proposeSettlement",
      "outputs": [],
      "stateMutability": "nonpayable",
      "type": "function"
    },
    {
      "inputs": [
        {
          "internalType": "bytes",
          "name": "claimData",
          "type": "bytes"
        },
        {
          "internalType": "uint8[2]",
          "name": "sigsV",
          "type": "uint8[2]"
        },
        {
          "internalType": "bytes32[2]",
          "name": "sigsR",
          "type": "bytes32[2]"
        },
        {
          "internalType": "bytes32[2]",
          "name": "sigsS",
          "type": "bytes32[2]"
        }
      ],
      "name": "disputeSettlement",
      "outputs": [],
      "stateMutability": "nonpayable",
      "type": "function"
    },
    {
      "inputs": [
        {
          "internalType": "address",
          "name": "accountOwner",
          "type": "address"
        },
        {
          "internalType": "bytes32",
          "name": "claimID",
          "type": "bytes32"
        }
      ],
      "name": "redeemClaim",
      "outputs": [],
      "stateMutability": "nonpayable",
      "type": "function"
    },
    {
      "inputs": [
        {
          "internalType": "bytes32",
          "name": "proposalName",
          "type": "bytes32"
        },
        {
          "internalType": "address[]",
          "name": "loop",
          "type": "address[]"
        },
        {
          "internalType": "uint256",
          "name": "minFlow",
          "type": "uint256"
        }
      ],
      "name": "proposeLoop",
      "outputs": [],
      "stateMutability": "nonpayable",
      "type": "function"
    },
    {
      "inputs": [
        {
          "internalType": "bytes32",
          "name": "loopID",
          "type": "bytes32"
        },
        {
          "internalType": "bytes",
          "name": "encodedPriorClaim",
          "type": "bytes"
        },
        {
          "internalType": "bytes",
          "name": "encodedClaim",
          "type": "bytes"
        }
      ],
      "name": "commitLoopClaim",
      "outputs": [],
      "stateMutability": "nonpayable",
      "type": "function"
    },
    {
      "inputs": [
        {
          "internalType": "bytes",
          "name": "claimData",
          "type": "bytes"
        },
        {
          "internalType": "uint8",
          "name": "v",
          "type": "uint8"
        },
        {
          "internalType": "bytes32",
          "name": "r",
          "type": "bytes32"
        },
        {
          "internalType": "bytes32",
          "name": "s",
          "type": "bytes32"
        },
        {
          "internalType": "bool",
          "name": "isOwner",
          "type": "bool"
        }
      ],
      "name": "verifyClaimSig",
      "outputs": [
        {
          "internalType": "bool",
          "name": "",
          "type": "bool"
        }
      ],
      "stateMutability": "view",
      "type": "function"
    },
    {
      "inputs": [
        {
          "internalType": "address",
          "name": "accountOwner",
          "type": "address"
        }
      ],
      "name": "getClaimIDs",
      "outputs": [
        {
          "internalType": "bytes32[]",
          "name": "",
          "type": "bytes32[]"
        }
      ],
      "stateMutability": "view",
      "type": "function"
    },
    {
      "inputs": [
        {
          "internalType": "address",
          "name": "accountOwner",
          "type": "address"
        },
        {
          "internalType": "bytes32",
          "name": "claimID",
          "type": "bytes32"
        },
        {
          "internalType": "uint256",
          "name": "index",
          "type": "uint256"
        }
      ],
      "name": "getReservesClaim",
      "outputs": [
        {
          "internalType": "bytes",
          "name": "",
          "type": "bytes"
        }
      ],
      "stateMutability": "view",
      "type": "function"
    },
    {
      "inputs": [
        {
          "internalType": "address",
          "name": "accountOwner",
          "type": "address"
        },
        {
          "internalType": "bytes32",
          "name": "claimID",
          "type": "bytes32"
        }
      ],
      "name": "getReservesSettlement",
      "outputs": [
        {
          "internalType": "uint256",
          "name": "",
          "type": "uint256"
        },
        {
          "internalType": "uint256",
          "name": "",
          "type": "uint256"
        },
        {
          "internalType": "bool",
          "name": "",
          "type": "bool"
        }
      ],
      "stateMutability": "view",
      "type": "function"
    },
    {
      "inputs": [
        {
          "internalType": "bytes32",
          "name": "loopID",
          "type": "bytes32"
        }
      ],
      "name": "getLoopStatus",
      "outputs": [
        {
          "internalType": "address[]",
          "name": "",
          "type": "address[]"
        },
        {
          "internalType": "address[]",
          "name": "",
          "type": "address[]"
        }
      ],
      "stateMutability": "view",
      "type": "function"
    }
  ],
  "bytecode": "0x608060405262093a8060015534801561001757600080fd5b5060405162004144380380620041448339818101604052604081101561003c57600080fd5b8101908080519060200190929190805190602001909291905050507f0eff6c88c44fbde2113ba7421deef795c18fc5a553a55b2ba4d237269e1c266260001b3083604051602001808481526020018373ffffffffffffffffffffffffffffffffffffffff1673ffffffffffffffffffffffffffffffffffffffff1660601b815260140182815260200193505050506040516020818303038152906040528051906020012060008190555080600260006101000a81548173ffffffffffffffffffffffffffffffffffffffff021916908373ffffffffffffffffffffffffffffffffffffffff160217905550505061400b80620001396000396000f3fe608060405234801561001057600080fd5b506004361061010f5760003560e01c8063852b5ed5116100a2578063a29742ab11610071578063a29742ab146109ed578063ab37994914610a0b578063b20ad10414610a59578063c4d309cd14610acd578063d66bd52414610b9857610110565b8063852b5ed5146106595780638ceec2cb1461075957806398e5fc18146108d75780639d76ea58146109a357610110565b80633644e515116100de5780633644e5151461031857806344a07c1b146103365780635728e1611461049257806360cf47c1146104db57610110565b8063075e42a9146101125780631641a744146101e357806320664c7b1461027c57806336431f5b146102ca57610110565b5b005b6101686004803603606081101561012857600080fd5b81019080803573ffffffffffffffffffffffffffffffffffffffff1690602001909291908035906020019092919080359060200190929190505050610bf0565b6040518080602001828103825283818151815260200191508051906020019080838360005b838110156101a857808201518184015260208101905061018d565b50505050905090810190601f1680156101d55780820380516001836020036101000a031916815260200191505b509250505060405180910390f35b610225600480360360208110156101f957600080fd5b81019080803573ffffffffffffffffffffffffffffffffffffffff169060200190929190505050610cfc565b6040518080602001828103825283818151815260200191508051906020019060200280838360005b8381101561026857808201518184015260208101905061024d565b505050509050019250505060405180910390f35b6102c86004803603604081101561029257600080fd5b81019080803573ffffffffffffffffffffffffffffffffffffffff16906020019092919080359060200190929190505050610d96565b005b610316600480360360408110156102e057600080fd5b81019080803573ffffffffffffffffffffffffffffffffffffffff16906020019092919080359060200190929190505050611221565b005b6103206113e1565b6040518082815260200191505060405180910390f35b6104906004803603606081101561034c57600080fd5b81019080803590602001909291908035906020019064010000000081111561037357600080fd5b82018360208201111561038557600080fd5b803590602001918460018302840111640100000000831117156103a757600080fd5b91908080601f016020809104026020016040519081016040528093929190818152602001838380828437600081840152601f19601f8201169050808301925050505050505091929192908035906020019064010000000081111561040a57600080fd5b82018360208201111561041c57600080fd5b8035906020019184600183028401116401000000008311171561043e57600080fd5b91908080601f016020809104026020016040519081016040528093929190818152602001838380828437600081840152601f19601f8201169050808301925050505050505091929192905050506113e7565b005b6104be600480360360208110156104a857600080fd5b8101908080359060200190929190505050611738565b604051808381526020018281526020019250505060405180910390f35b610657600480360360e08110156104f157600080fd5b810190808035906020019064010000000081111561050e57600080fd5b82018360208201111561052057600080fd5b8035906020019184600183028401116401000000008311171561054257600080fd5b91908080601f016020809104026020016040519081016040528093929190818152602001838380828437600081840152601f19601f82011690508083019250505050505050919291929080604001906002806020026040519081016040528092919082600260200280828437600081840152601f19601f820116905080830192505050505050919291929080604001906002806020026040519081016040528092919082600260200280828437600081840152601f19601f820116905080830192505050505050919291929080604001906002806020026040519081016040528092919082600260200280828437600081840152601f19601f820116905080830192505050505050919291929050505061175c565b005b61073f600480360360a081101561066f57600080fd5b810190808035906020019064010000000081111561068c57600080fd5b82018360208201111561069e57600080fd5b803590602001918460018302840111640100000000831117156106c057600080fd5b91908080601f016020809104026020016040519081016040528093929190818152602001838380828437600081840152601f19601f820116905080830192505050505050509192919290803560ff16906020019092919080359060200190929190803590602001909291908035151590602001909291905050506118e0565b604051808215151515815260200191505060405180910390f35b6108d5600480360360e081101561076f57600080fd5b810190808035906020019064010000000081111561078c57600080fd5b82018360208201111561079e57600080fd5b803590602001918460018302840111640100000000831117156107c057600080fd5b91908080601f016020809104026020016040519081016040528093929190818152602001838380828437600081840152601f19601f82011690508083019250505050505050919291929080604001906002806020026040519081016040528092919082600260200280828437600081840152601f19601f820116905080830192505050505050919291929080604001906002806020026040519081016040528092919082600260200280828437600081840152601f19601f820116905080830192505050505050919291929080604001906002806020026040519081016040528092919082600260200280828437600081840152601f19601f8201169050808301925050505050509192919290505050611b77565b005b6109a1600480360360608110156108ed57600080fd5b81019080803590602001909291908035906020019064010000000081111561091457600080fd5b82018360208201111561092657600080fd5b8035906020019184602083028401116401000000008311171561094857600080fd5b919080806020026020016040519081016040528093929190818152602001838360200280828437600081840152601f19601f82011690508083019250505050505050919291929080359060200190929190505050611c92565b005b6109ab611d3b565b604051808273ffffffffffffffffffffffffffffffffffffffff1673ffffffffffffffffffffffffffffffffffffffff16815260200191505060405180910390f35b6109f5611d61565b6040518082815260200191505060405180910390f35b610a5760048036036040811015610a2157600080fd5b8101908080359060200190929190803573ffffffffffffffffffffffffffffffffffffffff169060200190929190505050611d67565b005b610aa560048036036040811015610a6f57600080fd5b81019080803573ffffffffffffffffffffffffffffffffffffffff16906020019092919080359060200190929190505050611f4f565b6040518084815260200183815260200182151515158152602001935050505060405180910390f35b610af960048036036020811015610ae357600080fd5b8101908080359060200190929190505050612073565b604051808060200180602001838103835285818151815260200191508051906020019060200280838360005b83811015610b40578082015181840152602081019050610b25565b50505050905001838103825284818151815260200191508051906020019060200280838360005b83811015610b82578082015181840152602081019050610b67565b5050505090500194505050505060405180910390f35b610bda60048036036020811015610bae57600080fd5b81019080803573ffffffffffffffffffffffffffffffffffffffff1690602001909291905050506121bb565b6040518082815260200191505060405180910390f35b6060600360008573ffffffffffffffffffffffffffffffffffffffff1673ffffffffffffffffffffffffffffffffffffffff16815260200190815260200160002060020160008481526020019081526020016000208281548110610c5057fe5b906000526020600020018054600181600116156101000203166002900480601f016020809104026020016040519081016040528092919081815260200182805460018160011615610100020316600290048015610cee5780601f10610cc357610100808354040283529160200191610cee565b820191906000526020600020905b815481529060010190602001808311610cd157829003601f168201915b505050505090509392505050565b6060600360008373ffffffffffffffffffffffffffffffffffffffff1673ffffffffffffffffffffffffffffffffffffffff168152602001908152602001600020600101805480602002602001604051908101604052809291908181526020018280548015610d8a57602002820191906000526020600020905b815481526020019060010190808311610d76575b50505050509050919050565b60001515600360008473ffffffffffffffffffffffffffffffffffffffff1673ffffffffffffffffffffffffffffffffffffffff168152602001908152602001600020600401600083815260200190815260200160002060020160009054906101000a900460ff16151514610e0a57600080fd5b6000600360008473ffffffffffffffffffffffffffffffffffffffff1673ffffffffffffffffffffffffffffffffffffffff16815260200190815260200160002060030160008381526020019081526020016000205411610e6a57600080fd5b6000600360008473ffffffffffffffffffffffffffffffffffffffff1673ffffffffffffffffffffffffffffffffffffffff16815260200190815260200160002060020160008381526020019081526020016000208054905011610ecd57600080fd5b60006001600360008573ffffffffffffffffffffffffffffffffffffffff1673ffffffffffffffffffffffffffffffffffffffff168152602001908152602001600020600201600084815260200190815260200160002080549050039050610f33613d5a565b610f3b613d7c565b610f43613d9e565b6000600360008873ffffffffffffffffffffffffffffffffffffffff1673ffffffffffffffffffffffffffffffffffffffff16815260200190815260200160002060020160008781526020019081526020016000208581548110610fa357fe5b906000526020600020018054600181600116156101000203166002900480601f0160208091040260200160405190810160405280929190818152602001828054600181600116156101000203166002900480156110415780601f1061101657610100808354040283529160200191611041565b820191906000526020600020905b81548152906001019060200180831161102457829003601f168201915b505050505080602001905161012081101561105b57600080fd5b8101908091908260800191908260400191908260400180519060200190929190505050935093509350935061108e613dc0565b604051806101200160405280846000600281106110a757fe5b60200201518152602001856000600281106110be57fe5b602002015173ffffffffffffffffffffffffffffffffffffffff168152602001856001600281106110eb57fe5b602002015173ffffffffffffffffffffffffffffffffffffffff1681526020018360ff1681526020018660006004811061112157fe5b602002015181526020018660016004811061113857fe5b602002015181526020018660026004811061114f57fe5b602002015181526020018660036004811061116657fe5b602002015181526020018460016002811061117d57fe5b60200201518152509050426111f28260a00151600360008c73ffffffffffffffffffffffffffffffffffffffff1673ffffffffffffffffffffffffffffffffffffffff16815260200190815260200160002060030160008b8152602001908152602001600020546121d990919063ffffffff16565b106111fc57600080fd5b600081608001511161120d57600080fd5b6112178888612261565b5050505050505050565b61127681600360008573ffffffffffffffffffffffffffffffffffffffff1673ffffffffffffffffffffffffffffffffffffffff168152602001908152602001600020600001546121d990919063ffffffff16565b600360008473ffffffffffffffffffffffffffffffffffffffff1673ffffffffffffffffffffffffffffffffffffffff16815260200190815260200160002060000181905550600260009054906101000a900473ffffffffffffffffffffffffffffffffffffffff1673ffffffffffffffffffffffffffffffffffffffff166323b872dd3330846040518463ffffffff1660e01b8152600401808473ffffffffffffffffffffffffffffffffffffffff1673ffffffffffffffffffffffffffffffffffffffff1681526020018373ffffffffffffffffffffffffffffffffffffffff1673ffffffffffffffffffffffffffffffffffffffff1681526020018281526020019350505050602060405180830381600087803b15801561139957600080fd5b505af11580156113ad573d6000803e3d6000fd5b505050506040513d60208110156113c357600080fd5b81019080805190602001909291905050506113dd57600080fd5b5050565b60005481565b6000806113f5858585612b6d565b91509150600080905060008090505b60046000888152602001908152602001600020600101805490508110156115ee578373ffffffffffffffffffffffffffffffffffffffff1660046000898152602001908152602001600020600101828154811061145d57fe5b9060005260206000200160009054906101000a900473ffffffffffffffffffffffffffffffffffffffff1673ffffffffffffffffffffffffffffffffffffffff1614156115e1576001600460008981526020019081526020016000206001018054905003811415611551578273ffffffffffffffffffffffffffffffffffffffff166004600089815260200190815260200160002060010160008154811061150157fe5b9060005260206000200160009054906101000a900473ffffffffffffffffffffffffffffffffffffffff1673ffffffffffffffffffffffffffffffffffffffff161461154c57600080fd5b6115d8565b8273ffffffffffffffffffffffffffffffffffffffff1660046000898152602001908152602001600020600101600183018154811061158c57fe5b9060005260206000200160009054906101000a900473ffffffffffffffffffffffffffffffffffffffff1673ffffffffffffffffffffffffffffffffffffffff16146115d757600080fd5b5b600191506115ee565b8080600101915050611404565b50600115158115151461160057600080fd5b60008090505b60046000888152602001908152602001600020600301805490508110156116b8578373ffffffffffffffffffffffffffffffffffffffff1660046000898152602001908152602001600020600301828154811061165f57fe5b9060005260206000200160009054906101000a900473ffffffffffffffffffffffffffffffffffffffff1673ffffffffffffffffffffffffffffffffffffffff1614156116ab57600080fd5b8080600101915050611606565b5060046000878152602001908152602001600020600301839080600181540180825580915050600190039060005260206000200160009091909190916101000a81548173ffffffffffffffffffffffffffffffffffffffff021916908373ffffffffffffffffffffffffffffffffffffffff160217905550505050505050565b60046020528060005260406000206000915090508060000154908060020154905082565b600080600061176f878787876000612ebb565b925092509250600360008473ffffffffffffffffffffffffffffffffffffffff1673ffffffffffffffffffffffffffffffffffffffff168152602001908152602001600020600101829080600181540180825580915050600190039060005260206000200160009091909190915055600360008473ffffffffffffffffffffffffffffffffffffffff1673ffffffffffffffffffffffffffffffffffffffff16815260200190815260200160002060020160008381526020019081526020016000208790806001815401808255809150506001900390600052602060002001600090919091909150908051906020019061186a929190613e41565b5042600360008573ffffffffffffffffffffffffffffffffffffffff1673ffffffffffffffffffffffffffffffffffffffff16815260200190815260200160002060030160008481526020019081526020016000208190555060008114156118d7576118d68383612261565b5b50505050505050565b60006118ea613d5a565b6118f2613d7c565b6118fa613d9e565b60008980602001905161012081101561191257600080fd5b81019080919082608001919082604001919082604001805190602001909291905050509350935093509350611945613dc0565b6040518061012001604052808460006002811061195e57fe5b602002015181526020018560006002811061197557fe5b602002015173ffffffffffffffffffffffffffffffffffffffff168152602001856001600281106119a257fe5b602002015173ffffffffffffffffffffffffffffffffffffffff1681526020018360ff168152602001866000600481106119d857fe5b60200201518152602001866001600481106119ef57fe5b6020020151815260200186600260048110611a0657fe5b6020020151815260200186600360048110611a1d57fe5b6020020151815260200184600160028110611a3457fe5b60200201518152509050806060015160ff16600010611a5b57600095505050505050611b6e565b600154611a798260c001518360e001516136e190919063ffffffff16565b1015611a8d57600095505050505050611b6e565b6000611a9b8c60005461372b565b905060008815611ab15782602001519050611ab9565b826040015190505b8073ffffffffffffffffffffffffffffffffffffffff166001838e8e8e60405160008152602001604052604051808581526020018460ff1660ff1681526020018381526020018281526020019450505050506020604051602081039080840390855afa158015611b2d573d6000803e3d6000fd5b5050506020604051035173ffffffffffffffffffffffffffffffffffffffff1614611b62576000975050505050505050611b6e565b60019750505050505050505b95945050505050565b6000806000611b8a878787876001612ebb565b925092509250600360008473ffffffffffffffffffffffffffffffffffffffff1673ffffffffffffffffffffffffffffffffffffffff168152602001908152602001600020600201600083815260200190815260200160002087908060018154018082558091505060019003906000526020600020016000909190919091509080519060200190611c1c929190613e41565b5042600360008573ffffffffffffffffffffffffffffffffffffffff1673ffffffffffffffffffffffffffffffffffffffff1681526020019081526020016000206003016000848152602001908152602001600020819055506000811415611c8957611c888383612261565b5b50505050505050565b600282511015611ca157600080fd5b6000611cad8484613793565b9050600080600460008481526020019081526020016000206000015414611cd357600080fd5b84600460008481526020019081526020016000206000018190555083600460008481526020019081526020016000206001019080519060200190611d18929190613ec1565b508260046000848152602001908152602001600020600201819055505050505050565b600260009054906101000a900473ffffffffffffffffffffffffffffffffffffffff1681565b60015481565b60008211611d7457600080fd5b81600360003373ffffffffffffffffffffffffffffffffffffffff1673ffffffffffffffffffffffffffffffffffffffff168152602001908152602001600020600001541015611dc357600080fd5b611e1882600360003373ffffffffffffffffffffffffffffffffffffffff1673ffffffffffffffffffffffffffffffffffffffff168152602001908152602001600020600001546136e190919063ffffffff16565b600360003373ffffffffffffffffffffffffffffffffffffffff1673ffffffffffffffffffffffffffffffffffffffff16815260200190815260200160002060000181905550600260009054906101000a900473ffffffffffffffffffffffffffffffffffffffff1673ffffffffffffffffffffffffffffffffffffffff1663a9059cbb82846040518363ffffffff1660e01b8152600401808373ffffffffffffffffffffffffffffffffffffffff1673ffffffffffffffffffffffffffffffffffffffff16815260200182815260200192505050602060405180830381600087803b158015611f0757600080fd5b505af1158015611f1b573d6000803e3d6000fd5b505050506040513d6020811015611f3157600080fd5b8101908080519060200190929190505050611f4b57600080fd5b5050565b6000806000600360008673ffffffffffffffffffffffffffffffffffffffff1673ffffffffffffffffffffffffffffffffffffffff168152602001908152602001600020600401600085815260200190815260200160002060000154600360008773ffffffffffffffffffffffffffffffffffffffff1673ffffffffffffffffffffffffffffffffffffffff168152602001908152602001600020600401600086815260200190815260200160002060010154600360008873ffffffffffffffffffffffffffffffffffffffff1673ffffffffffffffffffffffffffffffffffffffff168152602001908152602001600020600401600087815260200190815260200160002060020160009054906101000a900460ff169250925092509250925092565b60608060046000848152602001908152602001600020600101600460008581526020019081526020016000206003018180548060200260200160405190810160405280929190818152602001828054801561212357602002820191906000526020600020905b8160009054906101000a900473ffffffffffffffffffffffffffffffffffffffff1673ffffffffffffffffffffffffffffffffffffffff16815260200190600101908083116120d9575b50505050509150808054806020026020016040519081016040528092919081815260200182805480156121ab57602002820191906000526020600020905b8160009054906101000a900473ffffffffffffffffffffffffffffffffffffffff1673ffffffffffffffffffffffffffffffffffffffff1681526020019060010190808311612161575b5050505050905091509150915091565b60036020528060005260406000206000915090508060000154905081565b600080828401905083811015612257576040517f08c379a000000000000000000000000000000000000000000000000000000000815260040180806020018281038252601b8152602001807f536166654d6174683a206164646974696f6e206f766572666c6f77000000000081525060200191505060405180910390fd5b8091505092915050565b6000600360008473ffffffffffffffffffffffffffffffffffffffff1673ffffffffffffffffffffffffffffffffffffffff168152602001908152602001600020600201600083815260200190815260200160002080549050116122c457600080fd5b60006001600360008573ffffffffffffffffffffffffffffffffffffffff1673ffffffffffffffffffffffffffffffffffffffff16815260200190815260200160002060020160008481526020019081526020016000208054905003905061232a613d5a565b612332613d7c565b61233a613d9e565b6000600360008873ffffffffffffffffffffffffffffffffffffffff1673ffffffffffffffffffffffffffffffffffffffff1681526020019081526020016000206002016000878152602001908152602001600020858154811061239a57fe5b906000526020600020018054600181600116156101000203166002900480601f0160208091040260200160405190810160405280929190818152602001828054600181600116156101000203166002900480156124385780601f1061240d57610100808354040283529160200191612438565b820191906000526020600020905b81548152906001019060200180831161241b57829003601f168201915b505050505080602001905161012081101561245257600080fd5b81019080919082608001919082604001919082604001805190602001909291905050509350935093509350612485613dc0565b6040518061012001604052808460006002811061249e57fe5b60200201518152602001856000600281106124b557fe5b602002015173ffffffffffffffffffffffffffffffffffffffff168152602001856001600281106124e257fe5b602002015173ffffffffffffffffffffffffffffffffffffffff1681526020018360ff1681526020018660006004811061251857fe5b602002015181526020018660016004811061252f57fe5b602002015181526020018660026004811061254657fe5b602002015181526020018660036004811061255d57fe5b602002015181526020018460016002811061257457fe5b60200201518152509050806080015160036000836020015173ffffffffffffffffffffffffffffffffffffffff1673ffffffffffffffffffffffffffffffffffffffff16815260200190815260200160002060000154106127d357604051806060016040528082608001518152602001600081526020016001151581525060036000836020015173ffffffffffffffffffffffffffffffffffffffff1673ffffffffffffffffffffffffffffffffffffffff1681526020019081526020016000206004016000898152602001908152602001600020600082015181600001556020820151816001015560408201518160020160006101000a81548160ff0219169083151502179055509050506126dd816080015160036000846020015173ffffffffffffffffffffffffffffffffffffffff1673ffffffffffffffffffffffffffffffffffffffff168152602001908152602001600020600001546136e190919063ffffffff16565b60036000836020015173ffffffffffffffffffffffffffffffffffffffff1673ffffffffffffffffffffffffffffffffffffffff16815260200190815260200160002060000181905550612784816080015160036000846040015173ffffffffffffffffffffffffffffffffffffffff1673ffffffffffffffffffffffffffffffffffffffff168152602001908152602001600020600001546121d990919063ffffffff16565b60036000836040015173ffffffffffffffffffffffffffffffffffffffff1673ffffffffffffffffffffffffffffffffffffffff16815260200190815260200160002060000181905550612b63565b600060036000836020015173ffffffffffffffffffffffffffffffffffffffff1673ffffffffffffffffffffffffffffffffffffffff168152602001908152602001600020600001541115612ab057600061288160036000846020015173ffffffffffffffffffffffffffffffffffffffff1673ffffffffffffffffffffffffffffffffffffffff1681526020019081526020016000206000015483608001516136e190919063ffffffff16565b9050604051806060016040528060036000856020015173ffffffffffffffffffffffffffffffffffffffff1673ffffffffffffffffffffffffffffffffffffffff1681526020019081526020016000206000015481526020018281526020016001151581525060036000846020015173ffffffffffffffffffffffffffffffffffffffff1673ffffffffffffffffffffffffffffffffffffffff16815260200190815260200160002060040160008a8152602001908152602001600020600082015181600001556020820151816001015560408201518160020160006101000a81548160ff021916908315150217905550905050612a1460036000846020015173ffffffffffffffffffffffffffffffffffffffff1673ffffffffffffffffffffffffffffffffffffffff1681526020019081526020016000206000015460036000856040015173ffffffffffffffffffffffffffffffffffffffff1673ffffffffffffffffffffffffffffffffffffffff168152602001908152602001600020600001546121d990919063ffffffff16565b60036000846040015173ffffffffffffffffffffffffffffffffffffffff1673ffffffffffffffffffffffffffffffffffffffff16815260200190815260200160002060000181905550600060036000846020015173ffffffffffffffffffffffffffffffffffffffff1673ffffffffffffffffffffffffffffffffffffffff1681526020019081526020016000206000018190555050612b62565b604051806060016040528060008152602001826080015181526020016001151581525060036000836020015173ffffffffffffffffffffffffffffffffffffffff1673ffffffffffffffffffffffffffffffffffffffff1681526020019081526020016000206004016000898152602001908152602001600020600082015181600001556020820151816001015560408201518160020160006101000a81548160ff0219169083151502179055509050505b5b5050505050505050565b6000806060612b7a613f4b565b612b82613d9e565b612b8a613d9e565b8780602001905160e0811015612b9f57600080fd5b8101908080516040519392919084640100000000821115612bbf57600080fd5b83820191506020820185811115612bd557600080fd5b8251866001820283011164010000000082111715612bf257600080fd5b8083526020830192505050908051906020019080838360005b83811015612c26578082015181840152602081019050612c0b565b50505050905090810190601f168015612c535780820380516001836020036101000a031916815260200191505b506040526020019190826040019190826040019190505093509350935093506060612c7c613f4b565b612c84613d9e565b612c8c613d9e565b8a80602001905160e0811015612ca157600080fd5b8101908080516040519392919084640100000000821115612cc157600080fd5b83820191506020820185811115612cd757600080fd5b8251866001820283011164010000000082111715612cf457600080fd5b8083526020830192505050908051906020019080838360005b83811015612d28578082015181840152602081019050612d0d565b50505050905090810190601f168015612d555780820380516001836020036101000a031916815260200191505b50604052602001919082604001919082604001919050509350935093509350612db58888600060028110612d8557fe5b602002015188600060028110612d9757fe5b602002015188600060028110612da957fe5b602002015160016118e0565b612dbe57600080fd5b612dff8888600160028110612dcf57fe5b602002015188600160028110612de157fe5b602002015188600160028110612df357fe5b602002015160006118e0565b612e0857600080fd5b612e498484600060028110612e1957fe5b602002015184600060028110612e2b57fe5b602002015184600060028110612e3d57fe5b602002015160016118e0565b612e5257600080fd5b612e938484600160028110612e6357fe5b602002015184600160028110612e7557fe5b602002015184600160028110612e8757fe5b602002015160006118e0565b612e9c57600080fd5b612ea788858f6137f9565b995099505050505050505050935093915050565b6000806000612ec8613d5a565b612ed0613d7c565b612ed8613d9e565b60008b806020019051610120811015612ef057600080fd5b81019080919082608001919082604001919082604001805190602001909291905050509350935093509350612f23613dc0565b60405180610120016040528084600060028110612f3c57fe5b6020020151815260200185600060028110612f5357fe5b602002015173ffffffffffffffffffffffffffffffffffffffff16815260200185600160028110612f8057fe5b602002015173ffffffffffffffffffffffffffffffffffffffff1681526020018360ff16815260200186600060048110612fb657fe5b6020020151815260200186600160048110612fcd57fe5b6020020151815260200186600260048110612fe457fe5b6020020151815260200186600360048110612ffb57fe5b602002015181526020018460016002811061301257fe5b602002015181525090506000808261010001511461309e576000600460008461010001518152602001908152602001600020600301805490501161305557600080fd5b60046000836101000151815260200190815260200160002060010180549050600460008461010001518152602001908152602001600020600301805490501461309d57600080fd5b5b6000826060015160ff16116130b257600080fd5b6001546130d08360c001518460e001516136e190919063ffffffff16565b10156130db57600080fd5b8160c0015142116130eb57600080fd5b613102826000015183602001518460400151613bfa565b905089156134c457600060036000846020015173ffffffffffffffffffffffffffffffffffffffff1673ffffffffffffffffffffffffffffffffffffffff1681526020019081526020016000206002016000838152602001908152602001600020805490501161317157600080fd5b6000600160036000856020015173ffffffffffffffffffffffffffffffffffffffff1673ffffffffffffffffffffffffffffffffffffffff16815260200190815260200160002060020160008481526020019081526020016000208054905003905060036000846020015173ffffffffffffffffffffffffffffffffffffffff1673ffffffffffffffffffffffffffffffffffffffff1681526020019081526020016000206002016000838152602001908152602001600020818154811061323557fe5b906000526020600020018054600181600116156101000203166002900480601f0160208091040260200160405190810160405280929190818152602001828054600181600116156101000203166002900480156132d35780601f106132a8576101008083540402835291602001916132d3565b820191906000526020600020905b8154815290600101906020018083116132b657829003601f168201915b50505050508060200190516101208110156132ed57600080fd5b8101908091908260800191908260400191908260400180519060200190929190505050839350829250819150809750819850829950839a5050505050613331613dc0565b6040518061012001604052808760006002811061334a57fe5b602002015181526020018860006002811061336157fe5b602002015173ffffffffffffffffffffffffffffffffffffffff1681526020018860016002811061338e57fe5b602002015173ffffffffffffffffffffffffffffffffffffffff1681526020018660ff168152602001896000600481106133c457fe5b60200201518152602001896001600481106133db57fe5b60200201518152602001896002600481106133f257fe5b602002015181526020018960036004811061340957fe5b602002015181526020018760016002811061342057fe5b60200201518152509050426134998260a0015160036000886020015173ffffffffffffffffffffffffffffffffffffffff1673ffffffffffffffffffffffffffffffffffffffff1681526020019081526020016000206003016000878152602001908152602001600020546121d990919063ffffffff16565b116134a357600080fd5b806060015160ff16846060015160ff16116134bd57600080fd5b50506135b3565b60008090505b60036000846020015173ffffffffffffffffffffffffffffffffffffffff1673ffffffffffffffffffffffffffffffffffffffff16815260200190815260200160002060010180549050811015613590578160036000856020015173ffffffffffffffffffffffffffffffffffffffff1673ffffffffffffffffffffffffffffffffffffffff168152602001908152602001600020600101828154811061356d57fe5b9060005260206000200154141561358357600080fd5b80806001019150506134ca565b508160e0015142106135a157600080fd5b60008260800151116135b257600080fd5b5b6135f48e8e6000600281106135c457fe5b60200201518e6000600281106135d657fe5b60200201518e6000600281106135e857fe5b602002015160016118e0565b6135fd57600080fd5b61363e8e8e60016002811061360e57fe5b60200201518e60016002811061362057fe5b60200201518e60016002811061363257fe5b602002015160006118e0565b61364757600080fd5b6000151560036000846020015173ffffffffffffffffffffffffffffffffffffffff1673ffffffffffffffffffffffffffffffffffffffff168152602001908152602001600020600401600083815260200190815260200160002060020160009054906101000a900460ff161515146136bf57600080fd5b8160200151818360a00151985098509850505050505050955095509592505050565b600061372383836040518060400160405280601e81526020017f536166654d6174683a207375627472616374696f6e206f766572666c6f770000815250613c9a565b905092915050565b600081838051906020012060405160200180807f19010000000000000000000000000000000000000000000000000000000000008152506002018381526020018281526020019250505060405160208183030381529060405280519060200120905092915050565b6000828260405160200180838152602001828051906020019060200280838360005b838110156137d05780820151818401526020810190506137b5565b505050509050019250505060405160208183030381529060405280519060200120905092915050565b600080613804613d5a565b61380c613d7c565b613814613d9e565b60008880602001905161012081101561382c57600080fd5b8101908091908260800191908260400191908260400180519060200190929190505050935093509350935061385f613dc0565b6040518061012001604052808460006002811061387857fe5b602002015181526020018560006002811061388f57fe5b602002015173ffffffffffffffffffffffffffffffffffffffff168152602001856001600281106138bc57fe5b602002015173ffffffffffffffffffffffffffffffffffffffff1681526020018360ff168152602001866000600481106138f257fe5b602002015181526020018660016004811061390957fe5b602002015181526020018660026004811061392057fe5b602002015181526020018660036004811061393757fe5b602002015181526020018460016002811061394e57fe5b602002015181525090508880602001905161012081101561396e57600080fd5b8101908091908260800191908260400191908260400180519060200190929190505050839350829250819150809550819650829750839850505050506139b2613dc0565b604051806101200160405280856000600281106139cb57fe5b60200201518152602001866000600281106139e257fe5b602002015173ffffffffffffffffffffffffffffffffffffffff16815260200186600160028110613a0f57fe5b602002015173ffffffffffffffffffffffffffffffffffffffff1681526020018460ff16815260200187600060048110613a4557fe5b6020020151815260200187600160048110613a5c57fe5b6020020151815260200187600260048110613a7357fe5b6020020151815260200187600360048110613a8a57fe5b6020020151815260200185600160028110613aa157fe5b602002015181525090508881610100015114613abc57600080fd5b888261010001511415613ace57600080fd5b600182606001510160ff16816060015160ff1614613aeb57600080fd5b8060000151826000015114613aff57600080fd5b806020015173ffffffffffffffffffffffffffffffffffffffff16826020015173ffffffffffffffffffffffffffffffffffffffff1614613b3f57600080fd5b806040015173ffffffffffffffffffffffffffffffffffffffff16826040015173ffffffffffffffffffffffffffffffffffffffff1614613b7f57600080fd5b6000600460008b81526020019081526020016000206002015411613ba257600080fd5b600460008a815260200190815260200160002060020154613bd4826080015184608001516136e190919063ffffffff16565b14613bde57600080fd5b8160200151826040015197509750505050505050935093915050565b6000838383604051602001808481526020018373ffffffffffffffffffffffffffffffffffffffff1673ffffffffffffffffffffffffffffffffffffffff1660601b81526014018273ffffffffffffffffffffffffffffffffffffffff1673ffffffffffffffffffffffffffffffffffffffff1660601b815260140193505050506040516020818303038152906040528051906020012090509392505050565b6000838311158290613d47576040517f08c379a00000000000000000000000000000000000000000000000000000000081526004018080602001828103825283818151815260200191508051906020019080838360005b83811015613d0c578082015181840152602081019050613cf1565b50505050905090810190601f168015613d395780820380516001836020036101000a031916815260200191505b509250505060405180910390fd5b5060008385039050809150509392505050565b6040518060800160405280600490602082028038833980820191505090505090565b6040518060400160405280600290602082028038833980820191505090505090565b6040518060400160405280600290602082028038833980820191505090505090565b60405180610120016040528060008019168152602001600073ffffffffffffffffffffffffffffffffffffffff168152602001600073ffffffffffffffffffffffffffffffffffffffff168152602001600060ff16815260200160008152602001600081526020016000815260200160008152602001600080191681525090565b828054600181600116156101000203166002900490600052602060002090601f016020900481019282601f10613e8257805160ff1916838001178555613eb0565b82800160010185558215613eb0579182015b82811115613eaf578251825591602001919060010190613e94565b5b509050613ebd9190613f6d565b5090565b828054828255906000526020600020908101928215613f3a579160200282015b82811115613f395782518260006101000a81548173ffffffffffffffffffffffffffffffffffffffff021916908373ffffffffffffffffffffffffffffffffffffffff16021790555091602001919060010190613ee1565b5b509050613f479190613f92565b5090565b6040518060400160405280600290602082028038833980820191505090505090565b613f8f91905b80821115613f8b576000816000905550600101613f73565b5090565b90565b613fd291905b80821115613fce57600081816101000a81549073ffffffffffffffffffffffffffffffffffffffff021916905550600101613f98565b5090565b9056fea26469706673582212204e6c830fc454530372b0e263d8a258ffcff1e537268a47119fb330d4e7f25e0964736f6c63430006020033",
  "source": "pragma solidity ^0.6.0;\nimport \"./CashlessLib.sol\";\nimport \"./../node_modules/@openzeppelin/contracts/token/ERC20/IERC20.sol\";\nimport \"./../node_modules/@openzeppelin/contracts/math/SafeMath.sol\";\n\ncontract Cashless {\n    using SafeMath for uint256;\n\n    // Precomputed hash for EIP712 domain separator\n    bytes32 constant EIP712HASH = 0x0eff6c88c44fbde2113ba7421deef795c18fc5a553a55b2ba4d237269e1c2662;\n    \n    // Domain separator completed on contract construction\n    bytes32 public DOMAIN_SEPARATOR;\n    \n    // Claim\n    struct Claim {\n        bytes32 claimName;\n        address sender;\n        address receiver;\n        uint8 nonce;\n        uint256 amount;\n        uint256 disputeDuration;\n        uint256 vestTimestamp;\n        uint256 voidTimestamp;\n        bytes32 loopID;\n    }\n    \n    // Settlement\n    struct Settlement {\n        uint256 amountPaid;\n        uint256 amountDefaulted;\n        bool settled;\n    }\n    \n    // LoopProposal\n    struct LoopProposal {\n        bytes32 proposalName;\n        address[] loop;\n        uint256 minFlow;\n        address[] committed;\n    }\n    \n    // Reserves\n    struct Reserves {\n        uint256 balance;\n        bytes32[] claimIDs;\n        mapping (bytes32 => bytes[]) claims;\n        mapping (bytes32 => uint256) proposalTimestamp;\n        mapping (bytes32 => Settlement) settlements;\n    }\n    \n    uint256 public minVestDuration = 604800;\n    address public tokenAddress;\n    mapping (address => Reserves) public reserves;\n    mapping (bytes32 => LoopProposal) public loops;\n\n    // Constructor function\n    constructor (bytes32 salt, address _tokenAddress) public {\n        DOMAIN_SEPARATOR = keccak256(abi.encodePacked(EIP712HASH, this, salt));\n        tokenAddress = _tokenAddress;\n    }\n    \n    function fundReserves(address accountOwner, uint256 amount) public {\n        reserves[accountOwner].balance = reserves[accountOwner].balance.add(amount);\n        require(IERC20(tokenAddress).transferFrom(msg.sender, address(this), amount));\n    }\n    \n    function withdrawReserves(uint256 amount, address targetReceiver) public {\n        require(amount>0);\n        require(reserves[msg.sender].balance >= amount);\n        reserves[msg.sender].balance = reserves[msg.sender].balance.sub(amount);\n        require(IERC20(tokenAddress).transfer(targetReceiver, amount));\n    }\n    \n    function proposeSettlement(bytes memory claimData, uint8[2] memory sigsV, bytes32[2] memory sigsR, bytes32[2] memory sigsS) public {\n        (address sender, bytes32 id, uint256 disputeDuration) = verifySettlement(claimData, sigsV, sigsR, sigsS, false); \n        reserves[sender].claimIDs.push(id);\n        reserves[sender].claims[id].push(claimData);\n        reserves[sender].proposalTimestamp[id] = now;\n        // if no dispute period settle immediately\n        if (disputeDuration == 0) {\n            closeSettlement(sender, id);\n        }\n    }\n\n    function disputeSettlement(bytes memory claimData, uint8[2] memory sigsV, bytes32[2] memory sigsR, bytes32[2] memory sigsS) public {\n        (address sender, bytes32 id, uint256 disputeDuration) = verifySettlement(claimData, sigsV, sigsR, sigsS, true); \n        // minimum required duration between vest and void time\n        reserves[sender].claims[id].push(claimData);\n        reserves[sender].proposalTimestamp[id] = now;\n        if (disputeDuration == 0) {\n            closeSettlement(sender, id);\n        }\n    }\n    \n    function redeemClaim(address accountOwner, bytes32 claimID) public {\n        require(reserves[accountOwner].settlements[claimID].settled == false);\n        require(reserves[accountOwner].proposalTimestamp[claimID] > 0);\n        require(reserves[accountOwner].claims[claimID].length > 0);\n        uint256 index = reserves[accountOwner].claims[claimID].length - 1;\n        (uint256[4] memory values, address[2] memory addrs, bytes32[2] memory ids, uint8 nonce) = abi.decode(reserves[accountOwner].claims[claimID][index], (uint256[4], address[2], bytes32[2], uint8));\n        Claim memory claim = Claim(ids[0], address(addrs[0]), address(addrs[1]), nonce, values[0], values[1], values[2], values[3], ids[1]);\n        require(reserves[accountOwner].proposalTimestamp[claimID].add(claim.disputeDuration) < now);\n        require(claim.amount > 0);\n        closeSettlement(accountOwner, claimID);\n    }\n    \n    function proposeLoop(bytes32 proposalName, address[] memory loop, uint256 minFlow) public {\n        require(loop.length >= 2);\n        bytes32 id = CashlessLib.getLoopID(proposalName, loop);\n        bytes32 nil;\n        require(loops[id].proposalName == nil);\n        loops[id].proposalName = proposalName;\n        loops[id].loop = loop;\n        loops[id].minFlow = minFlow;\n    }\n    \n    function commitLoopClaim(bytes32 loopID, bytes memory encodedPriorClaim, bytes memory encodedClaim) public {\n        (address sender, address receiver) = verifyLoopClaim(loopID, encodedPriorClaim, encodedClaim);\n        bool found = false;\n        for (uint256 i=0; i<loops[loopID].loop.length; i++) {\n            if (loops[loopID].loop[i] == sender) {\n                if (i==loops[loopID].loop.length-1) {\n                    require(loops[loopID].loop[0]==receiver);\n                } else {\n                    require(loops[loopID].loop[i+1]==receiver);\n                }\n                found = true;\n                break;\n            }\n        }\n        require(found==true);\n        for (uint256 j=0; j<loops[loopID].committed.length; j++) {\n            require(loops[loopID].committed[j]!=sender);\n        }\n        loops[loopID].committed.push(sender);\n    }\n    \n    // Internal (Protected) functions\n    function verifySettlement(bytes memory claimData, uint8[2] memory sigsV, bytes32[2] memory sigsR, bytes32[2] memory sigsS, bool isDispute) internal view returns (address, bytes32, uint256) {\n        (uint256[4] memory values, address[2] memory addrs, bytes32[2] memory ids, uint8 nonce) = abi.decode(claimData, (uint256[4], address[2], bytes32[2], uint8));\n        Claim memory claim = Claim(ids[0], address(addrs[0]), address(addrs[1]), nonce, values[0], values[1], values[2], values[3], ids[1]);\n        bytes32 id;\n        if (claim.loopID != id) {\n            require(loops[claim.loopID].committed.length > 0);\n            require(loops[claim.loopID].committed.length == loops[claim.loopID].loop.length);\n        }\n        require(claim.nonce > 0);\n        // minimum required duration between vest and void time\n        require(claim.voidTimestamp.sub(claim.vestTimestamp) >= minVestDuration);\n        require(now > claim.vestTimestamp);\n        id = CashlessLib.getClaimID(claim.claimName, claim.sender, claim.receiver);\n        if (isDispute) {\n            require(reserves[claim.sender].claims[id].length > 0);\n            uint256 lastIndex = reserves[claim.sender].claims[id].length - 1;\n            (values, addrs, ids, nonce) = abi.decode(reserves[claim.sender].claims[id][lastIndex], (uint256[4], address[2], bytes32[2], uint8));\n            Claim memory priorClaim = Claim(ids[0], address(addrs[0]), address(addrs[1]), nonce, values[0], values[1], values[2], values[3], ids[1]);\n            require(reserves[claim.sender].proposalTimestamp[id].add(priorClaim.disputeDuration) > now);\n            require(claim.nonce > priorClaim.nonce);\n        } else {\n            for (uint256 i=0; i<reserves[claim.sender].claimIDs.length; i++) {\n                require(reserves[claim.sender].claimIDs[i] != id);\n            }\n            require(now < claim.voidTimestamp);\n            require(claim.amount > 0); \n        }\n        require(verifyClaimSig(claimData, sigsV[0], sigsR[0], sigsS[0], true));\n        require(verifyClaimSig(claimData, sigsV[1], sigsR[1], sigsS[1], false));\n        require(reserves[claim.sender].settlements[id].settled == false);\n        return (claim.sender, id, claim.disputeDuration);\n    }\n    \n    function closeSettlement(address accountOwner, bytes32 claimID) internal {\n        require(reserves[accountOwner].claims[claimID].length > 0);\n        uint256 lastIndex = reserves[accountOwner].claims[claimID].length - 1;\n        (uint256[4] memory values, address[2] memory addrs, bytes32[2] memory ids, uint8 nonce) = abi.decode(reserves[accountOwner].claims[claimID][lastIndex], (uint256[4], address[2], bytes32[2], uint8));\n        Claim memory claim = Claim(ids[0], address(addrs[0]), address(addrs[1]), nonce, values[0], values[1], values[2], values[3], ids[1]);\n        if (reserves[claim.sender].balance >= claim.amount) {\n            reserves[claim.sender].settlements[claimID] = Settlement(claim.amount, 0, true);\n            reserves[claim.sender].balance = reserves[claim.sender].balance.sub(claim.amount);\n            reserves[claim.receiver].balance = reserves[claim.receiver].balance.add(claim.amount);\n        } else {\n            if (reserves[claim.sender].balance > 0) {\n                uint256 defaultAmount = claim.amount.sub(reserves[claim.sender].balance);\n                reserves[claim.sender].settlements[claimID] = Settlement(reserves[claim.sender].balance, defaultAmount, true);\n                reserves[claim.receiver].balance = reserves[claim.receiver].balance.add(reserves[claim.sender].balance);\n                reserves[claim.sender].balance = 0;\n            } else {\n                reserves[claim.sender].settlements[claimID] = Settlement(0, claim.amount, true);\n            }\n        }\n    }\n    \n    function verifyLoopClaim(bytes32 loopID, bytes memory encodedPriorClaim, bytes memory encodedClaim) internal view returns (address, address) {\n        (bytes memory claimData1, uint8[2] memory v1, bytes32[2] memory r1, bytes32[2] memory s1) = abi.decode(encodedPriorClaim, (bytes, uint8[2], bytes32[2], bytes32[2]));\n        (bytes memory claimData2, uint8[2] memory v2, bytes32[2] memory r2, bytes32[2] memory s2) = abi.decode(encodedClaim, (bytes, uint8[2], bytes32[2], bytes32[2]));\n        require(verifyClaimSig(claimData1, v1[0], r1[0], s1[0], true));\n        require(verifyClaimSig(claimData1, v1[1], r1[1], s1[1], false));\n        require(verifyClaimSig(claimData2, v2[0], r2[0], s2[0], true));\n        require(verifyClaimSig(claimData2, v2[1], r2[1], s2[1], false));\n        return validateLoopClaim(claimData1, claimData2, loopID);\n    }\n    \n    function validateLoopClaim(bytes memory priorClaimData, bytes memory claimData, bytes32 loopID) internal  view  returns (address, address) {\n        (uint256[4] memory values, address[2] memory addrs, bytes32[2] memory ids, uint8 nonce) = abi.decode(priorClaimData, (uint256[4], address[2], bytes32[2], uint8));\n        Claim memory oldClaim = Claim(ids[0], address(addrs[0]), address(addrs[1]), nonce, values[0], values[1], values[2], values[3], ids[1]);\n        (values, addrs, ids, nonce) = abi.decode(claimData, (uint256[4], address[2], bytes32[2], uint8));\n        Claim memory newClaim = Claim(ids[0], address(addrs[0]), address(addrs[1]), nonce, values[0], values[1], values[2], values[3], ids[1]);\n        require(newClaim.loopID==loopID);\n        require(oldClaim.loopID!=loopID);\n        require(newClaim.nonce==oldClaim.nonce+1);\n        require(oldClaim.claimName==newClaim.claimName);\n        require(oldClaim.sender==newClaim.sender);\n        require(oldClaim.receiver==newClaim.receiver);\n        require(loops[loopID].minFlow > 0);\n        require(oldClaim.amount.sub(newClaim.amount) == loops[loopID].minFlow);\n        return (oldClaim.sender, oldClaim.receiver);\n    }\n    \n    // Public View/Pure functions\n    function verifyClaimSig(bytes memory claimData, uint8 v, bytes32 r, bytes32 s, bool isOwner) public view returns (bool) {\n        (uint256[4] memory values, address[2] memory addrs, bytes32[2] memory ids, uint8 nonce) = abi.decode(claimData, (uint256[4], address[2], bytes32[2], uint8));\n        Claim memory claim = Claim(ids[0], address(addrs[0]), address(addrs[1]), nonce, values[0], values[1], values[2], values[3], ids[1]);\n        if (0 >= claim.nonce) {\n            return false;\n        }\n        if (claim.voidTimestamp.sub(claim.vestTimestamp) < minVestDuration) {\n            return false;\n        }\n        bytes32 hash = CashlessLib.hashClaimData(claimData, DOMAIN_SEPARATOR);\n        address signer;\n        if (isOwner) {\n            signer = claim.sender;\n        } else {\n            signer = claim.receiver;\n        }\n        if (ecrecover(hash, v, r, s) != signer) {\n            return false;\n        }\n        return true;\n    }\n\n    function getClaimIDs(address accountOwner) public view returns (bytes32[] memory) {\n        return reserves[accountOwner].claimIDs;\n    }\n    \n    function getReservesClaim(address accountOwner, bytes32 claimID, uint256 index) public view returns (bytes memory) {\n        return reserves[accountOwner].claims[claimID][index];\n    }\n\n    function getReservesSettlement(address accountOwner, bytes32 claimID) public view returns (uint256, uint256, bool) {\n        return (reserves[accountOwner].settlements[claimID].amountPaid, reserves[accountOwner].settlements[claimID].amountDefaulted, reserves[accountOwner].settlements[claimID].settled);\n    }\n    \n    function getLoopStatus(bytes32 loopID) public view returns (address[] memory, address[] memory) {\n        return (loops[loopID].loop, loops[loopID].committed);\n    }\n\n    // Fallback Funtion\n    fallback () external {}\n}",
  "sourcePath": "/Users/earth/Desktop/WORK/cashless/contracts/Cashless.sol",
  "compiler": {
    "name": "solc",
    "version": "0.6.2+commit.bacdbe57.Emscripten.clang"
  },
  "schemaVersion": "3.2.0",
  "updatedAt": "2020-09-21T11:14:49.020Z",
  "devdoc": {
    "methods": {}
  },
  "userdoc": {
    "methods": {}
  }
}